:020000040000FA
:0600000082EF18F012006F
:020006001200E6
:0600080004EF16F01200E7
:02000E000000F0
:020010000000EE
:060018008FEF15F012004D
:02001E000500DB
:100020000D32000050010000280000000E0000000A
:100030009801000004000000AC310000000F000037
:10004000610000005C310000000100005000000071
:0C0050003C31000078010000200000009E
:04005C00D9CFE6FF13
:10006000E1CFD9FF040EE126DE6ADD6ADECF00F0C3
:10007000DDCF01F0026A036A01AE02D002680368B4
:10008000D950FB0FE96EFF0EDA20EA6EEE50005CED
:10009000EE500158EE500258EE5003581DE2020E89
:1000A000DB6A030EDB6A020EDBCF00F0030EDBCF50
:1000B00001F0D890015004E6050E005C000E0158D6
:1000C00006E2020EDB2A030EEEE3DB2AECD7DF2A80
:1000D000010ECCE3DB2ACAD7040EE15C02E2E16A3E
:1000E000E552E16EE552E7CFD9FF1200D9CFE6FF26
:1000F000E1CFD9FF040EE126DE6ADD6ADECF00F033
:10010000DDCF01F0026A036A01AE02D00268036823
:10011000D950FB0FE96EFF0EDA20EA6EEE50005C5C
:10012000EE500158EE500258EE5003581DE2020EF8
:10013000DB6A030EDB6A020EDBCF00F0030EDBCFBF
:1001400001F0D890015004E6EE0E005C000E01585C
:1001500006E2020EDB2A030EEEE3DB2AECD7DF2AEF
:10016000010ECCE3DB2ACAD7040EE15C02E2E16AAD
:10017000E552E16EE552E7CFD9FF1200D9CFE6FF95
:10018000E1CFD9FF0F0E8116FE0EDB50F00B81126E
:100190008186010EE66EE66AE66AE66AA7DFE55248
:1001A000E552E552E5528196010EE66EE66AE66A90
:1001B000E66A9CDFE552E552E552E5520F0E8116E4
:1001C000FE0EDB38F00B81128186010EE66EE66AC8
:1001D000E66AE66A8BDFE552E552E552E552819622
:1001E000010EE66EE66AE66AE66A80DFE552E552EF
:1001F000E552E552E552E7CFD9FF1200D9CFE6FF2D
:10020000E1CFD9FFE652190EE66EE66AE66AE66AC3
:100210006DDFE552E552E552E5520F0E8116F80EFC
:1002200081160F0E8116300E81128186010EE66E48
:10023000E66AE66AE66A5ADFE552E552E552E552B9
:100240008196010EE66EE66AE66AE66A4FDFE552DF
:10025000E552E552E5520F0E8116300E811281866D
:10026000010EE66EE66AE66AE66A40DFE552E552AE
:10027000E552E5528196010EE66EE66AE66AE66AA6
:1002800035DFE552E552E552E5520F0E8116300E8C
:1002900081128186010EE66EE66AE66AE66A26DF6C
:1002A000E552E552E552E5528196010EE66EE66AA8
:1002B000E66AE66A1BDFE552E552E552E5520F0EAB
:1002C0008116818A8186010EE66EE66AE66AE66A32
:1002D0000DDFE552E552E552E5528196010EE66EDC
:1002E000E66AE66AE66A02DFE552E552E552E55261
:1002F000280EE66E43DFE5520C0EE66E3FDFE55258
:10030000E552E552E7CFD9FF1200D9CFE6FFE1CFA2
:10031000D9FF020EE126DF6A010EDB6A81940F0E1F
:10032000E66EE66AE66AE66A99DEE552E552E5526D
:10033000E5520F0E81128186E66EE66AE66AE66A8B
:100340008DDEE552E552E552E5520F0E8114E76E5F
:10035000010EE7CFDBFF81960F0EE66EE66AE66AD6
:10036000E66A7CDEE552E552E552E5520F0E811257
:100370008186E66EE66AE66AE66A70DEE552E55276
:10038000E552E5520F0E8114DF6E010EDB50DF12D5
:100390008196010EE66EE66AE66AE66A5FDEE5527F
:1003A000E552E552E552DF50006E020EE15C02E2DA
:1003B000E16AE552E16E0050E552E7CFD9FF120045
:1003C000D9CFE6FFE1CFD9FFE652DF6A9EDFDF6ECD
:1003D000DFBEFCD7DF50E552E552E7CFD9FF120070
:1003E000D9CFE6FFE1CFD9FF0F0E8116FE0EDB500D
:1003F00081128186050EE66EE66AE66AE66A2EDE00
:10040000E552E552E552E5528196050EE66EE66A42
:10041000E66AE66A23DEE552E552E552E552E55228
:10042000E7CFD9FF1200D9CFE6FFE1CFD9FF819402
:10043000050EE66EE66AE66AE66A10DEE552E55209
:10044000E552E552FE0EDBCFE6FFCADFE552FE0EB7
:10045000DB38F00BE66EC4DFE552E552E7CFD9FF9B
:100460001200D9CFE6FFE1CFD9FF8184050EE66EF9
:10047000E66AE66AE66AF2DDE552E552E552E552E1
:10048000FE0EDBCFE6FFACDFE552FE0EDB38F00BF5
:10049000E66EA6DFE5528194E552E7CFD9FF120060
:1004A000D9CFE6FFE1CFD9FFFE0EDBCFE6FFD9DFE4
:1004B000E552E552E7CFD9FF1200D9CFE6FFE1CFF1
:1004C000D9FFFE0EDBCFE6FFCCDFE552E552E7CFEA
:1004D000D9FF1200D9CFE6FFE1CFD9FFFD0EDBCF68
:1004E000F6FFFE0EDBCFF7FF0800F5500FE0FD0E24
:1004F000DBCFF6FFDB2AFE0EDBCFF7FF01E3DB2AC3
:100500000800F550E66ED9DFE552E8D7E552E7CFAF
:10051000D9FF1200D9CFE6FFE1CFD9FFE652FD0E99
:10052000DB500F0B006EFE0EDB50010B400DF35045
:100530000024DF6E7F0EDF14800FDF6EDFCFE6FF5B
:1005400072DFE552E552E552E7CFD9FF1200010E06
:10055000E66E69DFE552E66AE66ADCDFE552E552FF
:100560001200D9CFE6FFE1CFD9FF050EE126010E3B
:10057000F36EDB6E020EDB6A030EDB6A040EDB6ACF
:10058000DF6ADFCF00F0016A00BE0168FB0EDBCF3F
:1005900002F0FC0EDBCF03F001500318E8AE02D0EE
:1005A000033404D00250005C035001582DE2FD0ECC
:1005B000DBCF00F0FE0EDBCF01F0026A036A01AE72
:1005C00002D002680368D950010FE96EDACFEAFF62
:1005D00000C027F001C028F002C029F003C02AF0B3
:1005E000EECF22F0EECF23F0EECF24F0EFCF25F0C8
:1005F000E3EC17F021C0EDFF20C0EDFF1FC0EDFFC1
:100600001EC0EFFFDF2ABDD7010EDBCF00F0020EC8
:10061000DBCF01F0030EDBCF02F0040EDBCF03F0E3
:1006200000C022F001C023F002C024F003C025F076
:10063000050EE15C02E2E16AE552E16EE552E7CFC8
:10064000D9FF1200D9CFE6FFE1CFD9FF020EE12694
:10065000DF6AFB0EDBCF00F0FC0EDBCF01F0FD0EFE
:10066000DBCF02F0FE0EDBCF03F0005001100210D2
:10067000031005E1300EE66E20DFE552F4D0D950CC
:10068000FB0FE96EFF0EDA20EA6ED890030EEB50F6
:10069000000A08E6000EEE5C000EEE58000EEE5862
:1006A000000EEE5815E22D0EE66E07DFE552D9502A
:1006B000FB0FE96EFF0EDA20EA6E000EEE6CEF1E05
:1006C000EE22EF1EEE22EF1EEF22ED52ED52ED5222
:1006D000DE52070EDD6E010EDBCF00F0000EE76E7E
:1006E0000018E8AE02D0003403D0E750D8800054A0
:1006F00001E3B9D0010EDB04046E056A04BE05688F
:1007000004C0E6FF05C0E6FF0A0EE66EE66A29DFD2
:10071000E552E552E552E55222C000F023C001F057
:1007200024C002F025C003F022C027F023C028F027
:1007300024C029F025C02AF0FB0EDBCF22F0FC0EEE
:10074000DBCF23F0FD0EDBCF24F0FE0EDBCF25F058
:100750001BEC18F0225023102410251041E0010E4C
:10076000DF6EDB04086E096A08BE096808C0E6FF90
:1007700009C0E6FF0A0EE66EE66AF3DEE552E552D0
:10078000E552E55222C004F023C005F024C006F073
:1007900025C007F022C027F023C028F024C029F08C
:1007A00025C02AF0FB0EDBCF22F0FC0EDBCF23F0BE
:1007B000FD0EDBCF24F0FE0EDBCF25F01BEC18F096
:1007C00022C000F023C001F024C002F025C003F0D5
:1007D000300E0026000E012202220322005003D018
:1007E000DF5004E0300EE66E68DEE552010EDB04F9
:1007F000046E056A04BE056804C0E6FF05C0E6FF96
:100800000A0EE66EE66AADDEE552E552E552E552C5
:1008100022C000F023C001F024C002F025C003F084
:10082000D950FB0FE96EFF0EDA20EA6E22C027F0E6
:1008300023C028F024C029F025C02AF0EECF22F0F2
:10084000EECF23F0EECF24F0EFCF25F01BEC18F025
:1008500021C0EDFF20C0EDFF1FC0EDFF1EC0EFFF68
:10086000010EDB0638D7020EE15C02E2E16AE552D6
:10087000E16EE552E7CFD9FF1200D9CFE6FFE1CF15
:10088000D9FFFD0EDBCFE6FFFE0EDBCFE6FF42DE3B
:10089000E552E552D950F90FE96EFF0EDA20EA6E03
:1008A000EECFE6FFEECFE6FFEECFE6FFEFCFE6FFBF
:1008B000C9DEE552E552E552E552E552E7CFD9FFF0
:1008C0001200D9CFE6FFE1CFD9FFFD0EDBCFE6FF67
:1008D000FE0EDBCFE6FF1EDEE552E552FB0EDBCF60
:1008E000E6FFFC0EDBCFE6FFF5DDE552E552E55213
:1008F000E7CFD9FF1200D9CFE6FFE1CFD9FF7BCFF9
:1009000000F07CCF01F0040ED89000360136E806E6
:10091000FBE1410E00260F0E012200500F017D2544
:10092000E96E01507E21EA6EFE0EDBCFEFFF7D2BDC
:10093000000E7E23E552E7CFD9FF1200D9CFE6FFA4
:10094000E1CFD9FFE652DF6ADFCF00F0100EE76E8D
:100950000018E8AE02D0E73402D0E750005C18E29D
:10096000DFCFE9FFEA6AE9BEEA68410EE9260F0E29
:10097000EA22200EEF6EDFCFE9FFEA6AE9BEEA68FD
:10098000510EE9260F0EEA22200EEF6EDF2ADCD789
:10099000E552E552E7CFD9FF1200D9CFE6FFE1CF0C
:1009A000D9FFE6520F014051030A52E0010A36E036
:1009B000030A1AE0010A67E1E66AE66AABDDE5527E
:1009C000E552DF6A080EDF5C0CE2DF50EA6A410F95
:1009D000E96E0F0EEA22EF50E66E6FDDE552DF2A78
:1009E000F1D70F01010E32D0080EE66EE66A92DDF5
:1009F000E552E552DF6A080EDF5C0DE2080EDF24E7
:100A0000EA6A410FE96E0F0EEA22EF50E66E55DDFD
:100A1000E552DF2AF0D70F01020E18D0E66A010E68
:100A2000E66E78DDE552E552DF6A080EDF5C0CE227
:100A3000DF50EA6A510FE96E0F0EEA22EF50E66EC0
:100A40003CDDE552DF2AF1D70F01030E406F1CD0C9
:100A5000080EE66E010EE66E5DDDE552E552DF6AD8
:100A6000080EDF5C0DE2080EDF24EA6A510FE96E22
:100A70000F0EEA22EF50E66E20DDE552DF2AF0D7B6
:100A80000F01406B01D0406BE552E552E7CFD9FF33
:100A90001200D9CFE6FFE1CFD9FFE6520F01405156
:100AA000010A1BE0010A32E1E66AE66A33DDE5523B
:100AB000E552DF6A100EDF5C0CE2DF50EA6A410F9C
:100AC000E96E0F0EEA22EF50E66EF7DCE552DF2A00
:100AD000F1D70F01010E406F1AD0E66A010EE66EE3
:100AE00019DDE552E552DF6A100EDF5C0CE2DF50E3
:100AF000EA6A510FE96E0F0EEA22EF50E66EDDDC76
:100B0000E552DF2AF1D70F01406B01D0406BE5526F
:100B1000E552E7CFD9FF1200D9CFE6FFE1CFD9FFE9
:100B2000E652E66AE66AF6DCE552E552DF6A100E46
:100B3000DF5C0CE2DF50EA6A410FE96E0F0EEA2239
:100B4000EF50E66EBADCE552DF2AF1D7E66A010E15
:100B5000E66EE0DCE552E552DF6A100EDF5C0CE287
:100B6000DF50EA6A510FE96E0F0EEA22EF50E66E8F
:100B7000A4DCE552DF2AF1D7E552E552E7CFD9FFF1
:100B80001200D9CFE6FFE1CFD9FFFE0EDB50010BFB
:100B90000F017B6F7C6BFD0EDB500F0B7D6F7E6B4F
:100BA0007BCF00F07CCF01F0040ED89000360136E8
:100BB000E806FBE1410E00260F0E012200500F0156
:100BC0007D25E96E01507E21EA6EFC0EDBCFEFFF42
:100BD000E552E7CFD9FF1200D9CFE6FFE1CFD9FF29
:100BE000020EE126DF6AFE0EDB50010B0F017B6F68
:100BF0007C6BFD0EDB500F0B7D6F7E6BF90EDBCF38
:100C000000F0FA0EDBCF01F0FB0EDBCF02F0FC0EA2
:100C1000DBCF03F0005001100210031005E1300E8D
:100C2000E66E69DEE552F5D0D950F90FE96EFF0E98
:100C3000DA20EA6ED890030EEB50000A08E6000EA8
:100C4000EE5C000EEE58000EEE58000EEE5815E267
:100C50002D0EE66E50DEE552D950F90FE96EFF0E0B
:100C6000DA20EA6E000EEE6CEF1EEE22EF1EEE2290
:100C7000EF1EEF22ED52ED52ED52DE52070EDD6E09
:100C8000010EDBCF00F0000EE76E0018E8AE02D0D8
:100C9000003403D0E750D880005401E3BAD0010EED
:100CA000DB04046E056A04BE056804C0E6FF05C0E7
:100CB000E6FF0A0EE66EE66A54DCE552E552E552BE
:100CC000E55222C000F023C001F024C002F025C08C
:100CD00003F022C027F023C028F024C029F025C04B
:100CE0002AF0F90EDBCF22F0FA0EDBCF23F0FB0E59
:100CF000DBCF24F0FC0EDBCF25F01BEC18F02250EC
:100D000023102410251041E0010EDF6EDB04086E75
:100D1000096A08BE096808C0E6FF09C0E6FF0A0EB6
:100D2000E66EE66A1EDCE552E552E552E55222C067
:100D300004F023C005F024C006F025C007F022C04F
:100D400027F023C028F024C029F025C02AF0F90E8E
:100D5000DBCF22F0FA0EDBCF23F0FB0EDBCF24F04B
:100D6000FC0EDBCF25F01BEC18F022C000F023C0F6
:100D700001F024C002F025C003F0300E0026000E62
:100D8000012202220322005003D0DF5004E0300E83
:100D9000E66EB1DDE552010EDB04046E056A04BEA9
:100DA000056804C0E6FF05C0E6FF0A0EE66EE66AC7
:100DB000B1EC02F0E552E552E552E55222C000F0F6
:100DC00023C001F024C002F025C003F0D950F90F70
:100DD000E96EFF0EDA20EA6E22C027F023C028F069
:100DE00024C029F025C02AF0EECF22F0EECF23F068
:100DF000EECF24F0EFCF25F01BEC18F021C0EDFF73
:100E000020C0EDFF1FC0EDFF1EC0EFFF010EDB068F
:100E100037D7020EE15C02E2E16AE552E16EE5528B
:100E2000E7CFD9FF1200D9CFE6FFE1CFD9FFFE0E01
:100E3000DB50010B0F017B6F7C6BFD0EDB500F0B4A
:100E40007D6F7E6BFB0EDBCFF6FFFC0EDBCFF7FF7B
:100E50000800F5500FE0FB0EDBCFF6FFDB2AFC0E9F
:100E6000DBCFF7FF01E3DB2A0800F550E66E43DD38
:100E7000E552E8D7E552E7CFD9FF1200D9CFE6FF18
:100E8000E1CFD9FF050EE126D9CFE9FFDACFEAFF9E
:100E9000F90EDBCFEEFFFA0EDBCFEEFFFB0EDBCF62
:100EA000EEFFFC0EDBCFEEFFD9CFE9FFDACFEAFF92
:100EB000EECF00F0EECF01F0EECF02F0EFCF03F077
:100EC000E80E276E030E286E296A2A6A00C022F0F7
:100ED00001C023F002C024F003C025F0DCEC16F0C2
:100EE00022C000F023C001F024C002F025C003F0AE
:100EF00022C0E6FF23C0E6FF24C0E6FF25C0E6FFD0
:100F0000FD0EDBCFE6FFFE0EDBCFE6FF65DE046EF7
:100F1000060EE15E0450D9CFE9FFDACFEAFFEECF4B
:100F200022F0EECF23F0EECF24F0EFCF25F0E80E45
:100F3000276E030E286E296A2A6ADCEC16F01EC0A2
:100F4000DEFF1FC0DEFF20C0DEFF21C0DDFFDD525F
:100F5000DD52D9CFE9FFDACFEAFFEECF00F0EECFD6
:100F600001F0EECF02F0EFCF03F0640E276E286A97
:100F7000296A2A6A00C022F001C023F002C024F0CE
:100F800003C025F0DCEC16F022C000F023C001F015
:100F900024C002F025C003F022C0E6FF23C0E6FF14
:100FA00024C0E6FF25C0E6FFFD0EDB28E66EFE0E40
:100FB000DBCFE6FF11DE046E060EE15E0450D9CFF2
:100FC000E9FFDACFEAFFEECF22F0EECF23F0EECF4B
:100FD00024F0EFCF25F0640E276E286A296A2A6A6A
:100FE000DCEC16F01EC0DEFF1FC0DEFF20C0DEFFFF
:100FF00021C0DDFFDD52DD524A0EE66E2F0EE66E99
:10100000FD0EDB50020FE66EFE0EDBCFE6FF0BDFC0
:10101000E552E552E552E552D9CFE9FFDACFEAFFD2
:10102000EECF00F0EECF01F0EECF02F0EFCF03F005
:101030000A0E276E286A296A2A6A00C022F001C0B7
:1010400023F002C024F003C025F0DCEC16F022C02F
:1010500000F023C001F024C002F025C003F022C03C
:10106000E6FF23C0E6FF24C0E6FF25C0E6FFFD0E35
:10107000DB50030FE66EFE0EDBCFE6FFADDD046E48
:10108000060EE15E0450D9CFE9FFDACFEAFFEECFDA
:1010900022F0EECF23F0EECF24F0EFCF25F0E80ED4
:1010A000276E030E286E296A2A6ADCEC16F01EC031
:1010B000DEFF1FC0DEFF20C0DEFF21C0DDFFDD52EE
:1010C000DD52D9CFE9FFDACFEAFFEECF00F0EECF65
:1010D00001F0EECF02F0EFCF03F00A0E276E286A80
:1010E000296A2A6A00C022F001C023F002C024F05D
:1010F00003C025F0DCEC16F01EC000F01FC001F0AC
:1011000020C002F021C003F01EC0E6FF1FC0E6FFB2
:1011100020C0E6FF21C0E6FFFD0EDB50040FE66EA7
:10112000FE0EDBCFE6FF58DD046E060EE15E0450D6
:10113000050EE15C02E2E16AE552E16EE552E7CFBD
:04114000D9FF1200C1
:0C114400D9CFE6FFE1CFD9FF020EE12673
:10115000DE6ADD6A62D8A7EC02F09EEC04F0000EB5
:10116000E66EE66A9CD8E552E552E80EE66E030E9E
:10117000E66E0FD8E552E55201018351FDE0836B25
:10118000FDEC13F068D9DAEC0DF0F6D9CDEC04F0F3
:10119000F3D7D9CFE6FFE1CFD9FF040EE126DE6A0F
:1011A000DD6ADECF00F0DDCF01F0FD0EDBCF02F017
:1011B000FE0EDBCF03F001500318E8AE02D003347B
:1011C00004D00250005C035001581DE2020EDB6A9D
:1011D000030EDB6A020EDBCF00F0030EDBCF01F063
:1011E000D890015004E6EE0E005C000E015806E2B5
:1011F000020EDB2A030EEEE3DB2AECD7DF2A010E18
:10120000D0E3DB2ACED7040EE15C02E2E16AE552CC
:10121000E16EE552E7CFD9FF1200936A926AFEECC5
:1012200000F0956A836A87EC15F0E80EE66E030E0F
:10123000E66EAFDFE552E552570EE66E120EE66E31
:10124000B7EC10F0E552E552AE0EE66E240EE66EF7
:1012500059EC11F0E552E552660EE66EB70EE66EF9
:101260001AEC12F0E552E552020EE66EE66AF5EC73
:1012700012F0E552E5520A0EE66EE66A07EC13F04C
:10128000E552E552320EE66EE66A26EC13F0E552C0
:10129000E55249EC13F0E9EC0DF05FEF17F0D9CF10
:1012A000E6FFE1CFD9FFFE0EDBCF01F0800E011487
:1012B0001AE1FD0EDBCF02F0FE0EDBCF03F00334AC
:1012C00004E202500708000E03540DE3FD0EDBCFCD
:1012D000E9FFFE0EDBCFEAFF000EE926010EEA224F
:1012E000EF508310836EE552E7CFD9FF1200D9CFBC
:1012F000E6FFE1CFD9FFFE0EDBCF01F0800E011437
:101300001AE1FD0EDBCF02F0FE0EDBCF03F003345B
:1013100004E202500708000E03540DE3FD0EDBCF7C
:10132000E9FFFE0EDBCFEAFF000EE926010EEA22FE
:10133000EF1C8314836EE552E7CFD9FF1200D9CF9B
:10134000E6FFE1CFD9FFFD0EDBCFE9FFFE0EDBCFDD
:10135000EAFF080EE926010EEA22EF0415E1FD0E70
:10136000DBCFE6FFFE0EDBCFE6FFC1DFE552E55245
:10137000FD0EDBCFE9FFFE0EDBCFEAFF080EE9260C
:10138000010EEA22EF6A15D0FD0EDBCFE6FFFE0E5E
:10139000DBCFE6FF84DFE552E552FD0EDBCFE9FF50
:1013A000FE0EDBCFEAFF080EE926010EEA22010E4F
:1013B000EF6EE552E7CFD9FF1200D9CFE6FFE1CFBC
:1013C000D9FF020EE126DE6ADD6ADECF00F0DDCF56
:1013D00001F0013404E200500708000E015421E33B
:1013E000DECFE6FFDDCFE6FF5ADFE552E552F40E31
:1013F000E66E010EE66ECDDEE552E552DECFE6FF8B
:10140000DDCFE6FF74DFE552E552F40EE66E010E25
:10141000E66EBFDEE552E552DF2A010ED6E3DB2A97
:10142000D4D7020EE15C02E2E16AE552E16EE552D8
:10143000E7CFD9FF12000101010E521903E1535108
:1014400001E1010C000C0101010E501903E15151A1
:1014500001E1010C000CD9CFE6FFE1CFD9FF020E6C
:10146000E126E66A66EC17F0E552F3CF14F1F4CF0B
:1014700015F10101166B176B15AF02D016691769CC
:1014800019C1E9FFEA6AE9BEEA68D890E936EA36A6
:10149000920EE926000EEA2214C1EEFF15C1EDFFFF
:1014A0001929006E256E320E2A6E6FEC16F021C0DF
:1014B00019F121C018F101011A6B1B6B1C6B1D6B1C
:1014C000DE6ADD6ADECF00F0DDCF01F0D89001509A
:1014D00004E6320E005C000E01582DE218C1E9FF4F
:1014E000EA6AE9BEEA68D890E936EA36920EE92659
:1014F000000EEA22EECF00F0EFCF01F0026A036A9D
:101500001A0EE96E010EEA6EEE5000241A6FEE50CC
:1015100001201B6FEE5002201C6FEE5003201D6F48
:10152000185103E1310E186F01D01807DF2A010EA0
:10153000C9E3DB2AC7D7320E276E286A296A2A6ACE
:101540001AC122F01BC123F01CC124F01DC125F0DB
:101550001BEC18F022C01AF123C01BF124C01CF1AF
:1015600025C01DF1020EE15C02E2E16AE552E16E86
:10157000E552E7CFD9FF1200D9CFE6FFE1CFD9FF7F
:10158000040EE126010E00018025806F000E8121EE
:10159000816F280E296E2A6A80C024F081C025F050
:1015A0005CEC18F020C080F021C081F000012050D8
:1015B000211001E0F5D2020E1AC1DBFF030E1BC1A0
:1015C000DBFF1EC100F01FC101F0026A036A0101C6
:1015D0001E51345D086E35511F55096E0A6A0B6A3B
:1015E0001AC122F01BC123F01CC124F01DC125F03B
:1015F00008C027F0286E0AC029F00BC02AF0E3ECDF
:1016000017F01EC004F01FC005F020C006F021C076
:1016100007F02768030E286E296A2A6A1EC022F086
:101620001FC023F020C024F021C025F0DCEC16F010
:1016300022C004F023C005F024C006F025C007F046
:10164000225000262350012224500222255003223A
:1016500000C084F001C085F01AC122F01BC123F044
:101660001CC124F01DC125F0100E276E270E286E18
:10167000296A2A6AE3EC17F01EC022F01FC023F08B
:1016800020C024F021C025F02768030E286E296AA7
:101690002A6ADCEC16F022C086F023C087F01AC15B
:1016A00022F01BC123F01CC124F01DC125F0D00E77
:1016B000276E070E286E296A2A6AE3EC17F01EC00F
:1016C00022F01FC023F020C024F021C025F027689D
:1016D000030E286E296A2A6ADCEC16F022C088F014
:1016E00023C089F01AC100F01BC101F01CC102F037
:1016F0001DC103F0A00E276E0F0E286E296A2A6AFC
:101700001AC122F01BC123F01CC124F01DC125F019
:10171000E3EC17F01EC000F01FC001F020C002F083
:1017200021C003F02768030E286E296A2A6A1EC0AA
:1017300022F01FC023F020C024F021C025F0DCECF3
:1017400016F022C000F023C001F024C002F025C032
:1017500003F0E80E0026030E0122000E02220322EF
:1017600000C08AF001C08BF01AC100F01BC101F06B
:101770001CC102F01DC103F0400E276E1F0E286E23
:10178000296A2A6A1AC122F01BC123F01CC124F065
:101790001DC125F0E3EC17F01EC000F01FC001F0E2
:1017A00020C002F021C003F02768030E286E296ACA
:1017B0002A6A1EC022F01FC023F020C024F021C0DE
:1017C00025F0DCEC16F022C000F023C001F024C0AC
:1017D00002F025C003F0D00E0026070E0122000EF5
:1017E0000222032200C08CF001C08DF02CC104F055
:1017F0002DC105F0066A076A01012E51325D186E8F
:1018000033512F55196E1A6A1B6A2C51305D146EB4
:1018100031512D55156E166A176A2EC110F02FC161
:1018200011F0126A136A10501A5D0C6E11501B5998
:101830000D6E12501C590E6E13501D590F6E0CC0B8
:1018400022F00DC023F00EC024F0256E14C027F046
:1018500015C028F016C029F017C02AF0E3EC17F0E5
:101860001EC008F01FC009F020C00AF021C00BF014
:101870001EC022F01FC023F020C024F021C025F09C
:1018800018C027F019C028F01AC029F01BC02AF090
:10189000DCEC16F004502224006E05502320016E6B
:1018A00006502420026E07502520036E00C08EF0E3
:1018B00001C08FF01AC122F01BC123F01CC124F01B
:1018C0001DC125F0A00E276E8C0E286E296A2A6A8B
:1018D000E3EC17F01EC022F01FC023F020C024F05C
:1018E00021C025F02768030E286E296A2A6ADCECDD
:1018F00016F022C090F023C091F001014251000186
:10190000845D010143510001855905E3070EE66E30
:10191000E66AC5DC04D0070EE66EE66AE8DCE5524E
:10192000E552C10EE66E2F0EE66E0C0EE66EE66A0E
:1019300013EC07F0E552E552E552E552020EDBCF1B
:1019400000F0030EDBCF01F0026A036A01AE02D0A1
:101950000268036800C0E6FF01C0E6FF02C0E6FFC0
:1019600003C0E6FF0C0EE66E010EE66EECEC05F031
:10197000046E060EE15E0450BB0EE66E2F0EE66EA0
:10198000E66AE66A13EC07F0E552E552E552E552E5
:1019900086C000F087C001F0026A036A86C0E6FFD5
:1019A00087C0E6FF02C0E6FF03C0E6FF060EE66E54
:1019B000E66A3EEC07F0046E060EE15E0450B50EDA
:1019C000E66E2F0EE66EE66A010EE66E13EC07F089
:1019D000E552E552E552E55288C000F089C001F0B9
:1019E000026A036A88C0E6FF89C0E6FF02C0E6FF1C
:1019F00003C0E6FF060EE66E010EE66E3EEC07F053
:101A0000046E060EE15E04509C0EE66E2F0EE66E2E
:101A10006AEC0EF0E552E55284C000F085C001F09A
:101A2000026A036A84C0E6FF85C0E6FF02C0E6FFE3
:101A300003C0E6FF1CEC10F0E552E552E552E5521A
:101A4000930EE66E2F0EE66E6AEC0EF0E552E5524E
:101A500086C000F087C001F0026A036A86C0E6FF14
:101A600087C0E6FF02C0E6FF03C0E6FF1CEC10F0F3
:101A7000E552E552E552E552870EE66E2F0EE66E10
:101A80006AEC0EF0E552E55288C000F089C001F022
:101A9000026A036A88C0E6FF89C0E6FF02C0E6FF6B
:101AA00003C0E6FF1CEC10F0E552E552E552E552AA
:101AB0007B0EE66E2F0EE66E6AEC0EF0E552E552F6
:101AC0008EC000F08FC001F0026A036A8EC0E6FF8C
:101AD0008FC0E6FF02C0E6FF03C0E6FF1CEC10F07B
:101AE000E552E552E552E552720EE66E2F0EE66EB5
:101AF0006AEC0EF0E552E5528AC000F08BC001F0AE
:101B0000026A036A8AC0E6FF8BC0E6FF02C0E6FFF6
:101B100003C0E6FF1CEC10F0E552E552E552E55239
:101B2000660EE66E2F0EE66E6AEC0EF0E552E5529A
:101B30008CC000F08DC001F0026A036A8CC0E6FF21
:101B40008DC0E6FF02C0E6FF03C0E6FF1CEC10F00C
:101B5000E552E552E552E552590EE66E2F0EE66E5D
:101B60006AEC0EF0E552E55290C000F091C001F031
:101B7000026A036A90C0E6FF91C0E6FF02C0E6FF7A
:101B800003C0E6FF1CEC10F0E552E552E552E552C9
:101B9000500EE66E2F0EE66E6AEC0EF0E552E55240
:101BA000040EE15C02E2E16AE552E16EE552E7CF44
:101BB000D9FF120040DC000904E01AC12EF11BC15C
:101BC0002FF141DC000904E01AC132F11BC133F1ED
:021BD000120001
:0E1BD200B06A810EAF6EAC8AAC94B886AC9847
:101BE000AB8EAB889E9A9D8A9F9A949C948E12008D
:101BF000D9CFE6FFE1CFD9FF040EE126DE6ADD6A28
:101C0000DECF00F0DDCF01F0FD0EDBCF02F0FE0EE7
:101C1000DBCF03F001500318E8AE02D0033404D048
:101C20000250005C035001581DE2020EDB6A030EF5
:101C3000DB6A020EDBCF00F0030EDBCF01F0D890A1
:101C4000015004E6EE0E005C000E015806E2020EA2
:101C5000DB2A030EEEE3DB2AECD7DF2A010ED0E30A
:101C6000DB2ACED7040EE15C02E2E16AE552E16EC6
:101C7000E552E7CFD9FF1200D9CFE6FFE1CFD9FF78
:101C80009EA8FED7FE0EDB50AD6E9E98E552E7CFC4
:101C9000D9FF1200D9CFE6FFE1CFD9FFFD0EDBCF90
:101CA000E9FFFE0EDBCFEAFFEF5010E0FD0EDBCFC9
:101CB000E9FFFE0EDBCFEAFFEF50E66EDDDFE55217
:101CC000FD0EDB2AFE0EEAE3DB2AE8D7E552E7CF7A
:101CD000D9FF1200D9CFE6FFE1CFD9FFFD0EDBCF50
:101CE000F6FFFE0EDBCFF7FF0800F55015E0FD0E06
:101CF000DBCFF6FFFE0EDBCFF7FF0800F550E66EF8
:101D0000BBDFE552FD0EDBCFF6FFDB2AFE0EDBCF9D
:101D1000F7FFE4E3DB2AE2D7E552E7CFD9FF120071
:101D2000D9CFE6FFE1CFD9FF050EE126010EF36E14
:101D3000DB6E020EDB6A030EDB6A040EDB6ADF6A0F
:101D4000DFCF00F0016A00BE0168FB0EDBCF02F0BE
:101D5000FC0EDBCF03F001500318E8AE02D00334D1
:101D600004D00250005C035001582DE2FD0EDBCF81
:101D700000F0FE0EDBCF01F0026A036A01AE02D072
:101D800002680368D950010FE96EDACFEAFF00C09C
:101D900027F001C028F002C029F003C02AF0EECFDE
:101DA00022F0EECF23F0EECF24F0EFCF25F0E3ECDE
:101DB00017F021C0EDFF20C0EDFF1FC0EDFF1EC0DA
:101DC000EFFFDF2ABDD7010EDBCF00F0020EDBCF25
:101DD00001F0030EDBCF02F0040EDBCF03F000C0F6
:101DE00022F001C023F002C024F003C025F0050E4C
:101DF000E15C02E2E16AE552E16EE552E7CFD9FF2C
:101E00001200D9CFE6FFE1CFD9FF020EE126DF6A4B
:101E1000FB0EDBCF00F0FC0EDBCF01F0FD0EDBCFC5
:101E200002F0FE0EDBCF03F0005001100210031091
:101E300005E1300EE66E20DFE552F4D0D950FB0FFD
:101E4000E96EFF0EDA20EA6ED890030EEB50000A1E
:101E500008E6000EEE5C000EEE58000EEE58000E86
:101E6000EE5815E22D0EE66E07DFE552D950FB0F56
:101E7000E96EFF0EDA20EA6E000EEE6CEF1EEE2227
:101E8000EF1EEE22EF1EEF22ED52ED52ED52DE522A
:101E90000A0EDD6E010EDBCF00F0000EE76E0018BB
:101EA000E8AE02D0003403D0E750D880005401E3FC
:101EB000B9D0010EDB04046E056A04BE056804C0D7
:101EC000E6FF05C0E6FF0A0EE66EE66A29DFE55288
:101ED000E552E552E55222C000F023C001F024C0D3
:101EE00002F025C003F022C027F023C028F024C050
:101EF00029F025C02AF0FB0EDBCF22F0FC0EDBCF51
:101F000023F0FD0EDBCF24F0FE0EDBCF25F01BEC23
:101F100018F0225023102410251041E0010EDF6E2E
:101F2000DB04086E096A08BE096808C0E6FF09C03C
:101F3000E6FF0A0EE66EE66AF3DEE552E552E5528A
:101F4000E55222C004F023C005F024C006F025C0ED
:101F500007F022C027F023C028F024C029F025C0B4
:101F60002AF0FB0EDBCF22F0FC0EDBCF23F0FD0EC0
:101F7000DBCF24F0FE0EDBCF25F01BEC18F022C0E7
:101F800000F023C001F024C002F025C003F0300EA1
:101F90000026000E012202220322005003D0DF504F
:101FA00004E0300EE66E68DEE552010EDB04046EDE
:101FB000056A04BE056804C0E6FF05C0E6FF0A0E18
:101FC000E66EE66AADDEE552E552E552E55222C024
:101FD00000F023C001F024C002F025C003F0D95066
:101FE000FB0FE96EFF0EDA20EA6E22C027F023C055
:101FF00028F024C029F025C02AF0EECF22F0EECF41
:1020000023F0EECF24F0EFCF25F01BEC18F021C029
:10201000EDFF20C0EDFF1FC0EDFF1EC0EFFF010E62
:10202000DB0638D7020EE15C02E2E16AE552E16EBE
:10203000E552E7CFD9FF1200D9CFE6FFE1CFD9FFB4
:10204000FB0EDBCF00F0FC0EDBCF01F0FD0EDBCF93
:1020500002F0FE0EDBCF03F0640E276E286A296AB9
:102060002A6A00C022F001C023F002C024F003C09D
:1020700025F0DCEC16F022C000F023C001F024C0F3
:1020800002F025C003F022C0E6FF23C0E6FF24C013
:10209000E6FF25C0E6FFB5DEE552E552E552E55222
:1020A0002E0EE66EE9DDE552FB0EDBCF00F0FC0EF6
:1020B000DBCF01F0FD0EDBCF02F0FE0EDBCF03F035
:1020C000640E276E286A296A2A6A00C022F001C0BD
:1020D00023F002C024F003C025F0DCEC16F01EC093
:1020E00000F01FC001F020C002F021C003F01EC0AC
:1020F000E6FF1FC0E6FF20C0E6FF21C0E6FF81DE4D
:10210000E552E552E552E552E552E7CFD9FF12001C
:10211000D9CFE6FFE1CFD9FFE652AE50DF6E4C0ECD
:10212000E66E2F0EE66EE66A010EE66E13EC07F021
:10213000E552E552E552E552DFCF00F0016A026A4E
:10214000036A00C0E6FF01C0E6FF02C0E6FF03C06D
:10215000E6FFE66A010EE66EECEC05F0046E060E94
:0E216000E15E0450E552E552E7CFD9FF1200D0
:02216E00D9CFC7
:10217000E6FFE1CFD9FFD59EFD0EDBCF78F1FE0E55
:10218000DBCF79F1D59C03680468056A78C106F055
:1021900079C107F0086A0650035C006E07500458C6
:1021A000016E08500558026E286A010E296E2A6ACF
:1021B00000C023F001C024F002C025F0AFEC16F0FF
:1021C0001F50D66E03680468056A78C106F079C1AD
:1021D00007F0086A0650035C006E07500458016E51
:1021E00008500558026E286A010E296E2A6A00C03E
:1021F00023F001C024F002C025F0AFEC16F023C09C
:1022000000F024C001F025C002F02350D76ED59A0B
:10221000D586F28AF294F184D58EE552E7CFD9FFC4
:102220001200D59E120003680468056A78C106F0A2
:1022300079C107F0086A0650035C006E0750045825
:10224000016E08500558026E286A010E296E2A6A2E
:1022500000C023F001C024F002C025F0AFEC16F05E
:102260001F50D66E03680468056A78C106F079C10C
:1022700007F0086A0650035C006E07500458016EB0
:1022800008500558026E286A010E296E2A6A00C09D
:1022900023F001C024F002C025F0AFEC16F023C0FB
:1022A00000F024C001F025C002F02350D76ED58E77
:1022B0001200D9CFE6FFE1CFD9FFCD90FD0EDBCFE5
:1022C0007AF1FE0EDBCF7BF103680468056A7AC100
:1022D00006F07BC107F0086A0650035C006E0750E9
:1022E0000458016E08500558026E286A010E296EC6
:1022F0002A6A00C023F001C024F002C025F0AFEC30
:1023000016F02350CF6E03680468056A7AC106F0A0
:102310007BC107F0086A0650035C006E0750045842
:10232000016E08500558026E286A010E296E2A6A4D
:1023300000C023F001C024F002C025F0AFEC16F07D
:102340001FC000F020C001F021C002F01F50CE6E6F
:102350009D809E909F90CD8ECD8CCD98CD9ACD9620
:10236000CD92CD80E552E7CFD9FF12000368046813
:10237000056A7AC106F07BC107F0086A0650035C63
:10238000006E07500458016E08500558026E286A06
:10239000010E296E2A6A00C023F001C024F002C099
:1023A00025F0AFEC16F02350CF6E03680468056A81
:1023B0007AC106F07BC107F0086A0650035C006E24
:1023C00007500458016E08500558026E286A010E25
:1023D000296E2A6A00C023F001C024F002C025F053
:1023E000AFEC16F01FC000F020C001F021C002F0D9
:1023F0001F50CE6ECD801200CD901200D9CFE6FFD7
:10240000E1CFD9FFCA94CC6AFE0EDB5001017C6F8C
:102410007D6BCB6E9D829E929F92CA90CA92CA8417
:10242000E552E7CFD9FF12007CC1CBFFCA8412006E
:10243000CA941200D9CFE6FFE1CFD9FFB190FD0ECB
:10244000DBCF7EF1FE0EDBCF7FF103680468056A07
:102450007EC106F07FC107F0086A0650035C006E7B
:1024600007500458016E08500558026E286A010E84
:10247000296E2A6A00C023F001C024F002C025F0B2
:10248000AFEC16F02350B36E03680468056A7EC192
:1024900006F07FC107F0086A0650035C006E075023
:1024A0000458016E08500558026E286A010E296E04
:1024B0002A6A00C023F001C024F002C025F0AFEC6E
:1024C00016F01FC000F020C001F021C002F01F5024
:1024D000B26EA082A192A292B18EB198B19AB1923D
:1024E000B180E552E7CFD9FF120003680468056A9E
:1024F0007EC106F07FC107F0086A0650035C006EDB
:1025000007500458016E08500558026E286A010EE3
:10251000296E2A6A00C023F001C024F002C025F011
:10252000AFEC16F01F50B26E03680468056A7EC1F6
:1025300006F07FC107F0086A0650035C006E075082
:102540000458016E08500558026E286A010E296E63
:102550002A6A00C023F001C024F002C025F0AFECCD
:1025600016F023C000F024C001F025C002F0235073
:10257000B36EB1801200B19012000101882B000EE1
:1025800089239051885D9151895904E3886B896B47
:10259000010E806F120001018A2B000E8B239251D5
:1025A0008A5D93518B5904E38A6B8B6B010E816FAB
:1025B000120001018C2B000E8D2394518C5D9551DE
:1025C0008D5904E38C6B8D6B010E826F120001013B
:1025D0008E2B000E8F2396518E5D97518F5904E3F9
:1025E0008E6B8F6B010E836F1200D9CFE6FFE1CFA8
:1025F000D9FFFD0EDBCF90F1FE0EDBCF91F1010193
:10260000886B896B806BE552E7CFD9FF1200D9CF79
:10261000E6FFE1CFD9FFFD0EDBCF92F1FE0EDBCF5F
:1026200093F1050E296E2A6A92C124F093C125F018
:1026300089EC16F024C092F125C093F101018A6B58
:102640008B6B816BE552E7CFD9FF1200D9CFE6FF44
:10265000E1CFD9FFFD0EDBCF96F1FE0EDBCF97F178
:102660000A0E296E2A6A96C124F097C125F089ECDA
:1026700016F024C096F125C097F101018E6B8F6B87
:0A268000836BE552E7CFD9FF12008B
:06268A000F0E946E826841
:102690001200CF0E9414946E82681200D9CFE6FF18
:1026A000E1CFD9FF040EE126DE6ADD6ADECF00F05D
:1026B000DDCF01F0D890015004E6040E005C000E5E
:1026C000015801E390D0DECFE9FFDDCFEAFF700EC5
:1026D000E926010EEA22EF1C826E020EDB6A030E6F
:1026E000DB6A020EDBCF00F0030EDBCF01F0D890E7
:1026F000015004E6040E005C000E01586EE2020E6A
:10270000DBCFE9FF030EDBCFEAFF740EE926010EF3
:10271000EA22EF5082143FE1DECF04F0DDCF05F076
:10272000D89004360536D89004360536020EDB50B4
:102730000424E96E030EDB500520EA6ED890E936DA
:10274000EA36500EE926010EEA22EECF02F0EFCF74
:1027500003F0010E0226000E0322DECF00F0DDCFD3
:1027600001F0D89000360136D89000360136020EBE
:10277000DB500024E96E030EDB500120EA6ED89096
:10278000E936EA36500EE926010EEA2202C0EEFFD3
:1027900003C0EDFF1BD0DECF00F0DDCF01F0D890FD
:1027A00000360136D89000360136020EDB50002488
:1027B000E96E030EDB500120EA6ED890E936EA3666
:1027C000500EE926010EEA22EE6AED6A020EDB2ABD
:1027D000030E01E286D7DB2A84D7DF2A010E01E24D
:1027E00065D7DB2A63D7040EE15C02E2E16AE552B9
:1027F000E16EE552E7CFD9FF1200D9CFE6FFE1CF76
:10280000D9FF040EE126DE6ADD6ADECF00F0DDCFFF
:1028100001F0D890015004E6020E005C000E015851
:1028200001E394D0DECFE9FFDDCFEAFF700EE926A9
:10283000010EEA22EF1C8214826E0F0E8210826E4D
:10284000020EDB6A030EDB6A020EDBCF00F0030E22
:10285000DBCF01F0D890015004E6040E005C000EBE
:1028600001586EE2020EDBCFE9FF030EDBCFEAFF79
:10287000740EE926010EEA22EF5082143FE1DECF0A
:1028800004F0DDCF05F0D89004360536D890043634
:102890000536020EDB500424E96E030EDB500520E2
:1028A000EA6ED890E936EA36500EE926010EEA22A1
:1028B000EECF02F0EFCF03F0010E0226000E03224E
:1028C000DECF00F0DDCF01F0D89000360136D89091
:1028D00000360136020EDB500024E96E030EDB5099
:1028E0000120EA6ED890E936EA36500EE926010E4C
:1028F000EA2202C0EEFF03C0EDFF1BD0DECF00F0E6
:10290000DDCF01F0D89000360136D8900036013680
:10291000020EDB500024E96E030EDB500120EA6E4C
:10292000D890E936EA36500EE926010EEA22EE6A20
:10293000ED6A020EDB2A030E01E286D7DB2A84D77A
:10294000DF2A010E01E261D7DB2A5FD7040EE15CCA
:1029500002E2E16AE552E16EE552E7CFD9FF1200EB
:10296000D9CFE6FFE1CFD9FF040EE126DE6ADD6AAA
:10297000DECF00F0DDCF01F0FD0EDBCF02F0FE0E6A
:10298000DBCF03F001500318E8AE02D0033404D0CB
:102990000250005C035001581DE2020EDB6A030E78
:1029A000DB6A020EDBCF00F0030EDBCF01F0D89024
:1029B000015004E6EE0E005C000E015806E2020E25
:1029C000DB2A030EEEE3DB2AECD7DF2A010ED0E38D
:1029D000DB2ACED7040EE15C02E2E16AE552E16E49
:1029E000E552E7CFD9FF1200D9CFE6FFE1CFD9FFFB
:1029F000040EE126DE6ADD6ADECF00F0DDCF01F0F5
:102A0000D890015004E6040E005C000E015875E2F7
:102A1000DECFE9FFDDCFEAFF700EE926010EEA22E4
:102A2000EF1C826E020EDB6A030EDB6A020EDBCF46
:102A300000F0030EDBCF01F0D890015004E6040E45
:102A4000005C000E01584AE2DECF00F0DDCF01F05D
:102A5000D89000360136D89000360136020EDB5091
:102A60000024E96E030EDB500120EA6ED890E936AF
:102A7000EA36500EE926010EEA22EE6AED6A020EEF
:102A8000DBCFE9FF030EDBCFEAFF740EE926010E70
:102A9000EA22EF5082141CE1DECF00F0DDCF01F01E
:102AA000D89000360136D89000360136020EDB5041
:102AB0000024E96E030EDB500120EA6ED890E9365F
:102AC000EA36500EE926010EEA22010EEE6EED6A9C
:102AD000020EDB2A030EAAE3DB2AA8D78250816EFE
:102AE000E80EE66E030EE66E3BDFE552E552DF2AA6
:102AF000010E01E281D7DB2A7FD7040EE15C02E2FE
:0E2B0000E16AE552E16EE552E7CFD9FF12001F
:022B0E00F28E45
:102B1000D08EF28C1200F19CF292F2881200D8CF83
:102B2000E4FFE0CFE4FFE46EDACFE4FFE2CFDAFFC8
:102B3000E9CFE4FFEACFE4FFF6CFE4FFF7CFE4FF0D
:102B4000F5CFE4FFF3CFE4FFF4CFE4FFFACFE4FFE7
:102B500000EE1CF0100EE80403E3EECFE4FFFBD719
:102B600000EE00F01C0EE80403E3EECFE4FFFBD719
:102B7000E652F2A407D011EC11F0F29413EC11F02C
:102B8000BDEC12F09EA007D0FCEC11F09E90B6ECCC
:102B900011F0CBEC12F0A1A207D0BBEC12F0A19285
:102BA00075EC12F0E7EC12F0F2B2F2929EAA03D0AA
:102BB0009E9A88EC10F0E55200EE1BF01C0EE80423
:102BC00003E3E5CFEDFFFBD700EE2BF0100EE8049A
:102BD00003E3E5CFEDFFFBD7E5CFFAFFE5CFF4FF49
:102BE000E5CFF3FFE5CFF5FFE5CFF7FFE5CFF6FF44
:102BF000E5CFEAFFE5CFE9FFE5CFDAFFE550E5CF26
:102C0000E0FFE5CFD8FF1000DACFE4FFE2CFDAFF34
:102C1000E9CFE4FFEACFE4FFF6CFE4FFF7CFE4FF2C
:102C2000F5CFE4FFF3CFE4FFF4CFE4FFFACFE4FF06
:102C300000EE1CF0100EE80403E3EECFE4FFFBD738
:102C400000EE00F01C0EE80403E3EECFE4FFFBD738
:102C5000E652F2A407D011EC11F0F29413EC11F04B
:102C6000BDEC12F09EA007D0FCEC11F09E90B6ECEB
:102C700011F0CBEC12F0A1A207D0BBEC12F0A192A4
:102C800075EC12F0E7EC12F0F2B2F2929EAA03D0C9
:102C90009E9A88EC10F0E55200EE1BF01C0EE80442
:102CA00003E3E5CFEDFFFBD700EE2BF0100EE804B9
:102CB00003E3E5CFEDFFFBD7E5CFFAFFE5CFF4FF68
:102CC000E5CFF3FFE5CFF5FFE5CFF7FFE5CFF6FF63
:0E2CD000E5CFEAFFE5CFE9FFE5CFDAFF11001F
:022CDE001C6A6E
:102CE0002AAE75EF16F02A6C1C1E25AE7AEF16F090
:102CF000256C1C1E90EC18F025BE84EF16F01CAE5F
:102D0000000C256C216C000C1CBE81EF16F01D8898
:102D1000FF0C1C6A2AAE92EF16F0296C2A1EE86A94
:102D20002A221C1E25AE9AEF16F0246C251EE86A96
:102D300025221C1E5CEC18F025BEAAEF16F01CAE76
:102D4000000C246C251EE86A2522206C211EE86AEE
:102D50002122000C1CBEA1EF16F01D88FF0C1C6A7E
:102D60002AAEBAEF16F0286C291E2A1EE86A29221C
:102D70002A221C1E25AEC4EF16F0236C241E251E2D
:102D8000E86A242225221C1E3FEC18F025BED7EF4E
:102D900016F01CAE000C236C241E251EE86A2422AB
:102DA00025221F6C201E211E20222122000C1CBE69
:102DB000CBEF16F01D88FF0C1C6AE86A2AAEE9EF1B
:102DC00016F0276C281E291E2A1E282229222A22B4
:102DD0001C1E25AEF4EF16F0226C231E241E251EA9
:102DE0002322242225221C1E1BEC18F025BE0BEFEB
:102DF00017F01CAE000C226C231E241E251EE86A50
:102E00002322242225221E6C1F1E201E211E1F226B
:102E100020222122000C1CBEFBEF16F01D88FF0CA7
:102E20001E0EF66E000EF76E000EF86E0001090021
:102E3000F550FB6F0900F550FC6F03E1FB6701D013
:102E40003DD00900F550F66F0900F550F76F090005
:102E5000F550F86F09000900F550E96E0900F550CA
:102E6000EA6E090009000900F550F96F0900F550F4
:102E7000FA6F09000900F6CFFDF0F7CFFEF0F8CFAA
:102E8000FFF0F6C0F6FFF7C0F7FFF8C0F8FF00014B
:102E9000F95302E1FA5307E00900F550EE6EF90725
:102EA000F8E2FA07F9D7FDC0F6FFFEC0F7FFFFC052
:0E2EB000F8FF0001FB07000EFC5BBFD712000D
:022EBE000F0EF5
:102EC000926E0B0EC16E040EC06E1200D9CFE6FFDB
:102ED000E1CFD9FF020EE126FE0EDB50040DF350C8
:102EE000C26EC280C282C2B2FED7C450DE6EDD6A3C
:102EF000DECF02F0DDCF03F0D89002360336D89053
:102F000002360336060EC3CFE7FF070B04E0E742A5
:102F1000E79EE806FCE1E7500224006E000E032065
:102F200000C0DEFFDD6EDECF00F0DDCF01F000C0BF
:102F3000F3FF01C0F4FF020EE15C02E2E16AE55238
:0A2F4000E16EE552E7CFD9FF120061
:062F4A002E0020202000F3
:102F5000206D332F68200D0A00206D672F6C2046EE
:102F60004C4F573D2000206D672F6C204E4F333D56
:102F700020002043204E48343D2000206D672F6CF8
:102F800020544D503D2000206D672F6C204353424C
:102F90003D20002070482053533D200032302E3019
:102FA000342E31362030393A31323A3037202070E1
:102FB000483D202000434F443D200053533D2020F6
:062FC000004144433A0009
:0A2FC60022502702F3CF1EF0F4CFD3
:102FD0001FF02802F3501F26000EF420206E22500E
:102FE0002902F3502026000EF420216E22502A02DE
:102FF000F350212623502702F3501F26F45020229D
:10300000000E212223502802F3502026F4502122C2
:1030100023502902F350212624502702F350202662
:10302000F450212224502802F35021262550270253
:06303000F35021261200FE
:0A303600216A206A1F6A1E6A200E3C
:10304000E76ED89022362336243625361E361F36B4
:103050002036213627501E5C28501F5829502058F2
:103060002A50215809E327501E5E28501F5A295024
:0E307000205A2A50215A222AE72EE4D71200B5
:02307E00216AC5
:10308000206A1F6A180EE76ED8902336243625363C
:103090001F362036213628501F5C295020582A50D0
:1030A000215807E328501F5E2950205A2A50215AE0
:0830B000232AE72EEAD71200E3
:0830B800216A206A100EE76E88
:1030C000D89024362536203621362950205C2A50C7
:1030D000215805E32950205E2A50215A242AE72E40
:0430E000F0D7120013
:0C30E400800EF36E00EE00F00F0E01D81D
:1030F0001200EA6002D0EE6AFCD7F350E9601200D9
:04310000EE6AFCD7A0
:0C3104001EEE00F02EEE00F0F86A1D9C9C
:1031100010EC17F003EC00F0A2EC08F0FBD7120063
:10312000216A080EE76ED890253621362A50215C98
:0C31300002E3216E252AE72EF7D71200DB
:04313C00000000008F
:10314000000000000000000000000000000000007F
:0C3150000000000001000100010001006F
:04315C000102040860
:10316000102040800000000000000000000000006F
:1031700000000000000000000000900100000000BE
:103180000000E803D0070000C40900008813FF0313
:10319000E803E8031027204E88131027A08C200393
:0C31A00000000000E803D0070000000061
:0431AC00000000001F
:1031B000000000001010101010101010181818182F
:1031C000181818181C1C1C1C1C1C1C1C1E1E1E1E47
:1031D0001E1E1E1E1F1F1F1F1F1F1F1F000000007F
:1031E00000000000000000000000000000000000DF
:1031F00000000000000000000000000000000000CF
:0D32000000000000000000000000000000C1
:03320D00000000BE
:1032100000000000000000000000000000000000AE
:10322000000000000000000000000000001020402E
:0532300080010204080A
:020000040030CA
:0100010002FC
:0100020003FA
:010003001EDE
:010005008179
:010006008178
:010008000FE8
:01000900C036
:01000A000FE6
:01000B00E014
:01000C000FE4
:01000D0040B2
:00000001FF
