:020000040000FA
:06000000B0EF21F0120038
:020006001200E6
:0600080058EF1CF012008D
:02000E000000F0
:0400100001000000EB
:0400140000000000E8
:06001800E3EF1BF01200F3
:02001E001000D0
:10002000C24400001602000004000000BE440000AC
:100030001202000004000000BC4400007E0F00001B
:10004000020000009C440000240F0000200000007B
:10005000140000000E020000040000001000000068
:100060000A020000040000006C440000BC01000013
:100070003000000052440000E40000001A000000BC
:100080003E440000EC010000140000001A4400008F
:10009000000F0000240000000E440000720F00005A
:1000A0000C000000F93F00001A02000001000000EF
:1000B000AA43000080000000640000008C430000A0
:1000C000440F00001E0000007C430000620F00008F
:1000D000100000000E000000FE0000000200000002
:1000E000D9CFE6FFE1CFD9FF040EE126DE6ADD6A53
:1000F000020EDB6A030EDB6ADE6ADD6ADECF00F029
:10010000DDCF01F0026A036A01AE02D00268036823
:10011000D950FB0FE96EFF0EDA20EA6EEE50005C5C
:10012000EE500158EE500258EE5003581DE2020EF8
:10013000DB6A030EDB6A020EDBCF00F0030EDBCFBF
:1001400001F0D890015004E6A00E005C000E0158AA
:1001500006E2020EDB2A030EEEE3DB2AECD7DF2AEF
:10016000010ECCE3DB2ACAD7040EE15C02E2E16AAD
:10017000E552E16EE552E7CFD9FF1200D9CFE6FF95
:10018000E1CFD9FFFE0EDB50F00B006E0F0E811495
:100190000010816E81848186010EE66EE66AE66A51
:1001A000E66A9EDFE552E552E552E5528196010E80
:1001B000E66EE66AE66AE66A93DFE552E552E552E4
:1001C000E552FE0EDB38F00B006E0F0E81140010AE
:1001D000816E8186010EE66EE66AE66AE66A80DF77
:1001E000E552E552E552E55281968194030EE66EA2
:1001F000E66AE66AE66A74DFE552E552E552E552E0
:10020000E552E7CFD9FF1200D9CFE6FFE1CFD9FF02
:10021000FD0EDBCFF6FFFE0EDBCFF7FF0800F5503B
:1002200011E0FD0EDBCFF6FFFE0EDBCFF7FF08007F
:10023000F550E66EA3DFE552FD0EDB2AFE0EE8E385
:10024000DB2AE6D7E552E7CFD9FF1200D9CFE6FF88
:10025000E1CFD9FF20CF00F021CF01F0040ED890DC
:1002600000360136E806FBE1000E00260F0E0122E3
:1002700000500F012225E96E01502321EA6EFE0E87
:10028000DBCFEFFF222B000E2323100E23AF02D073
:10029000D89003D0225D000E235905E3202B000ED9
:1002A0002123226B236B030E21AF02D0D89003D001
:1002B000205D000E215902E3206B216BE552E7CF50
:1002C000D9FF1200D9CFE6FFE1CFD9FFFE0EDB50F8
:1002D000F00B006E0F0E81140010816E81948186E8
:1002E000010EE66EE66AE66AE66AFADEE552E55275
:1002F000E552E5528196010EE66EE66AE66AE66A26
:10030000EFDEE552E552E552E552FE0EDB38F00B2A
:10031000006E0F0E81140010816E8186010EE66E54
:10032000E66AE66AE66ADCDEE552E552E552E55247
:100330008196030EE66EE66AE66AE66AD1DEE5526B
:10034000E552E552E552E552E7CFD9FF1200D9CF89
:10035000E6FFE1CFD9FF020EE126DE6ADD6A0F017A
:10036000226B236B010E206F216BDE6ADD6ADECF0C
:1003700000F0DDCF01F0200E005C000E01582BE2F2
:10038000DECF00F0DDCF01F0040E0F0B05E0D890BA
:1003900001320032E806FBE1040ED8900036013647
:1003A000E806FBE1000E00260F0E0122DECF02F070
:1003B000DDCF03F00001036A0F0E02160050022485
:1003C000E96E01500320EA6E200EEF6EDF2A010E67
:1003D000CEE3DB2ACCD7936A816A190EE66EE66A11
:1003E000E66AE66A7DDEE552E552E552E552020E26
:1003F000E66E68DFE552280EE66E64DFE552010E18
:10040000E66E60DFE5520C0EE66E5CDFE552060E2E
:10041000E66E58DFE552020EE15C02E2E16AE55267
:10042000E16EE552E7CFD9FF1200010EE66E4ADF1A
:10043000E552030EE66EE66AE66AE66A51DEE552CA
:10044000E552E552E5521200D9CFE6FFE1CFD9FFE0
:10045000E652DF6AFE0EDB5005E1FD0EDB500F0BAE
:10046000800904D0FD0EDB500F0BC009DF6EDFCF1B
:10047000E6FF28DFE552FB0EDBCFE6FFFC0EDBCF0D
:10048000E6FFC2DEE552E552E552E552E7CFD9FF7D
:100490001200D9CFE6FFE1CFD9FFFD0EDBCF20FF61
:1004A0000F01216B010E2017FB0EDBCF22FF236B08
:1004B0000F0E221720CF00F021CF01F0040ED890AC
:1004C00000360136E806FBE1000E00260F0E012281
:1004D00000500F012225E96E01502321EA6EFA0E29
:1004E000DBCFEFFF222B000E2323100E23AF02D011
:1004F000D89003D0225D000E235905E3202B000E77
:100500002123226B236B030E21AF02D0D89003D09E
:10051000205D000E215902E3206B216BE552E7CFED
:10052000D9FF1200D9CFE6FFE1CFD9FFFD0EDBCF17
:1005300020FF0F01216B010E2017FB0EDBCF22FFE6
:10054000236B0F0E2217F90EDBCFF6FFFA0EDBCF6F
:10055000F7FF0800F55047E0F90EDBCFF6FFFA0E83
:10056000DBCFF7FF0800F550E66E20CF00F021CF7B
:1005700001F0040ED89000360136E806FBE1000ECB
:1005800000260F0E012200500F012225E96E0150B6
:100590002321EA6EE552E750EF6E222B000E232353
:1005A000100E23AF02D0D89003D0225D000E235945
:1005B00005E3202B000E2123226B236B020E21AFBB
:1005C00002D0D89003D0205D000E215902E3206BA9
:1005D000216BF90EDBCFF6FFDB2AFA0EDBCFF7FF3C
:1005E000B2E3DB2AB0D7E552E7CFD9FF1200D9CF6B
:1005F000E6FFE1CFD9FF040EE126DE6ADD6A020ED6
:10060000DB6A030EDB6AFD0EDBCF20FF0F01216BDF
:10061000010E2017FB0EDBCF22FFFC0EDBCF23FFEA
:10062000236B0F0E2217F70EDBCF00F0F80EDBCF97
:1006300001F0F90EDBCF02F0FA0EDBCF03F0005031
:1006400001100210031004E1300EE66EFFDDE552EA
:10065000D950F70FE96EFF0EDA20EA6ED890030E3C
:10066000EB50000A08E6000EEE5C000EEE58000E9D
:10067000EE58000EEE5822E22D0EE66EE7DDE55252
:10068000F70EDBCF1EF0F80EDBCF1FF0F90EDBCF3D
:1006900020F0FA0EDBCF21F0236824682568266855
:1006A00092EC20F0F70E1AC0DBFFF80E1BC0DBFF48
:1006B000F90E1CC0DBFFFA0E1DC0DBFF100EDE6E54
:1006C000270EDD6ED9CFE9FFDACFEAFF000ED88022
:1006D000EE54000EED5401E3AAD0DECF00F0DDCFE2
:1006E00001F0026A036A00C023F001C024F002C0D6
:1006F00025F003C026F0F70EDBCF1EF0F80EDBCF9F
:100700001FF0F90EDBCF20F0FA0EDBCF21F0EDEC7D
:100710001DF01E501F102010211036E0DECF04F017
:10072000DDCF05F0066A076A04C023F005C024F097
:1007300006C025F007C026F0F70EDBCF1EF0F80E3E
:10074000DBCF1FF0F90EDBCF20F0FA0EDBCF21F06C
:10075000EDEC1DF01EC000F01FC001F020C002F043
:1007600021C003F0300E0026000E012202220322D7
:100770000050E66E6BDDE552010EF36E020EF3CF14
:10078000DBFF030EDB6A0ED0D950020FE96EDACF21
:10079000EAFF010EEE1806E1ED5004E1300EE66EC0
:1007A00055DDE552DECF00F0DDCF01F0026A036ACD
:1007B00000C023F001C024F002C025F003C026F0E1
:1007C000F70EDBCF1EF0F80EDBCF1FF0F90EDBCFFC
:1007D00020F0FA0EDBCF21F003C0F5FFEDEC1DF0A9
:1007E000F5AE08D0000E1A6C1B1E1B221C1E1C220C
:1007F0001D1E1D22F70E1AC0DBFFF80E1BC0DBFF0B
:10080000F90E1CC0DBFFFA0E1DC0DBFF0A0E006EE6
:10081000016A256E01C026F0DECF20F0DDCF21F089
:100820008AEC21F020C0DEFF21C0DDFF4BD7040E93
:10083000E15C02E2E16AE552E16EE552E7CFD9FF01
:100840001200D9CFE6FFE1CFD9FF080EE126D9CFBC
:10085000E9FFDACFEAFFF70EDBCFEEFFF80EDBCFD2
:10086000EEFFF90EDBCFEEFFFA0EDBCFEEFF040E4C
:10087000DB6A050EDB6A060EDB6A070EDB6AD9CF80
:10088000E9FFDACFEAFFEECF1EF0EECF1FF0EECF9A
:1008900020F0EFCF21F0100E236E270E246E256A74
:1008A000266AEDEC1DF01E501F102010211054E0A0
:1008B000D9CFE9FFDACFEAFFEECF00F0EECF01F0BB
:1008C000EECF02F0EFCF03F0100E236E270E246E52
:1008D000256A266A00C01EF001C01FF002C020F089
:1008E00003C021F0EDEC1DF01EC000F01FC001F0B0
:1008F00020C002F021C003F01EC0E6FF1FC0E6FFCB
:1009000020C0E6FF21C0E6FF040EDBCF06F0050E97
:10091000DBCF07F0FB0EDB500624046EFC0EDB5031
:100920000720056E04C0E6FFE66EFD0EDBCFE6FF96
:10093000FE0EDBCFE6FF5BDE086E080EE15E0850C0
:10094000010EF36E060EF3CFDBFF070EDB6A040E1B
:10095000DB2A050E01E3DB2AD9CFE9FFDACFEAFF74
:10096000EECF1EF0EECF1FF0EECF20F0EFCF21F054
:10097000100E236E270E246E256A266AEDEC1DF0FC
:100980001AC0DEFF1BC0DEFF1CC0DEFF1DC0DDFF86
:10099000DD52DD52D9CFE9FFDACFEAFFEECF1EF00C
:1009A000EECF1FF0EECF20F0EFCF21F0E80E236E58
:1009B000030E246E256A266AEDEC1DF01E501F10F2
:1009C000201021100AE1D950060FE96EDACFEAFFB4
:1009D000010EEE184FE1ED504DE1D9CFE9FFDACF2E
:1009E000EAFFEECF00F0EECF01F0EECF02F0EFCF56
:1009F00003F0E80E236E030E246E256A266A00C0FB
:100A00001EF001C01FF002C020F003C021F0EDEC89
:100A10001DF01EC000F01FC001F020C002F021C078
:100A200003F01EC0E6FF1FC0E6FF20C0E6FF21C0A6
:100A3000E6FF040EDBCF06F0050EDBCF07F0FB0E62
:100A4000DB500624046EFC0EDB500720056E04C04C
:100A5000E6FFE66EFD0EDBCFE6FFFE0EDBCFE6FF28
:100A6000C6DD086E080EE15E0850040EDB2A050E96
:100A700001E3DB2AD9CFE9FFDACFEAFFEECF1EF0A0
:100A8000EECF1FF0EECF20F0EFCF21F0E80E236E77
:100A9000030E246E256A266AEDEC1DF01AC0DEFFF7
:100AA0001BC0DEFF1CC0DEFF1DC0DDFFDD52DD52BE
:100AB000D9CFE9FFDACFEAFFEECF00F0EECF01F0B9
:100AC000EECF02F0EFCF03F0640E236E246A256AA6
:100AD000266A00C01EF001C01FF002C020F003C053
:100AE00021F0EDEC1DF01EC000F01FC001F020C091
:100AF00002F021C003F01EC0E6FF1FC0E6FF20C0C9
:100B0000E6FF21C0E6FF040EDBCF06F0050EDBCFCB
:100B100007F0FB0EDB500624046EFC0EDB500720B2
:100B2000056E04C0E6FFE66EFD0EDBCFE6FFFE0EAF
:100B3000DBCFE6FF5CDD086E080EE15E0850040EB8
:100B4000DB2A050E01E3DB2AD9CFE9FFDACFEAFF82
:100B5000EECF1EF0EECF1FF0EECF20F0EFCF21F062
:100B6000640E236E246A256A266AEDEC1DF01AC015
:100B7000DEFF1BC0DEFF1CC0DEFF1DC0DDFFDD523F
:100B8000DD522E0EE66E040EDBCF02F0050EDBCF3B
:100B900003F0FB0EDB500224006EFC0EDB50032042
:100BA000016E00C0E6FFE66EFD0EDBCFE6FFFE0E37
:100BB000DBCFE6FF6EDC046E050EE15E0450040E32
:100BC000DB2A050E01E3DB2AD9CFE9FFDACFEAFF02
:100BD000EECF00F0EECF01F0EECF02F0EFCF03F05A
:100BE0000A0E236E246A256A266A00C01EF001C020
:100BF0001FF002C020F003C021F0EDEC1DF01EC07C
:100C000000F01FC001F020C002F021C003F01EC0A0
:100C1000E6FF1FC0E6FF20C0E6FF21C0E6FF040E8E
:100C2000DBCF06F0050EDBCF07F0FB0EDB50062412
:100C3000046EFC0EDB500720056E04C0E6FFE66E76
:100C4000FD0EDBCFE6FFFE0EDBCFE6FFD0DC086E4D
:100C5000080EE15E0850040EDB2A050E01E3DB2AD4
:100C6000D9CFE9FFDACFEAFFEECF00F0EECF01F007
:100C7000EECF02F0EFCF03F00A0E236E246A256A4E
:100C8000266A00C01EF001C01FF002C020F003C0A1
:100C900021F0EDEC1DF01AC000F01BC001F01CC0EB
:100CA00002F01DC003F01AC0E6FF1BC0E6FF1CC027
:100CB000E6FF1DC0E6FF040EDBCF06F0050EDBCF1E
:100CC00007F0FB0EDB500624046EFC0EDB50072001
:100CD000056E04C0E6FFE66EFD0EDBCFE6FFFE0EFE
:100CE000DBCFE6FF84DC086E080EE15E0850040EE0
:100CF000DB2A050E01E3DB2A080EE15C02E2E16A71
:100D0000E552E16EE552E7CFD9FF1200D9CFE6FFF9
:100D1000E1CFD9FF030EE126200EDF6E010EDB6A64
:100D2000020EDB6A010EDB6A020EDB6A010EDBCF0C
:100D300000F0020EDBCF01F0100E005C000E015837
:100D400037E2010EDBCFE9FF020EDBCFEAFF000E38
:100D5000E9260F0EEA22EFCFDFFF010EDBCFE9FF1E
:100D6000020EDBCFEAFF100EE9260F0EEA22EF504B
:100D7000E66E010EDBCFE9FF020EDBCFEAFF000ECD
:100D8000E9260F0EEA22E552E750EF6E010EDBCFA7
:100D9000E9FF020EDBCFEAFF100EE9260F0EEA2272
:100DA000DFCFEFFF010EDB2A020EC0E3DB2ABED746
:100DB000D950FD0FE96EFF0EDA20EA6EEE50ED100D
:100DC0000BE0D950FD0FE96EFF0EDA20EA6E010E3E
:100DD000EE180BE1ED5009E1FD0EDBCFE6FFFE0E54
:100DE000DBCFE6FF38D8E552E552030EE15C02E2C4
:100DF000E16AE552E16EE552E7CFD9FF1200D9CFA3
:100E0000E6FFE1CFD9FFFD0EDBCF20FF0F01216B05
:100E1000010E2017FB0EDBCF22FF236B0F0E2217D4
:100E200020CF00F021CF01F0040ED890003601361B
:100E3000E806FBE1000E00260F0E012200500F0114
:100E40002225E96E01502321EA6E200EEF6EE55255
:100E5000E7CFD9FF1200D9CFE6FFE1CFD9FF020ECD
:100E6000E126DE6ADD6AFD0EDBCF20FF0F01216B7C
:100E7000010E2017DE6ADD6ADECF00F0DDCF01F063
:100E8000100E005C000E01581BE220CF00F021CFB5
:100E900001F0040ED89000360136E806FBE1000EA2
:100EA00000260F0E0122DE500024E96EDD500120E5
:100EB000EA6E200EEF6EDF2A010EDEE3DB2ADCD7BE
:100EC000020EE15C02E2E16AE552E16EE552E7CF33
:100ED000D9FF1200D9CFE6FFE1CFD9FF020EE126FC
:100EE000DE6ADD6A0F01226B236B010E206F216B1E
:100EF000DE6ADD6ADECF00F0DDCF01F0200E005C9F
:100F0000000E01582BE2DECF00F0DDCF01F0040E21
:100F10000F0B05E0D89001320032E806FBE1040E29
:100F2000D89000360136E806FBE1000E00260F0ED1
:100F30000122DECF02F0DDCF03F00001036A0F0EC5
:100F4000021600500224E96E01500320EA6E200EC2
:100F5000EF6EDF2A010ECEE3DB2ACCD7020EE15C76
:100F600002E2E16AE552E16EE552E7CFD9FF1200F5
:100F7000D9CFE6FFE1CFD9FF020EE126DE6ADD6AB6
:100F8000800EE66E62EC01F0E552DE6ADD6ADECFCD
:100F900000F0DDCF01F0100E005C000E015812E2EF
:100FA000DECFE9FFDDCFEAFF000EE9260F0EEA22D1
:100FB000EF50E66EBEEC00F0E552DF2A010EE7E3EB
:100FC000DB2AE5D7C00EE66E62EC01F0E552DE6A80
:100FD000DD6ADECF00F0DDCF01F0100E005C000E08
:100FE000015812E2DECFE9FFDDCFEAFF100EE9265D
:100FF0000F0EEA22EF50E66EBEEC00F0E552DF2A5B
:10100000010EE7E3DB2AE5D7020EE15C02E2E16ACA
:0C101000E552E16EE552E7CFD9FF120077
:04101C00D9CFE6FF43
:10102000E1CFD9FFFD0EDBCF00F0FE0EDBCF01F0EC
:10103000000E005C000E01580BE3FD0EDBCF02F04A
:10104000FE0EDBCF03F0070E025C000E035805E333
:101050001E6A1F6A206A216A20D0FD0EDBCFE9FFDD
:10106000FE0EDBCFEAFF020ED890E936EA36E8063C
:10107000FBE1000EE926010EEA22EECF00F0EECFF2
:1010800001F0EECF02F0EFCF03F000C01EF001C080
:101090001FF002C020F003C021F0E552E7CFD9FFD6
:1010A0001200CAC000F0CBC001F0026A036A00015E
:1010B0008051825D146E83518155156E166A176AD0
:1010C000CA51C85D106EC951CB55116E126A136AB0
:1010D00080C00CF081C00DF00E6A0F6A0C50845D68
:1010E000086E0D508559096E0E5086590A6E0F50C4
:1010F00087590B6E08C01EF009C01FF00AC020F00F
:10110000216E10C023F011C024F012C025F013C0CE
:1011100026F092EC20F01AC004F01BC005F01CC0B1
:1011200006F01DC007F01AC01EF01BC01FF01CC047
:1011300020F01DC021F014C023F015C024F016C00B
:1011400025F017C026F0EDEC1DF000501E24010123
:10115000006F01501F20016F02502020026F0350CA
:101160002120036FCEC000F0CFC001F0026A036AF5
:1011700000018051825D146E83518155156E166A8F
:10118000176ACE51CC5D106ECD51CF55116E126ADB
:10119000136A80C00CF081C00DF00E6A0F6A0C500B
:1011A000845D086E0D508559096E0E5086590A6E81
:1011B0000F5087590B6E08C01EF009C01FF00AC0FF
:1011C00020F0216E10C023F011C024F012C025F0D1
:1011D00013C026F092EC20F01AC004F01BC005F0FA
:1011E0001CC006F01DC007F01AC01EF01BC01FF087
:1011F0001CC020F01DC021F014C023F015C024F045
:1012000016C025F017C026F0EDEC1DF000501E248E
:101210000101046F01501F20056F02502020066F4E
:1012200003502120076FD2C000F0D3C001F0026A42
:10123000036A00018051825D146E83518155156EE1
:10124000166A176AD251D05D106ED151D355116E06
:10125000126A136A80C00CF081C00DF00E6A0F6A2A
:101260000C50845D086E0D508559096E0E508659DC
:101270000A6E0F5087590B6E08C01EF009C01FF090
:101280000AC020F0216E10C023F011C024F012C05B
:1012900025F013C026F092EC20F01AC004F01BC019
:1012A00005F01CC006F01DC007F01AC01EF01BC0E0
:1012B0001FF01CC020F01DC021F014C023F015C089
:1012C00024F016C025F017C026F0EDEC1DF00050FC
:1012D0001E240101086F01501F20096F02502020B9
:1012E0000A6F035021200B6FD6C000F0D7C001F069
:1012F000026A036A00018051825D146E8351815538
:10130000156E166A176AD651D45D106ED551D75531
:10131000116E126A136A80C00CF081C00DF00E6A63
:101320000F6A0C508E5D086E0D508F59096E0E506D
:1013300090590A6E0F5091590B6E08C01EF009C0EB
:101340001FF00AC020F0216E10C023F011C024F05D
:1013500012C025F013C026F092EC20F01AC004F061
:101360001BC005F01CC006F01DC007F01AC01EF01F
:101370001BC01FF01CC020F01DC021F014C023F0C2
:1013800015C024F016C025F017C026F0EDEC1DF0B6
:1013900000501E2401010C6F01501F200D6F0250E0
:1013A00020200E6F035021200F6FDAC000F0DBC049
:1013B00001F0026A036A00018051825D146E83515C
:1013C0008155156E166A176ADA51D85D106ED951BB
:1013D000DB55116E126A136A80C00CF081C00DF0EB
:1013E0000E6A0F6A0C50985D086E0D509959096E7F
:1013F0000E509A590A6E0F509B590B6E08C01EF082
:1014000009C01FF00AC020F0216E10C023F011C0E7
:1014100024F012C025F013C026F092EC20F01AC080
:1014200004F01BC005F01CC006F01DC007F01AC078
:101430001EF01BC01FF01CC020F01DC021F014C006
:1014400023F015C024F016C025F017C026F0EDECEF
:101450001DF000501E240101106F01501F20116F5C
:1014600002502020126F03502120136FDEC000F0C5
:10147000DFC001F0026A036A00018051825D146ED0
:1014800083518155156E166A176ADE51DC5D106E48
:10149000DD51DF55116E126A136A80C00CF081C0F5
:1014A0000DF00E6A0F6A0C50985D086E0D50995938
:1014B000096E0E509A590A6E0F509B590B6E08C058
:1014C0001EF009C01FF00AC020F0216E10C023F0EA
:1014D00011C024F012C025F013C026F092EC20F0C9
:1014E0001AC004F01BC005F01CC006F01DC007F0B8
:1014F0001AC01EF01BC01FF01CC020F01DC021F040
:1015000014C023F015C024F016C025F017C026F033
:10151000EDEC1DF000501E240101146F01501F203E
:10152000156F02502020166F03502120176FE2C064
:1015300000F0E3C001F0026A036A00018051825D9D
:10154000146E83518155156E166A176AE251E05D7B
:10155000106EE151E355116E126A136A80C00CF0EF
:1015600081C00DF00E6A0F6A0C50A25D086E0D501E
:10157000A359096E0E50A4590A6E0F50A5590B6E4F
:1015800008C01EF009C01FF00AC020F0216E10C074
:1015900023F011C024F012C025F013C026F092EC05
:1015A00020F01AC004F01BC005F01CC006F01DC0DE
:1015B00007F01AC01EF01BC01FF01CC020F01DC099
:1015C00021F014C023F015C024F016C025F017C078
:1015D00026F0EDEC1DF000501E240101186F0150A3
:1015E0001F20196F025020201A6F035021201B6FFB
:1015F0001200D9CFE6FFE1CFD9FF040EE126DE6A63
:10160000DD6A020EDB6A030EDB6AE66A53EC20F049
:10161000E552F3CF88F0F4CF89F08CC0E9FF8DC09C
:10162000EAFFD890E936EA361C0EE926010EEA22D6
:10163000F3CFEEFF89C0EDFF010E00018C258C6F0A
:10164000000E8D218D6F140E256E266A8CC020F041
:101650008DC021F09AEC1DF01CC08CF01DC08DF0E7
:101660001CC0DEFF1DC0DDFF00018A6B8B6B020E0C
:10167000DB6A030EDB6A020EDBCF00F0030EDBCF6A
:1016800001F0D890015004E6140E005C000E0158E1
:1016900024E2DECFE9FFDDCFEAFFD890E936EA3673
:1016A0001C0EE926010EEA22EE508A27EE508B230B
:1016B000D9CFE9FFDACFEAFFEE50ED1004E1130EC7
:1016C000DE6EDD6A04D0DF06010E01E2DB06020EEB
:1016D000DB2A030ED0E3DB2ACED78AC084F08BC08E
:1016E00085F0866B876B140E236E246A256A266A42
:1016F0008AC01EF08BC01FF086C020F087C021F08A
:10170000EDEC1DF01EC084F01FC085F020C086F0F7
:1017100021C087F0040EE15C02E2E16AE552E16E6D
:10172000E552E7CFD9FF1200D9CFE6FFE1CFD9FFCD
:10173000040EE126DE6ADD6A020EDB6A030EDB6A56
:10174000010EE66E53EC20F0E552F3CF92F0F4CFA9
:1017500093F096C0E9FF97C0EAFFD890E936EA36E1
:10176000440EE926010EEA22F3CFEEFF93C0EDFF0F
:10177000010E00019625966F000E9721976F140EAB
:10178000256E266A96C020F097C021F09AEC1DF0D5
:101790001CC096F01DC097F01CC0DEFF1DC0DDFF11
:1017A0000001946B956B020EDB6A030EDB6A020E7E
:1017B000DBCF00F0030EDBCF01F0D890015004E640
:1017C000140E005C000E015824E2DECFE9FFDDCFED
:1017D000EAFFD890E936EA36440EE926010EEA22FD
:1017E000EE509427EE509523D9CFE9FFDACFEAFFE8
:1017F000EE50ED1004E1130EDE6EDD6A04D0DF065C
:10180000010E01E2DB06020EDB2A030ED0E3DB2A27
:10181000CED794C08EF095C08FF0906B916B140E64
:10182000236E246A256A266A94C01EF095C01FF0B4
:1018300090C020F091C021F0EDEC1DF01EC08EF0A4
:101840001FC08FF020C090F021C091F0040EE15C29
:1018500002E2E16AE552E16EE552E7CFD9FF1200FC
:10186000D9CFE6FFE1CFD9FF040EE126DE6ADD6ABB
:10187000020EDB6A030EDB6A020EE66E53EC20F00A
:10188000E552F3CF9CF0F4CF9DF0A0C0E9FFA1C0DA
:10189000EAFFD890E936EA366C0EE926010EEA2214
:1018A000F3CFEEFF9DC0EDFF010E0001A025A06F5C
:1018B000000EA121A16F140E256E266AA0C020F093
:1018C000A1C021F09AEC1DF01CC0A0F01DC0A1F039
:1018D0001CC0DEFF1DC0DDFF00019E6B9F6B020E72
:1018E000DB6A030EDB6A020EDBCF00F0030EDBCFF8
:1018F00001F0D890015004E6140E005C000E01586F
:1019000024E2DECFE9FFDDCFEAFFD890E936EA3600
:101910006C0EE926010EEA22EE509E27EE509F2320
:10192000D9CFE9FFDACFEAFFEE50ED1004E1130E54
:10193000DE6EDD6A04D0DF06010E01E2DB06020E78
:10194000DB2A030ED0E3DB2ACED79EC098F09FC0DF
:1019500099F09A6B9B6B140E236E246A256A266A93
:101960009EC01EF09FC01FF09AC020F09BC021F0C7
:10197000EDEC1DF01EC098F01FC099F020C09AF049
:1019800021C09BF0040EE15C02E2E16AE552E16EE7
:10199000E552E7CFD9FF1200D9CFE6FFE1CFD9FF5B
:1019A000040EE126DE6ADD6A020EDB6A030EDB6AE4
:1019B000E66E53EC20F0E552F3CFA6F0F4CFA7F09B
:1019C000AAC0E9FFABC0EAFFD890E936EA36940E28
:1019D000E926010EEA22F3CFEEFFA7C0EDFF010ECC
:1019E0000001AA25AA6F000EAB21AB6F140E256E65
:1019F000266AAAC020F0ABC021F09AEC1DF01CC0F2
:101A0000AAF01DC0ABF01CC0DEFF1DC0DDFF000151
:101A1000A86BA96B020EDB6A030EDB6A020EDBCF3A
:101A200000F0030EDBCF01F0D890015004E6140E55
:101A3000005C000E015824E2DECFE9FFDDCFEAFFB3
:101A4000D890E936EA36940EE926010EEA22EE50E5
:101A5000A827EE50A923D9CFE9FFDACFEAFFEE504D
:101A6000ED1004E1130EDE6EDD6A04D0DF06010E18
:101A700001E2DB06020EDB2A030ED0E3DB2ACED71F
:101A8000A8C0A2F0A9C0A3F0A46BA56B140E236E8E
:101A9000246A256A266AA8C01EF0A9C01FF0A4C047
:101AA00020F0A5C021F0EDEC1DF01EC0A2F01FC07B
:101AB000A3F020C0A4F021C0A5F0040EE15C02E276
:101AC000E16AE552E16EE552E7CFD9FF1200D9CFC6
:101AD000E6FFE1CFD9FFFD0EDBCF00F0FE0EDBCF3E
:101AE00001F0000E005C000E01580BE3FD0EDBCF91
:101AF00002F0FE0EDBCF03F0070E025C000E03586F
:101B000003E3F36AF46A18D0FD0EDBCFE9FFFE0EA3
:101B1000DBCFEAFF010ED890E936EA36E806FBE1B2
:101B2000AC0EE926000EEA22EECF00F0EFCF01F076
:101B300000C0F3FF01C0F4FFE552E7CFD9FF120068
:101B4000D9CFE6FFE1CFD9FFFD0EDBCF00F0FE0ECF
:101B5000DBCF01F0000E005C000E01580BE3FD0E20
:101B6000DBCF02F0FE0EDBCF03F0070E025C000EAF
:101B7000035803E3F36AF46A18D0FD0EDBCFE9FFE4
:101B8000FE0EDBCFEAFF010ED890E936EA36E80612
:101B9000FBE1BA0EE926000EEA22EECF00F0EFCF0D
:101BA00001F000C0F3FF01C0F4FFE552E7CFD9FF19
:021BB000120021
:0E1BB200B06A810EAF6EAC8AAC94B886AC9867
:101BC000AB8EAB889E9A9D8A9F9A949C948E1200AD
:101BD00002011A511200D9CFE6FFE1CFD9FF9EA82A
:101BE000FED7FE0EDB50AD6E9E98E552E7CFD9FFD3
:101BF0001200D9CFE6FFE1CFD9FFFD0EDBCFF6FF14
:101C0000FE0EDBCFF7FF0800F55015E0FD0EDBCF31
:101C1000F6FFFE0EDBCFF7FF0800F550E66EDBDFC8
:101C2000E552FD0EDBCFF6FFDB2AFE0EDBCFF7FF22
:101C3000E4E3DB2AE2D7E552E7CFD9FF1200D9CFA0
:101C4000E6FFE1CFD9FF040EE126DE6ADD6A020E6F
:101C5000DB6A030EDB6AFB0EDBCF00F0FC0EDBCF92
:101C600001F0FD0EDBCF02F0FE0EDBCF03F00050E3
:101C700001100210031004E1300EE66EACDFE552F5
:101C8000D950FB0FE96EFF0EDA20EA6ED890030EF2
:101C9000EB50000A08E6000EEE5C000EEE58000E57
:101CA000EE58000EEE5822E22D0EE66E94DFE5525D
:101CB000FB0EDBCF1EF0FC0EDBCF1FF0FD0EDBCFEB
:101CC00020F0FE0EDBCF21F023682468256826680B
:101CD00092EC20F0FB0E1AC0DBFFFC0E1BC0DBFFFA
:101CE000FD0E1CC0DBFFFE0E1DC0DBFF100EDE6E06
:101CF000270EDD6ED9CFE9FFDACFEAFF000ED880DC
:101D0000EE54000EED5401E3AAD0DECF00F0DDCF9B
:101D100001F0026A036A00C023F001C024F002C08F
:101D200025F003C026F0FB0EDBCF1EF0FC0EDBCF50
:101D30001FF0FD0EDBCF20F0FE0EDBCF21F0EDEC2F
:101D40001DF01E501F102010211036E0DECF04F0D1
:101D5000DDCF05F0066A076A04C023F005C024F051
:101D600006C025F007C026F0FB0EDBCF1EF0FC0EF0
:101D7000DBCF1FF0FD0EDBCF20F0FE0EDBCF21F01E
:101D8000EDEC1DF01EC000F01FC001F020C002F0FD
:101D900021C003F0300E0026000E01220222032291
:101DA0000050E66E18DFE552010EF36E020EF3CF1F
:101DB000DBFF030EDB6A0ED0D950020FE96EDACFDB
:101DC000EAFF010EEE1806E1ED5004E1300EE66E7A
:101DD00002DFE552DECF00F0DDCF01F0026A036AD8
:101DE00000C023F001C024F002C025F003C026F09B
:101DF000FB0EDBCF1EF0FC0EDBCF1FF0FD0EDBCFAA
:101E000020F0FE0EDBCF21F003C0F5FFEDEC1DF05E
:101E1000F5AE08D0000E1A6C1B1E1B221C1E1C22C5
:101E20001D1E1D22FB0E1AC0DBFFFC0E1BC0DBFFBC
:101E3000FD0E1CC0DBFFFE0E1DC0DBFF0A0E006E98
:101E4000016A256E01C026F0DECF20F0DDCF21F043
:101E50008AEC21F020C0DEFF21C0DDFF4BD7040E4D
:101E6000E15C02E2E16AE552E16EE552E7CFD9FFBB
:101E70001200D9CFE6FFE1CFD9FF040EE126D9CF7A
:101E8000E9FFDACFEAFFFB0EDBCFEEFFFC0EDBCF84
:101E9000EEFFFD0EDBCFEEFFFE0EDBCFEEFFD9CF68
:101EA000E9FFDACFEAFFEECF1EF0EECF1FF0EECF64
:101EB00020F0EFCF21F0E80E236E030E246E256A8A
:101EC000266AEDEC1DF01E501F102010211031E08D
:101ED000D9CFE9FFDACFEAFFEECF00F0EECF01F085
:101EE000EECF02F0EFCF03F0E80E236E030E246E68
:101EF000256A266A00C01EF001C01FF002C020F053
:101F000003C021F0EDEC1DF01EC000F01FC001F079
:101F100020C002F021C003F01EC0E6FF1FC0E6FF94
:101F200020C0E6FF21C0E6FF8ADEE552E552E55219
:101F3000E552D9CFE9FFDACFEAFFEECF1EF0EECFC0
:101F40001FF0EECF20F0EFCF21F0E80E236E030E4E
:101F5000246E256A266AEDEC1DF01AC0DEFF1BC058
:101F6000DEFF1CC0DEFF1DC0DDFFDD52DD52D9CF1C
:101F7000E9FFDACFEAFFEECF00F0EECF01F0EECFCF
:101F800002F0EFCF03F0640E236E246A256A266AFE
:101F900000C01EF001C01FF002C020F003C021F0FD
:101FA000EDEC1DF01EC000F01FC001F020C002F0DB
:101FB00021C003F01EC0E6FF1FC0E6FF20C0E6FF01
:101FC00021C0E6FF3CDEE552E552E552E552D9CFAD
:101FD000E9FFDACFEAFFEECF1EF0EECF1FF0EECF33
:101FE00020F0EFCF21F0640E236E246A256A266A62
:101FF000EDEC1DF01AC0DEFF1BC0DEFF1CC0DEFFD3
:102000001DC0DDFFDD52DD522E0EE66EE4DDE55231
:10201000D9CFE9FFDACFEAFFEECF00F0EECF01F043
:10202000EECF02F0EFCF03F00A0E236E246A256A8A
:10203000266A00C01EF001C01FF002C020F003C0DD
:1020400021F0EDEC1DF01EC000F01FC001F020C01B
:1020500002F021C003F01EC0E6FF1FC0E6FF20C053
:10206000E6FF21C0E6FFEBDDE552E552E552E55221
:10207000D9CFE9FFDACFEAFFEECF00F0EECF01F0E3
:10208000EECF02F0EFCF03F00A0E236E246A256A2A
:10209000266A00C01EF001C01FF002C020F003C07D
:1020A00021F0EDEC1DF01AC000F01BC001F01CC0C7
:1020B00002F01DC003F01AC0E6FF1BC0E6FF1CC003
:1020C000E6FF1DC0E6FFBBDDE552E552E552E552F5
:1020D000040EE15C02E2E16AE552E16EE552E7CF0F
:0A20E000D9FF1200AECF1AF2120071
:0620EA00D9CFE6FFE1CFB3
:1020F000D9FF020EE126DE6ADD6ADE6ADD6ADECF26
:1021000000F0DDCF01F0D890015004E6070E005C2E
:10211000000E015849E2DECFE9FFDDCFEAFFD8909B
:10212000E936EA36D890E936EA36460EE9260F0E49
:10213000EA22EECF00F0EECF01F0EECF02F0EFCFCB
:1021400003F000C0E6FF01C0E6FF02C0E6FF03C0E7
:10215000E6FFDECFE6FFDDCFE6FF0EEC08F0E5524E
:10216000E552E552E7CF03F0E552E7CF02F0E55242
:10217000E7CF01F0E552E7CF00F021500318E8AEB9
:1021800002D0033408D000501E5C01501F5802508A
:1021900020580350215803E3010EF36E06D0DF2AC6
:1021A000010EADE3DB2AABD7F36AF46A020EE15C01
:1021B00002E2E16AE552E16EE552E7CFD9FF120093
:1021C00094DFF3CF44FFF4CF45FF1200D9CFE6FFF1
:1021D000E1CFD9FFFD0EDBCF00F0FE0EDBCF01F02B
:1021E000000E005C000E01580BE3FD0EDBCF02F089
:1021F000FE0EDBCF03F0070E025C000E035805E372
:102200001E6A1F6A206A216A20D0FD0EDBCFE9FF1B
:10221000FE0EDBCFEAFF020ED890E936EA36E8067A
:10222000FBE1460EE9260F0EEA22EECF00F0EECFDC
:1022300001F0EECF02F0EFCF03F000C01EF001C0BE
:102240001FF002C020F003C021F0E552E7CFD9FF14
:102250001200D9CFE6FFE1CFD9FFFD0EDBCF00F0B2
:10226000FE0EDBCF01F0000E005C000E015871E3A2
:10227000FD0EDBCF02F0FE0EDBCF03F0070E025C9B
:10228000000E035866E20A0E006E016A026A036AD3
:10229000FD0EDBCFE9FFFE0EDBCFEAFF020ED8908A
:1022A000E936EA36E806FBE1460EE9260F0EEA2299
:1022B000EE500026EE500122EE500222EE50032294
:1022C00000C0E6FF01C0E6FF02C0E6FF03C0E6FF74
:1022D000FD0EDBCFE6FFFE0EDBCFE6FF67EC0DF079
:1022E000E552E552E552E7CF03F0E552E7CF02F0C1
:1022F000E552E7CF01F0E552E7CF00F0F3CF04F06D
:10230000F4CF05F0066A076A07500318E8AE02D05A
:10231000033408D00050045C0150055802500658A0
:102320000350075816E3FD0EDBCFE9FFFE0EDBCFAF
:10233000EAFF020ED890E936EA36E806FBE1460EDF
:10234000E9260F0EEA220A0EEE26000EEE22EE22FB
:10235000EE22E552E7CFD9FF1200D9CFE6FFE1CF59
:10236000D9FFFD0EDBCF00F0FE0EDBCF01F0000E3B
:10237000005C000E015872E3FD0EDBCF02F0FE0E92
:10238000DBCF03F0070E025C000E035867E2FD0E80
:10239000DBCFE9FFFE0EDBCFEAFF020ED890E93675
:1023A000EA36E806FBE1460EE9260F0EEA22EECFFA
:1023B00000F0EECF01F0EECF02F0EFCF03F00A0E07
:1023C000005E000E015A025A035A00C0E6FF01C027
:1023D000E6FF02C0E6FF03C0E6FFFD0EDBCFE6FF2F
:1023E000FE0EDBCFE6FFA0EC0DF0E552E552E55224
:1023F000E7CF03F0E552E7CF02F0E552E7CF01F077
:10240000E552E7CF00F0F3CF04F0F4CF05F0066A11
:10241000076A03500718E8AE02D0073408D004500A
:10242000005C05500158065002580750035816E347
:10243000FD0EDBCFE9FFFE0EDBCFEAFF020ED890E8
:10244000E936EA36E806FBE1460EE9260F0EEA22F7
:102450000A0EEE5E000EEE5AEE5AEE5AE552E7CF45
:10246000D9FF1200D9CFE6FFE1CFD9FFFD0EDBCFB8
:1024700000F0FE0EDBCF01F0000E005C000E0158F4
:1024800055E3FD0EDBCF02F0FE0EDBCF03F0070EAF
:10249000025C000E03584AE2FD0EDBCFE9FFFE0EA0
:1024A000DBCFEAFF020ED890E936EA36E806FBE118
:1024B000460EE9260F0EEA22EECF00F0EECF01F035
:1024C000EECF02F0EFCF03F000C0E6FF01C0E6FF61
:1024D00002C0E6FF03C0E6FFFD0EDBCFE6FFFE0E07
:1024E000DBCFE6FF0EEC08F0E552E552E552E7CF10
:1024F00003F0E552E7CF02F0E552E7CF01F0E552F5
:10250000E7CF00F021500318E8AE02D0033408D022
:1025100000501E5C01501F58025020580350215893
:1025200003E3010EF36E01D0F36AF46AE552E7CFDC
:04253000D9FF1200BD
:0C25340002010A07000E0B5B12000201FE
:102540000A2B000E0B231200D9CFE6FFE1CFD9FFF3
:10255000080EE126DE6ADE6ADE6ADD6ADD52DD52E1
:10256000040EDB6A050EDB6A060EDB6A070EDB6A09
:102570006AEC07F00201010E0A1972E10B5170E1D9
:102580000AC2E9FF0BC2EAFFE906000EEA5A010E91
:10259000D890E936EA36E806FBE1D80EE926010EC6
:1025A000EA22EECFE6FFEFCFE6FF0EEC08F0E552B1
:1025B000E552040E1EC0DBFF050E1FC0DBFF060E3A
:1025C00020C0DBFF070E21C0DBFFE6C1E6FFE7C14D
:1025D000E6FF000EE66EE66AE66EE66A92EC02F050
:1025E000006E060EE15E00500AC2E9FF0BC2EAFF70
:1025F000E906000EEA5A010ED890E936EA36E806F6
:10260000FBE1BC0EE926010EEA22EECFE6FFEFCF9A
:10261000E6FF000EE66EE66A010EE66EE66A92ECF2
:1026200002F0006E060EE15E0050D950040FE96E14
:10263000DACFEAFFEECFE6FFEECFE6FFEECFE6FF22
:10264000EFCFE6FF0AC2E9FF0BC2EAFFE906000E80
:10265000EA5A010ED890E936EA36E806FBE1D0D016
:102660000AC2E9FF0BC2EAFF020EE95E000EEA5A57
:10267000010ED890E936EA36E806FBE1D80EE926E5
:10268000010EEA22EECFE6FFEFCFE6FF0EEC08F0F8
:10269000E552E5521EC0DEFF1FC0DEFF20C0DEFF98
:1026A00021C0DDFFDD52DD520AC2E9FF0BC2EAFFA5
:1026B000E906000EEA5A010ED890E936EA36E80635
:1026C000FBE1D80EE926010EEA22EECFE6FFEFCFBE
:1026D000E6FF0EEC08F0E552E552040E1EC0DBFFEB
:1026E000050E1FC0DBFF060E20C0DBFF070E21C05A
:1026F000DBFF0AC2E9FF0BC2EAFF020EE95E000E31
:10270000EA5A010ED890E936EA36E806FBE1BC0E3B
:10271000E926010EEA22EECFE6FFEFCFE6FF000E3C
:10272000E66EE66AE66EE66A92EC02F0006E060E6F
:10273000E15E00500AC2E9FF0BC2EAFFE906000EA3
:10274000EA5A010ED890E936EA36E806FBE1BC0EFB
:10275000E926010EEA22EECFE6FFEFCFE6FF000EFC
:10276000E66EE66A010EE66EE66A92EC02F0006E34
:10277000060EE15E0050D9CFE9FFDACFEAFFEECFD7
:10278000E6FFEECFE6FFEECFE6FFEFCFE6FF0AC2B1
:10279000E9FF0BC2EAFF020EE95E000EEA5A010EE3
:1027A000D890E936EA36E806FBE1CA0EE926010EC2
:1027B000EA22EECFE6FFEFCFE6FF000EE66EE66A16
:1027C00021EC04F0006E080EE15E0050D950040FB9
:1027D000E96EDACFEAFFEECFE6FFEECFE6FFEECF0F
:1027E000E6FFEFCFE6FF0AC2E9FF0BC2EAFFE90608
:1027F000000EEA5A010ED890E936EA36E806FBE107
:10280000CA0EE926010EEA22EECFE6FFEFCFE6FF81
:10281000010EE66EE66A21EC04F0006E080EE15E41
:102820000050B8EC07F0080EE15C02E2E16AE55204
:10283000E16EE552E7CFD9FF120086DE030E0201FA
:102840000C1901E10D5170E0020E0C1901E10D515E
:1028500029E0010E0C1901E10D510BE00C5101E1D1
:102860000D5101E01200010E0C6F0D6B0A6F0B6B26
:102870001200010E0A6F0B6B040EE66EE66A61EC45
:102880001DF0E552E552F3CF00F0F4CF01F0010E58
:10289000F31807E1015060E152DE020E02010C6FF5
:1028A0000D6B1200010EE66EE66A61EC1DF0E5525A
:1028B000E552F3CF00F0F4CF01F0010EF31814E16C
:1028C000015012E10AC200F00BC201F00006000E36
:1028D000015A010E001807E1015005E1010E020145
:1028E0000C6F0D6B01D026DE040EE66EE66A61EC1D
:1028F0001DF0E552E552F4CF01F0010EF31813E19B
:1029000001502AE1010E0201016A0A25006E0B51F5
:102910000122070E001806E1015004E1030E0C6FBE
:102920000D6B12000CDE1200070E0A6F0B6B010E0E
:10293000E66EE66A61EC1DF0E552E552F3CF00F079
:10294000F4CF01F0010EF31807E1015005E1F2DDCB
:0A295000020E02010C6F0D6B120065
:06295A00D59ED59C650E20
:10296000206E130E216E72CF25F073CF26F021EC6E
:102970001EF01EC078FF1FC079FF03680468056A57
:1029800072CF06F073CF07F0086A0650035C006E42
:1029900007500458016E08500558026E246A010E53
:1029A000256E266A00C01FF001C020F002C021F091
:1029B000C0EC1DF01BC000F01CC001F01DC002F0F7
:1029C0001B50D66E03680468056A72CF06F073CF99
:1029D00007F0086A0650035C006E07500458016E49
:1029E00008500558026E246A010E256E266A00C042
:1029F0001FF001C020F002C021F0C0EC1DF01FC08C
:102A000000F020C001F021C002F01F50D76ED59A0F
:102A1000D586F28AF294F184D58E12000368046898
:102A2000056A78CF06F079CF07F0086A0650035C94
:102A3000006E07500458016E08500558026E246A53
:102A4000010E256E266A00C01FF001C020F002C0F2
:102A500021F0C0EC1DF01B50D66E03680468056AB7
:102A600078CF06F079CF07F0086A0650035C006E55
:102A700007500458016E08500558026E246A010E72
:102A8000256E266A00C01FF001C020F002C021F0B0
:102A9000C0EC1DF01FC000F020C001F021C002F00A
:102AA0001F50D76ED58E1200D59E12001200CD9009
:102AB000650E206E130E216E74CF25F075CF26F0B3
:102AC00021EC1EF01EC07AFF1FC07BFF0368046864
:102AD000056A1EC006F01FC007F0086A1E50035C9E
:102AE000006E1F500458016E08500558026E246A8B
:102AF000010E256E266A00C01FF001C020F002C042
:102B000021F0C0EC1DF01FC000F020C001F021C07A
:102B100002F01F50CF6E03680468056A7ACF06F092
:102B20007BCF07F0086A0650035C006E075004581C
:102B3000016E08500558026E246A010E256E266A41
:102B400000C01FF001C020F002C021F0C0EC1DF059
:102B50001BC000F01CC001F01DC002F01B50CE6E67
:102B60009D809E909F90CD8ECD8CCD98CD9ACD9608
:102B7000CD92CD80120003680468056A7ACF06F012
:102B80007BCF07F0086A0650035C006E07500458BC
:102B9000016E08500558026E246A010E256E266AE1
:102BA00000C01FF001C020F002C021F0C0EC1DF0F9
:102BB0001F50CF6E03680468056A7ACF06F07BCF9A
:102BC00007F0086A0650035C006E07500458016E57
:102BD00008500558026E246A010E256E266A00C050
:102BE0001FF001C020F002C021F0C0EC1DF01BC09E
:102BF00000F01CC001F01DC002F01B50CE6ECD8055
:102C00001200CD9012001200B190650E206E130ECE
:102C1000216E76CF25F077CF26F021EC1EF01EC076
:102C20007CFF1FC07DFF03680468056A1EC006F0B4
:102C30001FC007F0086A1E50035C006E1F50045846
:102C4000016E08500558026E246A010E256E266A30
:102C500000C01FF001C020F002C021F0C0EC1DF048
:102C60001FC000F020C001F021C002F01F50B36E61
:102C700003680468056A7CCF06F07DCF07F0086A18
:102C80000650035C006E07500458016E085005584A
:102C9000026E246A010E256E266A00C01FF001C074
:102CA00020F002C021F0C0EC1DF01BC000F01CC0E1
:102CB00001F01DC002F01B50B26EA082A192A29240
:102CC000B18EB198B19AB192B180120003680468D4
:102CD000056A7CCF06F07DCF07F0086A0650035CDA
:102CE000006E07500458016E08500558026E246AA1
:102CF000010E256E266A00C01FF001C020F002C040
:102D000021F0C0EC1DF01B50B26E03680468056A28
:102D10007CCF06F07DCF07F0086A0650035C006E9A
:102D200007500458016E08500558026E246A010EBF
:102D3000256E266A00C01FF001C020F002C021F0FD
:102D4000C0EC1DF01FC000F020C001F021C002F057
:0C2D50001F50B36EB1801200B190120051
:042D5C00D9CFE6FFE6
:102D6000E1CFD9FF060EE126DE6ADD6A020EDB6ADC
:102D7000030EDB6A040EDB6A050EDB6A6AEC07F001
:102D80000F01010E241922E1255120E1EAC1E6FFDD
:102D9000EBC1E6FF000EE66EE66AE66EE66A92ECCE
:102DA00002F0006E060EE15E005026CFE6FF27CF50
:102DB000E6FF000EE66EE66A010EE66EE66A92EC4B
:102DC00002F0006E060EE15E0050F1D0DE6ADD6AB0
:102DD000DECF00F0DDCF01F0070E005C000E0158E1
:102DE00001E3E5D0DECFE6FFDDCFE6FF32EC12F007
:102DF000E552E552F3CF00F0F4CF01F0010EF318E5
:102E000001E0CFD0015001E0CCD0D950020FE96EE3
:102E1000DACFEAFFEE50ED1040E0010EE76E020E51
:102E2000DBCF00F0030EDBCF01F0E7500026000EF1
:102E30000122100E005C000E01582FE22C0EE66EEF
:102E4000020EDBCFE6FF030EDBCFE6FF040EDBCF87
:102E5000E6FF050EDBCFE6FF49EC02F0006E050E43
:102E6000E15E0050020EDB2A030E01E3DB2A020EB4
:102E7000DBCF00F0030EDBCF01F0100E005C000E84
:102E800001580BE3010EF36E040EF3CFDBFF050ECA
:102E9000DB6A020EDB6A030EDB6A020EDBCF02F096
:102EA000030EDBCF03F0DECFE9FFDDCFEAFF010E3B
:102EB000D890E936EA36E806FBE1360EE9260F0E31
:102EC000EA220250EE24006E0350EE20016E100E36
:102ED000005C000E01580BE3010EF36E040EF3CFFD
:102EE000DBFF050EDB6A020EDB6A030EDB6ADECF58
:102EF000E9FFDDCFEAFF010ED890E936EA36E806B1
:102F0000FBE1280EE9260F0EEA22EECFE6FFEFCF17
:102F1000E6FF020EDBCFE6FF030EDBCFE6FF040E7B
:102F2000DBCFE6FF050EDBCFE6FF92EC02F0006E92
:102F3000060EE15E0050020EDBCF02F0030EDBCF87
:102F400003F0DECFE9FFDDCFEAFF010ED890E936CE
:102F5000EA36E806FBE1360EE9260F0EEA220250B9
:102F6000EE24006E0350EE20016E020E00C0DBFF67
:102F7000030E01C0DBFF020EDBCF00F0030EDBCF40
:102F800001F0100E005C000E01580BE3010EF36E11
:102F9000040EF3CFDBFF050EDB6A020EDB6A030EC5
:102FA000DB6ADF2A010E01E213D7DB2A11D7B8EC66
:102FB00007F0060EE15C02E2E16AE552E16EE552DD
:102FC000E7CFD9FF1200CADE020E0F01241901E17A
:102FD00025513DE0010E241901E1255116E024514F
:102FE00001E1255101E01200010E246F256BE80E6E
:102FF000E66E030EE66E020EE66EE66A33EC1BF03A
:10300000E552E552E552E5521200020EE66EE66A1E
:103010008FEC1BF0E552E552F3CF00F0F4CF01F056
:10302000010EF31813E1015033E1880EE66E130E22
:10303000E66E020EE66EE66A33EC1BF0E552E552F0
:10304000E552E552020E0F01246F256B1200020EAD
:10305000E66EE66A8FEC1BF0E552E552F3CF00F026
:10306000F4CF01F0010EF31813E1015011E1E80E65
:10307000E66E030EE66E020EE66EE66A33EC1BF0B9
:10308000E552E552E552E552010E0F01246F256B22
:0230900012002C
:0E309200020E0001FE1901E1FF5130E0010EB7
:1030A000FE1901E1FF5117E0FE5101E1FF5101E07E
:1030B0001200E80EE66E030EE66E000EE66EE66A9D
:1030C00033EC1BF0E552E552E552E552010E0001EA
:1030D000FE6FFF6B1200000EE66EE66A8FEC1BF0CF
:1030E000E552E552F4CF01F0010EF31807E101506B
:1030F00001E021D1020E0001FE6FFF6B1200740E81
:10310000E66E3F0EE66EF9EC0DF0E552E552000E6C
:10311000E66EE66A0EEC08F0E552E5521EC000F0DD
:103120001FC001F020C002F021C003F01EC0E6FF66
:103130001FC0E6FF20C0E6FF21C0E6FF39EC0FF01C
:10314000E552E552E552E5526B0EE66E3F0EE66E35
:10315000F9EC0DF0E552E552010EE66EE66A0EEC72
:1031600008F0E552E5521EC000F01FC001F020C07B
:1031700002F021C003F01EC0E6FF1FC0E6FF20C022
:10318000E6FF21C0E6FF39EC0FF0E552E552E552CB
:10319000E5525F0EE66E3F0EE66EF9EC0DF0E5527D
:1031A000E552020EE66EE66A0EEC08F0E552E552D4
:1031B0001EC000F01FC001F020C002F021C003F0CB
:1031C0001EC0E6FF1FC0E6FF20C0E6FF21C0E6FFED
:1031D00039EC0FF0E552E552E552E552530EE66E3A
:1031E0003F0EE66EF9EC0DF0E552E552030EE66E89
:1031F000E66A0EEC08F0E552E5521EC000F01FC072
:1032000001F020C002F021C003F01EC0E6FF1FC085
:10321000E6FF20C0E6FF21C0E6FF39EC0FF0E552E3
:10322000E552E552E5524A0EE66E3F0EE66EF9ECC7
:103230000DF0E552E552040EE66EE66A0EEC08F07B
:10324000E552E5521EC000F01FC001F020C002F0A0
:1032500021C003F01EC0E6FF1FC0E6FF20C0E6FF4E
:1032600021C0E6FF39EC0FF0E552E552E552E55298
:103270003E0EE66E3F0EE66EF9EC0DF0E552E552BD
:10328000050EE66EE66A0EEC08F0E552E5521EC049
:1032900000F01FC001F020C002F021C003F01EC0EA
:1032A000E6FF1FC0E6FF20C0E6FF21C0E6FF39ECC5
:1032B0000FF0E552E552E552E552310EE66E3F0E53
:1032C000E66EF9EC0DF0E552E552060EE66EE66AA2
:1032D0000EEC08F0E552E5521EC000F01FC001F0F0
:1032E00020C002F021C003F01EC0E6FF1FC0E6FFB1
:1032F00020C0E6FF21C0E6FF39EC0FF0E552E552B1
:10330000E552E552280EE66E3F0EE66EF9EC0DF042
:10331000E552E552E80EE66E030EE66E000EE66E2E
:10332000E66A33EC1BF0E552E552E552E552010E38
:083330000001FE6FFF6B1200AB
:0833380002010E2B000E0F2311
:10334000120002010E07000E0F5B1200D9CFE6FF3C
:10335000E1CFD9FF040EE1260EC2E6FF0FC2E6FF61
:10336000E6EC10F0E552E5521EC0DEFF1FC0DEFFA6
:1033700020C0DEFF21C0DDFFDD52DD526AEC07F028
:10338000E8C1E6FFE9C1E6FF000EE66EE66AE66E1A
:10339000E66A92EC02F0006E060EE15E00500EC28C
:1033A000E9FF0FC2EAFF010ED890E936EA36E806D7
:1033B000FBE1BC0EE926010EEA22EECFE6FFEFCFDD
:1033C000E6FF000EE66EE66A010EE66EE66A92EC35
:1033D00002F0006E060EE15E0050D9CFE9FFDACFB1
:1033E000EAFFEECFE6FFEECFE6FFEECFE6FFEFCF50
:1033F000E6FF0EC2E9FF0FC2EAFF010ED890E936E0
:10340000EA36E806FBE1CA0EE926010EEA22EECF13
:10341000E6FFEFCFE6FF010EE66EE66A21EC04F070
:10342000006E080EE15E0050B8EC07F0040EE15C9F
:1034300002E2E16AE552E16EE552E7CFD9FF120000
:1034400085DF050E0201101901E1115101E18ED055
:10345000040E101901E1115101E17BD0030E101986
:1034600001E1115171E0020E101901E1115168E002
:10347000010E101901E1115109E0105101E1115142
:1034800001E01200010E106F116B1200010EE66ECA
:10349000E66A61EC1DF0E552E552F3CF00F0F4CF9F
:1034A00001F0010EF3180BE1015009E10201060ED3
:1034B0000E5D000E0F5903E2020E106F116B000E2D
:1034C000E66EE66A61EC1DF0E552E552F3CF00F0DE
:1034D000F4CF01F0010EF3180CE101500AE10201F2
:1034E000000ED8800E55000E0F5503E2030E106F2C
:1034F000116B040EE66EE66A61EC1DF0E552E552D2
:10350000F3CF00F0F4CF01F0010EF31806E1015003
:1035100004E1040E0201106F116B030EE66EE66A01
:1035200061EC1DF0E552E552F4CF01F0010EF31805
:1035300006E1015027E1050E0201106F116B120028
:103540000E2B000E0F2303D00E07000E0F5B010E93
:103550000AD00EC2E6FF0FC2E6FF29EC11F0E552D9
:10356000E552010E0201106F116B12000EC2E6FF50
:103570000FC2E6FFADEC11F0E552E552010E02017B
:06358000106F116B120038
:0A358600D9CFE6FFE1CFD9FF020E16
:10359000E126DE6ADD6ADE6ADD6ADECF00F0DDCFBD
:1035A00001F0D890015004E6040E005C000E0158B2
:1035B00050E2DECFE9FFDDCFEAFFD890E936EA3608
:1035C0006A0EE9260F0EEA22000ED880EE54000E95
:1035D000ED543AE2DECFE9FFDDCFEAFFD890E936DD
:1035E000EA366A0EE9260F0EEA22EE06000EEF5AC0
:1035F000DECFE9FFDDCFEAFFD890E936EA366A0E82
:10360000E9260F0EEA22000ED880EE54000EED548B
:103610001BE3DECFE9FFDDCFEAFFD890E936EA36DB
:103620006A0EE9260F0EEA22EE6AED6ADECFE9FFA6
:10363000DDCFEAFFD890E936EA36620EE9260F0EB2
:10364000EA22010EEE6EED6ADF2A010EA6E3DB2A06
:10365000A4D7020EE15C02E2E16AE552E16EE552B6
:10366000E7CFD9FF1200D9CFE6FFE1CFD9FFFD0E9A
:10367000DBCF00F0FE0EDBCF01F0000E005C000E91
:1036800001580BE3FD0EDBCF02F0FE0EDBCF03F0A3
:10369000040E025C000E035802E3F36A3BD0FB0EFB
:1036A000DBCF00F0FC0EDBCF01F00A0E256E266AA0
:1036B00000C020F001C021F08AEC21F020C000F011
:1036C00021C001F0FD0EDBCFE9FFFE0EDBCFEAFFEC
:1036D000010ED890E936EA36E806FBE16A0EE926E3
:1036E0000F0EEA2200C0EEFF01C0EDFFFD0EDBCFA2
:1036F000E9FFFE0EDBCFEAFF010ED890E936EA368D
:10370000E806FBE1620EE9260F0EEA22EE6AED6A98
:10371000010EF36EF46AE552E7CFD9FF1200D9CF5C
:10372000E6FFE1CFD9FFFD0EDBCF00F0FE0EDBCFD1
:1037300001F0000E005C000E01580BE3FD0EDBCF24
:1037400002F0FE0EDBCF03F0040E025C000E035805
:1037500002E3F36A2BD0FD0EDBCFE9FFFE0EDBCFD9
:10376000EAFF010ED890E936EA36E806FBE1620E80
:10377000E9260F0EEA22010EEE1817E1ED5015E1D1
:10378000FD0EDBCFE9FFFE0EDBCFEAFF010ED89086
:10379000E936EA36E806FBE1620EE9260F0EEA2278
:1037A000EE6AED6A010EF36E01D0F36AF46AE55237
:0637B000E7CFD9FF120073
:0A37B600F28ED08EF28C1200F19C0E
:1037C000F292F2881200D8CFE4FFE0CFE4FFE46E7B
:1037D000DACFE4FFE2CFDAFFE9CFE4FFEACFE4FF9C
:1037E000F6CFE4FFF7CFE4FFF5CFE4FFF3CFE4FF3C
:1037F000F4CFE4FFFACFE4FF00EE18F0140EE80473
:1038000003E3EECFE4FFFBD700EE00F0180EE80470
:1038100003E3EECFE4FFFBD7E652F2A407D054EC6B
:1038200015F0F2940EEC15F056EC15F09EA007D0B2
:1038300001EC16F09E90BBEC15F003EC16F0A1A283
:1038400007D0ACEC16F0A19266EC16F01EEC21F05D
:10385000F2B2F2929EAA03D09E9A72EC10F0E55258
:1038600000EE17F0180EE80403E3E5CFEDFFFBD7F9
:1038700000EE2BF0140EE80403E3E5CFEDFFFBD7D9
:10388000E5CFFAFFE5CFF4FFE5CFF3FFE5CFF5FF96
:10389000E5CFF7FFE5CFF6FFE5CFEAFFE5CFE9FF9C
:1038A000E5CFDAFFE550E5CFE0FFE5CFD8FF100028
:1038B000DACFE4FFE2CFDAFFE9CFE4FFEACFE4FFBB
:1038C000F6CFE4FFF7CFE4FFF5CFE4FFF3CFE4FF5B
:1038D000F4CFE4FFFACFE4FF00EE18F0140EE80492
:1038E00003E3EECFE4FFFBD700EE00F0180EE80490
:1038F00003E3EECFE4FFFBD7E652F2A407D054EC8B
:1039000015F0F2940EEC15F056EC15F09EA007D0D1
:1039100001EC16F09E90BBEC15F003EC16F0A1A2A2
:1039200007D0ACEC16F0A19266EC16F01EEC21F07C
:10393000F2B2F2929EAA03D09E9A72EC10F0E55277
:1039400000EE17F0180EE80403E3E5CFEDFFFBD718
:1039500000EE2BF0140EE80403E3E5CFEDFFFBD7F8
:10396000E5CFFAFFE5CFF4FFE5CFF3FFE5CFF5FFB5
:10397000E5CFF7FFE5CFF6FFE5CFEAFFE5CFE9FFBB
:06398000E5CFDAFF1100A3
:0A398600CF0E9414946E82681200B4
:10399000D9CFE6FFE1CFD9FF040EE126DE6ADD6A6A
:1039A000020EDB6A030EDB6ADE6ADD6ADECF00F040
:1039B000DDCF01F0D890015004E6020E005C000E4D
:1039C000015875E2300E8210826EDECFE9FFDDCF46
:1039D000EAFFEC0EE926010EEA22EF1C8214826E49
:1039E0000F0E8210826E020EDB6A030EDB6A020E7D
:1039F000DBCF00F0030EDBCF01F0D890015004E6DE
:103A0000030E005C000E01584CE2020EDBCFE9FF12
:103A1000030EDBCFEAFFF00EE926010EEA22EF509B
:103A200082141DE1DECF00F0DDCF01F0030E0102B4
:103A3000F3CF01F00002F4500126020EDB50F32414
:103A4000E96E030EDB500120EA6ED890E936EA36C3
:103A5000F40EE926010EEA22010EEE6E1BD0DECF37
:103A600000F0DDCF01F0030E0102F3CF01F0000200
:103A7000F4500126020EDB50F324E96E030EDB50F6
:103A80000120EA6ED890E936EA36F40EE926010EF6
:103A9000EA22EE6AED6A020EDB2A030EA8E3DB2AB5
:103AA000A6D7DF2A010E01E281D7DB2A7FD7040ED9
:103AB000E15C02E2E16AE552E16EE552E7CFD9FF4F
:103AC0001200D9CFE6FFE1CFD9FFFD0EDBCF00F02A
:103AD000FE0EDBCF01F0000E005C000E01580BE380
:103AE000FD0EDBCF02F0FE0EDBCF03F0060E025C14
:103AF000000E035803E3F36AF46A18D0FD0EDBCF1F
:103B0000E9FFFE0EDBCFEAFF010ED890E936EA3678
:103B1000E806FBE1F40EE926010EEA22EECF00F002
:103B2000EFCF01F000C0F3FF01C0F4FFE552E7CF93
:043B3000D9FF1200A7
:0C3B3400186A26AEA3EF1DF0256C261EBB
:103B4000E86A2622181E21AEABEF1DF0206C211E64
:103B5000E86A2122181E8AEC21F021BEBBEF1DF07D
:103B600018AE000C206C211EE86A21221C6C1D1E60
:103B7000E86A1D22000C18BEB2EF1DF01988FF0C78
:103B8000186A26AECBEF1DF0246C251E261EE86AAF
:103B900025222622181E21AED5EF1DF01F6C201EF7
:103BA000211EE86A20222122181E52EC21F021BE9B
:103BB000E8EF1DF018AE000C1F6C201E211EE86AF5
:103BC000202221221B6C1C1E1D1E1C221D22000CEB
:103BD00018BEDCEF1DF01988FF0C186AE86A26AEE3
:103BE000FAEF1DF0236C241E251E261E24222522FA
:103BF0002622181E21AE05EF1EF01E6C1F1E201E71
:103C0000211E1F2220222122181E2EEC21F021BE6F
:103C10001CEF1EF018AE000C1E6C1F1E201E211E75
:103C2000E86A1F22202221221A6C1B1E1C1E1D1E48
:103C30001B221C221D22000C18BE0CEF1EF019883E
:103C4000FF0C20C02AF020502502F4CF1FF0F3CF44
:103C50001EF021502602F4CF21F0F3CF20F02502F0
:103C6000F3501F26F4502022E86A21222A5026020F
:0E3C7000F3501F26F4502022E86A2122000C97
:023C7E00020E34
:103C80000201161901E1175146E0010E161901E172
:103C900017511AE0165101E1175101E01200E66ACE
:103CA0007FEC21F0E552010E0201166F176B18C26E
:103CB000E6FF19C2E6FFE66EE66A33EC1BF0E5525A
:103CC000E552E552E5521200320EE66E7FEC21F02D
:103CD000E552010EE66EE66A8FEC1BF0E552E55206
:103CE000F3CF00F0F4CF01F0010EF31813E101500F
:103CF00036E1020E0201166F176B18C2E6FF19C2F9
:103D0000E6FF010EE66EE66A33EC1BF0E552E55283
:103D1000E552E5521200E66A7FEC21F0E552010E11
:103D2000E66EE66A8FEC1BF0E552E552F3CF00F049
:103D3000F4CF01F0010EF31812E1015010E1010E71
:103D40000201166F176B18C2E6FF19C2E6FFE66E96
:103D5000E66A33EC1BF0E552E552E552E5521200FB
:0A3D6000E66A7FEC21F0E552120044
:063D6A00020E0201121915
:103D700001E1135140E0010E121901E1135118E065
:103D8000125101E1135101E012005ED8020E02014E
:103D9000126F136B14C2E6FF15C2E6FF030EE66E48
:103DA000E66A33EC1BF0E552E552E552E5521200AB
:103DB0004BD8030EE66EE66A8FEC1BF0E552E55237
:103DC000F3CF00F0F4CF01F0010EF31813E101502E
:103DD0003AE1020E0201126F136B14C2E6FF15C224
:103DE000E6FF030EE66EE66A33EC1BF0E552E552A1
:103DF000E552E5521200010EE66EE66ACDEC20F0C7
:103E0000E552E552030EE66EE66A8FEC1BF0E552D2
:103E1000E552F3CF00F0F4CF01F0010EF31813E1F7
:103E2000015011E1010E0201126F136B14C2E6FF83
:103E300015C2E6FF030EE66EE66A33EC1BF0E552B0
:0C3E4000E552E552E5521200FCEF20F0C4
:043E4C00030E0F0151
:103E50007E1901E17F5159E0020E7E1901E17F5187
:103E600036E0010E7E1901E17F5109E07E5101E14A
:103E70007F5101E01200010E7E6F7F6B1200B0ECEB
:103E80001EF0020EE66EE66ACDEC20F0E552E55239
:103E90001DEC14F0050EE66EE66A61EC1DF0E552CD
:103EA000E552F4CF01F0010EF31806E1015004E1F0
:103EB000020E0F017E6F7F6B0F01010E441906E1A8
:103EC000455131E1030E0F017E6F7F6B1200B0ECA4
:103ED0001EF0030EE66EE66ACDEC20F0E552E552E8
:103EE00020EC1AF0050EE66EE66A61EC1DF0E55274
:103EF000E552F4CF01F0010EF31806E1015013E191
:103F0000010E0F017E6F7F6B1200B5EC1EF03FECCF
:103F10001EF0E3EC17F00F014451451104E1010ECE
:083F20000F017E6F7F6B1200A0
:083F2800206D332F68200D0A03
:103F300000206D672F6C20464C4F573D2000206DB0
:103F4000672F6C204E4F333D20002043204E4834D5
:103F50003D2000206D672F6C20544D503D200020E7
:103F60006D672F6C204353423D2000207048205342
:103F7000533D200070483D200053454E534F522082
:103F8000414C4552540053454E534F5220534554D3
:103F900054494E470053454E534F522056414C55BD
:103FA0004500464C4F573A20004E4F333A20004EC2
:103FB00048343A200054454D503A2000434F443A8B
:103FC000200053533A200070483A2000464C4F5787
:103FD000004E4F33004E48340054454D5000434F7F
:103FE00044005353007048004F7665722074687225
:093FF0006573686F6C6421210007
:013FF90020A7
:063FFA001E0EF66E000E23
:10400000F76E000EF86E02010900F550056F090009
:10401000F550066F03E1056701D03DD00900F5506A
:10402000006F0900F550016F0900F550026F09009B
:104030000900F550E96E0900F550EA6E0900090023
:104040000900F550036F0900F550046F09000900DD
:10405000F6CF07F2F7CF08F2F8CF09F200C2F6FF69
:1040600001C2F7FF02C2F8FF0201035302E1045349
:1040700007E00900F550EE6E0307F8E20407F9D7F0
:1040800007C2F6FF08C2F7FF09C2F8FF02010507E1
:08409000000E065BBFD7120011
:084098000F0E926E0B0EC16EBB
:1040A000040EC06E1200D9CFE6FFE1CFD9FF020E99
:1040B000E126FE0EDB50040DF350C26EC280C282B8
:1040C000C2B2FED7C450DE6EDD6ADECF02F0DDCFB5
:1040D00003F0D89002360336D89002360336060E27
:1040E000C3CFE7FF070B04E0E742E79EE806FCE1E9
:1040F000E7500224006E000E032000C0DEFFDD6EDC
:10410000DECF00F0DDCF01F000C0F3FF01C0F4FF0F
:10411000020EE15C02E2E16AE552E16EE552E7CFB0
:04412000D9FF1200B1
:0C4124001E502302F3CF1AF0F4CF1BF062
:104130002402F3501B26000EF4201C6E1E50250294
:10414000F3501C26000EF4201D6E1E502602F35064
:104150001D261F502302F3501B26F4501C22000E74
:104160001D221F502402F3501C26F4501D221F5004
:104170002502F3501D2620502302F3501C26F45034
:104180001D2220502402F3501D2621502302F350FB
:044190001D261200D6
:0C419400966A846A1200D9CFE6FFE1CFE2
:1041A000D9FFE150FD0FE96EFF0EDA20EA6E020E34
:1041B000EE1804E1ED5002E11FD88480D950FD0FC4
:1041C000E96EFF0EDA20EA6E010EEE1804E1ED5002
:1041D00002E112D88482D950FD0FE96EFF0EDA2079
:1041E000EA6E030EEE1804E1ED5002E105D8848476
:0C41F000E552E7CFD9FF1200846A1200EC
:0441FC0017D805D8F3
:1042000026EC1FF049EC18F0FBD7C3EC1CF0A7EC30
:1042100001F0D9EC0DF04CEC20F06FEC21F0CAEC81
:1042200020F0E66A7FEC21F0E55212000A0E0F0141
:10423000766F776BDBEC1BF004EF16F0C3EC1AF033
:10424000C8EC1CF051EC08F0F9EC0AF094EC0BF01F
:0C42500030EC0CF0CCEC0CF0E0EF10F0C7
:04425C001D6A1C6A51
:104260001B6A1A6A200EE76ED8901E361F3620365B
:1042700021361A361B361C361D3623501A5C245044
:104280001B5825501C5826501D5809E323501A5E10
:1042900024501B5A25501C5A26501D5A1E2AE72E00
:0442A000E4D712004D
:0C42A4001D6A1C6A1B6A180EE76ED89099
:1042B0001F36203621361B361C361D3624501B5C1B
:1042C00025501C5826501D5807E324501B5E2550CE
:0E42D0001C5A26501D5A1F2AE72EEAD712004C
:0242DE00CA9480
:1042E000CA90CA82CB68BD98BD9ABE6ABD9CBD9E6D
:1042F000BD90BD92BD84BD869494CA841200D9CF6E
:10430000E6FFE1CFD9FFFE0EDB50BE6EE552E7CFF0
:04431000D9FF1200BF
:0C4314001D6A1C6A100EE76ED89020365F
:1043200021361C361D3625501C5C26501D5805E3D1
:1043300025501C5E26501D5A202AE72EF0D7120069
:10434000800EF36E00EE00F00F0E01D81200EA604E
:1043500002D0EE6AFCD7F350E9601200EE6AFCD797
:104360001EEE00F02EEE00F0F86A199CFDEC1FF036
:0C43700003EC00F0FEEC20F0FBD7120084
:04437C00000000003D
:0C43800000000000000000000000000031
:04438C0000008403A6
:104390000000282300002823000094110000A00F33
:0A43A000000028230000007D00004B
:0643AA000000FF0300000B
:1043B00000000000000000000000000000000000FD
:1043C00000000000000000000000000000000000ED
:1043D000000000000000E80310271027881388134E
:1043E0001027A08C900100000000C409E803D0074A
:1043F0000000E80390011027000010270000881338
:0E440000C4098813E8031027D007A08C000021
:02440E000000AC
:0A44100000000000000000000000A2
:06441A00202020202020DC
:10442000202020202020202020202020202020208C
:0E44300020202020202020202020010000003D
:02443E0010204C
:1044400080000102080000000000000000000000E1
:0244500000006A
:0E44520000000000000000000000000000005C
:0C44600000000000000000000000000050
:04446C00C73FC23F45
:10447000BC3FB53FAF3FA93FA23F04000400050089
:104480000600050005000600000001000200030010
:0C449000040005000600953F863F793FC0
:04449C000000E83FF5
:1044A000E53FE23FDE3FD93FD53FD13FCC3F020061
:0C44B000020003000400030003000400ED
:0244BC000000FE
:0244BE000000FC
:0244C000F40105
:0444C20000003200C4
:020000040030CA
:0100010002FC
:0100020003FA
:010003001EDE
:010005008179
:010006008178
:010008000FE8
:01000900C036
:01000A000FE6
:01000B00E014
:01000C000FE4
:01000D0040B2
:00000001FF
