:020000040000FA
:06000000B2EF26F0120031
:020006001200E6
:06000800BDEF20F0120024
:02000E000000F0
:0400100000000000EC
:0400140001000000E7
:0600180048EF20F0120089
:02001E001200CE
:10002000BC4E00008000000048000000B84E0000F8
:1000300052020000040000009C4E0000420F00002D
:100040001C000000984E00004E020000040000005A
:10005000964E0000FE01000002000000824E0000EB
:1000600028020000140000007E4E00004A0200003A
:10007000040000001400000046020000040000001C
:100080003C4E0000BC01000042000000224E000077
:100090005E0F00001A0000000E4E00001402000067
:1000A00014000000EA4D0000000F000024000000D2
:1000B000DE4D0000F40000000C0000002B480000A2
:1000C0007E0F000001000000B24D0000C8000000DB
:1000D0002C000000944D0000240F00001E000000C2
:1000E000804D000000020000140000000E0000001F
:0800F000780F0000060000007B
:0800F800D9CFE6FFE1CFD9FFEB
:10010000040EE126DE6ADD6A020EDB6A030EDB6A9C
:10011000DE6ADD6ADECF00F0DDCF01F0026A036A3D
:1001200001AE02D002680368D950FB0FE96EFF0EE2
:10013000DA20EA6EEE50005CEE500158EE500258A4
:10014000EE5003581DE2020EDB6A030EDB6A020E5C
:10015000DBCF00F0030EDBCF01F0D890015004E6B6
:10016000A00E005C000E015806E2020EDB2A030E10
:10017000EEE3DB2AECD7DF2A010ECCE3DB2ACAD779
:10018000040EE15C02E2E16AE552E16EE552E7CF7E
:10019000D9FF1200D9CFE6FFE1CFD9FFFE0EDB5029
:1001A000F00B006E0F0E81140010816E8184818629
:1001B000010EE66EE66AE66AE66A9EDFE552E55201
:1001C000E552E5528196010EE66EE66AE66AE66A57
:1001D00093DFE552E552E552E552FE0EDB38F00BB7
:1001E000006E0F0E81140010816E8186010EE66E86
:1001F000E66AE66AE66A80DFE552E552E552E552D4
:1002000081968194030EE66EE66AE66AE66A74DF1A
:10021000E552E552E552E552E552E7CFD9FF12002B
:10022000D9CFE6FFE1CFD9FFFD0EDBCFF6FFFE0E03
:10023000DBCFF7FF0800F55011E0FD0EDBCFF6FF36
:10024000FE0EDBCFF7FF0800F550E66EA3DFE552A8
:10025000FD0EDB2AFE0EE8E3DB2AE6D7E552E7CF08
:10026000D9FF1200D9CFE6FFE1CFD9FF20CF00F0B0
:1002700021CF01F0040ED89000360136E806FBE1EC
:10028000000E00260F0E012200500F012225E96EFC
:1002900001502321EA6EFE0EDBCFEFFF222B000E72
:1002A0002323100E23AF02D0D89003D0225D000E7E
:1002B000235905E3202B000E2123226B236B030E11
:1002C00021AF02D0D89003D0205D000E215902E367
:1002D000206B216BE552E7CFD9FF1200D9CFE6FFA3
:1002E000E1CFD9FFFE0EDB50F00B006E0F0E811434
:1002F0000010816E81948186010EE66EE66AE66AE0
:10030000E66AFADEE552E552E552E5528196010EC3
:10031000E66EE66AE66AE66AEFDEE552E552E55227
:10032000E552FE0EDB38F00B006E0F0E811400104C
:10033000816E8186010EE66EE66AE66AE66ADCDEBA
:10034000E552E552E552E5528196030EE66EE66A05
:10035000E66AE66AD1DEE552E552E552E552E5523B
:10036000E7CFD9FF1200D9CFE6FFE1CFD9FF020EC8
:10037000E126DE6ADD6A0F01226B236B010E206F1E
:10038000216BDE6ADD6ADECF00F0DDCF01F0200EEA
:10039000005C000E01582BE2DECF00F0DDCF01F053
:1003A000040E0F0B05E0D89001320032E806FBE1A5
:1003B000040ED89000360136E806FBE1000E002658
:1003C0000F0E0122DECF02F0DDCF03F00001036A41
:1003D0000F0E021600500224E96E01500320EA6E4F
:1003E000200EEF6EDF2A010ECEE3DB2ACCD7936A14
:1003F000816A190EE66EE66AE66AE66A7DDEE55215
:10040000E552E552E552020EE66E68DFE552280E2F
:10041000E66E64DFE552010EE66E60DFE5520C0E1B
:10042000E66E5CDFE552060EE66E58DFE552020E20
:10043000E15C02E2E16AE552E16EE552E7CFD9FF05
:100440001200010EE66E4ADFE552030EE66EE66A22
:10045000E66AE66A51DEE552E552E552E5521200DF
:10046000D9CFE6FFE1CFD9FFE652DF6AFE0EDB50BF
:1004700005E1FD0EDB500F0B800904D0FD0EDB50B3
:100480000F0BC009DF6EDFCFE6FF28DFE552FB0E62
:10049000DBCFE6FFFC0EDBCFE6FFC2DEE552E55226
:1004A000E552E552E7CFD9FF1200D9CFE6FFE1CF01
:1004B000D9FFFD0EDBCF20FF0F01216B010E2017AE
:1004C000FB0EDBCF22FF236B0F0E221720CF00F095
:1004D00021CF01F0040ED89000360136E806FBE18A
:1004E000000E00260F0E012200500F012225E96E9A
:1004F00001502321EA6EFA0EDBCFEFFF222B000E14
:100500002323100E23AF02D0D89003D0225D000E1B
:10051000235905E3202B000E2123226B236B030EAE
:1005200021AF02D0D89003D0205D000E215902E304
:10053000206B216BE552E7CFD9FF1200D9CFE6FF40
:10054000E1CFD9FFFD0EDBCF20FF0F01216B010EA4
:100550002017FB0EDBCF22FF236B0F0E2217F90EA5
:10056000DBCFF6FFFA0EDBCFF7FF0800F55047E0D0
:10057000F90EDBCFF6FFFA0EDBCFF7FF0800F550E0
:10058000E66E20CF00F021CF01F0040ED8900036A7
:100590000136E806FBE1000E00260F0E0122005096
:1005A0000F012225E96E01502321EA6EE552E75042
:1005B000EF6E222B000E2323100E23AF02D0D89013
:1005C00003D0225D000E235905E3202B000E2123CA
:1005D000226B236B020E21AF02D0D89003D0205D96
:1005E000000E215902E3206B216BF90EDBCFF6FFE1
:1005F000DB2AFA0EDBCFF7FFB2E3DB2AB0D7E552F6
:10060000E7CFD9FF1200D9CFE6FFE1CFD9FF040E23
:10061000E126DE6ADD6A020EDB6A030EDB6AFD0E8E
:10062000DBCF20FF0F01216B010E2017FB0EDBCF6C
:1006300022FFFC0EDBCF23FF236B0F0E2217F70EDA
:10064000DBCF00F0F80EDBCF01F0F90EDBCF02F0CC
:10065000FA0EDBCF03F0005001100210031004E18A
:10066000300EE66EFFDDE552D950F70FE96EFF0E52
:10067000DA20EA6ED890030EEB50000A08E6000E6E
:10068000EE5C000EEE58000EEE58000EEE5822E220
:100690002D0EE66EE7DDE552F70EDBCF24F0F80E07
:1006A000DBCF25F0F90EDBCF26F0FA0EDBCF27F0FB
:1006B00029682A682B682C6892EC25F0F70E20C078
:1006C000DBFFF80E21C0DBFFF90E22C0DBFFFA0EC4
:1006D00023C0DBFF100EDE6E270EDD6ED9CFE9FFE3
:1006E000DACFEAFF000ED880EE54000EED5401E39D
:1006F000AAD0DECF00F0DDCF01F0026A036A00C0AD
:1007000029F001C02AF002C02BF003C02CF0F70E34
:10071000DBCF24F0F80EDBCF25F0F90EDBCF26F08F
:10072000FA0EDBCF27F036EC23F0245025102610EC
:10073000271036E0DECF04F0DDCF05F0066A076A49
:1007400004C029F005C02AF006C02BF007C02CF029
:10075000F70EDBCF24F0F80EDBCF25F0F90EDBCF60
:1007600026F0FA0EDBCF27F036EC23F024C000F0A1
:1007700025C001F026C002F027C003F0300E00268D
:10078000000E0122022203220050E66E6BDDE552CC
:10079000010EF36E020EF3CFDBFF030EDB6A0ED009
:1007A000D950020FE96EDACFEAFF010EEE1806E12A
:1007B000ED5004E1300EE66E55DDE552DECF00F07F
:1007C000DDCF01F0026A036A00C029F001C02AF0FF
:1007D00002C02BF003C02CF0F70EDBCF24F0F80E94
:1007E000DBCF25F0F90EDBCF26F0FA0EDBCF27F0BA
:1007F00003C0F5FF36EC23F0F5AE08D0000E206CF8
:10080000211E2122221E2222231E2322F70E20C077
:10081000DBFFF80E21C0DBFFF90E22C0DBFFFA0E72
:1008200023C0DBFF0A0E006E016A2B6E01C02CF0A4
:10083000DECF26F0DDCF27F08CEC26F026C0DEFFE1
:1008400027C0DDFF4BD7040EE15C02E2E16AE5520E
:10085000E16EE552E7CFD9FF1200D9CFE6FFE1CF35
:10086000D9FF080EE126D9CFE9FFDACFEAFFF70E6C
:10087000DBCFEEFFF80EDBCFEEFFF90EDBCFEEFFA6
:10088000FA0EDBCFEEFF040EDB6A050EDB6A060E06
:10089000DB6A070EDB6AD9CFE9FFDACFEAFFEECFDA
:1008A00024F0EECF25F0EECF26F0EFCF27F0100E9C
:1008B000296E270E2A6E2B6A2C6A36EC23F0245000
:1008C00025102610271054E0D9CFE9FFDACFEAFF30
:1008D000EECF00F0EECF01F0EECF02F0EFCF03F05D
:1008E000100E296E270E2A6E2B6A2C6A00C024F087
:1008F00001C025F002C026F003C027F036EC23F03B
:1009000024C000F025C001F026C002F027C003F08B
:1009100024C0E6FF25C0E6FF26C0E6FF27C0E6FFAD
:10092000040EDBCF06F0050EDBCF07F0FB0EDB502D
:100930000624046EFC0EDB500720056E04C0E6FFA3
:10094000E66EFD0EDBCFE6FFFE0EDBCFE6FF5BDEE5
:10095000086E080EE15E0850010EF36E060EF3CF2E
:10096000DBFF070EDB6A040EDB2A050E01E3DB2A40
:10097000D9CFE9FFDACFEAFFEECF24F0EECF25F0B2
:10098000EECF26F0EFCF27F0100E296E270E2A6E3D
:100990002B6A2C6A36EC23F020C0DEFF21C0DEFF7C
:1009A00022C0DEFF23C0DDFFDD52DD52D9CFE9FFDB
:1009B000DACFEAFFEECF24F0EECF25F0EECF26F02F
:1009C000EFCF27F0E80E296E030E2A6E2B6A2C6AF1
:1009D00036EC23F024502510261027100AE1D950B8
:1009E000060FE96EDACFEAFF010EEE184FE1ED5087
:1009F0004DE1D9CFE9FFDACFEAFFEECF00F0EECF3D
:100A000001F0EECF02F0EFCF03F0E80E296E030EF7
:100A10002A6E2B6A2C6A00C024F001C025F002C0A7
:100A200026F003C027F036EC23F024C000F025C0E8
:100A300001F026C002F027C003F024C0E6FF25C065
:100A4000E6FF26C0E6FF27C0E6FF040EDBCF06F078
:100A5000050EDBCF07F0FB0EDB500624046EFC0E08
:100A6000DB500720056E04C0E6FFE66EFD0EDBCF0F
:100A7000E6FFFE0EDBCFE6FFC6DD086E080EE15E88
:100A80000850040EDB2A050E01E3DB2AD9CFE9FF6B
:100A9000DACFEAFFEECF24F0EECF25F0EECF26F04E
:100AA000EFCF27F0E80E296E030E2A6E2B6A2C6A10
:100AB00036EC23F020C0DEFF21C0DEFF22C0DEFFC7
:100AC00023C0DDFFDD52DD52D9CFE9FFDACFEAFFE7
:100AD000EECF00F0EECF01F0EECF02F0EFCF03F05B
:100AE000640E296E2A6A2B6A2C6A00C024F001C0A9
:100AF00025F002C026F003C027F036EC23F024C016
:100B000000F025C001F026C002F027C003F024C089
:100B1000E6FF25C0E6FF26C0E6FF27C0E6FF040E7D
:100B2000DBCF06F0050EDBCF07F0FB0EDB50062413
:100B3000046EFC0EDB500720056E04C0E6FFE66E77
:100B4000FD0EDBCFE6FFFE0EDBCFE6FF5CDD086EC1
:100B5000080EE15E0850040EDB2A050E01E3DB2AD5
:100B6000D9CFE9FFDACFEAFFEECF24F0EECF25F0C0
:100B7000EECF26F0EFCF27F0640E296E2A6A2B6A9B
:100B80002C6A36EC23F020C0DEFF21C0DEFF22C03D
:100B9000DEFF23C0DDFFDD52DD522E0EE66E040EB9
:100BA000DBCF02F0050EDBCF03F0FB0EDB5002249F
:100BB000006EFC0EDB500320016E00C0E6FFE66E07
:100BC000FD0EDBCFE6FFFE0EDBCFE6FF6EDC046E34
:100BD000050EE15E0450040EDB2A050E01E3DB2A5C
:100BE000D9CFE9FFDACFEAFFEECF00F0EECF01F088
:100BF000EECF02F0EFCF03F00A0E296E2A6A2B6ABD
:100C00002C6A00C024F001C025F002C026F003C009
:100C100027F036EC23F024C000F025C001F026C0F8
:100C200002F027C003F024C0E6FF25C0E6FF26C07F
:100C3000E6FF27C0E6FF040EDBCF06F0050EDBCF94
:100C400007F0FB0EDB500624046EFC0EDB50072081
:100C5000056E04C0E6FFE66EFD0EDBCFE6FFFE0E7E
:100C6000DBCFE6FFD0DC086E080EE15E0850040E14
:100C7000DB2A050E01E3DB2AD9CFE9FFDACFEAFF51
:100C8000EECF00F0EECF01F0EECF02F0EFCF03F0A9
:100C90000A0E296E2A6A2B6A2C6A00C024F001C051
:100CA00025F002C026F003C027F036EC23F020C068
:100CB00000F021C001F022C002F023C003F020C0E8
:100CC000E6FF21C0E6FF22C0E6FF23C0E6FF040ED8
:100CD000DBCF06F0050EDBCF07F0FB0EDB50062462
:100CE000046EFC0EDB500720056E04C0E6FFE66EC6
:100CF000FD0EDBCFE6FFFE0EDBCFE6FF84DC086EE9
:100D0000080EE15E0850040EDB2A050E01E3DB2A23
:100D1000080EE15C02E2E16AE552E16EE552E7CFDE
:100D2000D9FF1200D9CFE6FFE1CFD9FF030EE126AC
:100D3000200EDF6E010EDB6A020EDB6A010EDB6A3B
:100D4000020EDB6A010EDBCF00F0020EDBCF01F0FA
:100D5000100E005C000E015837E2010EDBCFE9FFF8
:100D6000020EDBCFEAFF000EE9260F0EEA22EFCFDC
:100D7000DFFF010EDBCFE9FF020EDBCFEAFF100E33
:100D8000E9260F0EEA22EF50E66E010EDBCFE9FFF7
:100D9000020EDBCFEAFF000EE9260F0EEA22E55233
:100DA000E750EF6E010EDBCFE9FF020EDBCFEAFF6B
:100DB000100EE9260F0EEA22DFCFEFFF010EDB2A2D
:100DC000020EC0E3DB2ABED7D950FD0FE96EFF0E3D
:100DD000DA20EA6EEE50ED100BE0D950FD0FE96E0F
:100DE000FF0EDA20EA6E010EEE180BE1ED5009E17C
:100DF000FD0EDBCFE6FFFE0EDBCFE6FF38D8E55277
:100E0000E552030EE15C02E2E16AE552E16EE55271
:100E1000E7CFD9FF1200D9CFE6FFE1CFD9FFFD0E12
:100E2000DBCF20FF0F01216B010E2017FB0EDBCF64
:100E300022FF236B0F0E221720CF00F021CF01F0ED
:100E4000040ED89000360136E806FBE1000E0026BD
:100E50000F0E012200500F012225E96E01502321BF
:100E6000EA6E200EEF6EE552E7CFD9FF1200D9CF20
:100E7000E6FFE1CFD9FF020EE126DE6ADD6AFD0E54
:100E8000DBCF20FF0F01216B010E2017DE6ADD6A28
:100E9000DECF00F0DDCF01F0100E005C000E015837
:100EA0001BE220CF00F021CF01F0040ED8900036D5
:100EB0000136E806FBE1000E00260F0E0122DE508F
:100EC0000024E96EDD500120EA6E200EEF6EDF2A6D
:100ED000010EDEE3DB2ADCD7020EE15C02E2E16A0E
:100EE000E552E16EE552E7CFD9FF1200D9CFE6FF18
:100EF000E1CFD9FF020EE126DE6ADD6A0F01226B27
:100F0000236B010E206F216BDE6ADD6ADECF00F0FD
:100F1000DDCF01F0200E005C000E01582BE2DECF89
:100F200000F0DDCF01F0040E0F0B05E0D890013288
:100F30000032E806FBE1040ED89000360136E806E0
:100F4000FBE1000E00260F0E0122DECF02F0DDCF06
:100F500003F00001036A0F0E021600500224E96E2E
:100F600001500320EA6E200EEF6EDF2A010ECEE361
:100F7000DB2ACCD7020EE15C02E2E16AE552E16EC7
:100F8000E552E7CFD9FF1200D9CFE6FFE1CFD9FF75
:100F9000020EE126DE6ADD6A800EE66E6EEC01F07E
:100FA000E552DE6ADD6ADECF00F0DDCF01F0100E23
:100FB000005C000E015812E2DECFE9FFDDCFEAFF50
:100FC000000EE9260F0EEA22EF50E66ECAEC00F0A2
:100FD000E552DF2A010EE7E3DB2AE5D7C00EE66E15
:100FE0006EEC01F0E552DE6ADD6ADECF00F0DDCFA7
:100FF00001F0100E005C000E015812E2DECFE9FF96
:10100000DDCFEAFF100EE9260F0EEA22EF50E66E62
:10101000CAEC00F0E552DF2A010EE7E3DB2AE5D750
:10102000020EE15C02E2E16AE552E16EE552E7CFD1
:04103000D9FF1200D2
:0C103400D9CFE6FFE1CFD9FFFD0EDBCFE6
:1010400000F0FE0EDBCF01F0000E005C000E015838
:101050000BE3FD0EDBCF02F0FE0EDBCF03F0070E3D
:10106000025C000E035805E3246A256A266A276A93
:1010700020D0FD0EDBCFE9FFFE0EDBCFEAFF020E34
:10108000D890E936EA36E806FBE1000EE926010EC3
:10109000EA22EECF00F0EECF01F0EECF02F0EFCF7C
:1010A00003F000C024F001C025F002C026F003C008
:1010B00027F0E552E7CFD9FF1200D9CFE6FFE1CF05
:1010C000D9FF0A0EE126DE6ADD6ADECF00F0DDCF51
:1010D00001F0070E005C000E015801E30CD1DECFD9
:1010E000E6FFDDCFE6FF010EE66EE66A01EC18F0E2
:1010F000E552E552E552E552020E24C0DBFF030E35
:1011000025C0DBFFDECFE6FFDDCFE6FF020EE66E99
:10111000E66A01EC18F0E552E552E552E552040E9C
:1011200024C0DBFF050E25C0DBFF000EDFCF26F05D
:10113000010EDBCF27F0060E261801E1275044E010
:10114000040E261801E1275032E0050E261801E1B1
:1011500027502DE0030E261801E127501BE02650F2
:1011600001E127500AE0010E261801E1275005E0B1
:10117000020E261835E1275033E1060ECCC0DBFF06
:10118000070ECDC0DBFF080ECEC0DBFF090ECFC0BF
:10119000DBFF26D0060ED6C0DBFF070ED7C0DBFF75
:1011A000080ED8C0DBFF090ED9C0DBFF19D0060E30
:1011B000E0C0DBFF070EE1C0DBFF080EE2C0DBFF93
:1011C000090EE3C0DBFF0CD0060EEAC0DBFF070E02
:1011D000EBC0DBFF080EECC0DBFF090EEDC0DBFF50
:1011E000040EDBCF04F0050EDBCF05F0066A076ABC
:1011F0000001C851CA5D1A6ECB51C9551B6E1C6ADD
:101200001D6A020EDBCF18F0030EDBCF19F0040EBF
:10121000DB50185C146E050EDB501958156E166AFB
:10122000176AC8C010F0C9C011F0126A136AD95009
:10123000060FE96EDACFEAFF1050EE5C0C6E11502B
:10124000EE580D6E1250EE580E6E1350EE580F6E93
:101250000CC024F00DC025F00EC026F0276E14C07F
:1012600029F015C02AF016C02BF017C02CF092EC14
:1012700025F020C008F021C009F022C00AF023C0E8
:101280000BF020C024F021C025F022C026F023C09E
:1012900027F01AC029F01BC02AF01CC02BF01DC07B
:1012A0002CF036EC23F004502424006E0550252049
:1012B000016E06502620026E07502720036EDECFF7
:1012C000E9FFDDCFEAFF020ED890E936EA36E806FC
:1012D000FBE1000EE926010EEA2200C0EEFF01C08C
:1012E000EEFF02C0EEFF03C0EEFFDF2A010E01E2B7
:1012F000ECD6DB2AEAD60A0EE15C02E2E16AE552AC
:10130000E16EE552E7CFD9FF1200D9CFE6FFE1CF7A
:10131000D9FF040EE126DE6ADD6A020EDB6A030EE7
:10132000DB6AE66A53EC25F0E552F3CFD0F0F4CF58
:10133000D1F0D4C0E9FFD5C0EAFFD890E936EA364B
:101340001C0EE926010EEA22F3CFEEFFD1C0EDFF1D
:10135000010E0001D425D46F000ED521D56F140ED7
:101360002B6E2C6AD4C026F0D5C027F0E3EC22F017
:1013700022C0D4F023C0D5F022C0DEFF23C0DDFFA1
:101380000001D26BD36B020EDB6A030EDB6A020E26
:10139000DBCF00F0030EDBCF01F0D890015004E664
:1013A000140E005C000E015824E2DECFE9FFDDCF11
:1013B000EAFFD890E936EA361C0EE926010EEA2249
:1013C000EE50D227EE50D323D9CFE9FFDACFEAFF90
:1013D000EE50ED1004E1130EDE6EDD6A04D0DF0680
:1013E000010E01E2DB06020EDB2A030ED0E3DB2A4C
:1013F000CED7D2C0CCF0D3C0CDF0CE6BCF6B140E15
:10140000296E2A6A2B6A2C6AD2C024F0D3C025F038
:10141000CEC026F0CFC027F036EC23F024C0CCF0AD
:1014200025C0CDF026C0CEF027C0CFF0040EE15C81
:1014300002E2E16AE552E16EE552E7CFD9FF120020
:10144000D9CFE6FFE1CFD9FF040EE126DE6ADD6ADF
:10145000020EDB6A030EDB6A010EE66E53EC25F02A
:10146000E552F3CFDAF0F4CFDBF0DEC0E9FFDFC006
:10147000EAFFD890E936EA36440EE926010EEA2260
:10148000F3CFEEFFDBC0EDFF010E0001DE25DE6FC6
:10149000000EDF21DF6F140E2B6E2C6ADEC026F0EB
:1014A000DFC027F0E3EC22F022C0DEF023C0DFF043
:1014B00022C0DEFF23C0DDFF0001DC6BDD6B020E0E
:1014C000DB6A030EDB6A020EDBCF00F0030EDBCF1C
:1014D00001F0D890015004E6140E005C000E015893
:1014E00024E2DECFE9FFDDCFEAFFD890E936EA3625
:1014F000440EE926010EEA22EE50DC27EE50DD23F1
:10150000D9CFE9FFDACFEAFFEE50ED1004E1130E78
:10151000DE6EDD6A04D0DF06010E01E2DB06020E9C
:10152000DB2A030ED0E3DB2ACED7DCC0D6F0DDC049
:10153000D7F0D86BD96B140E296E2A6A2B6A2C6AE5
:10154000DCC024F0DDC025F0D8C026F0D9C027F0DB
:1015500036EC23F024C0D6F025C0D7F026C0D8F052
:1015600027C0D9F0040EE15C02E2E16AE552E16EC7
:10157000E552E7CFD9FF1200D9CFE6FFE1CFD9FF7F
:10158000040EE126DE6ADD6A020EDB6A030EDB6A08
:10159000020EE66E53EC25F0E552F3CFE4F0F4CF03
:1015A000E5F0E8C0E9FFE9C0EAFFD890E936EA369D
:1015B0006C0EE926010EEA22F3CFEEFFE5C0EDFF47
:1015C000010E0001E825E86F000EE921E96F140E15
:1015D0002B6E2C6AE8C026F0E9C027F0E3EC22F07D
:1015E00022C0E8F023C0E9F022C0DEFF23C0DDFF07
:1015F0000001E66BE76B020EDB6A030EDB6A020E8C
:10160000DBCF00F0030EDBCF01F0D890015004E6F1
:10161000140E005C000E015824E2DECFE9FFDDCF9E
:10162000EAFFD890E936EA366C0EE926010EEA2286
:10163000EE50E627EE50E723D9CFE9FFDACFEAFFF5
:10164000EE50ED1004E1130EDE6EDD6A04D0DF060D
:10165000010E01E2DB06020EDB2A030ED0E3DB2AD9
:10166000CED7E6C0E0F0E7C0E1F0E26BE36B140E2A
:10167000296E2A6A2B6A2C6AE6C024F0E7C025F09E
:10168000E2C026F0E3C027F036EC23F024C0E0F0FF
:1016900025C0E1F026C0E2F027C0E3F0040EE15CD3
:1016A00002E2E16AE552E16EE552E7CFD9FF1200AE
:1016B000D9CFE6FFE1CFD9FF040EE126DE6ADD6A6D
:1016C000020EDB6A030EDB6AE66E53EC25F0E55290
:1016D000F3CFEEF0F4CFEFF0F2C0E9FFF3C0EAFF92
:1016E000D890E936EA36940EE926010EEA22F3CFC5
:1016F000EEFFEFC0EDFF010E0001F225F26F000ECC
:10170000F321F36F140E2B6E2C6AF2C026F0F3C097
:1017100027F0E3EC22F022C0F2F023C0F3F022C065
:10172000DEFF23C0DDFF0001F06BF16B020EDB6A10
:10173000030EDB6A020EDBCF00F0030EDBCF01F0FD
:10174000D890015004E6140E005C000E015824E20B
:10175000DECFE9FFDDCFEAFFD890E936EA36940E16
:10176000E926010EEA22EE50F027EE50F123D9CF00
:10177000E9FFDACFEAFFEE50ED1004E1130EDE6E62
:10178000DD6A04D0DF06010E01E2DB06020EDB2A71
:10179000030ED0E3DB2ACED7F0C0EAF0F1C0EBF0C5
:1017A000EC6BED6B140E296E2A6A2B6A2C6AF0C062
:1017B00024F0F1C025F0ECC026F0EDC027F036ECA7
:1017C00023F024C0EAF025C0EBF026C0ECF027C0DF
:1017D000EDF0040EE15C02E2E16AE552E16EE552F1
:0617E000E7CFD9FF120063
:0A17E600D9CFE6FFE1CFD9FF020ED4
:1017F000E126DE6ADD6A040E0F01781901E17951F4
:1018000001E1FAD1030E781901E1795101E15ED1CC
:10181000020E781901E179513FE0010E781901E1DA
:10182000795107E0785101E003D3795101E000D309
:101830003ED1000EE66EE66AF4EC1FF0E552E5528A
:10184000F3CF00F0F4CF01F0010EF31804E10150E2
:1018500002E1020EEAD20F01010E24190BE125511B
:1018600009E1030E0F01786F796BE80EE66E030E47
:10187000E66EB8D100EC22F0F4CF01F0010EF318BF
:1018800001E0D6D2015001E0D3D2040E0F01786FEF
:10189000796B7C6B7D6BCCD28E0EE66E470EE66E5E
:1018A00042EC0FF0E552E552000EE66EE66A1AECE5
:1018B00008F0E552E55224C000F025C001F026C032
:1018C00002F027C003F024C0E6FF25C0E6FF26C0D3
:1018D000E6FF27C0E6FF82EC10F0E552E552E55244
:1018E000E552850EE66E470EE66E42EC0FF0E552CD
:1018F000E552010EE66EE66A1AEC08F0E552E55292
:1019000024C000F025C001F026C002F027C003F07B
:1019100024C0E6FF25C0E6FF26C0E6FF27C0E6FF9D
:1019200082EC10F0E552E552E552E552790EE66E92
:10193000470EE66E42EC0FF0E552E552020EE66EFF
:10194000E66A1AEC08F0E552E55224C000F025C022
:1019500001F026C002F027C003F024C0E6FF25C036
:10196000E6FF26C0E6FF27C0E6FF82EC10F0E55256
:10197000E552E552E5526D0EE66E470EE66E42EC1C
:101980000FF0E552E552030EE66EE66A1AEC08F037
:10199000E552E55224C000F025C001F026C002F057
:1019A00027C003F024C0E6FF25C0E6FF26C0E6FFFF
:1019B00027C0E6FF82EC10F0E552E552E552E55211
:1019C000640EE66E470EE66E42EC0FF0E552E5520D
:1019D000040EE66EE66A1AEC08F0E552E55224C001
:1019E00000F025C001F026C002F027C003F024C09B
:1019F000E6FF25C0E6FF26C0E6FF27C0E6FF82EC33
:101A000010F0E552E552E552E552580EE66E470EEB
:101A1000E66E42EC0FF0E552E552050EE66EE66A20
:101A20001AEC08F0E552E55224C000F025C001F0A0
:101A300026C002F027C003F024C0E6FF25C0E6FF61
:101A400026C0E6FF27C0E6FF82EC10F0E552E55223
:101A5000E552E5524B0EE66E470EE66E42EC0FF095
:101A6000E552E552060EE66EE66A1AEC08F0E5521B
:101A7000E55224C000F025C001F026C002F027C0C6
:101A800003F024C0E6FF25C0E6FF26C0E6FF27C01E
:101A9000E6FF82EC10F0E552E552E552E552420EC7
:101AA000E66E470EE66E42EC0FF0E552E552E80EA8
:101AB000E66E030EE66E000EE66EE66A6CEC1FF054
:101AC000E552E552E552E552010EAFD17A6B7B6BE0
:101AD000000EE66EE66AF4EC1FF0E552E552F3CF35
:101AE00000F0F4CF01F0010EF31870E101506EE147
:101AF000310EE66E470EE66E42EC0FF0E552E5520F
:101B00001E0EE66E470EE66E42EC0FF0E552E55211
:101B1000100EE66E470EE66E42EC0FF0E552E5520F
:101B2000DE6ADD6ADECF00F0DDCF01F0D890015033
:101B300004E6070E005C000E015836E2DECFE6FF39
:101B4000DDCFE6FF79EC13F0E552E552F3CF00F07C
:101B5000F4CF01F0010EF31822E1015020E10F0152
:101B60007A517B1105E02C0EE66E34EC0FF0E55255
:101B7000DECFE9FFDDCFEAFFD890E936EA36F00E96
:101B8000E926010EEA22EECFE6FFEFCFE6FF42ECB8
:101B90000FF0E552E552010E0F017A6F7B6BDF2AE1
:101BA000010EC0E3DB2ABED70D0EE66E34EC0FF05B
:101BB000E552880EE66E130EE66E000EE66EE66ADD
:101BC0006CEC1FF0E552E552E552E5520F0124514D
:101BD000251101E02DD1010E0F01786F796B0A0EEE
:101BE000E66EE66A000EE66EE66A6CEC1FF0E55201
:101BF000E552E552E5521CD17C517D1101E00FD137
:101C00008E0EE66E470EE66E42EC0FF0E552E552A0
:101C1000000EE66EE66A2FEC12F0E552E55224C0A3
:101C200000F025C001F026C002F027C003F024C058
:101C3000E6FF25C0E6FF26C0E6FF27C0E6FF82ECF0
:101C400010F0E552E552E552E552850EE66E470E7C
:101C5000E66E42EC0FF0E552E552010EE66EE66AE2
:101C60002FEC12F0E552E55224C000F025C001F03F
:101C700026C002F027C003F024C0E6FF25C0E6FF1F
:101C800026C0E6FF27C0E6FF82EC10F0E552E552E1
:101C9000E552E552790EE66E470EE66E42EC0FF025
:101CA000E552E552020EE66EE66A2FEC12F0E552BE
:101CB000E55224C000F025C001F026C002F027C084
:101CC00003F024C0E6FF25C0E6FF26C0E6FF27C0DC
:101CD000E6FF82EC10F0E552E552E552E5526D0E5A
:101CE000E66E470EE66E42EC0FF0E552E552030E4B
:101CF000E66EE66A2FEC12F0E552E55224C000F0E1
:101D000025C001F026C002F027C003F024C0E6FF82
:101D100025C0E6FF26C0E6FF27C0E6FF82EC10F0F4
:101D2000E552E552E552E552640EE66E470EE66E68
:101D300042EC0FF0E552E552040EE66EE66A2FEC37
:101D400012F0E552E55224C000F025C001F026C093
:101D500002F027C003F024C0E6FF25C0E6FF26C03E
:101D6000E6FF27C0E6FF82EC10F0E552E552E552AF
:101D7000E552580EE66E470EE66E42EC0FF0E55265
:101D8000E552050EE66EE66A2FEC12F0E552E552DA
:101D900024C000F025C001F026C002F027C003F0E7
:101DA00024C0E6FF25C0E6FF26C0E6FF27C0E6FF09
:101DB00082EC10F0E552E552E552E5524B0EE66E2C
:101DC000470EE66E42EC0FF0E552E552060EE66E67
:101DD000E66A2FEC12F0E552E55224C000F025C06F
:101DE00001F026C002F027C003F024C0E6FF25C0A2
:101DF000E6FF26C0E6FF27C0E6FF82EC10F0E552C2
:101E0000E552E552E552420EE66E470EE66E42ECB2
:101E10000FF0E552E552040E0F01786F796B00EC7C
:101E200022F0F350F41004E1010E0F01786F796B8A
:101E3000020EE15C02E2E16AE552E16EE552E7CFB3
:041E4000D9FF1200B4
:0C1E4400B06A810EAF6EAC8AAC94B88618
:101E5000AC98AB8EAB889E9A9D8A9F9A949C948EE8
:101E600012000F017E511200D9CFE6FFE1CFD9FF5A
:101E70009EA8FED7FE0EDB50AD6E9E98E552E7CFD2
:101E8000D9FF1200D9CFE6FFE1CFD9FFFD0EDBCF9E
:101E9000F6FFFE0EDBCFF7FF0800F55015E0FD0E54
:101EA000DBCFF6FFFE0EDBCFF7FF0800F550E66E46
:101EB000DBDFE552FD0EDBCFF6FFDB2AFE0EDBCFCC
:101EC000F7FFE4E3DB2AE2D7E552E7CFD9FF1200C0
:101ED000D9CFE6FFE1CFD9FF040EE126DE6ADD6A45
:101EE000020EDB6A030EDB6AFB0EDBCF00F0FC0E9A
:101EF000DBCF01F0FD0EDBCF02F0FE0EDBCF03F0F7
:101F0000005001100210031004E1300EE66EACDF49
:101F1000E552D950FB0FE96EFF0EDA20EA6ED89039
:101F2000030EEB50000A08E6000EEE5C000EEE58C1
:101F3000000EEE58000EEE5822E22D0EE66E94DFF3
:101F4000E552FB0EDBCF24F0FC0EDBCF25F0FD0EBF
:101F5000DBCF26F0FE0EDBCF27F029682A682B683E
:101F60002C6892EC25F0FB0E20C0DBFFFC0E21C09C
:101F7000DBFFFD0E22C0DBFFFE0E23C0DBFF100ED9
:101F8000DE6E270EDD6ED9CFE9FFDACFEAFF000E55
:101F9000D880EE54000EED5401E3AAD0DECF00F05D
:101FA000DDCF01F0026A036A00C029F001C02AF007
:101FB00002C02BF003C02CF0FB0EDBCF24F0FC0E94
:101FC000DBCF25F0FD0EDBCF26F0FE0EDBCF27F0BA
:101FD00036EC23F0245025102610271036E0DECFF3
:101FE00004F0DDCF05F0066A076A04C029F005C0D9
:101FF0002AF006C02BF007C02CF0FB0EDBCF24F03C
:10200000FC0EDBCF25F0FD0EDBCF26F0FE0EDBCF86
:1020100027F036EC23F024C000F025C001F026C0E4
:1020200002F027C003F0300E0026000E012202222B
:1020300003220050E66E18DFE552010EF36E020E29
:10204000F3CFDBFF030EDB6A0ED0D950020FE96E2F
:10205000DACFEAFF010EEE1806E1ED5004E1300E92
:10206000E66E02DFE552DECF00F0DDCF01F0026A5E
:10207000036A00C029F001C02AF002C02BF003C09F
:102080002CF0FB0EDBCF24F0FC0EDBCF25F0FD0E99
:10209000DBCF26F0FE0EDBCF27F003C0F5FF36ECDA
:1020A00023F0F5AE08D0000E206C211E2122221E46
:1020B0002222231E2322FB0E20C0DBFFFC0E21C0A8
:1020C000DBFFFD0E22C0DBFFFE0E23C0DBFF0A0E8E
:1020D000006E016A2B6E01C02CF0DECF26F0DDCF42
:1020E00027F08CEC26F026C0DEFF27C0DDFF4BD7A3
:1020F000040EE15C02E2E16AE552E16EE552E7CFEF
:10210000D9FF1200D9CFE6FFE1CFD9FF040EE126B7
:10211000D9CFE9FFDACFEAFFFB0EDBCFEEFFFC0EF3
:10212000DBCFEEFFFD0EDBCFEEFFFE0EDBCFEEFFD3
:10213000D9CFE9FFDACFEAFFEECF24F0EECF25F0DA
:10214000EECF26F0EFCF27F0E80E296E030E2A6EB1
:102150002B6A2C6A36EC23F0245025102610271009
:1021600031E0D9CFE9FFDACFEAFFEECF00F0EECFD2
:1021700001F0EECF02F0EFCF03F0E80E296E030E70
:102180002A6E2B6A2C6A00C024F001C025F002C020
:1021900026F003C027F036EC23F024C000F025C061
:1021A00001F026C002F027C003F024C0E6FF25C0DE
:1021B000E6FF26C0E6FF27C0E6FF8ADEE552E552CD
:1021C000E552E552D9CFE9FFDACFEAFFEECF24F0AE
:1021D000EECF25F0EECF26F0EFCF27F0E80E296EF8
:1021E000030E2A6E2B6A2C6A36EC23F020C0DEFF29
:1021F00021C0DEFF22C0DEFF23C0DDFFDD52DD5245
:10220000D9CFE9FFDACFEAFFEECF00F0EECF01F051
:10221000EECF02F0EFCF03F0640E296E2A6A2B6A2C
:102220002C6A00C024F001C025F002C026F003C0D3
:1022300027F036EC23F024C000F025C001F026C0C2
:1022400002F027C003F024C0E6FF25C0E6FF26C049
:10225000E6FF27C0E6FF3CDEE552E552E552E552D7
:10226000D9CFE9FFDACFEAFFEECF24F0EECF25F0A9
:10227000EECF26F0EFCF27F0640E296E2A6A2B6A84
:102280002C6A36EC23F020C0DEFF21C0DEFF22C026
:10229000DEFF23C0DDFFDD52DD522E0EE66EE4DDF3
:1022A000E552D9CFE9FFDACFEAFFEECF00F0EECF6B
:1022B00001F0EECF02F0EFCF03F00A0E296E2A6A8A
:1022C0002B6A2C6A00C024F001C025F002C026F061
:1022D00003C027F036EC23F024C000F025C001F045
:1022E00026C002F027C003F024C0E6FF25C0E6FFA9
:1022F00026C0E6FF27C0E6FFEBDDE552E552E552DA
:10230000E552D9CFE9FFDACFEAFFEECF00F0EECF0A
:1023100001F0EECF02F0EFCF03F00A0E296E2A6A29
:102320002B6A2C6A00C024F001C025F002C026F000
:1023300003C027F036EC23F020C000F021C001F0EC
:1023400022C002F023C003F020C0E6FF21C0E6FF58
:1023500022C0E6FF23C0E6FFBBDDE552E552E552B1
:10236000E552040EE15C02E2E16AE552E16EE552FB
:0C237000E7CFD9FF1200AECF7EFF1200B5
:04237C00D9CFE6FFD0
:10238000E1CFD9FF020EE126DE6ADD6ADE6ADD6A90
:10239000DECF00F0DDCF01F0D890015004E6070E4B
:1023A000005C000E015849E2DECFE9FFDDCFEAFF15
:1023B000D890E936EA36D890E936EA36260EE9268C
:1023C0000F0EEA22EECF00F0EECF01F0EECF02F0DA
:1023D000EFCF03F000C0E6FF01C0E6FF02C0E6FF5A
:1023E00003C0E6FFDECFE6FFDDCFE6FF1AEC08F024
:1023F000E552E552E552E7CF03F0E552E7CF02F0B0
:10240000E552E7CF01F0E552E7CF00F0275003187F
:10241000E8AE02D0033408D00050245C01502558A7
:10242000025026580350275803E3010EF36E06D0DE
:10243000DF2A010EADE3DB2AABD7F36AF46A020EA2
:10244000E15C02E2E16AE552E16EE552E7CFD9FFD5
:10245000120094DFF3CF24FFF4CF25FF1200D9CF71
:10246000E6FFE1CFD9FFFD0EDBCF00F0FE0EDBCFA4
:1024700001F0000E005C000E01580BE3FD0EDBCFF7
:1024800002F0FE0EDBCF03F0070E025C000E0358D5
:1024900005E3246A256A266A276A20D0FD0EDBCF71
:1024A000E9FFFE0EDBCFEAFF020ED890E936EA36EE
:1024B000E806FBE1260EE9260F0EEA22EECF00F039
:1024C000EECF01F0EECF02F0EFCF03F000C024F02A
:1024D00001C025F002C026F003C027F0E552E7CF87
:1024E000D9FF1200D9CFE6FFE1CFD9FFFD0EDBCF38
:1024F00000F0FE0EDBCF01F0000E005C000E015874
:1025000070E3FD0EDBCF02F0FE0EDBCF03F0070E13
:10251000025C000E035865E20A0E006E016A026A50
:10252000036AFD0EDBCFE9FFFE0EDBCFEAFF020EF2
:10253000D890E936EA36E806FBE1260EE9260F0ECA
:10254000EA22EE500026EE500122EE500222EE501A
:10255000032200C0E6FF01C0E6FF02C0E6FF03C0A1
:10256000E6FFFD0EDBCFE6FFFE0EDBCFE6FF010E42
:10257000E66EE66A01EC18F0E552E552E552E552E6
:10258000E552E7CF03F0E552E7CF02F0E552E7CF9F
:1025900001F0E552E7CF00F027500318E8AE02D073
:1025A000033408D00050245C0150255802502658AE
:1025B0000350275816E3FD0EDBCFE9FFFE0EDBCFFD
:1025C000EAFF020ED890E936EA36E806FBE1260E6D
:1025D000E9260F0EEA220A0EEE26000EEE22EE2269
:1025E000EE22E552E7CFD9FF1200D9CFE6FFE1CFC7
:1025F000D9FFFD0EDBCF00F0FE0EDBCF01F0000EA9
:10260000005C000E015871E3FD0EDBCF02F0FE0E00
:10261000DBCF03F0070E025C000E035866E2FD0EEE
:10262000DBCFE9FFFE0EDBCFEAFF020ED890E936E2
:10263000EA36E806FBE1260EE9260F0EEA22EECF87
:1026400000F0EECF01F0EECF02F0EFCF03F00A0E74
:10265000005E000E015A025A035A00C0E6FF01C094
:10266000E6FF02C0E6FF03C0E6FFFD0EDBCFE6FF9C
:10267000FE0EDBCFE6FF020EE66EE66A01EC18F016
:10268000E552E552E552E552E552E7CF03F0E55257
:10269000E7CF02F0E552E7CF01F0E552E7CF00F0D7
:1026A00003502718E8AE02D0273408D02450005C2D
:1026B00025500158265002582750035816E3FD0EA6
:1026C000DBCFE9FFFE0EDBCFEAFF020ED890E93642
:1026D000EA36E806FBE1260EE9260F0EEA220A0E8C
:1026E000EE5E000EEE5AEE5AEE5AE552E7CFD9FFF3
:1026F0001200D9CFE6FFE1CFD9FFFD0EDBCF00F00E
:10270000FE0EDBCF01F0000E005C000E015855E319
:10271000FD0EDBCF02F0FE0EDBCF03F0070E025CF6
:10272000000E03584AE2FD0EDBCFE9FFFE0EDBCFC1
:10273000EAFF020ED890E936EA36E806FBE1260EFB
:10274000E9260F0EEA22EECF00F0EECF01F0EECF39
:1027500002F0EFCF03F000C0E6FF01C0E6FF02C0C9
:10276000E6FF03C0E6FFFD0EDBCFE6FFFE0EDBCF8C
:10277000E6FF1AEC08F0E552E552E552E7CF03F028
:10278000E552E7CF02F0E552E7CF01F0E552E7CF9F
:1027900000F027500318E8AE02D0033408D00050F0
:1027A000245C01502558025026580350275803E353
:1027B000010EF36E01D0F36AF46AE552E7CFD9FF58
:0227C000120005
:0E27C20002014607000E475B4651471103E136
:1027D000070E466F476B12000201462B000E47237F
:1027E000080E461905E1475103E1010E466F476B9C
:1027F00012000201486B496B1200D9CFE6FFE1CF0E
:10280000D9FF080EE126DE6ADE6ADE6ADD6ADD5285
:10281000DD52040EDB6A050EDB6A060EDB6A070E6C
:10282000DB6A76EC07F00201010E461972E14751AE
:1028300070E146C2E9FF47C2EAFFE906000EEA5A24
:10284000010ED890E936EA36E806FBE1D80EE92613
:10285000010EEA22EECFE6FFEFCFE6FF1AEC08F01A
:10286000E552E552040E24C0DBFF050E25C0DBFF58
:10287000060E26C0DBFF070E27C0DBFFE6C1E6FF22
:10288000E7C1E6FF000EE66EE66AE66EE66A9EECDB
:1028900002F0006E060EE15E005046C2E9FF47C23C
:1028A000EAFFE906000EEA5A010ED890E936EA3648
:1028B000E806FBE1BC0EE926010EEA22EECFE6FFB8
:1028C000EFCFE6FF000EE66EE66A010EE66EE66A00
:1028D0009EEC02F0006E060EE15E0050D950040F2F
:1028E000E96EDACFEAFFEECFE6FFEECFE6FFEECFFE
:1028F000E6FFEFCFE6FF46C2E9FF47C2EAFFE9067F
:10290000000EEA5A010ED890E936EA36E806FBE1F5
:10291000D0D046C2E9FF47C2EAFF020EE95E000ED0
:10292000EA5A010ED890E936EA36E806FBE1D80EFD
:10293000E926010EEA22EECFE6FFEFCFE6FF1AEC22
:1029400008F0E552E55224C0DEFF25C0DEFF26C0B8
:10295000DEFF27C0DDFFDD52DD5246C2E9FF47C280
:10296000EAFFE906000EEA5A010ED890E936EA3687
:10297000E806FBE1D80EE926010EEA22EECFE6FFDB
:10298000EFCFE6FF1AEC08F0E552E552040E24C042
:10299000DBFF050E25C0DBFF060E26C0DBFF070EA2
:1029A00027C0DBFF46C2E9FF47C2EAFF020EE95E2D
:1029B000000EEA5A010ED890E936EA36E806FBE145
:1029C000BC0EE926010EEA22EECFE6FFEFCFE6FFCE
:1029D000000EE66EE66AE66EE66A9EEC02F0006EB7
:1029E000060EE15E005046C2E9FF47C2EAFFE90673
:1029F000000EEA5A010ED890E936EA36E806FBE105
:102A0000BC0EE926010EEA22EECFE6FFEFCFE6FF8D
:102A1000000EE66EE66A010EE66EE66A9EEC02F0D5
:102A2000006E060EE15E0050D9CFE9FFDACFEAFF73
:102A3000EECFE6FFEECFE6FFEECFE6FFEFCFE6FF0D
:102A400046C2E9FF47C2EAFF020EE95E000EEA5AFB
:102A5000010ED890E936EA36E806FBE1CA0EE9260F
:102A6000010EEA22EECFE6FFEFCFE6FF000EE66EA4
:102A7000E66A2DEC04F0006E080EE15E0050D950BD
:102A8000040FE96EDACFEAFFEECFE6FFEECFE6FF06
:102A9000EECFE6FFEFCFE6FF46C2E9FF47C2EAFF0F
:102AA000E906000EEA5A010ED890E936EA36E80641
:102AB000FBE1CA0EE926010EEA22EECFE6FFEFCFD8
:102AC000E6FF010EE66EE66A2DEC04F0006E080EDD
:102AD000E15E0050C4EC07F0080EE15C02E2E16A3E
:102AE000E552E16EE552E7CFD9FF120086DE030E14
:102AF0000201481901E1495101E17CD0020E481957
:102B000001E1495171E0010E481901E149510BE021
:102B1000485101E1495101E01200010E486F496B33
:102B2000466F476B2AD069DE040EE66EE66A24EC37
:102B30001DF0E552E552F3CF00F0F4CF01F0010EA5
:102B4000F31801E101500EE0040EE66EE66AF4ECC3
:102B50001FF0E552E552F3CF02F0F4CF03F0F3504B
:102B6000F41019E0020E0201486F496B040EE66E84
:102B7000E66AC8EC1FF0E552E552B80EE66E0B0EA1
:102B8000E66E040EE66EE66A6CEC1FF0E552E55266
:102B9000E552E5521200010EE66EE66A24EC1DF0E5
:102BA000E552E552F3CF00F0F4CF01F0010EF31837
:102BB0001AE1015024E1030E0201486F496B040E33
:102BC000E66EE66AC8EC1FF0E552E552B80EE66E16
:102BD0000B0EE66E040EE66EE66A6CEC1FF0E55234
:102BE000E552E552E5521200F7DD010E0201486F91
:102BF000496B1200E6DD010E0201486F496B1200BD
:102C0000D59ED59C650E266E130E276EF4C02BF054
:102C1000F5C02CF06AEC23F024C0FAF025C0FBF0DC
:102C200003680468056AF4C006F0F5C007F0086A96
:102C30000650035C006E07500458016E085005589A
:102C4000026E2A6A010E2B6E2C6A00C025F001C0AC
:102C500026F002C027F009EC23F021C000F022C0CA
:102C600001F023C002F02150D66E03680468056AA3
:102C7000F4C006F0F5C007F0086A0650035C006E69
:102C800007500458016E08500558026E2A6A010E5A
:102C90002B6E2C6A00C025F001C026F002C027F080
:102CA00009EC23F025C000F026C001F027C002F097
:102CB0002550D76ED59AD586F28AF294F184D58EB6
:102CC000120003680468056AFAC006F0FBC007F04A
:102CD000086A0650035C006E07500458016E0850E5
:102CE0000558026E2A6A010E2B6E2C6A00C025F070
:102CF00001C026F002C027F009EC23F02150D66E67
:102D000003680468056AFAC006F0FBC007F0086AA9
:102D10000650035C006E07500458016E08500558B9
:102D2000026E2A6A010E2B6E2C6A00C025F001C0CB
:102D300026F002C027F009EC23F025C000F026C0E1
:102D400001F027C002F02550D76ED58E1200D59E17
:102D500012001200CD90650E266E130E276EF6C07F
:102D60002BF0F7C02CF06AEC23F024C0FCF025C057
:102D7000FDF003680468056A24C006F025C007F06A
:102D8000086A2450035C006E25500458016E0850F8
:102D90000558026E2A6A010E2B6E2C6A00C025F0BF
:102DA00001C026F002C027F009EC23F025C000F096
:102DB00026C001F027C002F02550CF6E03680468DA
:102DC000056AFCC006F0FDC007F0086A0650035C07
:102DD000006E07500458016E08500558026E2A6AAA
:102DE000010E2B6E2C6A00C025F001C026F002C037
:102DF00027F009EC23F021C000F022C001F023C02D
:102E000002F02150CE6E9D809E909F90CD8ECD8CF5
:102E1000CD98CD9ACD96CD92CD80120003680468EE
:102E2000056AFCC006F0FDC007F0086A0650035CA6
:102E3000006E07500458016E08500558026E2A6A49
:102E4000010E2B6E2C6A00C025F001C026F002C0D6
:102E500027F009EC23F02550CF6E03680468056A5B
:102E6000FCC006F0FDC007F0086A0650035C006E67
:102E700007500458016E08500558026E2A6A010E68
:102E80002B6E2C6A00C025F001C026F002C027F08E
:102E900009EC23F021C000F022C001F023C002F0B1
:102EA0002150CE6ECD801200CD9012001200B19054
:102EB000650E266E130E276EF8C02BF0F9C02CF0AD
:102EC0006AEC23F024C0FEF025C0FFF0036804681C
:102ED000056A24C006F025C007F0086A2450035C88
:102EE000006E25500458016E08500558026E2A6A7B
:102EF000010E2B6E2C6A00C025F001C026F002C026
:102F000027F009EC23F025C000F026C001F027C00F
:102F100002F02550B36E03680468056AFEC006F02F
:102F2000FFC007F0086A0650035C006E07500458A3
:102F3000016E08500558026E2A6A010E2B6E2C6A2B
:102F400000C025F001C026F002C027F009EC23F0F4
:102F500021C000F022C001F023C002F02150B26E67
:102F6000A082A192A292B18EB198B19AB192B18091
:102F7000120003680468056AFEC006F0FFC007F08F
:102F8000086A0650035C006E07500458016E085032
:102F90000558026E2A6A010E2B6E2C6A00C025F0BD
:102FA00001C026F002C027F009EC23F02150B26ED8
:102FB00003680468056AFEC006F0FFC007F0086AEF
:102FC0000650035C006E07500458016E0850055807
:102FD000026E2A6A010E2B6E2C6A00C025F001C019
:102FE00026F002C027F009EC23F025C000F026C02F
:102FF00001F027C002F02550B36EB1801200B190ED
:023000001200BC
:0E300200D9CFE6FFE1CFD9FFFB0EDBCF00F008
:10301000FC0EDBCF01F0000E005C000E01580BE34C
:10302000FB0EDBCF02F0FC0EDBCF03F0070E025CE1
:10303000000E035805E3246825682668276839D000
:10304000D950FD0FE96EFF0EDA20EA6E010EEE1880
:1030500012E1ED5010E1FB0EDBCFE9FFFC0EDBCF00
:10306000EAFF010ED890E936EA36E806FBE1420EA7
:10307000E9260F0E0FD0FB0EDBCFE9FFFC0EDBCFF6
:10308000EAFF010ED890E936EA36E806FBE1500E79
:10309000E9260F0EEA22EECF00F0EFCF01F0026A30
:1030A000036A00C024F001C025F002C026F003C06E
:1030B00027F0E552E7CFD9FF1200D9CFE6FFE1CFE5
:1030C000D9FFFB0EDBCF00F0FC0EDBCF01F0000ED2
:1030D000005C000E015801E2C1D0FB0EDBCF02F014
:1030E000FC0EDBCF03F0070E025C000E035801E379
:1030F000B5D0D950FD0FE96EFF0EDA20EA6E010E51
:10310000EE1859E1ED5057E1FB0EDBCFE9FFFC0E65
:10311000DBCFEAFF010ED890E936EA36E806FBE19C
:10312000420EE9260F0EEA22EE2A000EEF22FB0ED7
:10313000DBCFE9FFFC0EDBCFEAFF010ED890E936CA
:10314000EA36E806FBE1420EE9260F0EEA22100EEF
:10315000D880EE54270EED5401E380D0FB0EDBCF78
:10316000E9FFFC0EDBCFEAFF010ED890E936EA3624
:10317000E806FBE1500EE9260F0EEA22EECF00F042
:10318000EFCF01F0010E0026000E0122FB0EDBCF77
:10319000E9FFFC0EDBCFEAFF010ED890E936EA36F4
:1031A000E806FBE1420EE9260F0EEA2200C0EEFF20
:1031B00001C0EDFF53D0FB0EDBCFE9FFFC0EDBCFF0
:1031C000EAFF010ED890E936EA36E806FBE1500E38
:1031D000E9260F0EEA22EE2A000EEF22FB0EDBCFCD
:1031E000E9FFFC0EDBCFEAFF010ED890E936EA36A4
:1031F000E806FBE1500EE9260F0EEA22EECF00F0C2
:10320000EFCF01F0FB0EDBCFE9FFFC0EDBCFEAFFD7
:10321000010ED890E936EA36E806FBE1420EE926CF
:103220000F0EEA22EECF02F0EFCF03F002500018AB
:1032300015E10350011812E1FB0EDBCFE9FFFC0E94
:10324000DBCFEAFF010ED890E936EA36E806FBE16B
:10325000500EE9260F0EEA22EE6AED6AE552E7CF3C
:10326000D9FF1200D9CFE6FFE1CFD9FFFB0EDBCFAC
:1032700000F0FC0EDBCF01F0000E005C000E0158E8
:1032800001E2A9D0FB0EDBCF02F0FC0EDBCF03F096
:10329000070E025C000E035801E39DD0D950FD0FCC
:1032A000E96EFF0EDA20EA6E010EEE183DE1ED50F8
:1032B0003BE1FB0EDBCFE9FFFC0EDBCFEAFF010EAB
:1032C000D890E936EA36E806FBE1420EE9260F0E11
:1032D000EA22EE06000EEF5AFB0EDBCFE9FFFC0EF2
:1032E000DBCFEAFF010ED890E936EA36E806FBE1CB
:1032F000420EE9260F0EEA22EE50ED106CE1FB0EB5
:10330000DBCFE9FFFC0EDBCFEAFF010ED890E936F8
:10331000EA36E806FBE1420EE9260F0EEA22100E1D
:10332000EE6E270EED6E57D0FB0EDBCFE9FFFC0EE5
:10333000DBCFEAFF010ED890E936EA36E806FBE17A
:10334000500EE9260F0EEA22EE06000EEF5AFB0E93
:10335000DBCFE9FFFC0EDBCFEAFF010ED890E936A8
:10336000EA36E806FBE1500EE9260F0EEA22EECF20
:1033700000F0EFCF01F0000E005C000E01582BE2D0
:10338000FB0EDBCFE9FFFC0EDBCFEAFF010ED8908E
:10339000E936EA36E806FBE1420EE9260F0EEA229C
:1033A000EECF00F0EFCF01F00006000E015AFB0E49
:1033B000DBCFE9FFFC0EDBCFEAFF010ED890E93648
:1033C000EA36E806FBE1500EE9260F0EEA2200C0BD
:0E33D000EEFF01C0EDFFE552E7CFD9FF12007E
:0233DE00D9CF45
:1033E000E6FFE1CFD9FF060EE126DE6ADD6A020EB6
:1033F000DB6A030EDB6A040EDB6A050EDB6A76EC21
:1034000007F00201010E281922E1295120E1EEC145
:10341000E6FFEFC1E6FF000EE66EE66AE66EE66ADC
:103420009EEC02F0006E060EE15E00502AC2E6FF3E
:103430002BC2E6FF000EE66EE66A010EE66EE66A55
:103440009EEC02F0006E060EE15E0050F1D0DE6AE6
:10345000DD6ADECF00F0DDCF01F0070E005C000E6C
:10346000015801E3E5D0DECFE6FFDDCFE6FF79ECE2
:1034700013F0E552E552F3CF00F0F4CF01F0010E66
:10348000F31801E0CFD0015001E0CCD0D950020FA9
:10349000E96EDACFEAFFEE50ED1040E0010EE76E84
:1034A000020EDBCF00F0030EDBCF01F0E750002669
:1034B000000E0122100E005C000E01582FE22C0EAF
:1034C000E66E020EDBCFE6FF030EDBCFE6FF040E57
:1034D000DBCFE6FF050EDBCFE6FF55EC02F0006E1A
:1034E000050EE15E0050020EDB2A030E01E3DB2A2B
:1034F000020EDBCF00F0030EDBCF01F0100E005CFC
:10350000000E01580BE3010EF36E040EF3CFDBFF48
:10351000050EDB6A020EDB6A030EDB6A020EDBCFEE
:1035200002F0030EDBCF03F0DECFE9FFDDCFEAFFD1
:10353000010ED890E936EA36E806FBE12C0EE926C2
:10354000020EEA220250EE24006E0350EE20016EBD
:10355000100E005C000E01580BE3010EF36E040E1A
:10356000F3CFDBFF050EDB6A020EDB6A030EDB6ABC
:10357000DECFE9FFDDCFEAFF010ED890E936EA366B
:10358000E806FBE1F00EE926010EEA22EECFE6FFA7
:10359000EFCFE6FF020EDBCFE6FF030EDBCFE6FF49
:1035A000040EDBCFE6FF050EDBCFE6FF9EEC02F05C
:1035B000006E060EE15E0050020EDBCF02F0030E3D
:1035C000DBCF03F0DECFE9FFDDCFEAFF010ED890BD
:1035D000E936EA36E806FBE12C0EE926020EEA227D
:1035E0000250EE24006E0350EE20016E020E00C069
:1035F000DBFF030E01C0DBFF020EDBCF00F0030E8A
:10360000DBCF01F0100E005C000E01580BE3010E41
:10361000F36E040EF3CFDBFF050EDB6A020EDB6AEE
:10362000030EDB6ADF2A010E01E213D7DB2A11D772
:10363000C4EC07F0060EE15C02E2E16AE552E16EDD
:10364000E552E7CFD9FF1200CADE020E02012819A7
:1036500001E1295152E0010E281901E129511AE036
:10366000285101E1295101E01200010E286F296B58
:10367000E80EE66E030EE66E020EE66EE66A6CEC8F
:103680001FF0E552E552E552E552010E02013A6F94
:103690003B6B1200040EE66EE66A24EC1DF0E55268
:1036A000E552F3CF00F0F4CF01F0F350F41003E053
:1036B00002013A6B3B6B020EE66EE66AF4EC1FF019
:1036C000E552E552F3CF00F0F4CF01F0010EF3180C
:1036D00013E1015044E1880EE66E130EE66E020E11
:1036E000E66EE66A6CEC1FF0E552E552E552E552F3
:1036F000020E0201286F296B1200040EE66EE66AC4
:1037000024EC1DF0E552E552F3CF00F0F4CF01F0C8
:10371000F350F41003E002013A6B3B6B020EE66ECD
:10372000E66AF4EC1FF0E552E552F3CF00F0F4CF77
:1037300001F0010EF31813E1015011E1E80EE66EFD
:10374000030EE66E020EE66EE66A6CEC1FF0E552C2
:10375000E552E552E552010E0201286F296B120075
:0A3760003AC2F3FF3BC2F4FF12006F
:06376A00D9CFE6FFE1CF1C
:10377000D9FF020EE126DE6ADD6ADE6ADD6ADECF8F
:1037800000F0DDCF01F0D890015004E6060E005C99
:10379000000E015801E34ED1DECFE9FFDDCFEAFF95
:1037A000D890E936EA36980EE926000EEA22EECFE6
:1037B00000F0EFCF01F0DECFE9FFDDCFEAFFD890D8
:1037C000E936EA36A40EE926000EEA2200C0EEFF32
:1037D00001C0EDFFDECFE9FFDDCFEAFFD890E9368B
:1037E000EA368C0EE926000EEA22EECF00F0EFCF8B
:1037F00001F0DECFE9FFDDCFEAFFD890E936EA3607
:10380000980EE926000EEA2200C0EEFF01C0EDFF8F
:10381000DECFE6FFDDCFE6FFAAEC22F0E552E5526F
:10382000F4CF01F0DECFE9FFDDCFEAFFD890E93633
:10383000EA368C0EE926000EEA22F3CFEEFF01C035
:10384000EDFFDECFE9FFDDCFEAFFD890E936EA36BB
:103850008C0EE926000EEA22EECF00F0EFCF01F049
:10386000DECFE9FFDDCFEAFFD890E936EA36980EE1
:10387000E926000EEA22EECF02F0EFCF03F002506D
:10388000001801E0D1D00350011801E0CDD0DECF07
:10389000E9FFDDCFEAFFD890E936EA36980EE9264F
:1038A000000EEA22EECF04F0EFCF05F0DECFE9FF05
:1038B000DDCFEAFFD890E936EA36A40EE926000EFD
:1038C000EA22EECF06F0EFCF07F00650041801E031
:1038D000ABD00750051801E0A7D0DECFE9FFDDCF60
:1038E000EAFFD890E936EA36B00EE926000EEA2261
:1038F000EECF00F0EFCF01F0DECFE9FFDDCFEAFF42
:10390000D890E936EA36A40EE926000EEA22EECF78
:1039100002F0EFCF03F00250001802E1035001184B
:103920003BE0DECFE9FFDDCFEAFFD890E936EA36AB
:10393000A40EE926000EEA22EECF00F0EFCF01F050
:10394000DECFE9FFDDCFEAFFD890E936EA36B00EE8
:10395000E926000EEA2200C0EEFF01C0EDFFDECF37
:10396000E9FFDDCFEAFFD890E936EA36B00EE92666
:10397000000EEA22010EEE1857E1ED5055E1DECFC0
:10398000E9FFDDCFEAFFD890E936EA36BC0EE9263A
:10399000000EEA22C80E38D0DECFE9FFDDCFEAFF05
:1039A000D890E936EA36BC0EE926000EEA22EE0689
:1039B000000EEF5ADECFE9FFDDCFEAFFD890E936FF
:1039C000EA36BC0EE926000EEA22EE50ED102CE19C
:1039D000DECFE9FFDDCFEAFFD890E936EA36B00E58
:1039E000E926000EEA22010EEE181EE1ED501CE160
:1039F000DECFE9FFDDCFEAFFD890E936EA36BC0E2C
:103A0000E926000EEA22320EEE6EED6ADECFE9FF05
:103A1000DDCFEAFFD890E936EA36800EE926000EBF
:103A2000EA22010EEE6EED6ADF2A010E01E2A7D650
:103A3000DB2AA5D6020EE15C02E2E16AE552E16E04
:103A4000E552E7CFD9FF1200D9CFE6FFE1CFD9FF8A
:103A5000FD0EDBCF00F0FE0EDBCF01F0000E005CB0
:103A6000000E01580CE3D950FD0FE96EFF0EDA206D
:103A7000EA6E060ED880EE54000EED5402E2F36AB0
:103A80002BD0FD0EDBCFE9FFFE0EDBCFEAFF010EF0
:103A9000D890E936EA36E806FBE1800EE926000E0A
:103AA000EA22010EEE1817E1ED5015E1FD0EDBCF15
:103AB000E9FFFE0EDBCFEAFF010ED890E936EA36C9
:103AC000E806FBE1800EE926000EEA22EE6AED6AC6
:103AD000010EF36E01D0F36AF46AE552E7CFD9FF25
:023AE0001200D2
:0E3AE20002014A2B000E4B23120002014A077C
:103AF000000E4B5B1200D9CFE6FFE1CFD9FF040ED9
:103B0000E126FD0EDBCF26F0FE0EDBCF27F0030E05
:103B1000261809E1275007E14AC2E6FF4BC2E6FF3B
:103B20002FEC12F00ED04AC2E6FF4BC2E6FFFD0EAC
:103B3000DBCFE6FFFE0EDBCFE6FF01EC18F0E5522F
:103B4000E552E552E55224C0DEFF25C0DEFF26C067
:103B5000DEFF27C0DDFFDD52DD5276EC07F0FD0E03
:103B6000DBCFE9FFFE0EDBCFEAFF010ED890E9368E
:103B7000EA36E806FBE1E60EE926010EEA22EECF80
:103B8000E6FFEFCFE6FF000EE66EE66AE66EE66A57
:103B90009EEC02F0006E060EE15E00504AC2E9FFA4
:103BA0004BC2EAFF010ED890E936EA36E806FBE19F
:103BB000BC0EE926010EEA22EECFE6FFEFCFE6FFCC
:103BC000000EE66EE66A010EE66EE66A9EEC02F014
:103BD000006E060EE15E0050D9CFE9FFDACFEAFFB2
:103BE000EECFE6FFEECFE6FFEECFE6FFEFCFE6FF4C
:103BF0004AC2E9FF4BC2EAFF010ED890E936EA3625
:103C0000E806FBE1CA0EE926010EEA22EECFE6FF46
:103C1000EFCFE6FF010EE66EE66A2DEC04F0006ED3
:103C2000080EE15E0050C4EC07F0040EE15C02E215
:103C3000E16AE552E16EE552E7CFD9FF1200D9CF34
:103C4000E6FFE1CFD9FFFD0EDBCFE6FFFE0EDBCFB7
:103C5000E6FF51DFE552E552050E02014C1901E184
:103C60004D5101E19FD0040E4C1901E14D5101E18C
:103C70007AD0030E4C1901E14D5169E0020E4C1946
:103C800001E14D515AE0010E4C1901E14D5107E09F
:103C90004C5101E0ADD04D5101E0AAD062D0010EEF
:103CA000E66EE66A24EC1DF0E552E552F3CF00F033
:103CB000F4CF01F0010EF31806E1015004E1020E09
:103CC00002014C6F4D6B000EE66EE66A24EC1DF0AF
:103CD000E552E552F3CF00F0F4CF01F0010EF318F6
:103CE00006E1015004E1030E02014C6F4D6B040E1E
:103CF000E66EE66A24EC1DF0E552E552F3CF00F0E3
:103D0000F4CF01F0010EF31806E1015004E1040EB6
:103D100002014C6F4D6B030EE66EE66A24EC1DF05B
:103D2000E552E552F3CF00F0F4CF01F0010EF318A5
:103D30005FE101505DE1050E58D04A2B000E4B2388
:103D4000070E4A190EE14B510CE14A6B09D04A07A4
:103D5000000E4B5B4A5D000E4B5903E2060E4A6FA4
:103D60004B6B010E43D0FD0EDBCF26F0FE0EDBCFFA
:103D700027F0030E261809E1275007E14AC2E6FFA3
:103D80004BC2E6FF72EC12F02DD04AC2E6FF4BC2E6
:103D9000E6FFFD0EDBCFE6FFFE0EDBCFE6FF5DECC0
:103DA00018F01ED0FD0EDBCF26F0FE0EDBCF27F085
:103DB000030E261809E1275007E14AC2E6FF4BC26D
:103DC000E6FFF5EC12F00ED04AC2E6FF4BC2E6FF6A
:103DD000FD0EDBCFE6FFFE0EDBCFE6FF32EC19F087
:103DE000E552E552E552E552010E02014C6F4D6B72
:083DF000E552E7CFD9FF1200F4
:083DF800D9CFE6FFE1CFD9FFAE
:103E0000020EE126DE6ADD6ADE6ADD6ADECF00F0E0
:103E1000DDCF01F0D890015004E6050E005C000EE5
:103E2000015850E2DECFE9FFDDCFEAFFD890E93656
:103E3000EA360A0EE926020EEA22000ED880EE5477
:103E4000000EED543AE2DECFE9FFDDCFEAFFD89075
:103E5000E936EA360A0EE926020EEA22EE06000EDE
:103E6000EF5ADECFE9FFDDCFEAFFD890E936EA3638
:103E70000A0EE926020EEA22000ED880EE54000E49
:103E8000ED541BE3DECFE9FFDDCFEAFFD890E93642
:103E9000EA360A0EE926020EEA22EE6AED6ADECF63
:103EA000E9FFDDCFEAFFD890E936EA36000EE926D1
:103EB000020EEA22010EEE6EED6ADF2A010EA6E383
:103EC000DB2AA4D7020EE15C02E2E16AE552E16E70
:103ED000E552E7CFD9FF1200D9CFE6FFE1CFD9FFF6
:103EE000FD0EDBCF00F0FE0EDBCF01F0000E005C1C
:103EF000000E01580BE3FD0EDBCF02F0FE0EDBCF10
:103F000003F0050E025C000E035802E3F36A3BD097
:103F1000FB0EDBCF00F0FC0EDBCF01F00A0E2B6EA8
:103F20002C6A00C026F001C027F08CEC26F026C0D9
:103F300000F027C001F0FD0EDBCFE9FFFE0EDBCF66
:103F4000EAFF010ED890E936EA36E806FBE10A0EF0
:103F5000E926020EEA2200C0EEFF01C0EDFFFD0ED1
:103F6000DBCFE9FFFE0EDBCFEAFF010ED890E9368A
:103F7000EA36E806FBE1000EE926020EEA22EE6AC6
:103F8000ED6A010EF36EF46AE552E7CFD9FF120035
:103F9000D9CFE6FFE1CFD9FFFD0EDBCFE9FFFE0E63
:103FA000DBCFEAFF010ED890E936EA36E806FBE1FE
:103FB000000EE926020EEA22EE6AED6AFD0EDBCF64
:103FC000E9FFFE0EDBCFEAFF010ED890E936EA36B4
:103FD000E806FBE10A0EE926020EEA22EE6AED6A25
:103FE000E552E7CFD9FF1200D9CFE6FFE1CFD9FFE5
:103FF000FD0EDBCF00F0FE0EDBCF01F0000E005C0B
:10400000000E01580BE3FD0EDBCF02F0FE0EDBCFFE
:1040100003F0050E025C000E035802E3F36A2BD096
:10402000FD0EDBCFE9FFFE0EDBCFEAFF010ED890DD
:10403000E936EA36E806FBE1000EE926020EEA223E
:10404000010EEE1817E1ED5015E1FD0EDBCFE9FF93
:10405000FE0EDBCFEAFF010ED890E936EA36E8061D
:10406000FBE1000EE926020EEA22EE6AED6A010E7D
:10407000F36E01D0F36AF46AE552E7CFD9FF12007C
:10408000F28ED08EF28C1200F19CF292F288120025
:10409000D8CFE4FFE0CFE4FFE46EDACFE4FFE2CF75
:1040A000DAFFE9CFE4FFEACFE4FFF6CFE4FFF7CF92
:1040B000E4FFF5CFE4FFF3CFE4FFF4CFE4FFFACF62
:1040C000E4FF00EE1EF0140EE80403E3EECFE4FF7D
:1040D000FBD700EE00F01E0EE80403E3EECFE4FF92
:1040E000FBD7E652F2A407D0A7EC16F0F29461ECED
:1040F00016F0A9EC16F09EA007D054EC17F09E9095
:104100000EEC17F056EC17F0A1A207D0FFEC17F059
:10411000A192B9EC17F01EEC26F0F2B2F2929EAA30
:1041200003D09E9ABBEC11F0E55200EE1DF01E0E7E
:10413000E80403E3E5CFEDFFFBD700EE31F0140E0A
:10414000E80403E3E5CFEDFFFBD7E5CFFAFFE5CFCA
:10415000F4FFE5CFF3FFE5CFF5FFE5CFF7FFE5CFC0
:10416000F6FFE5CFEAFFE5CFE9FFE5CFDAFFE5505F
:10417000E5CFE0FFE5CFD8FF1000DACFE4FFE2CFD4
:10418000DAFFE9CFE4FFEACFE4FFF6CFE4FFF7CFB1
:10419000E4FFF5CFE4FFF3CFE4FFF4CFE4FFFACF81
:1041A000E4FF00EE1EF0140EE80403E3EECFE4FF9C
:1041B000FBD700EE00F01E0EE80403E3EECFE4FFB1
:1041C000FBD7E652F2A407D0A7EC16F0F29461EC0C
:1041D00016F0A9EC16F09EA007D054EC17F09E90B4
:1041E0000EEC17F056EC17F0A1A207D0FFEC17F079
:1041F000A192B9EC17F01EEC26F0F2B2F2929EAA50
:1042000003D09E9ABBEC11F0E55200EE1DF01E0E9D
:10421000E80403E3E5CFEDFFFBD700EE31F0140E29
:10422000E80403E3E5CFEDFFFBD7E5CFFAFFE5CFE9
:10423000F4FFE5CFF3FFE5CFF5FFE5CFF7FFE5CFDF
:10424000F6FFE5CFEAFFE5CFE9FFE5CFDAFF1100A2
:10425000050E0101FE1901E1FF5101E1B4D0040E88
:10426000FE1901E1FF5101E187D0030EFE1901E1C2
:10427000FF515FE0020EFE1901E1FF5137E0010E30
:10428000FE1901E1FF5109E0FE5101E1FF5101E09A
:104290001200010EFE6FFF6B120087EC24F0020E7D
:1042A000E66EE66ACDEC25F0E552E55276EC15F0C7
:1042B000050EE66EE66A24EC1DF0E552E552F4CFF9
:1042C00001F0010EF31806E1015004E1020E0101B4
:1042D000FE6FFF6B0F01010E241907E1255101E06C
:1042E0008ED0050E0101FE6FFF6B120087EC24F0EB
:1042F000030EE66EE66ACDEC25F0E552E552010EBE
:10430000E66EE66A1FEC1EF0E552E552050EE66E1B
:10431000E66A24EC1DF0E552E552F4CF01F0010EFF
:10432000F31806E101506BE1030E0101FE6FFF6B14
:10433000120087EC24F0030EE66EE66ACDEC25F061
:10434000E552E552020EE66EE66A1FEC1EF0E552FB
:10435000E552050EE66EE66A24EC1DF0E552E552E4
:10436000F4CF01F0010EF31806E1015048E1040E0C
:104370000101FE6FFF6B120087EC24F0030EE66E66
:10438000E66ACDEC25F0E552E552030EE66EE66AEC
:104390001FEC1EF0E552E552050EE66EE66A24ECCF
:1043A0001DF0E552E552F3CF00F0F4CF01F0010E1D
:1043B000F31808E1015023E1010E0101FE6FFF6BCC
:1043C000F9EC13F012008CEC24F0B0EC1BF0F3CFFE
:1043D00000F0F4CF01F0F350F41003E016EC24F0F9
:1043E00002D087EC24F024EC1BF00F01245125119E
:1043F00006E1010E0101FE6FFF6BF9EC13F01200F4
:104400000101010EFE1904E1FF5102E1F36A02D03D
:08441000010EF36EF46A1200C4
:08441800CF0E9414946E82682B
:104420001200D9CFE6FFE1CFD9FF040EE126DE6A04
:10443000DD6A020EDB6A030EDB6ADE6ADD6ADECF4E
:1044400000F0DDCF01F0D890015004E6020E005CD0
:10445000000E015875E2300E8210826EDECFE9FF49
:10446000DDCFEAFF140EE926020EEA22EF1C8214C9
:10447000826E0F0E8210826E020EDB6A030EDB6A02
:10448000020EDBCF00F0030EDBCF01F0D89001501D
:1044900004E6030E005C000E01584CE2020EDBCF76
:1044A000E9FF030EDBCFEAFF180EE926020EEA222F
:1044B000EF5082141DE1DECF00F0DDCF01F0030EDE
:1044C0000102F3CF01F00002F4500126020EDB508E
:1044D000F324E96E030EDB500120EA6ED890E93632
:1044E000EA361C0EE926020EEA22010EEE6E1BD001
:1044F000DECF00F0DDCF01F0030E0102F3CF01F0BB
:104500000002F4500126020EDB50F324E96E030E84
:10451000DB500120EA6ED890E936EA361C0EE92617
:10452000020EEA22EE6AED6A020EDB2A030EA8E30F
:10453000DB2AA6D7DF2A010E01E281D7DB2A7FD74B
:10454000040EE15C02E2E16AE552E16EE552E7CF7A
:10455000D9FF1200D9CFE6FFE1CFD9FFFD0EDBCFA7
:1045600000F0FE0EDBCF01F0000E005C000E0158E3
:104570000BE3FD0EDBCF02F0FE0EDBCF03F0060EE9
:10458000025C000E035803E3F36AF46A18D0FD0ED0
:10459000DBCFE9FFFE0EDBCFEAFF010ED890E93654
:1045A000EA36E806FBE11C0EE926020EEA22EECF0F
:1045B00000F0EFCF01F000C0F3FF01C0F4FFE552BF
:0645C000E7CFD9FF120055
:0A45C6001E6A2CAEECEF22F02B6C05
:1045D0002C1EE86A2C221E1E27AEF4EF22F0266C59
:1045E000271EE86A27221E1E8CEC26F027BE04EF49
:1045F00023F01EAE000C266C271EE86A2722226CD0
:10460000231EE86A2322000C1EBEFBEF22F01F8847
:10461000FF0C1E6A2CAE14EF23F02A6C2B1E2C1EEE
:10462000E86A2B222C221E1E27AE1EEF23F0256CDB
:10463000261E271EE86A262227221E1E54EC26F07C
:1046400027BE31EF23F01EAE000C256C261E271E60
:10465000E86A26222722216C221E231E22222322E0
:10466000000C1EBE25EF23F01F88FF0C1E6AE86AAF
:104670002CAE43EF23F0296C2A1E2B1E2C1E2A225F
:104680002B222C221E1E27AE4EEF23F0246C251E5B
:10469000261E271E2522262227221E1E30EC26F04B
:1046A00027BE65EF23F01EAE000C246C251E261ECF
:1046B000271EE86A252226222722206C211E221E80
:1046C000231E212222222322000C1EBE55EF23F09E
:1046D0001F88FF0C26C030F026502B02F4CF25F0A7
:1046E000F3CF24F027502C02F4CF27F0F3CF26F09D
:1046F0002B02F3502526F4502622E86A2722305058
:104700002C02F3502526F4502622E86A2722000CBA
:1047100053454E534F52204C4953543A20004F7644
:104720006572207468726573686F6C642121210D55
:104730000053454E534F5220414C455254212121A4
:104740000D00206D332F68200D0A00206D672F6C3F
:1047500020464C4F573D2000206D672F6C204E4F58
:10476000333D20002043204E48343D2000206D671B
:104770002F6C20544D503D2000206D672F6C20433E
:1047800053423D20002070482053533D2000704884
:104790003D2000464C4F57004E4F33004E483400EA
:1047A00054454D5000434F4400535300704800534C
:1047B000454E534F5220414C4552540053454E53A1
:1047C0004F522053455454494E470043414C4942AF
:1047D000202D204D494E0043414C4942202D204D73
:1047E00041580053454E534F522056414C554500B9
:1047F000464C4F573A20004E4F333A20004E483433
:104800003A200054454D503A2000434F443A20008E
:1048100053533A200070483A20004F766572207456
:0B48200068726573686F6C64212100F2
:01482B00206C
:04482C00020E020175
:10483000521901E1535146E0010E521901E1535161
:104840001AE0525101E1535101E01200E66A81EC95
:1048500026F0E552010E0201526F536B54C2E6FF7F
:1048600055C2E6FFE66EE66A6CEC1FF0E552E552D3
:10487000E552E5521200320EE66E81EC26F0E5526A
:10488000010EE66EE66AF4EC1FF0E552E552F3CF56
:1048900000F0F4CF01F0010EF31813E1015036E1FE
:1048A000020E0201526F536B54C2E6FF55C2E6FF7F
:1048B000010EE66EE66A6CEC1FF0E552E552E55239
:1048C000E5521200E66A81EC26F0E552010EE66E32
:1048D000E66AF4EC1FF0E552E552F3CF00F0F4CFB6
:1048E00001F0010EF31812E1015010E1010E020176
:1048F000526F536B54C2E6FF55C2E6FFE66EE66A9E
:104900006CEC1FF0E552E552E552E5521200E66A02
:0849100081EC26F0E5521200D3
:08491800020E02014E1901E13B
:104920004F5140E0010E4E1901E14F5118E04E5138
:1049300001E14F5101E012005ED8020E02014E6FFC
:104940004F6B50C2E6FF51C2E6FF030EE66EE66A09
:104950006CEC1FF0E552E552E552E55212004BD8DF
:10496000030EE66EE66AF4EC1FF0E552E552F3CF73
:1049700000F0F4CF01F0010EF31813E101503AE119
:10498000020E02014E6F4F6B50C2E6FF51C2E6FFAE
:10499000030EE66EE66A6CEC1FF0E552E552E55256
:1049A000E5521200010EE66EE66ACDEC25F0E55206
:1049B000E552030EE66EE66AF4EC1FF0E552E552AE
:1049C000F3CF00F0F4CF01F0010EF31813E1015022
:1049D00011E1010E02014E6F4F6B50C2E6FF51C252
:1049E000E6FF030EE66EE66A6CEC1FF0E552E55258
:0A49F000E552E5521200FCEF25F03D
:0649FA001E0EF66E000E19
:104A0000F76E000EF86E02010900F550416F0900C3
:104A1000F550426F03E1416701D03DD00900F550E8
:104A20003C6F0900F5503D6F0900F5503E6F0900DD
:104A30000900F550E96E0900F550EA6E0900090019
:104A40000900F5503F6F0900F550406F090009005B
:104A5000F6CF43F2F7CF44F2F8CF45F23CC2F6FF6F
:104A60003DC2F7FF3EC2F8FF02013F5302E140534F
:104A700007E00900F550EE6E3F07F8E24007F9D76E
:104A800043C2F6FF44C2F7FF45C2F8FF02014107E7
:084A9000000E425BBFD71200CB
:084A98000F0E926E0B0EC16EB1
:104AA000040EC06E1200D9CFE6FFE1CFD9FF020E8F
:104AB000E126FE0EDB50040DF350C26EC280C282AE
:104AC000C2B2FED7C450DE6EDD6ADECF02F0DDCFAB
:104AD00003F0D89002360336D89002360336060E1D
:104AE000C3CFE7FF070B04E0E742E79EE806FCE1DF
:104AF000E7500224006E000E032000C0DEFFDD6ED2
:104B0000DECF00F0DDCF01F000C0F3FF01C0F4FF05
:104B1000020EE15C02E2E16AE552E16EE552E7CFA6
:044B2000D9FF1200A7
:0C4B240024502902F3CF20F0F4CF21F040
:104B30002A02F3502126000EF420226E24502B026C
:104B4000F3502226000EF420236E24502C02F35042
:104B5000232625502902F3502126F4502222000E4C
:104B6000232225502A02F3502226F45023222550D6
:104B70002B02F350232626502902F3502226F4500C
:104B8000232226502A02F350232627502902F350CD
:044B900023261200C6
:0C4B9400966A846A1200D9CFE6FFE1CFD8
:104BA000D9FFE150FD0FE96EFF0EDA20EA6E020E2A
:104BB000EE1804E1ED5002E11FD88480D950FD0FBA
:104BC000E96EFF0EDA20EA6E010EEE1804E1ED50F8
:104BD00002E112D88482D950FD0FE96EFF0EDA206F
:104BE000EA6E030EEE1804E1ED5002E105D884846C
:0C4BF000E552E7CFD9FF1200846A1200E2
:044BFC0017D805D8E9
:104C000028EC21F0F3EC0BF0FBD70CEC22F0B3EC2A
:104C100001F022EC0FF04CEC25F071EC26F0CAEC20
:104C200025F0E66A81EC26F0E55212000A0E00013A
:104C3000F86FF96B40EC20F057EF17F0FCEC1EF02A
:104C400011EC22F05DEC08F085EC09F020EC0AF0A4
:104C5000BCEC0AF058EC0BF029EC12F0B5EF1BF0AD
:104C6000236A226A216A206A200EE76ED8902436D1
:104C70002536263627362036213622362336295049
:104C8000205C2A5021582B5022582C50235809E3DD
:104C90002950205E2A50215A2B50225A2C50235A38
:084CA000242AE72EE4D71200DC
:084CA800236A226A216A180E3A
:104CB000E76ED8902536263627362136223623361B
:104CC0002A50215C2B5022582C50235807E32A509D
:104CD000215E2B50225A2C50235A252AE72EEAD740
:024CE0001200C0
:0E4CE200CA94CA90CA82CB68BD98BD9ABE6AB9
:104CF000BD9CBD9EBD90BD92BD84BD869494CA846A
:104D00001200D9CFE6FFE1CFD9FFFE0EDB50BE6E19
:084D1000E552E7CFD9FF1200C4
:084D1800236A226A100EE76E07
:104D2000D89026362736223623362B50225C2C503C
:104D3000235805E32B50225E2C50235A262AE72EB7
:044D4000F0D7120096
:0C4D4400800EF36E00EE00F00F0E01D8A0
:104D50001200EA6002D0EE6AFCD7F350E96012005C
:044D6000EE6AFCD724
:0C4D64001EEE00F02EEE00F0F86A1F9C1E
:104D7000FDEC24F003EC00F0FEEC25F0FBD7120074
:104D80000000000000000000000000000000000023
:044D9000000000001F
:0C4D9400000084030000282300002823F6
:104DA000000094110000A00F000028230000007DE7
:024DB000000001
:0E4DB2000000FF0300000000000000000000F1
:104DC00000000000000000000000000000000000E3
:0E4DD0000000000000000000000000000000D5
:024DDE000000D3
:0A4DE00000000000000000000000C9
:064DEA0020202020202003
:104DF00020202020202020202020202020202020B3
:0E4E0000202020202020202020200100000063
:024E0E00102072
:104E10008000010208000000000000000000000007
:024E2000000090
:0E4E2200000000000000000000000000000082
:0C4E300000000000000000000000000076
:044E3C0015481048BD
:104E40000A480348FD47F747F047040004000500FF
:104E50000600050005000600000001000200030036
:104E6000040005000600E347D747CB47BC47AF47E0
:0E4E7000AC47A947A547A0479C4798479347E2
:024E7E00000032
:024E8000000030
:0E4E820000001A4802000200030004000300B2
:064E900003000400010014
:024E960000001A
:044E98000000F40121
:044E9C00E8031027F0
:104EA0001027881388131027A08C900100000000A1
:084EB000C409E803D00700006B
:044EB80000003200C4
:044EBC0000000000F2
:104EC00000000000000000000000000000000000E2
:104ED00000000000000000000000000000000000D2
:104EE00000000000000000000000000000000000C2
:104EF0000000000000000000C800C800C800C80092
:044F0000C800C8001D
:020000040030CA
:0100010002FC
:0100020003FA
:010003001EDE
:010005008179
:010006008178
:010008000FE8
:01000900C036
:01000A000FE6
:01000B00E014
:01000C000FE4
:01000D0040B2
:00000001FF
