:020000040000FA
:0600000030EF19F01200C0
:020006001200E6
:0600080039EF16F01200B2
:02000E000000F0
:0400100000000000EC
:06001800C4EF15F0120018
:02001E000900D7
:100020000E330000B400000030000000F432000085
:10003000E40000001A000000E0320000E4010000CB
:1000400014000000BC320000000F0000240000007B
:10005000B0320000240F00000C000000A5300000AA
:10006000FC010000010000007C3200008000000064
:100070003400000010000000F8010000040000003F
:0C0080000E000000FE0000000200000066
:04008C00D9CFE6FFE3
:10009000E1CFD9FF040EE126DE6ADD6A020EDB6ADB
:1000A000030EDB6ADE6ADD6ADECF00F0DDCF01F031
:1000B000026A036A01AE02D002680368D950FB0FDE
:1000C000E96EFF0EDA20EA6EEE50005CEE50015849
:1000D000EE500258EE5003581DE2020EDB6A030E8A
:1000E000DB6A020EDBCF00F0030EDBCF01F0D8900D
:1000F000015004E6A00E005C000E015806E2020E5C
:10010000DB2A030EEEE3DB2AECD7DF2A010ECCE379
:10011000DB2ACAD7040EE15C02E2E16AE552E16E35
:10012000E552E7CFD9FF1200D9CFE6FFE1CFD9FFE3
:10013000FE0EDB50F00B006E0F0E81140010816E6E
:1001400081848186010EE66EE66AE66AE66A9EDFD3
:10015000E552E552E552E5528196010EE66EE66AF9
:10016000E66AE66A93DFE552E552E552E552FE0E95
:10017000DB38F00B006E0F0E81140010816E81864B
:10018000010EE66EE66AE66AE66A80DFE552E5524F
:10019000E552E55281968194030EE66EE66AE66AC0
:1001A000E66A74DFE552E552E552E552E552E7CFE3
:1001B000D9FF1200D9CFE6FFE1CFD9FFFD0EDBCF8B
:1001C000F6FFFE0EDBCFF7FF0800F55011E0FD0E45
:1001D000DBCFF6FFFE0EDBCFF7FF0800F550E66E33
:1001E000A3DFE552FD0EDB2AFE0EE8E3DB2AE6D7AD
:1001F000E552E7CFD9FF1200D9CFE6FFE1CFD9FF13
:1002000020CF00F021CF01F0040ED8900036013647
:10021000E806FBE1000E00260F0E012200500F0140
:100220002225E96E01502321EA6EFE0EDBCFEFFF9F
:10023000222B000E2323100E23AF02D0D89003D020
:10024000225D000E235905E3202B000E2123226B93
:10025000236B030E21AF02D0D89003D0205D000E97
:10026000215902E3206B216BE552E7CFD9FF120041
:10027000D9CFE6FFE1CFD9FFFE0EDB50F00B006EC9
:100280000F0E81140010816E81948186010EE66E3E
:10029000E66AE66AE66AFADEE552E552E552E552BA
:1002A0008196010EE66EE66AE66AE66AEFDEE552E0
:1002B000E552E552E552FE0EDB38F00B006E0F0EF4
:1002C00081140010816E8186010EE66EE66AE66A90
:1002D000E66ADCDEE552E552E552E5528196030E10
:1002E000E66EE66AE66AE66AD1DEE552E552E55276
:1002F000E552E552E7CFD9FF1200D9CFE6FFE1CFB3
:10030000D9FF020EE126DE6ADD6A0F01226B236B44
:10031000010E206F216BDE6ADD6ADECF00F0DDCFDB
:1003200001F0200E005C000E01582BE2DECF00F041
:10033000DDCF01F0040E0F0B05E0D8900132003242
:10034000E806FBE1040ED89000360136E806FBE132
:10035000000E00260F0E0122DECF02F0DDCF03F0EB
:100360000001036A0F0E021600500224E96E0150CC
:100370000320EA6E200EEF6EDF2A010ECEE3DB2AA9
:10038000CCD7936A816A190EE66EE66AE66AE66A77
:100390007DDEE552E552E552E552020EE66E68DF7B
:1003A000E552280EE66E64DFE552010EE66E60DF70
:1003B000E5520C0EE66E5CDFE552060EE66E58DF87
:1003C000E552020EE15C02E2E16AE552E16EE552BD
:1003D000E7CFD9FF1200010EE66E4ADFE552030EA9
:1003E000E66EE66AE66AE66A51DEE552E552E552F5
:1003F000E5521200D9CFE6FFE1CFD9FFE652DF6A1E
:10040000FE0EDB5005E1FD0EDB500F0B800904D022
:10041000FD0EDB500F0BC009DF6EDFCFE6FF28DFDC
:10042000E552FB0EDBCFE6FFFC0EDBCFE6FFC2DEC4
:10043000E552E552E552E552E7CFD9FF1200D9CF98
:10044000E6FFE1CFD9FFFD0EDBCF20FF0F01216BCF
:10045000010E2017FB0EDBCF22FF236B0F0E22179E
:1004600020CF00F021CF01F0040ED89000360136E5
:10047000E806FBE1000E00260F0E012200500F01DE
:100480002225E96E01502321EA6EFA0EDBCFEFFF41
:10049000222B000E2323100E23AF02D0D89003D0BE
:1004A000225D000E235905E3202B000E2123226B31
:1004B000236B030E21AF02D0D89003D0205D000E35
:1004C000215902E3206B216BE552E7CFD9FF1200DF
:1004D000D9CFE6FFE1CFD9FFFD0EDBCF20FF0F0123
:1004E000216B010E2017FB0EDBCF22FF236B0F0EBB
:1004F0002217F90EDBCFF6FFFA0EDBCFF7FF08006D
:10050000F55047E0F90EDBCFF6FFFA0EDBCFF7FF31
:100510000800F550E66E20CF00F021CF01F0040E68
:10052000D89000360136E806FBE1000E00260F0EDB
:10053000012200500F012225E96E01502321EA6EAD
:10054000E552E750EF6E222B000E2323100E23AF4F
:1005500002D0D89003D0225D000E235905E3202B52
:10056000000E2123226B236B020E21AF02D0D89004
:1005700003D0205D000E215902E3206B216BF90EA0
:10058000DBCFF6FFDB2AFA0EDBCFF7FFB2E3DB2A85
:10059000B0D7E552E7CFD9FF1200D9CFE6FFE1CFC0
:1005A000D9FF040EE126DE6ADD6A020EDB6A030E65
:1005B000DB6AFD0EDBCF20FF0F01216B010E201740
:1005C000FB0EDBCF22FFFC0EDBCF23FF236B0F0ED6
:1005D0002217F70EDBCF00F0F80EDBCF01F0F90E9B
:1005E000DBCF02F0FA0EDBCF03F000500110021057
:1005F000031004E1300EE66EFFDDE552D950F70F2F
:10060000E96EFF0EDA20EA6ED890030EEB50000A76
:1006100008E6000EEE5C000EEE58000EEE58000EDE
:10062000EE5822E22D0EE66EE7DDE552F70EDBCF47
:100630001EF0F80EDBCF1FF0F90EDBCF20F0FA0E24
:10064000DBCF21F0236824682568266853EC18F076
:10065000F70E1AC0DBFFF80E1BC0DBFFF90E1CC043
:10066000DBFFFA0E1DC0DBFF100EDE6E270EDD6E07
:10067000D9CFE9FFDACFEAFF000ED880EE54000EA2
:10068000ED5401E3AAD0DECF00F0DDCF01F0026A25
:10069000036A00C023F001C024F002C025F003C0AB
:1006A00026F0F70EDBCF1EF0F80EDBCF1FF0F90EB1
:1006B000DBCF20F0FA0EDBCF21F042EC12F01E501F
:1006C0001F102010211036E0DECF04F0DDCF05F042
:1006D000066A076A04C023F005C024F006C025F0AE
:1006E00007C026F0F70EDBCF1EF0F80EDBCF1FF0B1
:1006F000F90EDBCF20F0FA0EDBCF21F042EC12F046
:100700001EC000F01FC001F020C002F021C003F0A5
:10071000300E0026000E0122022203220050E66E57
:100720006BDDE552010EF36E020EF3CFDBFF030E1D
:10073000DB6A0ED0D950020FE96EDACFEAFF010E64
:10074000EE1806E1ED5004E1300EE66E55DDE5529F
:10075000DECF00F0DDCF01F0026A036A00C023F0B3
:1007600001C024F002C025F003C026F0F70EDBCF55
:100770001EF0F80EDBCF1FF0F90EDBCF20F0FA0EE3
:10078000DBCF21F003C0F5FF42EC12F0F5AE08D04C
:10079000000E1A6C1B1E1B221C1E1C221D1E1D225D
:1007A000F70E1AC0DBFFF80E1BC0DBFFF90E1CC0F2
:1007B000DBFFFA0E1DC0DBFF0A0E006E016A256E1C
:1007C00001C026F0DECF20F0DDCF21F00AEC19F0D9
:1007D00020C0DEFF21C0DDFF4BD7040EE15C02E24A
:1007E000E16AE552E16EE552E7CFD9FF1200D9CFB9
:1007F000E6FFE1CFD9FF060EE126D9CFE9FFDACF38
:10080000EAFFF70EDBCFEEFFF80EDBCFEEFFF90EBF
:10081000DBCFEEFFFA0EDBCFEEFF040EDB6A050E38
:10082000DB6AD9CFE9FFDACFEAFFEECF1EF0EECFD9
:100830001FF0EECF20F0EFCF21F0E80E236E030E75
:10084000246E256A266A42EC12F01E501F102010FA
:1008500021104DE0D9CFE9FFDACFEAFFEECF00F06B
:10086000EECF01F0EECF02F0EFCF03F0E80E236EF3
:10087000030E246E256A266A00C01EF001C01FF018
:1008800002C020F003C021F042EC12F01EC000F0C4
:100890001FC001F020C002F021C003F01EC0E6FF1F
:1008A0001FC0E6FF20C0E6FF21C0E6FF040EDBCF3D
:1008B00006F0050EDBCF07F0FB0EDB500624046EBE
:1008C000FC0EDB500720056E04C0E6FFE66EFD0E51
:1008D000DBCFE6FFFE0EDBCFE6FF5FDE086E080E25
:1008E000E15E0850040EDB2A050E01E3DB2AD9CFB6
:1008F000E9FFDACFEAFFEECF1EF0EECF1FF0EECF2A
:1009000020F0EFCF21F0E80E236E030E246E256A4F
:10091000266A42EC12F01AC0DEFF1BC0DEFF1CC0CC
:10092000DEFF1DC0DDFFDD52DD52D9CFE9FFDACF9A
:10093000EAFFEECF00F0EECF01F0EECF02F0EFCF06
:1009400003F0640E236E246A256A266A00C01EF036
:1009500001C01FF002C020F003C021F042EC12F0F1
:100960001EC000F01FC001F020C002F021C003F043
:100970001EC0E6FF1FC0E6FF20C0E6FF21C0E6FF65
:10098000040EDBCF06F0050EDBCF07F0FB0EDB50CD
:100990000624046EFC0EDB500720056E04C0E6FF43
:1009A000E66EFD0EDBCFE6FFFE0EDBCFE6FFF5DDEC
:1009B000086E080EE15E0850040EDB2A050E01E306
:1009C000DB2AD9CFE9FFDACFEAFFEECF1EF0EECF78
:1009D0001FF0EECF20F0EFCF21F0640E236E246ADB
:1009E000256A266A42EC12F01AC0DEFF1BC0DEFF49
:1009F0001CC0DEFF1DC0DDFFDD52DD522E0EE66E97
:100A0000040EDBCF02F0050EDBCF03F0FB0EDB5054
:100A10000224006EFC0EDB500320016E00C0E6FFD6
:100A2000E66EFD0EDBCFE6FFFE0EDBCFE6FF07DD59
:100A3000046E050EE15E0450040EDB2A050E01E390
:100A4000DB2AD9CFE9FFDACFEAFFEECF00F0EECF15
:100A500001F0EECF02F0EFCF03F00A0E236E246A0E
:100A6000256A266A00C01EF001C01FF002C020F0F7
:100A700003C021F042EC12F01EC000F01FC001F0D4
:100A800020C002F021C003F01EC0E6FF1FC0E6FF39
:100A900020C0E6FF21C0E6FF040EDBCF06F0050E06
:100AA000DBCF07F0FB0EDB500624046EFC0EDB50A0
:100AB0000720056E04C0E6FFE66EFD0EDBCFE6FF05
:100AC000FE0EDBCFE6FF69DD086E080EE15E085022
:100AD000040EDB2A050E01E3DB2AD9CFE9FFDACFCA
:100AE000EAFFEECF00F0EECF01F0EECF02F0EFCF55
:100AF00003F00A0E236E246A256A266A00C01EF0DF
:100B000001C01FF002C020F003C021F042EC12F03F
:100B10001AC000F01BC001F01CC002F01DC003F0A1
:100B20001AC0E6FF1BC0E6FF1CC0E6FF1DC0E6FFC3
:100B3000040EDBCF06F0050EDBCF07F0FB0EDB501B
:100B40000624046EFC0EDB500720056E04C0E6FF91
:100B5000E66EFD0EDBCFE6FFFE0EDBCFE6FF1DDD12
:100B6000086E080EE15E0850040EDB2A050E01E354
:100B7000DB2A060EE15C02E2E16AE552E16EE55233
:100B8000E7CFD9FF1200D9CFE6FFE1CFD9FF030E9F
:100B9000E126200EDF6E010EDB6A020EDB6A010E1B
:100BA000DB6A020EDB6A010EDBCF00F0020EDBCF48
:100BB00001F0100E005C000E015837E2010EDBCF91
:100BC000E9FF020EDBCFEAFF000EE9260F0EEA2254
:100BD000EFCFDFFF010EDBCFE9FF020EDBCFEAFF35
:100BE000100EE9260F0EEA22EF50E66E010EDBCF63
:100BF000E9FF020EDBCFEAFF000EE9260F0EEA2224
:100C0000E552E750EF6E010EDBCFE9FF020EDBCFBE
:100C1000EAFF100EE9260F0EEA22DFCFEFFF010EEA
:100C2000DB2A020EC0E3DB2ABED7D950FD0FE96EE6
:100C3000FF0EDA20EA6EEE50ED100BE0D950FD0FFA
:100C4000E96EFF0EDA20EA6E010EEE180BE1ED50B0
:100C500009E1FD0EDBCFE6FFFE0EDBCFE6FF38D865
:100C6000E552E552030EE15C02E2E16AE552E16E13
:100C7000E552E7CFD9FF1200D9CFE6FFE1CFD9FF88
:100C8000FD0EDBCF20FF0F01216B010E2017FB0EA5
:100C9000DBCF22FF236B0F0E221720CF00F021CFD6
:100CA00001F0040ED89000360136E806FBE1000E94
:100CB00000260F0E012200500F012225E96E01507F
:100CC0002321EA6E200EEF6EE552E7CFD9FF120026
:100CD000D9CFE6FFE1CFD9FF020EE126DE6ADD6A59
:100CE000FD0EDBCF20FF0F01216B010E2017DE6A06
:100CF000DD6ADECF00F0DDCF01F0100E005C000EEB
:100D000001581BE220CF00F021CF01F0040ED89053
:100D100000360136E806FBE1000E00260F0E012228
:100D2000DE500024E96EDD500120EA6E200EEF6EE9
:100D3000DF2A010EDEE3DB2ADCD7020EE15C02E2F1
:100D4000E16AE552E16EE552E7CFD9FF1200D9CF53
:100D5000E6FFE1CFD9FF020EE126DE6ADD6A0F0170
:100D6000226B236B010E206F216BDE6ADD6ADECF02
:100D700000F0DDCF01F0200E005C000E01582BE2E8
:100D8000DECF00F0DDCF01F0040E0F0B05E0D890B0
:100D900001320032E806FBE1040ED890003601363D
:100DA000E806FBE1000E00260F0E0122DECF02F066
:100DB000DDCF03F00001036A0F0E0216005002247B
:100DC000E96E01500320EA6E200EEF6EDF2A010E5D
:100DD000CEE3DB2ACCD7020EE15C02E2E16AE55207
:100DE000E16EE552E7CFD9FF1200D9CFE6FFE1CFA0
:100DF000D9FF020EE126DE6ADD6A800EE66E38EC6F
:100E000001F0E552DE6ADD6ADECF00F0DDCF01F0F1
:100E1000100E005C000E015812E2DECFE9FFDDCFBC
:100E2000EAFF000EE9260F0EEA22EF50E66E94EC80
:100E300000F0E552DF2A010EE7E3DB2AE5D7C00E1A
:100E4000E66E38EC01F0E552DE6ADD6ADECF00F0D6
:100E5000DDCF01F0100E005C000E015812E2DECF73
:100E6000E9FFDDCFEAFF100EE9260F0EEA22EF5070
:100E7000E66E94EC00F0E552DF2A010EE7E3DB2A90
:100E8000E5D7020EE15C02E2E16AE552E16EE5526D
:060E9000E7CFD9FF1200BC
:0A0E9600D9CFE6FFE1CFD9FFFD0E32
:100EA000DBCF00F0FE0EDBCF01F0000E005C000E89
:100EB00001580BE3FD0EDBCF02F0FE0EDBCF03F09B
:100EC000070E025C000E035805E31E6A1F6A206AC3
:100ED000216A20D0FD0EDBCFE9FFFE0EDBCFEAFF5B
:100EE000020ED890E936EA36E806FBE1000EE92664
:100EF000010EEA22EECF00F0EECF01F0EECF02F0CD
:100F0000EFCF03F000C01EF001C01FF002C020F0C0
:100F100003C021F0E552E7CFD9FF12009AC000F0DC
:100F20009BC001F0026A036A00018051825D146E69
:100F300083518155156E166A176A9A51985D106E25
:100F400099519B55116E126A136A80C00CF081C0D2
:100F50000DF00E6A0F6A0C50845D086E0D508559B5
:100F6000096E0E5086590A6E0F5087590B6E08C0D5
:100F70001EF009C01FF00AC020F0216E10C023F03F
:100F800011C024F012C025F013C026F053EC18F065
:100F90001AC004F01BC005F01CC006F01DC007F00D
:100FA0001AC01EF01BC01FF01CC020F01DC021F095
:100FB00014C023F015C024F016C025F017C026F089
:100FC00042EC12F000501E240101006F01501F205E
:100FD000016F02502020026F03502120036F9EC03A
:100FE00000F09FC001F0026A036A00018051825D37
:100FF000146E83518155156E166A176A9E519C5D59
:10100000106E9D519F55116E126A136A80C00CF0CC
:1010100081C00DF00E6A0F6A0C50845D086E0D5091
:101020008559096E0E5086590A6E0F5087590B6EFE
:1010300008C01EF009C01FF00AC020F0216E10C0C9
:1010400023F011C024F012C025F013C026F053EC99
:1010500018F01AC004F01BC005F01CC006F01DC03B
:1010600007F01AC01EF01BC01FF01CC020F01DC0EE
:1010700021F014C023F015C024F016C025F017C0CD
:1010800026F042EC12F000501E240101046F0150C2
:101090001F20056F02502020066F03502120076F8C
:1010A000A2C000F0A3C001F0026A036A00018051EF
:1010B000825D146E83518155156E166A176AA251AE
:1010C000A05D106EA151A355116E126A136A80C003
:1010D0000CF081C00DF00E6A0F6A0C50845D086E32
:1010E0000D508559096E0E5086590A6E0F5087595A
:1010F0000B6E08C01EF009C01FF00AC020F0216E60
:1011000010C023F011C024F012C025F013C026F047
:1011100053EC18F01AC004F01BC005F01CC006F018
:101120001DC007F01AC01EF01BC01FF01CC020F02D
:101130001DC021F014C023F015C024F016C025F006
:1011400017C026F042EC12F000501E240101086F77
:1011500001501F20096F025020200A6F03502120E8
:101160000B6FA6C000F0A7C001F0026A036A00017D
:101170008051825D146E83518155156E166A176A0F
:10118000A651A45D106EA551A755116E126A136A7F
:1011900080C00CF081C00DF00E6A0F6A0C508E5D9D
:1011A000086E0D508F59096E0E5090590A6E0F50EF
:1011B00091590B6E08C01EF009C01FF00AC020F044
:1011C000216E10C023F011C024F012C025F013C00E
:1011D00026F053EC18F01AC004F01BC005F01CC038
:1011E00006F01DC007F01AC01EF01BC01FF01CC087
:1011F00020F01DC021F014C023F015C024F016C04B
:1012000025F017C026F042EC12F000501E24010118
:101210000C6F01501F200D6F025020200E6F0350E5
:1012200021200F6FAAC000F0ABC001F0026A036A70
:1012300000018051825D146E83518155156E166ACE
:10124000176AAA51A85D106EA951AB55116E126AAA
:10125000136A80C00CF081C00DF00E6A0F6A0C504A
:10126000845D086E0D508559096E0E5086590A6EC0
:101270000F5087590B6E08C01EF009C01FF00AC03E
:1012800020F0216E10C023F011C024F012C025F010
:1012900013C026F053EC18F01AC004F01BC005F080
:1012A0001CC006F01DC007F01AC01EF01BC01FF0C6
:1012B0001CC020F01DC021F014C023F015C024F084
:1012C00016C025F017C026F042EC12F000501E2484
:1012D0000101106F01501F20116F02502020126F6A
:1012E00003502120136FAEC000F0AFC001F0026ABE
:1012F000036A00018051825D146E83518155156E21
:10130000166A176AAE51AC5D106EAD51AF55116ED5
:10131000126A136A80C00CF081C00DF00E6A0F6A69
:101320000C50845D086E0D508559096E0E5086591B
:101330000A6E0F5087590B6E08C01EF009C01FF0CF
:101340000AC020F0216E10C023F011C024F012C09A
:1013500025F013C026F053EC18F01AC004F01BC09F
:1013600005F01CC006F01DC007F01AC01EF01BC01F
:101370001FF01CC020F01DC021F014C023F015C0C8
:1013800024F016C025F017C026F042EC12F00050F1
:101390001E240101146F01501F20156F02502020E0
:1013A000166F03502120176FB2C000F0B3C001F0D8
:1013B000026A036A00018051825D146E8351815577
:1013C000156E166A176AB251B05D106EB151B35501
:1013D000116E126A136A80C00CF081C00DF00E6AA3
:1013E0000F6A0C50845D086E0D508559096E0E50C1
:1013F00086590A6E0F5087590B6E08C01EF009C03F
:101400001FF00AC020F0216E10C023F011C024F09C
:1014100012C025F013C026F053EC18F01AC004F0E7
:101420001BC005F01CC006F01DC007F01AC01EF05E
:101430001BC01FF01CC020F01DC021F014C023F001
:1014400015C024F016C025F017C026F042EC12F0AB
:1014500000501E240101186F01501F20196F025007
:1014600020201A6F035021201B6F1200D9CFE6FFF6
:10147000E1CFD9FF040EE126DE6ADD6A020EDB6AE7
:10148000030EDB6AE66ACFEC17F0E552F3CF88F083
:10149000F4CF89F08CC0E9FF8DC0EAFFD890E9361F
:1014A000EA361C0EE926010EEA22F3CFEEFF89C0D0
:1014B000EDFF010E00018C258C6F000E8D218D6FCC
:1014C000320E256E266A8CC020F08DC021F0EFEC24
:1014D00011F01CC08CF01DC08DF01CC0DEFF1DC0C3
:1014E000DDFF00018A6B8B6B020EDB6A030EDB6A89
:1014F000020EDBCF00F0030EDBCF01F0D8900150DD
:1015000004E6320E005C000E015824E2DECFE9FF53
:10151000DDCFEAFFD890E936EA361C0EE926010E47
:10152000EA22EE508A27EE508B23D9CFE9FFDACF9B
:10153000EAFFEE50ED1004E1310EDE6EDD6A04D0FC
:10154000DF06010E01E2DB06020EDB2A030ED0E30A
:10155000DB2ACED78AC084F08BC085F0866B876B80
:10156000320E236E246A256A266A8AC01EF08BC05A
:101570001FF086C020F087C021F042EC12F01EC0A0
:1015800084F01FC085F020C086F021C087F0040ED3
:10159000E15C02E2E16AE552E16EE552E7CFD9FF94
:1015A0001200D9CFE6FFE1CFD9FF040EE126DE6AB3
:1015B000DD6A020EDB6A030EDB6A010EE66ECFEC1B
:1015C00017F0E552F3CF92F0F4CF93F096C0E9FF15
:1015D00097C0EAFFD890E936EA36800EE926010E78
:1015E000EA22F3CFEEFF93C0EDFF010E0001962536
:1015F000966F000E9721976F320E256E266A96C061
:1016000020F097C021F0EFEC11F01CC096F01DC047
:1016100097F01CC0DEFF1DC0DDFF0001946B956BD1
:10162000020EDB6A030EDB6A020EDBCF00F0030E54
:10163000DBCF01F0D890015004E6320E005C000EC2
:10164000015824E2DECFE9FFDDCFEAFFD890E9368A
:10165000EA36800EE926010EEA22EE509427EE507B
:101660009523D9CFE9FFDACFEAFFEE50ED1004E180
:10167000310EDE6EDD6A04D0DF06010E01E2DB060C
:10168000020EDB2A030ED0E3DB2ACED794C08EF005
:1016900095C08FF0906B916B320E236E246A256A91
:1016A000266A94C01EF095C01FF090C020F091C033
:1016B00021F042EC12F01EC08EF01FC08FF020C04F
:1016C00090F021C091F0040EE15C02E2E16AE55283
:0A16D000E16EE552E7CFD9FF1200EA
:0616DA00B06A810EAF6E44
:1016E000AC8AAC94B886AC98AB8EAB889E9A9D8A37
:1016F0009F9A949C948E12000101FC511200D9CF44
:10170000E6FFE1CFD9FF9EA8FED7FE0EDB50AD6EFF
:101710009E98E552E7CFD9FF1200D9CFE6FFE1CF7F
:10172000D9FFFD0EDBCFF6FFFE0EDBCFF7FF080083
:10173000F55015E0FD0EDBCFF6FFFE0EDBCFF7FF19
:101740000800F550E66EDBDFE552FD0EDBCFF6FF5D
:10175000DB2AFE0EDBCFF7FFE4E3DB2AE2D7E5521C
:10176000E7CFD9FF1200D9CFE6FFE1CFD9FF040EB2
:10177000E126DE6ADD6A020EDB6A030EDB6AFB0E1F
:10178000DBCF00F0FC0EDBCF01F0FD0EDBCF02F073
:10179000FE0EDBCF03F0005001100210031004E135
:1017A000300EE66EACDFE552D950FB0FE96EFF0E4E
:1017B000DA20EA6ED890030EEB50000A08E6000E1D
:1017C000EE5C000EEE58000EEE58000EEE5822E2CF
:1017D0002D0EE66E94DFE552FB0EDBCF1EF0FC0E05
:1017E000DBCF1FF0FD0EDBCF20F0FE0EDBCF21F0B4
:1017F000236824682568266853EC18F0FB0E1AC08D
:10180000DBFFFC0E1BC0DBFFFD0E1CC0DBFFFE0E72
:101810001DC0DBFF100EDE6E270EDD6ED9CFE9FF97
:10182000DACFEAFF000ED880EE54000EED5401E34B
:10183000AAD0DECF00F0DDCF01F0026A036A00C05B
:1018400023F001C024F002C025F003C026F0FB0EF7
:10185000DBCF1EF0FC0EDBCF1FF0FD0EDBCF20F048
:10186000FE0EDBCF21F042EC12F01E501F102010B4
:10187000211036E0DECF04F0DDCF05F0066A076AFE
:1018800004C023F005C024F006C025F007C026F0F0
:10189000FB0EDBCF1EF0FC0EDBCF1FF0FD0EDBCF0F
:1018A00020F0FE0EDBCF21F042EC12F01EC000F063
:1018B0001FC001F020C002F021C003F0300E00264E
:1018C000000E0122022203220050E66E18DFE552CC
:1018D000010EF36E020EF3CFDBFF030EDB6A0ED0B8
:1018E000D950020FE96EDACFEAFF010EEE1806E1D9
:1018F000ED5004E1300EE66E02DFE552DECF00F07F
:10190000DDCF01F0026A036A00C023F001C024F0B9
:1019100002C025F003C026F0FB0EDBCF1EF0FC0E4C
:10192000DBCF1FF0FD0EDBCF20F0FE0EDBCF21F072
:1019300003C0F5FF42EC12F0F5AE08D0000E1A6CB1
:101940001B1E1B221C1E1C221D1E1D22FB0E1AC04C
:10195000DBFFFC0E1BC0DBFFFD0E1CC0DBFFFE0E21
:101960001DC0DBFF0A0E006E016A256E01C026F065
:10197000DECF20F0DDCF21F00AEC19F020C0DEFF31
:1019800021C0DDFF4BD7040EE15C02E2E16AE552C3
:10199000E16EE552E7CFD9FF1200D9CFE6FFE1CFE4
:1019A000D9FF040EE126D9CFE9FFDACFEAFFFB0E1B
:1019B000DBCFEEFFFC0EDBCFEEFFFD0EDBCFEEFF4D
:1019C000FE0EDBCFEEFFD9CFE9FFDACFEAFFEECF95
:1019D0001EF0EECF1FF0EECF20F0EFCF21F0E80E9B
:1019E000236E030E246E256A266A42EC12F01E5006
:1019F0001F102010211031E0D9CFE9FFDACFEAFF24
:101A0000EECF00F0EECF01F0EECF02F0EFCF03F01B
:101A1000E80E236E030E246E256A266A00C01EF0AF
:101A200001C01FF002C020F003C021F042EC12F010
:101A30001EC000F01FC001F020C002F021C003F062
:101A40001EC0E6FF1FC0E6FF20C0E6FF21C0E6FF84
:101A50008ADEE552E552E552E552D9CFE9FFDACF09
:101A6000EAFFEECF1EF0EECF1FF0EECF20F0EFCF6B
:101A700021F0E80E236E030E246E256A266A42ECDE
:101A800012F01AC0DEFF1BC0DEFF1CC0DEFF1DC04F
:101A9000DDFFDD52DD52D9CFE9FFDACFEAFFEECF2D
:101AA00000F0EECF01F0EECF02F0EFCF03F0640EC6
:101AB000236E246A256A266A00C01EF001C01FF04A
:101AC00002C020F003C021F042EC12F01EC000F072
:101AD0001FC001F020C002F021C003F01EC0E6FFCD
:101AE0001FC0E6FF20C0E6FF21C0E6FF3CDEE55256
:101AF000E552E552E552D9CFE9FFDACFEAFFEECF62
:101B00001EF0EECF1FF0EECF20F0EFCF21F0640EED
:101B1000236E246A256A266A42EC12F01AC0DEFFA0
:101B20001BC0DEFF1CC0DEFF1DC0DDFFDD52DD522D
:101B30002E0EE66EE4DDE552D9CFE9FFDACFEAFFFB
:101B4000EECF00F0EECF01F0EECF02F0EFCF03F0DA
:101B50000A0E236E246A256A266A00C01EF001C0A0
:101B60001FF002C020F003C021F042EC12F01EC0B2
:101B700000F01FC001F020C002F021C003F01EC021
:101B8000E6FF1FC0E6FF20C0E6FF21C0E6FFEBDD59
:101B9000E552E552E552E552D9CFE9FFDACFEAFF47
:101BA000EECF00F0EECF01F0EECF02F0EFCF03F07A
:101BB0000A0E236E246A256A266A00C01EF001C040
:101BC0001FF002C020F003C021F042EC12F01AC056
:101BD00000F01BC001F01CC002F01DC003F01AC0D1
:101BE000E6FF1BC0E6FF1CC0E6FF1DC0E6FFBBDD35
:101BF000E552E552E552E552040EE15C02E2E16A8B
:101C0000E552E16EE552E7CFD9FF1200AECFFCF10D
:021C10001200C0
:0E1C1200D59ED59C650E206E130E216E24CF3C
:101C200025F025CF26F076EC12F01EC02AFF1FC04B
:101C30002BFF03680468056A24CF06F025CF07F060
:101C4000086A0650035C006E07500458016E085085
:101C50000558026E246A010E256E266A00C01FF028
:101C600001C020F002C021F015EC12F01BC000F002
:101C70001CC001F01DC002F01B50D66E0368046842
:101C8000056A24CF06F025CF07F0086A0650035CEA
:101C9000006E07500458016E08500558026E246A01
:101CA000010E256E266A00C01FF001C020F002C0A0
:101CB00021F015EC12F01FC000F020C001F021C08F
:101CC00002F01F50D76ED59AD586F28AF294F1842D
:101CD000D58E120003680468056A2ACF06F02BCF60
:101CE00007F0086A0650035C006E07500458016E46
:101CF00008500558026E246A010E256E266A00C03F
:101D00001FF001C020F002C021F015EC12F01B50B2
:101D1000D66E03680468056A2ACF06F02BCF07F059
:101D2000086A0650035C006E07500458016E0850A4
:101D30000558026E246A010E256E266A00C01FF047
:101D400001C020F002C021F015EC12F01FC000F01D
:101D500020C001F021C002F01F50D76ED58E1200B6
:101D6000D59E12001200CD90650E206E130E216ECE
:101D700026CF25F027CF26F076EC12F01EC02CFFE0
:101D80001FC02DFF03680468056A1EC006F01FC04F
:101D900007F0086A1E50035C006E1F500458016E65
:101DA00008500558026E246A010E256E266A00C08E
:101DB0001FF001C020F002C021F015EC12F01FC08E
:101DC00000F020C001F021C002F01F50CF6E036868
:101DD0000468056A2CCF06F02DCF07F0086A06507C
:101DE000035C006E07500458016E08500558026EDF
:101DF000246A010E256E266A00C01FF001C020F083
:101E000002C021F015EC12F01BC000F01CC001F064
:101E10001DC002F01B50CE6E9D809E909F90CD8E77
:101E2000CD8CCD98CD9ACD96CD92CD801200036801
:101E30000468056A2CCF06F02DCF07F0086A06501B
:101E4000035C006E07500458016E08500558026E7E
:101E5000246A010E256E266A00C01FF001C020F022
:101E600002C021F015EC12F01F50CF6E0368046819
:101E7000056A2CCF06F02DCF07F0086A0650035CE8
:101E8000006E07500458016E08500558026E246A0F
:101E9000010E256E266A00C01FF001C020F002C0AE
:101EA00021F015EC12F01BC000F01CC001F01DC0A9
:101EB00002F01B50CE6ECD801200CD9012001200A9
:101EC000B190650E206E130E216E28CF25F029CF1C
:101ED00026F076EC12F01EC02EFF1FC02FFF036805
:101EE0000468056A1EC006F01FC007F0086A1E508D
:101EF000035C006E1F500458016E08500558026EB6
:101F0000246A010E256E266A00C01FF001C020F071
:101F100002C021F015EC12F01FC000F020C001F04B
:101F200021C002F01F50B36E03680468056A2ECF0B
:101F300006F02FCF07F0086A0650035C006E0750CA
:101F40000458016E08500558026E246A010E256E71
:101F5000266A00C01FF001C020F002C021F015EC7D
:101F600012F01BC000F01CC001F01DC002F01B509D
:101F7000B26EA082A192A292B18EB198B19AB192A2
:101F8000B180120003680468056A2ECF06F02FCFD7
:101F900007F0086A0650035C006E07500458016E93
:101FA00008500558026E246A010E256E266A00C08C
:101FB0001FF001C020F002C021F015EC12F01B5000
:101FC000B26E03680468056A2ECF06F02FCF07F0C3
:101FD000086A0650035C006E07500458016E0850F2
:101FE0000558026E246A010E256E266A00C01FF095
:101FF00001C020F002C021F015EC12F01FC000F06B
:1020000020C001F021C002F01F50B36EB180120059
:04201000B190120079
:0C2014000001D207000ED35B1200000197
:10202000D22B000ED3231200D9CFE6FFE1CFD9FF88
:10203000080EE126DE6ADE6ADE6ADD6ADD52DD5206
:10204000040EDB6A050EDB6A060EDB6A070EDB6A2E
:102050000001010ED21901E1D35126E0D2C0E9FFFF
:10206000D3C0EAFF020EE95E000EEA5A010ED890D4
:10207000E936EA36E806FBE1D60EE926000EEA224A
:10208000EECFE6FFEFCFE6FF4BEC07F0E552E5526F
:10209000D6EC11F01FC0DEFF20C0DEFF21C0DEFF46
:1020A00022C0DDFFDD52DD52D2C0E9FFD3C0EAFF1E
:1020B000E906000EEA5A010ED890E936EA36E8063B
:1020C000FBE1D60EE926000EEA22EECFE6FFEFCFC7
:1020D000E6FF4BEC07F0E552E552D6EC11F0040EAA
:1020E0001FC0DBFF050E20C0DBFF060E21C0DBFF9B
:1020F000070E22C0DBFFA7EC06F0D2C0E9FFD3C079
:10210000EAFFE906000EEA5A010ED890E936EA36EF
:10211000E806FBE1B40EE926000EEA22EECFE6FF68
:10212000EFCFE6FF000EE66EE66AE66EE66A68EC62
:1021300002F0006E060EE15E0050D2C0E9FFD3C08F
:10214000EAFF010ED890E936EA36E806FBE1B40E64
:10215000E926000EEA22EECFE6FFEFCFE6FF000E03
:10216000E66EE66A010EE66EE66A68EC02F0006E64
:10217000060EE15E00500001010ED21901E1D351BB
:102180003BE0DECF1FF0DECF20F0DECF21F0DDCF51
:1021900022F0DD52DD5294EC12F01EC000F01FC0A0
:1021A00001F020C002F021C003F01EC0E6FF1FC0F6
:1021B000E6FF20C0E6FF21C0E6FFD2C0E9FFD3C0A2
:1021C000EAFF020EE95E000EEA5A010ED890E936E7
:1021D000EA36E806FBE1C40EE926000EEA22EECF5D
:1021E000E6FFEFCFE6FF000EE66EE66AF7EC03F0DF
:1021F000046E080EE15E0450040EDBCF1FF0050EE6
:10220000DBCF20F0060EDBCF21F0070EDBCF22F074
:1022100094EC12F01EC000F01FC001F020C002F0CC
:1022200021C003F01EC0E6FF1FC0E6FF20C0E6FF8E
:1022300021C0E6FFD2C0E9FFD3C0EAFFE906000EE5
:10224000EA5A010ED890E936EA36E806FBE1C40EF8
:10225000E926000EEA22EECFE6FFEFCFE6FF010E01
:10226000E66EE66AF7EC03F0046E080EE15E0450D9
:10227000F5EC06F0080EE15C02E2E16AE552E16E7F
:10228000E552E7CFD9FF1200CFDE030E0001D419CB
:1022900001E1D55170E0020ED41901E1D55129E0D8
:1022A000010ED41901E1D5510BE0D45101E1D55112
:1022B00001E01200010ED46FD56BD26FD36B120008
:1022C000010ED26FD36B050EE66EE66A40EC17F096
:1022D000E552E552F3CF00F0F4CF01F0010EF31810
:1022E00007E1015060E19BDE020E0001D46FD56B67
:1022F0001200010EE66EE66A40EC17F0E552E55278
:10230000F3CF00F0F4CF01F0010EF31814E1015007
:1023100012E1D2C000F0D3C001F00006000E015A55
:10232000010E001807E1015005E1010E0001D46F14
:10233000D56B01D06FDE050EE66EE66A40EC17F055
:10234000E552E552F4CF01F0010EF31813E101500C
:102350002AE1010E0001016AD225006ED35101224B
:10236000070E001806E1015004E1030ED46FD56B8F
:10237000120055DE1200070ED26FD36B010EE66E0F
:10238000E66A40EC17F0E552E552F3CF00F0F4CFE7
:1023900001F0010EF31807E1015005E13BDE020EEA
:0823A0000001D46FD56B12009F
:0823A800199E0CD0199E21AE14
:1023B00009D01E6C1F1E201E211EE86A1F2220222B
:1023C0002122198E21C01BF020C01AF01FC02BF053
:1023D0001EC02AF09E0E1C6E1D6AE7EF12F0186AEE
:1023E00026AEF8EF11F0256C261EE86A2622181E8C
:1023F00021AE00EF12F0206C211EE86A2122181E87
:102400000AEC19F021BE10EF12F018AE000C206C8F
:10241000211EE86A21221C6C1D1EE86A1D22000C88
:1024200018BE07EF12F01988FF0C186A26AE20EFCD
:1024300012F0246C251E261EE86A25222622181E6C
:1024400021AE2AEF12F01F6C201E211EE86A202206
:102450002122181ED2EC18F021BE3DEF12F018AE6A
:10246000000C1F6C201E211EE86A202221221B6CFA
:102470001C1E1D1E1C221D22000C18BE31EF12F066
:102480001988FF0C186AE86A26AE4FEF12F0236C29
:10249000241E251E261E242225222622181E21AE99
:1024A0005AEF12F01E6C1F1E201E211E1F2220221A
:1024B0002122181E8BEC18F021BE71EF12F018AE1D
:1024C000000C1E6C1F1E201E211EE86A1F222022E7
:1024D00021221A6C1B1E1C1E1D1E1B221C221D22CB
:1024E000000C18BE61EF12F01988FF0C20C02AF012
:1024F00020502502F4CF1FF0F3CF1EF0215026020A
:10250000F4CF21F0F3CF20F02502F3501F26F45032
:102510002022E86A21222A502602F3501F26F45076
:102520002022E86A2122000C196A23EC13F019B664
:102530009EEF12F019A20FD019B407D07F0E216EB2
:10254000FF0E206E1F6E1E6E25D0800E216E01D0F4
:10255000216A000EF6D719B0FBD71E6A9F0E2260C3
:10256000EBD77E0E2264F4D79E0E225C07E0D89053
:10257000213220321F321E32222AF6D719A40AD065
:102580001E6C1F1E201E211EE86A1F2220222122EF
:1025900021AEDED712007F0E226EFF0E216E206E5E
:1025A0001F6E12007F0E19BEFF0E226E02D07F0E2C
:1025B000226E800E216E206A1F6AF3D719AE04D0F6
:1025C000800E226E216AF7D7226A216AF4D71B5047
:1025D0001A102B102A10F8E01DBEF0D71BBE0CD02D
:1025E0001C501D10EBE0D8902A362B361A361B36BD
:1025F0001C06D8A01D06F2D71D50D4E11C28D2E03D
:102600002AAE11D07F0E2A1402E12BA00CD02B2A67
:10261000E86A1A221B2207E3D8801B321A322B32B7
:102620001C2A1C28BFE01C50C9E02BC01FF01AC098
:1026300020F01B34216E1C30226E2132229E19BEE6
:10264000228ED1EF12F02136223602E31984197E50
:1026500006E11980226A216A206A1F6A1200222874
:1026600003E0D88021321200D890213202E1198291
:102670001200198612002636273602E3198C197EBD
:1026800006E11988276A266A256A246A1200272823
:1026900003E0D88026321200D8902632EAE1198A67
:0226A000120026
:0E26A200020E0001FE1901E1FF5130E0010EB1
:1026B000FE1901E1FF5117E0FE5101E1FF5101E078
:1026C0001200E80EE66E030EE66E000EE66EE66A97
:1026D00014EC15F0E552E552E552E552010E000109
:1026E000FE6FFF6B1200000EE66EE66A70EC15F0EE
:1026F000E552E552F4CF01F0010EF31807E1015065
:1027000001E021D1020E0001FE6FFF6B12009F0E4F
:10271000E66E300EE66E8DEC0BF0E552E552000EE3
:10272000E66EE66A4BEC07F0E552E5521EC000F09B
:102730001FC001F020C002F021C003F01EC0E6FF60
:102740001FC0E6FF20C0E6FF21C0E6FFCDEC0CF085
:10275000E552E552E552E552960EE66E300EE66E13
:102760008DEC0BF0E552E552010EE66EE66A4BEC9D
:1027700007F0E552E5521EC000F01FC001F020C076
:1027800002F021C003F01EC0E6FF1FC0E6FF20C01C
:10279000E6FF21C0E6FFCDEC0CF0E552E552E55234
:1027A000E5528A0EE66E300EE66E8DEC0BF0E552C9
:1027B000E552020EE66EE66A4BEC07F0E552E55292
:1027C0001EC000F01FC001F020C002F021C003F0C5
:1027D0001EC0E6FF1FC0E6FF20C0E6FF21C0E6FFE7
:1027E000CDEC0CF0E552E552E552E5527E0EE66E78
:1027F000300EE66E8DEC0BF0E552E552030EE66E00
:10280000E66A4BEC07F0E552E5521EC000F01FC02F
:1028100001F020C002F021C003F01EC0E6FF1FC07F
:10282000E6FF20C0E6FF21C0E6FFCDEC0CF0E5524C
:10283000E552E552E552750EE66E300EE66E8DEC11
:102840000BF0E552E552040EE66EE66A4BEC07F03B
:10285000E552E5521EC000F01FC001F020C002F09A
:1028600021C003F01EC0E6FF1FC0E6FF20C0E6FF48
:1028700021C0E6FFCDEC0CF0E552E552E552E55201
:10288000690EE66E300EE66E8DEC0BF0E552E55209
:10289000050EE66EE66A4BEC07F0E552E5521EC007
:1028A00000F01FC001F020C002F021C003F01EC0E4
:1028B000E6FF1FC0E6FF20C0E6FF21C0E6FFCDEC2B
:1028C0000CF0E552E552E552E5525C0EE66E300E34
:1028D000E66E8DEC0BF0E552E552060EE66EE66A0A
:1028E0004BEC07F0E552E5521EC000F01FC001F0AE
:1028F00020C002F021C003F01EC0E6FF1FC0E6FFAB
:1029000020C0E6FF21C0E6FFCDEC0CF0E552E55219
:10291000E552E552530EE66E300EE66E8DEC0BF08E
:10292000E552E552E80EE66E030EE66E000EE66E28
:10293000E66A14EC15F0E552E552E552E552010E57
:082940000001FE6FFF6B1200A5
:08294800D9CFE6FFE1CFD9FF72
:10295000020EE126DE6ADD6ADE6ADD6ADECF00F0A5
:10296000DDCF01F0D890015004E6010E005C000EAE
:10297000015850E2DECFE9FFDDCFEAFFD890E9361B
:10298000EA36FA0EE926010EEA22000ED880EE544D
:10299000000EED543AE2DECFE9FFDDCFEAFFD8903A
:1029A000E936EA36FA0EE926010EEA22EE06000EB4
:1029B000EF5ADECFE9FFDDCFEAFFD890E936EA36FD
:1029C000FA0EE926010EEA22000ED880EE54000E1F
:1029D000ED541BE3DECFE9FFDDCFEAFFD890E93607
:1029E000EA36FA0EE926010EEA22EE6AED6ADECF39
:1029F000E9FFDDCFEAFFD890E936EA36F80EE9269E
:102A0000010EEA22010EEE6EED6ADF2A010EA6E348
:102A1000DB2AA4D7020EE15C02E2E16AE552E16E34
:102A2000E552E7CFD9FF1200D9CFE6FFE1CFD9FFBA
:102A3000FD0EDBCF00F0FE0EDBCF01F0000E005CE0
:102A4000000E01580BE3FD0EDBCF02F0FE0EDBCFD4
:102A500003F0010E025C000E035802E3F36A3BD060
:102A6000FB0EDBCF00F0FC0EDBCF01F00A0E256E73
:102A7000266A00C020F001C021F00AEC19F020C045
:102A800000F021C001F0FD0EDBCFE9FFFE0EDBCF31
:102A9000EAFF010ED890E936EA36E806FBE1FA0EC5
:102AA000E926010EEA2200C0EEFF01C0EDFFFD0E97
:102AB000DBCFE9FFFE0EDBCFEAFF010ED890E9364F
:102AC000EA36E806FBE1F80EE926010EEA22EE6A94
:102AD000ED6A010EF36EF46AE552E7CFD9FF1200FA
:102AE000D9CFE6FFE1CFD9FFFD0EDBCF00F0FE0E20
:102AF000DBCF01F0000E005C000E01580BE3FD0E71
:102B0000DBCF02F0FE0EDBCF03F0010E025C000E05
:102B1000035802E3F36A2BD0FD0EDBCFE9FFFE0E74
:102B2000DBCFEAFF010ED890E936EA36E806FBE192
:102B3000F80EE926010EEA22010EEE1817E1ED501B
:102B400015E1FD0EDBCFE9FFFE0EDBCFEAFF010E44
:102B5000D890E936EA36E806FBE1F80EE926010EE0
:102B6000EA22EE6AED6A010EF36E01D0F36AF46AAE
:082B7000E552E7CFD9FF120086
:082B7800F28ED08EF28C1200E7
:102B8000F19CF292F2881200D8CFE4FFE0CFE4FF8C
:102B9000E46EDACFE4FFE2CFDAFFE9CFE4FFEACF79
:102BA000E4FFF6CFE4FFF7CFE4FFF5CFE4FFF3CF88
:102BB000E4FFF4CFE4FFFACFE4FF00EE18F0140EC8
:102BC000E80403E3EECFE4FFFBD700EE00F0180EBD
:102BD000E80403E3EECFE4FFFBD7E652F2A407D00C
:102BE000B0EC0EF0F2946AEC0EF0B2EC0EF09EA097
:102BF00007D05DEC0FF09E9017EC0FF05FEC0FF03C
:102C0000A1A207D008EC10F0A192C2EC0FF0C8EC22
:102C100018F0F2B2F2929EAA03D09E9A06EC0EF041
:102C2000E55200EE17F0180EE80403E3E5CFEDFFE0
:102C3000FBD700EE2BF0140EE80403E3E5CFEDFF25
:102C4000FBD7E5CFFAFFE5CFF4FFE5CFF3FFE5CF04
:102C5000F5FFE5CFF7FFE5CFF6FFE5CFEAFFE5CFDC
:102C6000E9FFE5CFDAFFE550E5CFE0FFE5CFD8FF9C
:102C70001000DACFE4FFE2CFDAFFE9CFE4FFEACFDA
:102C8000E4FFF6CFE4FFF7CFE4FFF5CFE4FFF3CFA7
:102C9000E4FFF4CFE4FFFACFE4FF00EE18F0140EE7
:102CA000E80403E3EECFE4FFFBD700EE00F0180EDC
:102CB000E80403E3EECFE4FFFBD7E652F2A407D02B
:102CC000B0EC0EF0F2946AEC0EF0B2EC0EF09EA0B6
:102CD00007D05DEC0FF09E9017EC0FF05FEC0FF05B
:102CE000A1A207D008EC10F0A192C2EC0FF0C8EC42
:102CF00018F0F2B2F2929EAA03D09E9A06EC0EF061
:102D0000E55200EE17F0180EE80403E3E5CFEDFFFF
:102D1000FBD700EE2BF0140EE80403E3E5CFEDFF44
:102D2000FBD7E5CFFAFFE5CFF4FFE5CFF3FFE5CF23
:102D3000F5FFE5CFF7FFE5CFF6FFE5CFEAFFE5CFFB
:082D4000E9FFE5CFDAFF110005
:082D4800CF0E9414946E826812
:102D50001200D9CFE6FFE1CFD9FF040EE126DE6AEB
:102D6000DD6A020EDB6A030EDB6ADE6ADD6ADECF35
:102D700000F0DDCF01F0D890015004E6020E005CB7
:102D8000000E015873E2300E8210826EDECFE9FF32
:102D9000DDCFEAFFE40EE926010EEA22EF1C8214E1
:102DA000826E0F0E8210826E020EDB6A030EDB6AE9
:102DB000020EDBCF00F0030EDBCF01F0D890015004
:102DC00004E6030E005C000E01584AE2020EDBCF5F
:102DD000E9FF030EDBCFEAFFE80EE926010EEA2247
:102DE000EF5082141CE1DECF00F0DDCF01F0D8906F
:102DF00000360136D89000360136020EDB50002432
:102E0000E96E030EDB500120EA6ED890E936EA360F
:102E1000EC0EE926010EEA22010EEE6E1AD0DECF8C
:102E200000F0DDCF01F0D89000360136D8900036A2
:102E30000136020EDB500024E96E030EDB50012048
:102E4000EA6ED890E936EA36EC0EE926010EEA225F
:102E5000EE6AED6A020EDB2A030EAAE3DB2AA8D78C
:102E6000DF2A010E01E283D7DB2A81D7040EE15C61
:102E700002E2E16AE552E16EE552E7CFD9FF1200C6
:102E8000D9CFE6FFE1CFD9FFFD0EDBCF00F0FE0E7C
:102E9000DBCF01F0000E005C000E01580BE3FD0ECD
:102EA000DBCF02F0FE0EDBCF03F0060E025C000E5D
:102EB000035803E3F36AF46A18D0FD0EDBCFE9FF91
:102EC000FE0EDBCFEAFF010ED890E936EA36E806BF
:102ED000FBE1EC0EE926010EEA22EECF00F0EFCF87
:102EE00001F000C0F3FF01C0F4FFE552E7CFD9FFC6
:022EF0001200CE
:0E2EF2001E0EF66E000EF76E000EF86E0F014B
:102F00000900F550356F0900F550366F03E135675C
:102F100001D03DD00900F550306F0900F550316FF8
:102F20000900F550326F09000900F550E96E0900FB
:102F3000F550EA6E090009000900F550336F0900E9
:102F4000F550346F09000900F6CF37FFF7CF38FF8F
:102F5000F8CF39FF30CFF6FF31CFF7FF32CFF8FF90
:102F60000F01335302E1345307E00900F550EE6ED0
:102F70003307F8E23407F9D737CFF6FF38CFF7FF3A
:102F800039CFF8FF0F013507000E365BBFD71200AF
:102F90000F0E926E0B0EC16E040EC06E1200D9CFD2
:102FA000E6FFE1CFD9FF020EE126FE0EDB50040D55
:102FB000F350C26EC280C282C2B2FED7C450DE6E6F
:102FC000DD6ADECF02F0DDCF03F0D89002360336A3
:102FD000D89002360336060EC3CFE7FF070B04E096
:102FE000E742E79EE806FCE1E7500224006E000E8F
:102FF000032000C0DEFFDD6EDECF00F0DDCF01F08C
:1030000000C0F3FF01C0F4FF020EE15C02E2E16ADE
:0C301000E552E16EE552E7CFD9FF120057
:04301C00464C4F5778
:103020003A20004E4F333A20004E48343A200054A4
:10303000454D503A2000434F443A200053533A2024
:103040000070483A200053454E534F522056414C91
:10305000554500206D332F68200D0A00206D672F25
:103060006C20464C4F573D2000206D672F6C204E42
:103070004F333D20002043204E48343D2000206D3A
:10308000672F6C20544D503D2000206D672F6C2021
:103090004353423D20002070482053533D20007090
:0530A000483D20200066
:0130A500200A
:0A30A6001E502302F3CF1AF0F4CFFE
:1030B0001BF02402F3501B26000EF4201C6E1E5041
:1030C0002502F3501C26000EF4201D6E1E50260211
:1030D000F3501D261F502302F3501B26F4501C22D0
:1030E000000E1D221F502402F3501C26F4501D22F6
:1030F0001F502502F3501D2620502302F3501C269A
:10310000F4501D2220502402F3501D26215023028A
:06311000F3501D26120021
:0A3116001D6A1C6A1B6A1A6A200E6B
:10312000E76ED8901E361F36203621361A361B36EB
:103130001C361D3623501A5C24501B5825501C5831
:1031400026501D5809E323501A5E24501B5A25505F
:0E3150001C5A26501D5A1E2AE72EE4D71200E4
:02315E0010D887
:1031600005D844EC11F051EC13F0FBD7A4EC16F0A9
:103170007DEC01F06DEC0BF0C8EC17F0EFEF18F000
:103180000A0E0F01286F296BBCEC15F060EF0FF0F1
:10319000A4EC14F0A9EC16F08EEC07F036EC0AF073
:0431A000D1EF0AF071
:0C31A4001D6A1C6A1B6A180EE76ED890AA
:1031B0001F36203621361B361C361D3624501B5C2C
:1031C00025501C5826501D5807E324501B5E2550DF
:0E31D0001C5A26501D5A1F2AE72EEAD712005D
:0231DE00CA9491
:1031E000CA90CA82CB68BD98BD9ABE6ABD9CBD9E7E
:1031F000BD90BD92BD84BD869494CA841200D9CF7F
:10320000E6FFE1CFD9FFFE0EDB50BE6EE552E7CF01
:04321000D9FF1200D0
:0C3214001D6A1C6A100EE76ED890203670
:1032200021361C361D3625501C5C26501D5805E3E2
:1032300025501C5E26501D5A202AE72EF0D712007A
:10324000800EF36E00EE00F00F0E01D81200EA605F
:1032500002D0EE6AFCD7F350E9601200EE6AFCD7A8
:103260001EEE00F02EEE00F0F86A199C79EC17F0D3
:0C32700003EC00F0AFEC18F0FBD71200EC
:04327C000000FF034C
:10328000000000000000000000000000000000003E
:1032900000000000E8039001102700001027000044
:1032A0008813C4098813E8031027D007A08C0000F6
:0C32B00000000000000000000000000012
:0432BC00202020208E
:1032C00020202020202020202020202020202020FE
:1032D000202020202020202020202020010000006D
:1032E0001020800001020800000000000000000023
:0432F00000000000DA
:0C32F400000000000000000000000000CE
:0E3300000000000000000000000000000000BF
:02330E00463047
:1033100041303C3036302F30293023301C3004000F
:10332000040005000600050005000600010000007D
:0E33300000000100020003000400050006007A
:020000040030CA
:0100010002FC
:0100020003FA
:010003001EDE
:010005008179
:010006008178
:010008000FE8
:01000900C036
:01000A000FE6
:01000B00E014
:01000C000FE4
:01000D0040B2
:00000001FF
