:020000040000FA
:06000000C1EF25F0120023
:020006001200E6
:0600080016EF20F01200CB
:02000E000000F0
:0400100000000000EC
:0100140020CB
:020015000000E9
:06001800A1EF1FF0120031
:02001E001100CF
:10002000EE4C0000000F000048000000EA4C000009
:100030006202000004000000E64C00005E020000C6
:100040000400000015000000FE0000000200000097
:10005000D44C00001E02000012000000D04C000032
:100060005A02000004000000CC4C000056020000C0
:10007000040000008E4C0000BC0100003E000000A7
:10008000744C0000E40000001A000000604C000006
:100090006C0F0000140000003C4C0000480F0000F2
:1000A00024000000304C0000400200000C00000062
:1000B000140000006602000001000000CC4B0000AC
:1000C0008000000064000000AE4B00000002000051
:1000D0001E0000009E4B00003002000010000000D7
:0C00E0000E000000FA0100000600000005
:0400EC00D9CFE6FF83
:1000F000E1CFD9FF040EE126DE6ADD6A020EDB6A7B
:10010000030EDB6ADE6ADD6ADECF00F0DDCF01F0D0
:10011000026A036A01AE02D002680368D950FB0F7D
:10012000E96EFF0EDA20EA6EEE50005CEE500158E8
:10013000EE500258EE5003581DE2020EDB6A030E29
:10014000DB6A020EDBCF00F0030EDBCF01F0D890AC
:10015000015004E6A00E005C000E015806E2020EFB
:10016000DB2A030EEEE3DB2AECD7DF2A010ECCE319
:10017000DB2ACAD7040EE15C02E2E16AE552E16ED5
:10018000E552E7CFD9FF1200D9CFE6FFE1CFD9FF83
:10019000FE0EDB50F00B006E0F0E81140010816E0E
:1001A00081848186010EE66EE66AE66AE66A9EDF73
:1001B000E552E552E552E5528196010EE66EE66A99
:1001C000E66AE66A93DFE552E552E552E552FE0E35
:1001D000DB38F00B006E0F0E81140010816E8186EB
:1001E000010EE66EE66AE66AE66A80DFE552E552EF
:1001F000E552E55281968194030EE66EE66AE66A60
:10020000E66A74DFE552E552E552E552E552E7CF82
:10021000D9FF1200D9CFE6FFE1CFD9FFFD0EDBCF2A
:10022000F6FFFE0EDBCFF7FF0800F55011E0FD0EE4
:10023000DBCFF6FFFE0EDBCFF7FF0800F550E66ED2
:10024000A3DFE552FD0EDB2AFE0EE8E3DB2AE6D74C
:10025000E552E7CFD9FF1200D9CFE6FFE1CFD9FFB2
:1002600068CF00F069CF01F0040ED8900036013657
:10027000E806FBE1480E00260F0E012200500F0198
:100280006A25E96E01506B21EA6EFE0EDBCFEFFFAF
:100290006A2B000E6B23100E6BAF02D0D89003D0E8
:1002A0006A5D000E6B5905E3682B000E69236A6BCB
:1002B0006B6B030E69AF02D0D89003D0685D000E5F
:1002C000695902E3686B696BE552E7CFD9FF120009
:1002D000D9CFE6FFE1CFD9FFFE0EDB50F00B006E69
:1002E0000F0E81140010816E81948186010EE66EDE
:1002F000E66AE66AE66AFADEE552E552E552E5525A
:100300008196010EE66EE66AE66AE66AEFDEE5527F
:10031000E552E552E552FE0EDB38F00B006E0F0E93
:1003200081140010816E8186010EE66EE66AE66A2F
:10033000E66ADCDEE552E552E552E5528196030EAF
:10034000E66EE66AE66AE66AD1DEE552E552E55215
:10035000E552E552E7CFD9FF1200D9CFE6FFE1CF52
:10036000D9FF020EE126DE6ADD6A0F016A6B6B6B54
:10037000010E686F696BDE6ADD6ADECF00F0DDCFEB
:1003800001F0200E005C000E01582BE2DECF00F0E1
:10039000DDCF01F0040E0F0B05E0D89001320032E2
:1003A000E806FBE1040ED89000360136E806FBE1D2
:1003B000480E00260F0E0122DECF02F0DDCF03F043
:1003C0000001036A0F0E021600500224E96E01506C
:1003D0000320EA6E200EEF6EDF2A010ECEE3DB2A49
:1003E000CCD7936A816A190EE66EE66AE66AE66A17
:1003F0007DDEE552E552E552E552020EE66E68DF1B
:10040000E552280EE66E64DFE552010EE66E60DF0F
:10041000E5520C0EE66E5CDFE552060EE66E58DF26
:10042000E552020EE15C02E2E16AE552E16EE5525C
:10043000E7CFD9FF1200010EE66E4ADFE552030E48
:10044000E66EE66AE66AE66A51DEE552E552E55294
:10045000E5521200D9CFE6FFE1CFD9FFE652DF6ABD
:10046000FE0EDB5005E1FD0EDB500F0B800904D0C2
:10047000FD0EDB500F0BC009DF6EDFCFE6FF28DF7C
:10048000E552FB0EDBCFE6FFFC0EDBCFE6FFC2DE64
:10049000E552E552E552E552E7CFD9FF1200D9CF38
:1004A000E6FFE1CFD9FFFD0EDBCF68FF0F01696BDF
:1004B000010E6817FB0EDBCF6AFF6B6B0F0E6A171E
:1004C00068CF00F069CF01F0040ED89000360136F5
:1004D000E806FBE1480E00260F0E012200500F0136
:1004E0006A25E96E01506B21EA6EFA0EDBCFEFFF51
:1004F0006A2B000E6B23100E6BAF02D0D89003D086
:100500006A5D000E6B5905E3682B000E69236A6B68
:100510006B6B030E69AF02D0D89003D0685D000EFC
:10052000695902E3686B696BE552E7CFD9FF1200A6
:10053000D9CFE6FFE1CFD9FFFD0EDBCF68FF0F017A
:10054000696B010E6817FB0EDBCF6AFF6B6B0F0E3A
:100550006A17F90EDBCFF6FFFA0EDBCFF7FF0800C4
:10056000F55047E0F90EDBCFF6FFFA0EDBCFF7FFD1
:100570000800F550E66E68CF00F069CF01F0040E78
:10058000D89000360136E806FBE1480E00260F0E33
:10059000012200500F016A25E96E01506B21EA6EBD
:1005A000E552E750EF6E6A2B000E6B23100E6BAF17
:1005B00002D0D89003D06A5D000E6B5905E3682B1A
:1005C000000E69236A6B6B6B020E69AF02D0D89084
:1005D00003D0685D000E695902E3686B696BF90E20
:1005E000DBCFF6FFDB2AFA0EDBCFF7FFB2E3DB2A25
:1005F000B0D7E552E7CFD9FF1200D9CFE6FFE1CF60
:10060000D9FF040EE126DE6ADD6A020EDB6A030E04
:10061000DB6AFD0EDBCF68FF0F01696B010E681707
:10062000FB0EDBCF6AFFFC0EDBCF6BFF6B6B0F0E9D
:100630006A17F70EDBCF00F0F80EDBCF01F0F90EF2
:10064000DBCF02F0FA0EDBCF03F0005001100210F6
:10065000031004E1300EE66EFFDDE552D950F70FCE
:10066000E96EFF0EDA20EA6ED890030EEB50000A16
:1006700008E6000EEE5C000EEE58000EEE58000E7E
:10068000EE5822E22D0EE66EE7DDE552F70EDBCFE7
:100690001EF0F80EDBCF1FF0F90EDBCF20F0FA0EC4
:1006A000DBCF21F02368246825682668A1EC24F0BC
:1006B000F70E1AC0DBFFF80E1BC0DBFFF90E1CC0E3
:1006C000DBFFFA0E1DC0DBFF100EDE6E270EDD6EA7
:1006D000D9CFE9FFDACFEAFF000ED880EE54000E42
:1006E000ED5401E3AAD0DECF00F0DDCF01F0026AC5
:1006F000036A00C023F001C024F002C025F003C04B
:1007000026F0F70EDBCF1EF0F80EDBCF1FF0F90E50
:10071000DBCF20F0FA0EDBCF21F059EC22F01E5097
:100720001F102010211036E0DECF04F0DDCF05F0E1
:10073000066A076A04C023F005C024F006C025F04D
:1007400007C026F0F70EDBCF1EF0F80EDBCF1FF050
:10075000F90EDBCF20F0FA0EDBCF21F059EC22F0BE
:100760001EC000F01FC001F020C002F021C003F045
:10077000300E0026000E0122022203220050E66EF7
:100780006BDDE552010EF36E020EF3CFDBFF030EBD
:10079000DB6A0ED0D950020FE96EDACFEAFF010E04
:1007A000EE1806E1ED5004E1300EE66E55DDE5523F
:1007B000DECF00F0DDCF01F0026A036A00C023F053
:1007C00001C024F002C025F003C026F0F70EDBCFF5
:1007D0001EF0F80EDBCF1FF0F90EDBCF20F0FA0E83
:1007E000DBCF21F003C0F5FF59EC22F0F5AE08D0C5
:1007F000000E1A6C1B1E1B221C1E1C221D1E1D22FD
:10080000F70E1AC0DBFFF80E1BC0DBFFF90E1CC091
:10081000DBFFFA0E1DC0DBFF0A0E006E016A256EBB
:1008200001C026F0DECF20F0DDCF21F09BEC25F0DB
:1008300020C0DEFF21C0DDFF4BD7040EE15C02E2E9
:10084000E16AE552E16EE552E7CFD9FF1200D9CF58
:10085000E6FFE1CFD9FF080EE126D9CFE9FFDACFD5
:10086000EAFFF70EDBCFEEFFF80EDBCFEEFFF90E5F
:10087000DBCFEEFFFA0EDBCFEEFF040EDB6A050ED8
:10088000DB6A060EDB6A070EDB6AD9CFE9FFDACF37
:10089000EAFFEECF1EF0EECF1FF0EECF20F0EFCF4D
:1008A00021F0100E236E270E246E256A266A59EC5D
:1008B00022F01E501F102010211054E0D9CFE9FF64
:1008C000DACFEAFFEECF00F0EECF01F0EECF02F08C
:1008D000EFCF03F0100E236E270E246E256A266AD2
:1008E00000C01EF001C01FF002C020F003C021F0C4
:1008F00059EC22F01EC000F01FC001F020C002F031
:1009000021C003F01EC0E6FF1FC0E6FF20C0E6FFC7
:1009100021C0E6FF040EDBCF06F0050EDBCF07F0AB
:10092000FB0EDB500624046EFC0EDB500720056E28
:1009300004C0E6FFE66EFD0EDBCFE6FFFE0EDBCF6A
:10094000E6FF5BDE086E080EE15E0850010EF36EF6
:10095000060EF3CFDBFF070EDB6A040EDB2A050E63
:1009600001E3DB2AD9CFE9FFDACFEAFFEECF1EF0B1
:10097000EECF1FF0EECF20F0EFCF21F0100E236E60
:10098000270E246E256A266A59EC22F01AC0DEFF73
:100990001BC0DEFF1CC0DEFF1DC0DDFFDD52DD52CF
:1009A000D9CFE9FFDACFEAFFEECF1EF0EECF1FF08E
:1009B000EECF20F0EFCF21F0E80E236E030E246E71
:1009C000256A266A59EC22F01E501F1020102110B3
:1009D0000AE1D950060FE96EDACFEAFF010EEE18F0
:1009E0004FE1ED504DE1D9CFE9FFDACFEAFFEECF8D
:1009F00000F0EECF01F0EECF02F0EFCF03F0E80E03
:100A0000236E030E246E256A266A00C01EF001C004
:100A10001FF002C020F003C021F059EC22F01EC0EC
:100A200000F01FC001F020C002F021C003F01EC082
:100A3000E6FF1FC0E6FF20C0E6FF21C0E6FF040E70
:100A4000DBCF06F0050EDBCF07F0FB0EDB500624F4
:100A5000046EFC0EDB500720056E04C0E6FFE66E58
:100A6000FD0EDBCFE6FFFE0EDBCFE6FFC6DD086E38
:100A7000080EE15E0850040EDB2A050E01E3DB2AB6
:100A8000D9CFE9FFDACFEAFFEECF1EF0EECF1FF0AD
:100A9000EECF20F0EFCF21F0E80E236E030E246E90
:100AA000256A266A59EC22F01AC0DEFF1BC0DEFF61
:100AB0001CC0DEFF1DC0DDFFDD52DD52D9CFE9FFD6
:100AC000DACFEAFFEECF00F0EECF01F0EECF02F08A
:100AD000EFCF03F0640E236E246A256A266A00C0F5
:100AE0001EF001C01FF002C020F003C021F059EC3D
:100AF00022F01EC000F01FC001F020C002F021C093
:100B000003F01EC0E6FF1FC0E6FF20C0E6FF21C0C5
:100B1000E6FF040EDBCF06F0050EDBCF07F0FB0E81
:100B2000DB500624046EFC0EDB500720056E04C06B
:100B3000E6FFE66EFD0EDBCFE6FFFE0EDBCFE6FF47
:100B40005CDD086E080EE15E0850040EDB2A050E1F
:100B500001E3DB2AD9CFE9FFDACFEAFFEECF1EF0BF
:100B6000EECF1FF0EECF20F0EFCF21F0640E236E1A
:100B7000246A256A266A59EC22F01AC0DEFF1BC0DF
:100B8000DEFF1CC0DEFF1DC0DDFFDD52DD522E0E7C
:100B9000E66E040EDBCF02F0050EDBCF03F0FB0E9A
:100BA000DB500224006EFC0EDB500320016E00C0FF
:100BB000E6FFE66EFD0EDBCFE6FFFE0EDBCFE6FFC7
:100BC0006EDC046E050EE15E0450040EDB2A050E99
:100BD00001E3DB2AD9CFE9FFDACFEAFFEECF00F05D
:100BE000EECF01F0EECF02F0EFCF03F00A0E236E4E
:100BF000246A256A266A00C01EF001C01FF002C0E8
:100C000020F003C021F059EC22F01EC000F01FC0FC
:100C100001F020C002F021C003F01EC0E6FF1FC09B
:100C2000E6FF20C0E6FF21C0E6FF040EDBCF06F0A2
:100C3000050EDBCF07F0FB0EDB500624046EFC0E26
:100C4000DB500720056E04C0E6FFE66EFD0EDBCF2D
:100C5000E6FFFE0EDBCFE6FFD0DC086E080EE15E9D
:100C60000850040EDB2A050E01E3DB2AD9CFE9FF89
:100C7000DACFEAFFEECF00F0EECF01F0EECF02F0D8
:100C8000EFCF03F00A0E236E246A256A266A00C09D
:100C90001EF001C01FF002C020F003C021F059EC8B
:100CA00022F01AC000F01BC001F01CC002F01DC0F1
:100CB00003F01AC0E6FF1BC0E6FF1CC0E6FF1DC024
:100CC000E6FF040EDBCF06F0050EDBCF07F0FB0ED0
:100CD000DB500624046EFC0EDB500720056E04C0BA
:100CE000E6FFE66EFD0EDBCFE6FFFE0EDBCFE6FF96
:100CF00084DC086E080EE15E0850040EDB2A050E47
:100D000001E3DB2A080EE15C02E2E16AE552E16EF2
:100D1000E552E7CFD9FF1200D9CFE6FFE1CFD9FFE7
:100D2000030EE126200EDF6E010EDB6A020EDB6A87
:100D3000010EDB6A020EDB6A010EDBCF00F0020E51
:100D4000DBCF01F0100E005C000E015837E2010EFF
:100D5000DBCFE9FF020EDBCFEAFF480EE9260F0EDC
:100D6000EA22EFCFDFFF010EDBCFE9FF020EDBCF80
:100D7000EAFF580EE9260F0EEA22EF50E66E010E4A
:100D8000DBCFE9FF020EDBCFEAFF480EE9260F0EAC
:100D9000EA22E552E750EF6E010EDBCFE9FF020ECB
:100DA000DBCFEAFF580EE9260F0EEA22DFCFEFFF76
:100DB000010EDB2A020EC0E3DB2ABED7D950FD0F9D
:100DC000E96EFF0EDA20EA6EEE50ED100BE0D9501E
:100DD000FD0FE96EFF0EDA20EA6E010EEE180BE150
:100DE000ED5009E1FD0EDBCFE6FFFE0EDBCFE6FFA7
:100DF00038D8E552E552030EE15C02E2E16AE552C1
:100E0000E16EE552E7CFD9FF1200D9CFE6FFE1CF7F
:100E1000D9FFFD0EDBCF68FF0F01696B010E68176C
:100E2000FB0EDBCF6AFF6B6B0F0E6A1768CF00F00B
:100E300069CF01F0040ED89000360136E806FBE1D8
:100E4000480E00260F0E012200500F016A25E96EA0
:100E500001506B21EA6E200EEF6EE552E7CFD9FF0D
:100E60001200D9CFE6FFE1CFD9FF020EE126DE6AFC
:100E7000DD6AFD0EDBCF68FF0F01696B010E68179D
:100E8000DE6ADD6ADECF00F0DDCF01F0100E005C1F
:100E9000000E01581BE268CF00F069CF01F0040E8C
:100EA000D89000360136E806FBE1480E00260F0E0A
:100EB0000122DE500024E96EDD500120EA6E200E92
:100EC000EF6EDF2A010EDEE3DB2ADCD7020EE15CE7
:100ED00002E2E16AE552E16EE552E7CFD9FF120086
:100EE000D9CFE6FFE1CFD9FF020EE126DE6ADD6A47
:100EF0000F016A6B6B6B010E686F696BDE6ADD6AEE
:100F0000DECF00F0DDCF01F0200E005C000E0158B6
:100F10002BE2DECF00F0DDCF01F0040E0F0B05E079
:100F2000D89001320032E806FBE1040ED89000367A
:100F30000136E806FBE1480E00260F0E0122DECF47
:100F400002F0DDCF03F00001036A0F0E021600501D
:100F50000224E96E01500320EA6E200EEF6EDF2AB4
:100F6000010ECEE3DB2ACCD7020EE15C02E2E16A9D
:100F7000E552E16EE552E7CFD9FF1200D9CFE6FF87
:100F8000E1CFD9FF020EE126DE6ADD6A800EE66E51
:100F900068EC01F0E552DE6ADD6ADECF00F0DDCFFD
:100FA00001F0100E005C000E015812E2DECFE9FFE6
:100FB000DDCFEAFF480EE9260F0EEA22EF50E66E7B
:100FC000C4EC00F0E552DF2A010EE7E3DB2AE5D7A7
:100FD000C00EE66E68EC01F0E552DE6ADD6ADECF37
:100FE00000F0DDCF01F0100E005C000E015812E29F
:100FF000DECFE9FFDDCFEAFF580EE9260F0EEA2229
:10100000EF50E66EC4EC00F0E552DF2A010EE7E394
:10101000DB2AE5D7020EE15C02E2E16AE552E16E0D
:08102000E552E7CFD9FF1200F1
:08102800D9CFE6FFE1CFD9FFAB
:10103000FD0EDBCF00F0FE0EDBCF01F0000E005CFA
:10104000000E01580BE3FD0EDBCF02F0FE0EDBCFEE
:1010500003F0070E025C000E035805E31E6A1F6AC8
:10106000206A216A20D0FD0EDBCFE9FFFE0EDBCF28
:10107000EAFF020ED890E936EA36E806FBE1000EF8
:10108000E926010EEA22EECF00F0EECF01F0EECF1E
:1010900002F0EFCF03F000C01EF001C01FF002C04D
:1010A00020F003C021F0E552E7CFD9FF1200CAC0FB
:1010B00000F0CBC001F0026A036A00018051825D3A
:1010C000146E83518155156E166A176ACA51C85D30
:1010D000106EC951CB55116E126A136A80C00CF0A4
:1010E00081C00DF00E6A0F6A0C50845D086E0D50C1
:1010F0008559096E0E5086590A6E0F5087590B6E2E
:1011000008C01EF009C01FF00AC020F0216E10C0F8
:1011100023F011C024F012C025F013C026F0A1EC7A
:1011200024F01AC004F01BC005F01CC006F01DC05E
:1011300007F01AC01EF01BC01FF01CC020F01DC01D
:1011400021F014C023F015C024F016C025F017C0FC
:1011500026F059EC22F000501E240101006F0150CE
:101160001F20016F02502020026F03502120036FC7
:10117000CEC000F0CFC001F0026A036A00018051C6
:10118000825D146E83518155156E166A176ACE51B1
:10119000CC5D106ECD51CF55116E126A136A80C0AE
:1011A0000CF081C00DF00E6A0F6A0C50845D086E61
:1011B0000D508559096E0E5086590A6E0F50875989
:1011C0000B6E08C01EF009C01FF00AC020F0216E8F
:1011D00010C023F011C024F012C025F013C026F077
:1011E000A1EC24F01AC004F01BC005F01CC006F0EE
:1011F0001DC007F01AC01EF01BC01FF01CC020F05D
:101200001DC021F014C023F015C024F016C025F035
:1012100017C026F059EC22F000501E240101046F83
:1012200001501F20056F02502020066F035021201F
:10123000076FD2C000F0D3C001F0026A036A000158
:101240008051825D146E83518155156E166A176A3E
:10125000D251D05D106ED151D355116E126A136AFE
:1012600080C00CF081C00DF00E6A0F6A0C50845DD6
:10127000086E0D508559096E0E5086590A6E0F5032
:1012800087590B6E08C01EF009C01FF00AC020F07D
:10129000216E10C023F011C024F012C025F013C03D
:1012A00026F0A1EC24F01AC004F01BC005F01CC00D
:1012B00006F01DC007F01AC01EF01BC01FF01CC0B6
:1012C00020F01DC021F014C023F015C024F016C07A
:1012D00025F017C026F059EC22F000501E24010121
:1012E000086F01501F20096F025020200A6F035021
:1012F00021200B6FD6C000F0D7C001F0026A036A4C
:1013000000018051825D146E83518155156E166AFD
:10131000176AD651D45D106ED551D755116E126A29
:10132000136A80C00CF081C00DF00E6A0F6A0C5079
:101330008E5D086E0D508F59096E0E5090590A6ED1
:101340000F5091590B6E08C01EF009C01FF00AC063
:1013500020F0216E10C023F011C024F012C025F03F
:1013600013C026F0A1EC24F01AC004F01BC005F055
:101370001CC006F01DC007F01AC01EF01BC01FF0F5
:101380001CC020F01DC021F014C023F015C024F0B3
:1013900016C025F017C026F059EC22F000501E248C
:1013A00001010C6F01501F200D6F025020200E6FA5
:1013B000035021200F6FDAC000F0DBC001F0026A99
:1013C000036A00018051825D146E83518155156E50
:1013D000166A176ADA51D85D106ED951DB55116E55
:1013E000126A136A80C00CF081C00DF00E6A0F6A99
:1013F0000C50985D086E0D509959096E0E509A590F
:101400000A6E0F509B590B6E08C01EF009C01FF0EA
:101410000AC020F0216E10C023F011C024F012C0C9
:1014200025F013C026F0A1EC24F01AC004F01BC074
:1014300005F01CC006F01DC007F01AC01EF01BC04E
:101440001FF01CC020F01DC021F014C023F015C0F7
:1014500024F016C025F017C026F059EC22F00050F9
:101460001E240101106F01501F20116F0250202017
:10147000126F03502120136FDEC000F0DFC001F0B7
:10148000026A036A00018051825D146E83518155A6
:10149000156E166A176ADE51DC5D106EDD51DF5580
:1014A000116E126A136A80C00CF081C00DF00E6AD2
:1014B0000F6A0C50985D086E0D509959096E0E50C8
:1014C0009A590A6E0F509B590B6E08C01EF009C046
:1014D0001FF00AC020F0216E10C023F011C024F0CC
:1014E00012C025F013C026F0A1EC24F01AC004F0BD
:1014F0001BC005F01CC006F01DC007F01AC01EF08E
:101500001BC01FF01CC020F01DC021F014C023F030
:1015100015C024F016C025F017C026F059EC22F0B3
:1015200000501E240101146F01501F20156F02503E
:101530002020166F03502120176FE2C000F0E3C097
:1015400001F0026A036A00018051825D146E8351CA
:101550008155156E166A176AE251E05D106EE15111
:10156000E355116E126A136A80C00CF081C00DF051
:101570000E6A0F6A0C50A25D086E0D50A359096ED9
:101580000E50A4590A6E0F50A5590B6E08C01EF0DC
:1015900009C01FF00AC020F0216E10C023F011C056
:1015A00024F012C025F013C026F0A1EC24F01AC0DC
:1015B00004F01BC005F01CC006F01DC007F01AC0E7
:1015C0001EF01BC01FF01CC020F01DC021F014C075
:1015D00023F015C024F016C025F017C026F059ECF2
:1015E00022F000501E240101186F01501F20196FB6
:1015F000025020201A6F035021201B6F1200D9CFF8
:10160000E6FFE1CFD9FF040EE126DE6ADD6A020EB5
:10161000DB6A030EDB6AE66A62EC24F0E552F3CF84
:1016200088F0F4CF89F08CC0E9FF8DC0EAFFD89034
:10163000E936EA361C0EE926010EEA22F3CFEEFF68
:1016400089C0EDFF010E00018C258C6F000E8D21ED
:101650008D6F140E256E266A8CC020F08DC021F08F
:1016600006EC22F01CC08CF01DC08DF01CC0DEFF0B
:101670001DC0DDFF00018A6B8B6B020EDB6A030E5F
:10168000DB6A020EDBCF00F0030EDBCF01F0D89057
:10169000015004E6140E005C000E015824E2DECF77
:1016A000E9FFDDCFEAFFD890E936EA361C0EE926DD
:1016B000010EEA22EE508A27EE508B23D9CFE9FFA4
:1016C000DACFEAFFEE50ED1004E1130EDE6EDD6AB4
:1016D00004D0DF06010E01E2DB06020EDB2A030E58
:1016E000D0E3DB2ACED78AC084F08BC085F0866B2E
:1016F000876B140E236E246A256A266A8AC01EF040
:101700008BC01FF086C020F087C021F059EC22F07A
:101710001EC084F01FC085F020C086F021C087F075
:10172000040EE15C02E2E16AE552E16EE552E7CFC8
:10173000D9FF1200D9CFE6FFE1CFD9FF040EE12691
:10174000DE6ADD6A020EDB6A030EDB6A010EE66EFC
:1017500062EC24F0E552F3CF92F0F4CF93F096C010
:10176000E9FF97C0EAFFD890E936EA36440EE92649
:10177000010EEA22F3CFEEFF93C0EDFF010E000150
:101780009625966F000E9721976F140E256E266A88
:1017900096C020F097C021F006EC22F01CC096F015
:1017A0001DC097F01CC0DEFF1DC0DDFF0001946B63
:1017B000956B020EDB6A030EDB6A020EDBCF00F0D4
:1017C000030EDBCF01F0D890015004E6140E005C4C
:1017D000000E015824E2DECFE9FFDDCFEAFFD8900A
:1017E000E936EA36440EE926010EEA22EE50942745
:1017F000EE509523D9CFE9FFDACFEAFFEE50ED1096
:1018000004E1130EDE6EDD6A04D0DF06010E01E294
:10181000DB06020EDB2A030ED0E3DB2ACED794C010
:101820008EF095C08FF0906B916B140E236E246A2E
:10183000256A266A94C01EF095C01FF090C020F063
:1018400091C021F059EC22F01EC08EF01FC08FF025
:1018500020C090F021C091F0040EE15C02E2E16A48
:10186000E552E16EE552E7CFD9FF1200D9CFE6FF8E
:10187000E1CFD9FF040EE126DE6ADD6A020EDB6AE3
:10188000030EDB6A020EE66E62EC24F0E552F3CF43
:101890009CF0F4CF9DF0A0C0E9FFA1C0EAFFD89072
:1018A000E936EA366C0EE926010EEA22F3CFEEFFA6
:1018B0009DC0EDFF010E0001A025A06F000EA1212B
:1018C000A16F140E256E266AA0C020F0A1C021F0E1
:1018D00006EC22F01CC0A0F01DC0A1F01CC0DEFF71
:1018E0001DC0DDFF00019E6B9F6B020EDB6A030EC5
:1018F000DB6A020EDBCF00F0030EDBCF01F0D890E5
:10190000015004E6140E005C000E015824E2DECF04
:10191000E9FFDDCFEAFFD890E936EA366C0EE9261A
:10192000010EEA22EE509E27EE509F23D9CFE9FF09
:10193000DACFEAFFEE50ED1004E1130EDE6EDD6A41
:1019400004D0DF06010E01E2DB06020EDB2A030EE5
:10195000D0E3DB2ACED79EC098F09FC099F09A6B57
:101960009B6B140E236E246A256A266A9EC01EF0A5
:101970009FC01FF09AC020F09BC021F059EC22F0CC
:101980001EC098F01FC099F020C09AF021C09BF0B3
:10199000040EE15C02E2E16AE552E16EE552E7CF56
:1019A000D9FF1200D9CFE6FFE1CFD9FF040EE1261F
:1019B000DE6ADD6A020EDB6A030EDB6AE66E62EC4B
:1019C00024F0E552F3CFA6F0F4CFA7F0AAC0E9FFC8
:1019D000ABC0EAFFD890E936EA36940EE926010E4C
:1019E000EA22F3CFEEFFA7C0EDFF010E0001AA250A
:1019F000AA6F000EAB21AB6F140E256E266AAAC02B
:101A000020F0ABC021F006EC22F01CC0AAF01DC0F3
:101A1000ABF01CC0DEFF1DC0DDFF0001A86BA96B91
:101A2000020EDB6A030EDB6A020EDBCF00F0030E50
:101A3000DBCF01F0D890015004E6140E005C000EDC
:101A4000015824E2DECFE9FFDDCFEAFFD890E93686
:101A5000EA36940EE926010EEA22EE50A827EE504F
:101A6000A923D9CFE9FFDACFEAFFEE50ED1004E168
:101A7000130EDE6EDD6A04D0DF06010E01E2DB0626
:101A8000020EDB2A030ED0E3DB2ACED7A8C0A2F0D9
:101A9000A9C0A3F0A46BA56B140E236E246A256A5B
:101AA000266AA8C01EF0A9C01FF0A4C020F0A5C0DF
:101AB00021F059EC22F01EC0A2F01FC0A3F020C0FC
:101AC000A4F021C0A5F0040EE15C02E2E16AE55257
:101AD000E16EE552E7CFD9FF1200D9CFE6FFE1CFA3
:101AE000D9FFFD0EDBCF00F0FE0EDBCF01F0000EC4
:101AF000005C000E01580BE3FD0EDBCF02F0FE0E82
:101B0000DBCF03F0070E025C000E035803E3F36A19
:101B1000F46A18D0FD0EDBCFE9FFFE0EDBCFEAFF43
:101B2000010ED890E936EA36E806FBE1AC0EE9266C
:101B3000000EEA22EECF00F0EFCF01F000C0F3FF7D
:101B400001C0F4FFE552E7CFD9FF1200D9CFE6FF7D
:101B5000E1CFD9FFFD0EDBCF00F0FE0EDBCF01F0B1
:101B6000000E005C000E01580BE3FD0EDBCF02F00F
:101B7000FE0EDBCF03F0070E025C000E035803E3FA
:101B8000F36AF46A18D0FD0EDBCFE9FFFE0EDBCF5F
:101B9000EAFF010ED890E936EA36E806FBE1BA0E14
:101BA000E926000EEA22EECF00F0EFCF01F000C0F0
:0E1BB000F3FF01C0F4FFE552E7CFD9FF1200AA
:021BBE00D9CF7D
:101BC000E6FFE1CFD9FF020EE126DE6ADD6A040EF0
:101BD0000101FA1901E1FB5101E102D2030EFA19E8
:101BE00001E1FB5101E168D1020EFA1901E1FB515B
:101BF00046E0010EFA1901E1FB5107E0FA5101E05C
:101C000023D3FB5101E020D345D1FE6BFF6B000EC7
:101C1000E66EE66A4DEC1FF0E552E552F3CF00F0B8
:101C2000F4CF01F0010EF31806E1015004E1020EB9
:101C30000101FA6FFB6B0201010E001913E1015162
:101C400011E1030E0101FA6FFB6BE80EE66E030E65
:101C5000E66E000EE66EE66AF1EC1EF0E552E55225
:101C6000E552E55219EC23F0F4CF01F0010EF31820
:101C700001E0EAD2015001E0E7D2040E19D1870E4B
:101C8000E66E430EE66E4EEC11F0E552E552000EA4
:101C9000E66EE66A14EC08F0E552E5521EC000F06C
:101CA0001FC001F020C002F021C003F01EC0E6FFFB
:101CB0001FC0E6FF20C0E6FF21C0E6FF8EEC12F059
:101CC000E552E552E552E5527E0EE66E430EE66EB3
:101CD0004EEC11F0E552E552010EE66EE66A14ECA8
:101CE00008F0E552E5521EC000F01FC001F020C010
:101CF00002F021C003F01EC0E6FF1FC0E6FF20C0B7
:101D0000E6FF21C0E6FF8EEC12F0E552E552E55207
:101D1000E552720EE66E430EE66E4EEC11F0E552A1
:101D2000E552020EE66EE66A14EC08F0E552E55262
:101D30001EC000F01FC001F020C002F021C003F05F
:101D40001EC0E6FF1FC0E6FF20C0E6FF21C0E6FF81
:101D50008EEC12F0E552E552E552E552660EE66E63
:101D6000430EE66E4EEC11F0E552E552030EE66EC0
:101D7000E66A14EC08F0E552E5521EC000F01FC000
:101D800001F020C002F021C003F01EC0E6FF1FC01A
:101D9000E6FF20C0E6FF21C0E6FF8EEC12F0E55220
:101DA000E552E552E5525D0EE66E430EE66E4EECF0
:101DB00011F0E552E552040EE66EE66A14EC08F006
:101DC000E552E5521EC000F01FC001F020C002F035
:101DD00021C003F01EC0E6FF1FC0E6FF20C0E6FFE3
:101DE00021C0E6FF8EEC12F0E552E552E552E552D5
:101DF000510EE66E430EE66E4EEC11F0E552E552E2
:101E0000050EE66EE66A14EC08F0E552E5521EC0D7
:101E100000F01FC001F020C002F021C003F01EC07E
:101E2000E6FF1FC0E6FF20C0E6FF21C0E6FF8EEC04
:101E300012F0E552E552E552E552440EE66E430ECD
:101E4000E66E4EEC11F0E552E552060EE66EE66ADD
:101E500014EC08F0E552E5521EC000F01FC001F07E
:101E600020C002F021C003F01EC0E6FF1FC0E6FF45
:101E700020C0E6FF21C0E6FF8EEC12F0E552E552ED
:101E8000E552E5523C0EE66E430EE66E4EEC11F066
:101E9000E552E552E80EE66E030EE66E000EE66EC3
:101EA000E66AF1EC1EF0E552E552E552E552010E0C
:101EB0000101FA6FFB6BC8D1FC6BFD6B000EE66E87
:101EC000E66A4DEC1FF0E552E552F3CF00F0F4CF97
:101ED00001F0010EF31801E07DD0015001E07AD04D
:101EE0000101FE51FF1114E12B0EE66E430EE66E6A
:101EF0004EEC11F0E552E552180EE66E430EE66E1A
:101F00004EEC11F0E552E552010E0101FE6FFF6B40
:101F10000A0EE66E430EE66E4EEC11F0E552E55207
:101F2000DE6ADD6ADECF00F0DDCF01F0D89001502F
:101F300004E6070E005C000E015836E2DECFE6FF35
:101F4000DDCFE6FF87EC15F0E552E552F3CF00F068
:101F5000F4CF01F0010EF31822E1015020E101015C
:101F6000FC51FD1105E02C0EE66E40EC11F0E5523F
:101F7000DECFE9FFDDCFEAFFD890E936EA36EC0E96
:101F8000E926010EEA22EECFE6FFEFCFE6FF4EECA8
:101F900011F0E552E552010E0101FC6FFD6BDF2AE5
:101FA000010EC0E3DB2ABED70D0EE66E40EC11F049
:101FB000E552880EE66E130EE66E000EE66EE66AD9
:101FC000F1EC1EF0E552E552E552E552030E010137
:101FD000FA6FFB6B02010051011101E035D124D1F0
:101FE000FE51FF1101E017D1FA0EE66E420EE66EC9
:101FF0004EEC11F0E552E552870EE66E430EE66EAA
:102000004EEC11F0E552E552000EE66EE66A3BEC4E
:1020100014F0E552E5521EC000F01FC001F020C0D0
:1020200002F021C003F01EC0E6FF1FC0E6FF20C083
:10203000E6FF21C0E6FF8EEC12F0E552E552E552D4
:10204000E552F10EE66E420EE66E4EEC11F0E552F0
:10205000E552010EE66EE66A3BEC14F0E552E552FD
:102060001EC000F01FC001F020C002F021C003F02C
:102070001EC0E6FF1FC0E6FF20C0E6FF21C0E6FF4E
:102080008EEC12F0E552E552E552E552E50EE66EB1
:10209000420EE66E4EEC11F0E552E552020EE66E8F
:1020A000E66A3BEC14F0E552E5521EC000F01FC09A
:1020B00001F020C002F021C003F01EC0E6FF1FC0E7
:1020C000E6FF20C0E6FF21C0E6FF8EEC12F0E552ED
:1020D000E552E552E552D90EE66E420EE66E4EEC42
:1020E00011F0E552E552030EE66EE66A3BEC14F0A1
:1020F000E552E5521EC000F01FC001F020C002F002
:1021000021C003F01EC0E6FF1FC0E6FF20C0E6FFAF
:1021100021C0E6FF8EEC12F0E552E552E552E552A1
:10212000D00EE66E420EE66E4EEC11F0E552E55230
:10213000040EE66EE66A3BEC14F0E552E5521EC072
:1021400000F01FC001F020C002F021C003F01EC04B
:10215000E6FF1FC0E6FF20C0E6FF21C0E6FF8EECD1
:1021600012F0E552E552E552E552C40EE66E420E1B
:10217000E66E4EEC11F0E552E552050EE66EE66AAB
:102180003BEC14F0E552E5521EC000F01FC001F018
:1021900020C002F021C003F01EC0E6FF1FC0E6FF12
:1021A00020C0E6FF21C0E6FF8EEC12F0E552E552BA
:1021B000E552E552B70EE66E420EE66E4EEC11F0B9
:1021C000E552E552060EE66EE66A3BEC14F0E55287
:1021D000E5521EC000F01FC001F020C002F021C077
:1021E00003F01EC0E6FF1FC0E6FF20C0E6FF21C0CF
:1021F000E6FF8EEC12F0E552E552E552E552B00EE4
:10220000E66E420EE66E4EEC11F0E552E552010E1E
:102210000101FE6FFF6B19EC23F0F3CF00F0F4CF58
:1022200001F0F350F41010E1010E0101FA6FFB6BA5
:102230000A0EE66EE66A000EE66EE66AF1EC1EF045
:10224000E552E552E552E552020EE15C02E2E16A36
:0C225000E552E16EE552E7CFD9FF120025
:04225C00B06A810ED5
:10226000AF6EAC8AAC94B886AC98AB8EAB889E9AB5
:102270009D8A9F9A949C948E1200020166511200CE
:10228000D9CFE6FFE1CFD9FF9EA8FED7FE0EDB50E7
:10229000AD6E9E98E552E7CFD9FF1200D9CFE6FF89
:1022A000E1CFD9FFFD0EDBCFF6FFFE0EDBCFF7FF50
:1022B0000800F55015E0FD0EDBCFF6FFFE0EDBCF7C
:1022C000F7FF0800F550E66EDBDFE552FD0EDBCFD1
:1022D000F6FFDB2AFE0EDBCFF7FFE4E3DB2AE2D7D3
:1022E000E552E7CFD9FF1200D9CFE6FFE1CFD9FF02
:1022F000040EE126DE6ADD6A020EDB6A030EDB6A8B
:10230000FB0EDBCF00F0FC0EDBCF01F0FD0EDBCFD0
:1023100002F0FE0EDBCF03F000500110021003109C
:1023200004E1300EE66EACDFE552D950FB0FE96EEA
:10233000FF0EDA20EA6ED890030EEB50000A08E692
:10234000000EEE5C000EEE58000EEE58000EEE5839
:1023500022E22D0EE66E94DFE552FB0EDBCF1EF07F
:10236000FC0EDBCF1FF0FD0EDBCF20F0FE0EDBCF2F
:1023700021F02368246825682668A1EC24F0FB0E70
:102380001AC0DBFFFC0E1BC0DBFFFD0E1CC0DBFF19
:10239000FE0E1DC0DBFF100EDE6E270EDD6ED9CFE8
:1023A000E9FFDACFEAFF000ED880EE54000EED54BC
:1023B00001E3AAD0DECF00F0DDCF01F0026A036AAC
:1023C00000C023F001C024F002C025F003C026F0B5
:1023D000FB0EDBCF1EF0FC0EDBCF1FF0FD0EDBCFC4
:1023E00020F0FE0EDBCF21F059EC22F01E501F1022
:1023F0002010211036E0DECF04F0DDCF05F0066AB4
:10240000076A04C023F005C024F006C025F007C009
:1024100026F0FB0EDBCF1EF0FC0EDBCF1FF0FD0E17
:10242000DBCF20F0FE0EDBCF21F059EC22F01EC0F6
:1024300000F01FC001F020C002F021C003F0300EF8
:102440000026000E0122022203220050E66E18DF51
:10245000E552010EF36E020EF3CFDBFF030EDB6AD3
:102460000ED0D950020FE96EDACFEAFF010EEE1856
:1024700006E1ED5004E1300EE66E02DFE552DECFFC
:1024800000F0DDCF01F0026A036A00C023F001C052
:1024900024F002C025F003C026F0FB0EDBCF1EF0B7
:1024A000FC0EDBCF1FF0FD0EDBCF20F0FE0EDBCFEE
:1024B00021F003C0F5FF59EC22F0F5AE08D0000E74
:1024C0001A6C1B1E1B221C1E1C221D1E1D22FB0E15
:1024D0001AC0DBFFFC0E1BC0DBFFFD0E1CC0DBFFC8
:1024E000FE0E1DC0DBFF0A0E006E016A256E01C0E4
:1024F00026F0DECF20F0DDCF21F09BEC25F020C0D0
:10250000DEFF21C0DDFF4BD7040EE15C02E2E16A91
:10251000E552E16EE552E7CFD9FF1200D9CFE6FFD1
:10252000E1CFD9FF040EE126D9CFE9FFDACFEAFFE8
:10253000FB0EDBCFEEFFFC0EDBCFEEFFFD0EDBCFA5
:10254000EEFFFE0EDBCFEEFFD9CFE9FFDACFEAFFD9
:10255000EECF1EF0EECF1FF0EECF20F0EFCF21F048
:10256000E80E236E030E246E256A266A59EC22F0CB
:102570001E501F102010211031E0D9CFE9FFDACF13
:10258000EAFFEECF00F0EECF01F0EECF02F0EFCF9A
:1025900003F0E80E236E030E246E256A266A00C03F
:1025A0001EF001C01FF002C020F003C021F059EC62
:1025B00022F01EC000F01FC001F020C002F021C0B8
:1025C00003F01EC0E6FF1FC0E6FF20C0E6FF21C0EB
:1025D000E6FF8ADEE552E552E552E552D9CFE9FF42
:1025E000DACFEAFFEECF1EF0EECF1FF0EECF20F0F5
:1025F000EFCF21F0E80E236E030E246E256A266AC3
:1026000059EC22F01AC0DEFF1BC0DEFF1CC0DEFF4B
:102610001DC0DDFFDD52DD52D9CFE9FFDACFEAFF81
:10262000EECF00F0EECF01F0EECF02F0EFCF03F0EF
:10263000640E236E246A256A266A00C01EF001C05B
:102640001FF002C020F003C021F059EC22F01EC0A0
:1026500000F01FC001F020C002F021C003F01EC036
:10266000E6FF1FC0E6FF20C0E6FF21C0E6FF3CDE1C
:10267000E552E552E552E552D9CFE9FFDACFEAFF5C
:10268000EECF1EF0EECF1FF0EECF20F0EFCF21F017
:10269000640E236E246A256A266A59EC22F01AC059
:1026A000DEFF1BC0DEFF1CC0DEFF1DC0DDFFDD52F4
:1026B000DD522E0EE66EE4DDE552D9CFE9FFDACF2A
:1026C000EAFFEECF00F0EECF01F0EECF02F0EFCF59
:1026D00003F00A0E236E246A256A266A00C01EF0E3
:1026E00001C01FF002C020F003C021F059EC22F01D
:1026F0001EC000F01FC001F020C002F021C003F096
:102700001EC0E6FF1FC0E6FF20C0E6FF21C0E6FFB7
:10271000EBDDE552E552E552E552D9CFE9FFDACFDC
:10272000EAFFEECF00F0EECF01F0EECF02F0EFCFF8
:1027300003F00A0E236E246A256A266A00C01EF082
:1027400001C01FF002C020F003C021F059EC22F0BC
:102750001AC000F01BC001F01CC002F01DC003F045
:102760001AC0E6FF1BC0E6FF1CC0E6FF1DC0E6FF67
:10277000BBDDE552E552E552E552040EE15C02E2B2
:10278000E16AE552E16EE552E7CFD9FF1200AECF24
:0427900066F21200DB
:0C279400D9CFE6FFE1CFD9FF020EE1260D
:1027A000DE6ADD6ADE6ADD6ADECF00F0DDCF01F0D1
:1027B000D890015004E6070E005C000E015849E273
:1027C000DECFE9FFDDCFEAFFD890E936EA36D890D0
:1027D000E936EA36020EE926020EEA22EECF00F0D2
:1027E000EECF01F0EECF02F0EFCF03F000C0E6FF36
:1027F00001C0E6FF02C0E6FF03C0E6FFDECFE6FF52
:10280000DDCFE6FF14EC08F0E552E552E552E7CFE4
:1028100003F0E552E7CF02F0E552E7CF01F0E552D1
:10282000E7CF00F021500318E8AE02D0033408D0FF
:1028300000501E5C01501F58025020580350215870
:1028400003E3010EF36E06D0DF2A010EADE3DB2AAF
:10285000ABD7F36AF46A020EE15C02E2E16AE55288
:10286000E16EE552E7CFD9FF120094DFF3CF00F21B
:10287000F4CF01F21200D9CFE6FFE1CFD9FFFD0E70
:10288000DBCF00F0FE0EDBCF01F0000E005C000E8F
:1028900001580BE3FD0EDBCF02F0FE0EDBCF03F0A1
:1028A000070E025C000E035805E31E6A1F6A206AC9
:1028B000216A20D0FD0EDBCFE9FFFE0EDBCFEAFF61
:1028C000020ED890E936EA36E806FBE1020EE92668
:1028D000020EEA22EECF00F0EECF01F0EECF02F0D2
:1028E000EFCF03F000C01EF001C01FF002C020F0C7
:1028F00003C021F0E552E7CFD9FF1200D9CFE6FFA0
:10290000E1CFD9FFFD0EDBCF00F0FE0EDBCF01F0F3
:10291000000E005C000E015871E3FD0EDBCF02F0EB
:10292000FE0EDBCF03F0070E025C000E035866E2DA
:102930000A0E006E016A026A036AFD0EDBCFE9FF30
:10294000FE0EDBCFEAFF020ED890E936EA36E80643
:10295000FBE1020EE926020EEA22EE500026EE50BE
:102960000122EE500222EE50032200C0E6FF01C019
:10297000E6FF02C0E6FF03C0E6FFFD0EDBCFE6FF89
:10298000FE0EDBCFE6FF6DEC0DF0E552E552E552B1
:10299000E7CF03F0E552E7CF02F0E552E7CF01F0D1
:1029A000E552E7CF00F0F3CF04F0F4CF05F0066A6C
:1029B000076A07500318E8AE02D0033408D000506D
:1029C000045C01500558025006580350075816E39E
:1029D000FD0EDBCFE9FFFE0EDBCFEAFF020ED89043
:1029E000E936EA36E806FBE1020EE926020EEA22A3
:1029F0000A0EEE26000EEE22EE22EE22E552E7CF80
:102A0000D9FF1200D9CFE6FFE1CFD9FFFD0EDBCF12
:102A100000F0FE0EDBCF01F0000E005C000E01584E
:102A200072E3FD0EDBCF02F0FE0EDBCF03F0070EEC
:102A3000025C000E035867E2FD0EDBCFE9FFFE0EDD
:102A4000DBCFEAFF020ED890E936EA36E806FBE172
:102A5000020EE926020EEA22EECF00F0EECF01F0E0
:102A6000EECF02F0EFCF03F00A0E005E000E015A27
:102A7000025A035A00C0E6FF01C0E6FF02C0E6FFAB
:102A800003C0E6FFFD0EDBCFE6FFFE0EDBCFE6FF69
:102A9000A6EC0DF0E552E552E552E7CF03F0E55222
:102AA000E7CF02F0E552E7CF01F0E552E7CF00F0C3
:102AB000F3CF04F0F4CF05F0066A076A0350071855
:102AC000E8AE02D0073408D00450005C055001582D
:102AD000065002580750035816E3FD0EDBCFE9FFFE
:102AE000FE0EDBCFEAFF020ED890E936EA36E806A2
:102AF000FBE1020EE926020EEA220A0EEE5E000E4D
:102B0000EE5AEE5AEE5AE552E7CFD9FF1200D9CF6E
:102B1000E6FFE1CFD9FFFD0EDBCF00F0FE0EDBCFED
:102B200001F0000E005C000E015855E3FD0EDBCFF6
:102B300002F0FE0EDBCF03F0070E025C000E03581E
:102B40004AE2FD0EDBCFE9FFFE0EDBCFEAFF020E0D
:102B5000D890E936EA36E806FBE1020EE926020ED5
:102B6000EA22EECF00F0EECF01F0EECF02F0EFCF91
:102B700003F000C0E6FF01C0E6FF02C0E6FF03C0AD
:102B8000E6FFFD0EDBCFE6FFFE0EDBCFE6FF14EC2B
:102B900008F0E552E552E552E7CF03F0E552E7CF02
:102BA00002F0E552E7CF01F0E552E7CF00F0215007
:102BB0000318E8AE02D0033408D000501E5C015068
:102BC0001F58025020580350215803E3010EF36EA2
:0E2BD00001D0F36AF46AE552E7CFD9FF120094
:022BDE000201F2
:102BE0005607000E575B12000201562B000E5723AA
:102BF0001200D9CFE6FFE1CFD9FF080EE126DE6A49
:102C0000DE6ADE6ADD6ADD52DD52040EDB6A050E25
:102C1000DB6A060EDB6A070EDB6A70EC07F0020166
:102C2000010E561972E1575170E156C2E9FF57C2C1
:102C3000EAFFE906000EEA5A010ED890E936EA36B4
:102C4000E806FBE1D80EE926010EEA22EECFE6FF08
:102C5000EFCFE6FF14EC08F0E552E552040E1EC07B
:102C6000DBFF050E1FC0DBFF060E20C0DBFF070EDB
:102C700021C0DBFFE6C1E6FFE7C1E6FF000EE66E1E
:102C8000E66AE66EE66A98EC02F0006E060EE15E19
:102C9000005056C2E9FF57C2EAFFE906000EEA5AA1
:102CA000010ED890E936EA36E806FBE1BC0EE926CB
:102CB000010EEA22EECFE6FFEFCFE6FF000EE66E52
:102CC000E66A010EE66EE66A98EC02F0006E060E09
:102CD000E15E0050D950040FE96EDACFEAFFEECF83
:102CE000E6FFEECFE6FFEECFE6FFEFCFE6FF56C200
:102CF000E9FF57C2EAFFE906000EEA5A010ED89032
:102D0000E936EA36E806FBE1D0D056C2E9FF57C201
:102D1000EAFF020EE95E000EEA5A010ED890E9368B
:102D2000EA36E806FBE1D80EE926010EEA22EECFEC
:102D3000E6FFEFCFE6FF14EC08F0E552E5521EC0C7
:102D4000DEFF1FC0DEFF20C0DEFF21C0DDFFDD5241
:102D5000DD5256C2E9FF57C2EAFFE906000EEA5A01
:102D6000010ED890E936EA36E806FBE1D80EE926EE
:102D7000010EEA22EECFE6FFEFCFE6FF14EC08F0FB
:102D8000E552E552040E1EC0DBFF050E1FC0DBFF3F
:102D9000060E20C0DBFF070E21C0DBFF56C2E9FF95
:102DA00057C2EAFF020EE95E000EEA5A010ED89001
:102DB000E936EA36E806FBE1BC0EE926010EEA2216
:102DC000EECFE6FFEFCFE6FF000EE66EE66AE66EB8
:102DD000E66A98EC02F0006E060EE15E005056C204
:102DE000E9FF57C2EAFFE906000EEA5A010ED89041
:102DF000E936EA36E806FBE1BC0EE926010EEA22D6
:102E0000EECFE6FFEFCFE6FF000EE66EE66A010EBC
:102E1000E66EE66A98EC02F0006E060EE15E005087
:102E2000D9CFE9FFDACFEAFFEECFE6FFEECFE6FF3C
:102E3000EECFE6FFEFCFE6FF56C2E9FF57C2EAFF4B
:102E4000020EE95E000EEA5A010ED890E936EA3623
:102E5000E806FBE1CA0EE926010EEA22EECFE6FF04
:102E6000EFCFE6FF000EE66EE66A27EC04F0006E98
:102E7000080EE15E0050D950040FE96EDACFEAFF88
:102E8000EECFE6FFEECFE6FFEECFE6FFEFCFE6FFB9
:102E900056C2E9FF57C2EAFFE906000EEA5A010EE0
:102EA000D890E936EA36E806FBE1CA0EE926010EBB
:102EB000EA22EECFE6FFEFCFE6FF010EE66EE66A0E
:102EC00027EC04F0006E080EE15E0050BEEC07F047
:102ED000080EE15C02E2E16AE552E16EE552E7CFFD
:102EE000D9FF120086DE030E0201581901E1595183
:102EF00070E0020E581901E1595129E0010E5819EC
:102F000001E159510BE0585101E1595101E0120022
:102F1000010E586F596B566F576B1200010E566FAA
:102F2000576B040EE66EE66A72EC1BF0E552E55252
:102F3000F3CF00F0F4CF01F0010EF31807E10150D8
:102F400060E152DE020E0201586F596B1200010E51
:102F5000E66EE66A72EC1BF0E552E552F3CF00F044
:102F6000F4CF01F0010EF31814E1015012E156C242
:102F700000F057C201F00006000E015A010E0018C1
:102F800007E1015005E1010E0201586F596B01D0B4
:102F900026DE040EE66EE66A72EC1BF0E552E552A0
:102FA000F4CF01F0010EF31813E101502AE1010EF4
:102FB0000201016A5625006E57510122070E0018C2
:102FC00006E1015004E1030E586F596B12000CDE4C
:102FD0001200070E566F576B010EE66EE66A72EC32
:102FE0001BF0E552E552F3CF00F0F4CF01F0010EF3
:102FF000F31807E1015005E1F2DD020E0201586FFE
:04300000596B1200F6
:0C300400D59ED59C650E206E130E216E2B
:1030100040C225F041C226F08DEC22F01EC046F2DF
:103020001FC047F203680468056A40C206F041C247
:1030300007F0086A0650035C006E07500458016EE2
:1030400008500558026E246A010E256E266A00C0DB
:103050001FF001C020F002C021F02CEC22F01BC0B8
:1030600000F01CC001F01DC002F01B50D66E0368BA
:103070000468056A40C206F041C207F0086A0650BB
:10308000035C006E07500458016E08500558026E2C
:10309000246A010E256E266A00C01FF001C020F0D0
:1030A00002C021F02CEC22F01FC000F020C001F083
:1030B00021C002F01F50D76ED59AD586F28AF294BD
:1030C000F184D58E120003680468056A46C206F0D2
:1030D00047C207F0086A0650035C006E07500458A8
:1030E000016E08500558026E246A010E256E266A8C
:1030F00000C01FF001C020F002C021F02CEC22F033
:103100001B50D66E03680468056A46C206F047C2C3
:1031100007F0086A0650035C006E07500458016E01
:1031200008500558026E246A010E256E266A00C0FA
:103130001FF001C020F002C021F02CEC22F01FC0D3
:1031400000F020C001F021C002F01F50D76ED58ED4
:103150001200D59E12001200CD90650E206E130E47
:10316000216E42C225F043C226F08DEC22F01EC033
:1031700048F21FC049F203680468056A1EC006F0E1
:103180001FC007F0086A1E50035C006E1F500458F1
:10319000016E08500558026E246A010E256E266ADB
:1031A00000C01FF001C020F002C021F02CEC22F082
:1031B0001FC000F020C001F021C002F01F50CF6EF0
:1031C00003680468056A48C206F049C207F0086A45
:1031D0000650035C006E07500458016E08500558F5
:1031E000026E246A010E256E266A00C01FF001C01F
:1031F00020F002C021F02CEC22F01BC000F01CC01B
:1032000001F01DC002F01B50CE6E9D809E909F90DD
:10321000CD8ECD8CCD98CD9ACD96CD92CD8012000D
:1032200003680468056A48C206F049C207F0086AE4
:103230000650035C006E07500458016E0850055894
:10324000026E246A010E256E266A00C01FF001C0BE
:1032500020F002C021F02CEC22F01F50CF6E03684A
:103260000468056A48C206F049C207F0086A0650B9
:10327000035C006E07500458016E08500558026E3A
:10328000246A010E256E266A00C01FF001C020F0DE
:1032900002C021F02CEC22F01BC000F01CC001F099
:1032A0001DC002F01B50CE6ECD801200CD901200DA
:1032B0001200B190650E206E130E216E44C225F0EF
:1032C00045C226F08DEC22F01EC04AF21FC04BF220
:1032D00003680468056A1EC006F01FC007F0086A8C
:1032E0001E50035C006E1F500458016E08500558B4
:1032F000026E246A010E256E266A00C01FF001C00E
:1033000020F002C021F02CEC22F01FC000F020C001
:1033100001F021C002F01F50B36E03680468056A13
:103320004AC206F04BC207F0086A0650035C006E02
:1033300007500458016E08500558026E246A010EA9
:10334000256E266A00C01FF001C020F002C021F0E7
:103350002CEC22F01BC000F01CC001F01DC002F0DC
:103360001B50B26EA082A192A292B18EB198B19A76
:10337000B192B180120003680468056A4AC206F07F
:103380004BC207F0086A0650035C006E07500458F1
:10339000016E08500558026E246A010E256E266AD9
:1033A00000C01FF001C020F002C021F02CEC22F080
:1033B0001B50B26E03680468056A4AC206F04BC22D
:1033C00007F0086A0650035C006E07500458016E4F
:1033D00008500558026E246A010E256E266A00C048
:1033E0001FF001C020F002C021F02CEC22F01FC021
:1033F00000F020C001F021C002F01F50B36EB18078
:063400001200B190120061
:0A340600D9CFE6FFE1CFD9FF020E97
:10341000E126DE6ADD6ADE6ADD6ADECF00F0DDCF3E
:1034200001F0D890015004E6060E005C000E015831
:1034300001E34ED1DECFE9FFDDCFEAFFD890E936D8
:10344000EA36180EE9260F0EEA22EECF00F0EFCF93
:1034500001F0DECFE9FFDDCFEAFFD890E936EA36AA
:10346000240EE9260F0EEA2200C0EEFF01C0EDFF98
:10347000DECFE9FFDDCFEAFFD890E936EA360C0E61
:10348000E9260F0EEA22EECF00F0EFCF01F0DECFFB
:10349000E9FFDDCFEAFFD890E936EA36180EE926D3
:1034A0000F0EEA2200C0EEFF01C0EDFFDECFE6FF07
:1034B000DDCFE6FF1FEC21F0E552E552F4CF01F03D
:1034C000DECFE9FFDDCFEAFFD890E936EA360C0E11
:1034D000E9260F0EEA22F3CFEEFF01C0EDFFDECFAB
:1034E000E9FFDDCFEAFFD890E936EA360C0EE9268F
:1034F0000F0EEA22EECF00F0EFCF01F0DECFE9FFB2
:10350000DDCFEAFFD890E936EA36180EE9260F0E2D
:10351000EA22EECF02F0EFCF03F00250001801E0F4
:10352000D1D00350011801E0CDD0DECFE9FFDDCFCF
:10353000EAFFD890E936EA36180EE9260F0EEA229D
:10354000EECF04F0EFCF05F0DECFE9FFDDCFEAFFED
:10355000D890E936EA36240EE9260F0EEA22EECF9D
:1035600006F0EFCF07F00650041801E0ABD007508B
:10357000051801E0A7D0DECFE9FFDDCFEAFFD89044
:10358000E936EA36300EE9260F0EEA22EECF00F0D9
:10359000EFCF01F0DECFE9FFDDCFEAFFD890E936CB
:1035A000EA36240EE9260F0EEA22EECF02F0EFCF24
:1035B00003F00250001802E1035001183BE0DECF97
:1035C000E9FFDDCFEAFFD890E936EA36240EE92696
:1035D0000F0EEA22EECF00F0EFCF01F0DECFE9FFD1
:1035E000DDCFEAFFD890E936EA36300EE9260F0E35
:1035F000EA2200C0EEFF01C0EDFFDECFE9FFDDCF24
:10360000EAFFD890E936EA36300EE9260F0EEA22B4
:10361000010EEE1857E1ED5055E1DECFE9FFDDCFA9
:10362000EAFFD890E936EA363C0EE9260F0EEA2288
:10363000C80E38D0DECFE9FFDDCFEAFFD890E936FB
:10364000EA363C0EE9260F0EEA22EE06000EEF5A8D
:10365000DECFE9FFDDCFEAFFD890E936EA363C0E4F
:10366000E9260F0EEA22EE50ED102CE1DECFE9FF45
:10367000DDCFEAFFD890E936EA36300EE9260F0EA4
:10368000EA22010EEE181EE1ED501CE1DECFE9FF4B
:10369000DDCFEAFFD890E936EA363C0EE9260F0E78
:1036A000EA22320EEE6EED6ADECFE9FFDDCFEAFFF1
:1036B000D890E936EA36000EE9260F0EEA22010E0E
:1036C000EE6EED6ADF2A010E01E2A7D6DB2AA5D64F
:1036D000020EE15C02E2E16AE552E16EE552E7CFFB
:1036E000D9FF1200D9CFE6FFE1CFD9FFFD0EDBCF26
:1036F00000F0FE0EDBCF01F0000E005C000E015862
:103700000CE3D950FD0FE96EFF0EDA20EA6E060ECB
:10371000D880EE54000EED5402E2F36A2BD0FD0E79
:10372000DBCFE9FFFE0EDBCFEAFF010ED890E936D2
:10373000EA36E806FBE1000EE9260F0EEA22010E4A
:10374000EE1817E1ED5015E1FD0EDBCFE9FFFE0E9F
:10375000DBCFEAFF010ED890E936EA36E806FBE156
:10376000000EE9260F0EEA22EE6AED6A010EF36EF4
:0E37700001D0F36AF46AE552E7CFD9FF1200E8
:02377E00D9CFA1
:10378000E6FFE1CFD9FF060EE126DE6ADD6A020E12
:10379000DB6A030EDB6A040EDB6A050EDB6A70EC83
:1037A00007F00201010E1E1922E11F5120E1EAC1BA
:1037B000E6FFEBC1E6FF000EE66EE66AE66EE66A3D
:1037C00098EC02F0006E060EE15E005020C2E6FFAB
:1037D00021C2E6FF000EE66EE66A010EE66EE66ABC
:1037E00098EC02F0006E060EE15E0050F1D0DE6A49
:1037F000DD6ADECF00F0DDCF01F0070E005C000EC9
:10380000015801E3E5D0DECFE6FFDDCFE6FF87EC30
:1038100015F0E552E552F3CF00F0F4CF01F0010EC0
:10382000F31801E0CFD0015001E0CCD0D950020F05
:10383000E96EDACFEAFFEE50ED1040E0010EE76EE0
:10384000020EDBCF00F0030EDBCF01F0E7500026C5
:10385000000E0122100E005C000E01582FE22C0E0B
:10386000E66E020EDBCFE6FF030EDBCFE6FF040EB3
:10387000DBCFE6FF050EDBCFE6FF4FEC02F0006E7C
:10388000050EE15E0050020EDB2A030E01E3DB2A87
:10389000020EDBCF00F0030EDBCF01F0100E005C58
:1038A000000E01580BE3010EF36E040EF3CFDBFFA5
:1038B000050EDB6A020EDB6A030EDB6A020EDBCF4B
:1038C00002F0030EDBCF03F0DECFE9FFDDCFEAFF2E
:1038D000010ED890E936EA36E806FBE1220EE92629
:1038E000020EEA220250EE24006E0350EE20016E1A
:1038F000100E005C000E01580BE3010EF36E040E77
:10390000F3CFDBFF050EDB6A020EDB6A030EDB6A18
:10391000DECFE9FFDDCFEAFF010ED890E936EA36C7
:10392000E806FBE1EC0EE926010EEA22EECFE6FF07
:10393000EFCFE6FF020EDBCFE6FF030EDBCFE6FFA5
:10394000040EDBCFE6FF050EDBCFE6FF98EC02F0BE
:10395000006E060EE15E0050020EDBCF02F0030E99
:10396000DBCF03F0DECFE9FFDDCFEAFF010ED89019
:10397000E936EA36E806FBE1220EE926020EEA22E3
:103980000250EE24006E0350EE20016E020E00C0C5
:10399000DBFF030E01C0DBFF020EDBCF00F0030EE6
:1039A000DBCF01F0100E005C000E01580BE3010E9E
:1039B000F36E040EF3CFDBFF050EDB6A020EDB6A4B
:1039C000030EDB6ADF2A010E01E213D7DB2A11D7CF
:1039D000BEEC07F0060EE15C02E2E16AE552E16E40
:1039E000E552E7CFD9FF1200CADE020E02011E190E
:1039F00001E11F513DE0010E1E1901E11F5116E0CA
:103A00001E5101E11F5101E01200010E1E6F1F6BDC
:103A1000E80EE66E030EE66E020EE66EE66AF1EC66
:103A20001EF0E552E552E552E5521200020EE66E36
:103A3000E66A4DEC1FF0E552E552F3CF00F0F4CF0B
:103A400001F0010EF31813E1015033E1880EE66E28
:103A5000130EE66E020EE66EE66AF1EC1EF0E5521B
:103A6000E552E552E552020E02011E6F1F6B120075
:103A7000020EE66EE66A4DEC1FF0E552E552F3CF1A
:103A800000F0F4CF01F0010EF31813E1015011E141
:103A9000E80EE66E030EE66E020EE66EE66AF1ECE6
:103AA0001EF0E552E552E552E552010E02011E6F8D
:043AB0001F6B120076
:0C3AB40002015A2B000E5B2312000201DD
:103AC0005A07000E5B5B1200D9CFE6FFE1CFD9FFAA
:103AD000040EE1265AC2E6FF5BC2E6FF3BEC14F09F
:103AE000E552E5521EC0DEFF1FC0DEFF20C0DEFF34
:103AF00021C0DDFFDD52DD5270EC07F0E8C1E6FFCA
:103B0000E9C1E6FF000EE66EE66AE66EE66A98EC4C
:103B100002F0006E060EE15E00505AC2E9FF5BC281
:103B2000EAFF010ED890E936EA36E806FBE1BC0E62
:103B3000E926010EEA22EECFE6FFEFCFE6FF000E08
:103B4000E66EE66A010EE66EE66A98EC02F0006E3A
:103B5000060EE15E0050D9CFE9FFDACFEAFFEECFE3
:103B6000E6FFEECFE6FFEECFE6FFEFCFE6FF5AC26D
:103B7000E9FF5BC2EAFF010ED890E936EA36E806B3
:103B8000FBE1CA0EE926010EEA22EECFE6FFEFCFF7
:103B9000E6FF010EE66EE66A27EC04F0006E080E02
:103BA000E15E0050BEEC07F0040EE15C02E2E16A67
:103BB000E552E16EE552E7CFD9FF120085DF050E31
:103BC00002015C1901E15D5101E18ED0040E5C1926
:103BD00001E15D5101E17BD0030E5C1901E15D5112
:103BE00071E0020E5C1901E15D5168E0010E5C19A3
:103BF00001E15D5109E05C5101E15D5101E012001C
:103C0000010E5C6F5D6B1200010EE66EE66A72ECEF
:103C10001BF0E552E552F3CF00F0F4CF01F0010EB6
:103C2000F3180BE1015009E10201060E5A5D000E86
:103C30005B5903E2020E5C6F5D6B000EE66EE66A96
:103C400072EC1BF0E552E552F3CF00F0F4CF01F037
:103C5000010EF3180CE101500AE10201000ED880B8
:103C60005A55000E5B5503E2030E5C6F5D6B040E4C
:103C7000E66EE66A72EC1BF0E552E552F3CF00F017
:103C8000F4CF01F0010EF31806E1015004E1040E37
:103C900002015C6F5D6B030EE66EE66A72EC1BF070
:103CA000E552E552F4CF01F0010EF31806E10150A0
:103CB00027E1050E02015C6F5D6B12005A2B000EAE
:103CC0005B2303D05A07000E5B5B010E0AD05AC279
:103CD000E6FF5BC2E6FF7EEC14F0E552E552010E12
:103CE00002015C6F5D6B12005AC2E6FF5BC2E6FF29
:103CF00002EC15F0E552E552010E02015C6F5D6BBE
:023D00001200AF
:0E3D0200D9CFE6FFE1CFD9FF020EE126DE6A3F
:103D1000DD6ADE6ADD6ADECF00F0DDCF01F0D8902B
:103D2000015004E6040E005C000E015850E2DECFA4
:103D3000E9FFDDCFEAFFD890E936EA36380EE9260A
:103D4000020EEA22000ED880EE54000EED543AE244
:103D5000DECFE9FFDDCFEAFFD890E936EA36380E4C
:103D6000E926020EEA22EE06000EEF5ADECFE9FF48
:103D7000DDCFEAFFD890E936EA36380EE926020EA2
:103D8000EA22000ED880EE54000EED541BE3DECF85
:103D9000E9FFDDCFEAFFD890E936EA36380EE926AA
:103DA000020EEA22EE6AED6ADECFE9FFDDCFEAFF1E
:103DB000D890E936EA36300EE926020EEA22010EE4
:103DC000EE6EED6ADF2A010EA6E3DB2AA4D7020E0F
:103DD000E15C02E2E16AE552E16EE552E7CFD9FF2C
:103DE0001200D9CFE6FFE1CFD9FFFD0EDBCF00F007
:103DF000FE0EDBCF01F0000E005C000E01580BE35D
:103E0000FD0EDBCF02F0FE0EDBCF03F0040E025CF2
:103E1000000E035802E3F36A3BD0FB0EDBCF00F049
:103E2000FC0EDBCF01F00A0E256E266A00C020F0E2
:103E300001C021F09BEC25F020C000F021C001F072
:103E4000FD0EDBCFE9FFFE0EDBCFEAFF010ED890BF
:103E5000E936EA36E806FBE1380EE926020EEA22E8
:103E600000C0EEFF01C0EDFFFD0EDBCFE9FFFE0E4F
:103E7000DBCFEAFF010ED890E936EA36E806FBE12F
:103E8000300EE926020EEA22EE6AED6A010EF36EAA
:103E9000F46AE552E7CFD9FF1200D9CFE6FFE1CFB0
:103EA000D9FFFD0EDBCF00F0FE0EDBCF01F0000EE0
:103EB000005C000E01580BE3FD0EDBCF02F0FE0E9E
:103EC000DBCF03F0040E025C000E035802E3F36A3A
:103ED0002BD0FD0EDBCFE9FFFE0EDBCFEAFF010E9C
:103EE000D890E936EA36E806FBE1300EE926020E04
:103EF000EA22010EEE1817E1ED5015E1FD0EDBCFC1
:103F0000E9FFFE0EDBCFEAFF010ED890E936EA3674
:103F1000E806FBE1300EE926020EEA22EE6AED6ABF
:103F2000010EF36E01D0F36AF46AE552E7CFD9FFD0
:023F300012007D
:0E3F3200F28ED08EF28C1200F19CF292F28888
:103F40001200D8CFE4FFE0CFE4FFE46EDACFE4FF65
:103F5000E2CFDAFFE9CFE4FFEACFE4FFF6CFE4FFF8
:103F6000F7CFE4FFF5CFE4FFF3CFE4FFF4CFE4FFB6
:103F7000FACFE4FF00EE18F0140EE80403E3EECFEE
:103F8000E4FFFBD700EE00F0180EE80403E3EECFE9
:103F9000E4FFFBD7E652F2A407D0A9EC18F0F294A4
:103FA00063EC18F0ABEC18F09EA007D056EC19F0BB
:103FB0009E9010EC19F058EC19F0A1A207D001EC7A
:103FC0001AF0A192BBEC19F02DEC25F0F2B2F292AE
:103FD0009EAA03D09E9AC7EC13F0E55200EE17F0AC
:103FE000180EE80403E3E5CFEDFFFBD700EE2BF05E
:103FF000140EE80403E3E5CFEDFFFBD7E5CFFAFFAE
:10400000E5CFF4FFE5CFF3FFE5CFF5FFE5CFF7FF11
:10401000E5CFF6FFE5CFEAFFE5CFE9FFE5CFDAFF31
:10402000E550E5CFE0FFE5CFD8FF1000DACFE4FFA1
:10403000E2CFDAFFE9CFE4FFEACFE4FFF6CFE4FF17
:10404000F7CFE4FFF5CFE4FFF3CFE4FFF4CFE4FFD5
:10405000FACFE4FF00EE18F0140EE80403E3EECF0D
:10406000E4FFFBD700EE00F0180EE80403E3EECF08
:10407000E4FFFBD7E652F2A407D0A9EC18F0F294C3
:1040800063EC18F0ABEC18F09EA007D056EC19F0DA
:104090009E9010EC19F058EC19F0A1A207D001EC99
:1040A0001AF0A192BBEC19F02DEC25F0F2B2F292CD
:1040B0009EAA03D09E9AC7EC13F0E55200EE17F0CB
:1040C000180EE80403E3E5CFEDFFFBD700EE2BF07D
:1040D000140EE80403E3E5CFEDFFFBD7E5CFFAFFCD
:1040E000E5CFF4FFE5CFF3FFE5CFF5FFE5CFF7FF31
:1040F000E5CFF6FFE5CFEAFFE5CFE9FFE5CFDAFF51
:024100001100AC
:0E410200CF0E9414946E82681200D9CFE6FF9F
:10411000E1CFD9FF040EE126DE6ADD6A020EDB6A1A
:10412000030EDB6ADE6ADD6ADECF00F0DDCF01F070
:10413000D890015004E6020E005C000E015875E2B2
:10414000300E8210826EDECFE9FFDDCFEAFF6C0E0B
:10415000E9260F0EEA22EF1C8214826E0F0E8210E7
:10416000826E020EDB6A030EDB6A020EDBCF00F00A
:10417000030EDBCF01F0D890015004E6030E005C83
:10418000000E01584CE2020EDBCFE9FF030EDBCF3D
:10419000EAFF700EE9260F0EEA22EF5082141DE1AD
:1041A000DECF00F0DDCF01F0030E0102F3CF01F00E
:1041B0000002F4500126020EDB50F324E96E030ED8
:1041C000DB500120EA6ED890E936EA36740EE92613
:1041D0000F0EEA22010EEE6E1BD0DECF00F0DDCF17
:1041E00001F0030E0102F3CF01F00002F4500126AA
:1041F000020EDB50F324E96E030EDB500120EA6E61
:10420000D890E936EA36740EE9260F0EEA22EE6AF5
:10421000ED6A020EDB2A030EA8E3DB2AA6D7DF2A0B
:10422000010E01E281D7DB2A7FD7040EE15C02E2B6
:10423000E16AE552E16EE552E7CFD9FF1200D9CF2E
:10424000E6FFE1CFD9FFFD0EDBCF00F0FE0EDBCFA6
:1042500001F0000E005C000E01580BE3FD0EDBCFF9
:1042600002F0FE0EDBCF03F0060E025C000E0358D8
:1042700003E3F36AF46A18D0FD0EDBCFE9FFFE0E0C
:10428000DBCFEAFF010ED890E936EA36E806FBE11B
:10429000740EE9260F0EEA22EECF00F0EFCF01F008
:1042A00000C0F3FF01C0F4FFE552E7CFD9FF1200D1
:1042B000206D332F680D00206D672F6C0D464C4F1D
:1042C000573D2000206D672F6C0D4E4F333D200071
:1042D00020430D4E48343D2000206D672F6C0D5457
:1042E0004D503D2000206D672F6C0D4353423D2003
:1042F000002070480D53533D200053454E534F52FC
:104300002053455454494E470D0053454E534F5288
:10431000204C4953543A20004F76657220746872DD
:104320006573686F6C642121210D0053454E534F16
:104330005220414C4552542121210D00206D332F34
:1043400068200D00206D672F6C20464C4F573D2094
:1043500000206D672F6C204E4F333D2000204320FE
:104360004E48343D2000206D672F6C20544D503D49
:104370002000206D672F6C204353423D20002070A9
:10438000482053533D200070483D2000464C4F5775
:10439000004E4F33004E48340054454D5000434FBB
:1043A000440053530070480053454E534F52204130
:1043B0004C4552540053454E534F5220534554548C
:1043C000494E470053454E534F522056414C554598
:1043D00000464C4F573A20004E4F333A20004E488B
:1043E000343A200054454D503A2000434F443A207F
:1043F0000053533A200070483A20004F76657220EF
:0C4400007468726573686F6C64212100A1
:04440C00186A26AE56
:104410000FEF22F0256C261EE86A2622181E21AE18
:1044200017EF22F0206C211EE86A2122181E9BEC57
:1044300025F021BE27EF22F018AE000C206C211EC3
:10444000E86A21221C6C1D1EE86A1D22000C18BEA1
:104450001EEF22F01988FF0C186A26AE37EF22F003
:10446000246C251E261EE86A25222622181E21AE4F
:1044700041EF22F01F6C201E211EE86A202221221B
:10448000181E63EC25F021BE54EF22F018AE000C8C
:104490001F6C201E211EE86A202221221B6C1C1E7C
:1044A0001D1E1C221D22000C18BE48EF22F0198888
:1044B000FF0C186AE86A26AE66EF22F0236C241E11
:1044C000251E261E242225222622181E21AE71EF2B
:1044D00022F01E6C1F1E201E211E1F2220222122C0
:1044E000181E3FEC25F021BE88EF22F018AE000C1C
:1044F0001E6C1F1E201E211EE86A1F222022212260
:104500001A6C1B1E1C1E1D1E1B221C221D22000CB1
:1045100018BE78EF22F01988FF0C20C02AF0205036
:104520002502F4CF1FF0F3CF1EF021502602F4CF66
:1045300021F0F3CF20F02502F3501F26F450202263
:10454000E86A21222A502602F3501F26F450202226
:06455000E86A2122000CC4
:0A455600030E0001FE1901E1FF5100
:1045600059E0020EFE1901E1FF5136E0010EFE197D
:1045700001E1FF5109E0FE5101E1FF5101E01200AC
:10458000010EFE6FFF6B120096EC23F0020EE66E3A
:10459000E66ADCEC24F0E552E55272EC17F0050E09
:1045A000E66EE66A72EC1BF0E552E552F4CF01F0DC
:1045B000010EF31806E1015004E1020E0001FE6F46
:1045C000FF6B0201010E001906E1015131E1030EFA
:1045D0000001FE6FFF6B120096EC23F0030EE66EF7
:1045E000E66ADCEC24F0E552E552DEEC1DF0050E47
:1045F000E66EE66A72EC1BF0E552E552F4CF01F08C
:10460000010EF31806E1015013E1010E0001FE6FE7
:10461000FF6B12009BEC23F025EC23F0F4EC1CF074
:1046200002010051011104E1010E0001FE6FFF6B58
:1046300012000001020EFE1905E1FF5103E1010E17
:0A464000F36E01D0F36AF46A120071
:06464A00020E02016219DC
:1046500001E1635146E0010E621901E163511AE084
:10466000625101E1635101E01200E66A90EC25F02D
:10467000E552010E0201626F636B64C2E6FF65C220
:10468000E6FFE66EE66AF1EC1EF0E552E552E55211
:10469000E5521200320EE66E90EC25F0E552010E66
:1046A000E66EE66A4DEC1FF0E552E552F3CF00F0FE
:1046B000F4CF01F0010EF31813E1015036E1020EC0
:1046C0000201626F636B64C2E6FF65C2E6FF010E22
:1046D000E66EE66AF1EC1EF0E552E552E552E5526F
:1046E0001200E66A90EC25F0E552010EE66EE66AED
:1046F0004DEC1FF0E552E552F3CF00F0F4CF01F09E
:10470000010EF31812E1015010E1010E0201626F77
:10471000636B64C2E6FF65C2E6FFE66EE66AF1EC33
:104720001EF0E552E552E552E5521200E66A90ECC1
:0647300025F0E552120025
:0A473600020E02015E1901E15F515D
:1047400040E0010E5E1901E15F5118E05E5101E1A8
:104750005F5101E012005ED8020E02015E6F5F6BD6
:1047600060C2E6FF61C2E6FF030EE66EE66AF1ECA8
:104770001EF0E552E552E552E55212004BD8030E09
:10478000E66EE66A4DEC1FF0E552E552F3CF00F01D
:10479000F4CF01F0010EF31813E101503AE1020EDB
:1047A00002015E6F5F6B60C2E6FF61C2E6FF030E4F
:1047B000E66EE66AF1EC1EF0E552E552E552E5528E
:1047C0001200010EE66EE66ADCEC24F0E552E552DA
:1047D000030EE66EE66A4DEC1FF0E552E552F3CFAC
:1047E00000F0F4CF01F0010EF31813E1015011E1D4
:1047F000010E02015E6F5F6B60C2E6FF61C2E6FF01
:10480000030EE66EE66AF1EC1EF0E552E552E55263
:08481000E55212000BEF25F048
:084818001E0EF66E000EF76E95
:10482000000EF86E02010900F550516F0900F550B5
:10483000526F03E1516701D03DD00900F5504C6F34
:104840000900F5504D6F0900F5504E6F0900090041
:10485000F550E96E0900F550EA6E090009000900FB
:10486000F5504F6F0900F550506F09000900F6CF61
:1048700053F2F7CF54F2F8CF55F24CC2F6FF4DC2C7
:10488000F7FF4EC2F8FF02014F5302E1505307E019
:104890000900F550EE6E4F07F8E25007F9D753C202
:1048A000F6FF54C2F7FF55C2F8FF02015107000E90
:0648B000525BBFD71200AD
:0A48B6000F0E926E0B0EC16E040E81
:1048C000C06E1200D9CFE6FFE1CFD9FF020EE1267C
:1048D000FE0EDB50040DF350C26EC280C282C2B223
:1048E000FED7C450DE6EDD6ADECF02F0DDCF03F00E
:1048F000D89002360336D89002360336060EC3CF60
:10490000E7FF070B04E0E742E79EE806FCE1E7501B
:104910000224006E000E032000C0DEFFDD6EDECF3D
:1049200000F0DDCF01F000C0F3FF01C0F4FF020E84
:10493000E15C02E2E16AE552E16EE552E7CFD9FFC0
:02494000120063
:0E4942001E502302F3CF1AF0F4CF1BF0240214
:10495000F3501B26000EF4201C6E1E502502F3504F
:104960001C26000EF4201D6E1E502602F3501D263C
:104970001F502302F3501B26F4501C22000E1D2250
:104980001F502402F3501C26F4501D221F502502F4
:10499000F3501D2620502302F3501C26F4501D22F4
:1049A00020502402F3501D2621502302F3501D26CF
:0249B0001200F3
:0E49B200966A846A1200D9CFE6FFE1CFD9FFE2
:1049C000E150FD0FE96EFF0EDA20EA6E020EEE18DE
:1049D00004E1ED5002E11FD88480D950FD0FE96E4B
:1049E000FF0EDA20EA6E010EEE1804E1ED5002E14E
:1049F00012D88482D950FD0FE96EFF0EDA20EA6EDC
:104A0000030EEE1804E1ED5002E105D88484E5526E
:0A4A1000E7CFD9FF1200846A1200FC
:064A1A0017D805D8ABEC33
:104A200022F0DFEC0DF0FBD781EC20F0ADEC01F0D3
:104A30002EEC11F05BEC24F080EC25F0D9EC24F0A6
:104A4000E66A90EC25F0E55212000A0E0201446F6E
:104A5000456B99EC1FF059EF19F081EC1EF086ECD4
:104A600020F057EC08F0FFEC0AF09AEC0BF036EC73
:0E4A70000CF0D2EC0CF035EC14F003EF1AF061
:024A7E001D6AAF
:104A80001C6A1B6A1A6A200EE76ED8901E361F3603
:104A9000203621361A361B361C361D3623501A5C3A
:104AA00024501B5825501C5826501D5809E32350EC
:104AB0001A5E24501B5A25501C5A26501D5A1E2A75
:064AC000E72EE4D712000E
:0A4AC6001D6A1C6A1B6A180EE76ED9
:104AD000D8901F36203621361B361C361D36245002
:104AE0001B5C25501C5826501D5807E324501B5EA4
:104AF00025501C5A26501D5A1F2AE72EEAD71200AD
:104B0000CA94CA90CA82CB68BD98BD9ABE6ABD9C41
:104B1000BD9EBD90BD92BD84BD869494CA84120092
:104B2000D9CFE6FFE1CFD9FFFE0EDB50BE6EE552D6
:064B3000E7CFD9FF1200DF
:0A4B36001D6A1C6A100EE76ED8908D
:104B4000203621361C361D3625501C5C26501D583B
:104B500005E325501C5E26501D5A202AE72EF0D76B
:024B6000120041
:0E4B6200800EF36E00EE00F00F0E01D8120070
:104B7000EA6002D0EE6AFCD7F350E9601200EE6AF8
:024B8000FCD760
:0E4B82001EEE00F02EEE00F0F86A199C0CEC0E
:0E4B900024F003EC00F00DEC25F0FBD7120032
:024B9E00000015
:0E4BA000000000000000000000000000000007
:024BAE00000005
:104BB0008403000028230000282300009411000033
:0C4BC000A00F000028230000007D000072
:044BCC000000FF03E3
:104BD00000000000000000000000000000000000D5
:104BE00000000000000000000000000000000000C5
:104BF0000000000000000000E803102710278813C1
:104C000088131027A08C900100000000C409E8035D
:104C1000D0070000E80390011027000010270000D3
:104C20008813C4098813E8031027D007A08C00005C
:0C4C300000000000000000000000000078
:044C3C0020202020F4
:104C40002020202020202020202020202020202064
:104C500020202020202020202020202001000000D3
:104C60001020800001020800000000000000000089
:044C70000000000040
:0C4C740000000000000000000000000034
:0E4C8000000000000000000000000000000026
:024C8E00F643EB
:104C9000F143EB43E443DE43D843D1430400040033
:104CA00005000600050005000600000001000200E6
:104CB0000300040005000600C443B543A843A54310
:0C4CC000A2439E439943954391438C43CB
:044CCC0001000000E3
:044CD00000000000E0
:0C4CD4000000FB4302000200030004008B
:064CE000030003000400C4
:044CE6000000F401D5
:044CEA000000320094
:024CEE000000C4
:104CF00000000000000000000000000000000000B4
:104D000000000000000000000000000000000000A3
:104D10000000000000000000000000000000000093
:104D200000000000000000000000C800C800C8002B
:064D3000C800C800C80025
:020000040030CA
:0100010002FC
:0100020003FA
:010003001EDE
:010005008179
:010006008178
:010008000FE8
:01000900C036
:01000A000FE6
:01000B00E014
:01000C000FE4
:01000D0040B2
:00000001FF
