:020000040000FA
:0600000025EF19F01200CB
:020006001200E6
:0600080029EF16F01200C2
:02000E000000F0
:0400100000000000EC
:0100140020CB
:06001800B4EF15F0120028
:02001E000900D7
:10002000F2320000000F000030000000D832000063
:10003000000100001A000000C03200001A01000098
:10004000180000009C3200005A0F0000240000003D
:1000500090320000320100000C000000140000008B
:100060004C0100000100000066320000300F00006B
:100070002A000000100000004801000004000000F9
:0C0080000E0000007E0F000002000000D7
:04008C00D9CFE6FFE3
:10009000E1CFD9FF040EE126DE6ADD6A020EDB6ADB
:1000A000030EDB6ADE6ADD6ADECF00F0DDCF01F031
:1000B000026A036A01AE02D002680368D950FB0FDE
:1000C000E96EFF0EDA20EA6EEE50005CEE50015849
:1000D000EE500258EE5003581DE2020EDB6A030E8A
:1000E000DB6A020EDBCF00F0030EDBCF01F0D8900D
:1000F000015004E6A00E005C000E015806E2020E5C
:10010000DB2A030EEEE3DB2AECD7DF2A010ECCE379
:10011000DB2ACAD7040EE15C02E2E16AE552E16E35
:10012000E552E7CFD9FF1200D9CFE6FFE1CFD9FFE3
:10013000FE0EDB50F00B006E0F0E81140010816E6E
:1001400081848186010EE66EE66AE66AE66A9EDFD3
:10015000E552E552E552E5528196010EE66EE66AF9
:10016000E66AE66A93DFE552E552E552E552FE0E95
:10017000DB38F00B006E0F0E81140010816E81864B
:10018000010EE66EE66AE66AE66A80DFE552E5524F
:10019000E552E55281968194030EE66EE66AE66AC0
:1001A000E66A74DFE552E552E552E552E552E7CFE3
:1001B000D9FF1200D9CFE6FFE1CFD9FFFD0EDBCF8B
:1001C000F6FFFE0EDBCFF7FF0800F55011E0FD0E45
:1001D000DBCFF6FFFE0EDBCFF7FF0800F550E66E33
:1001E000A3DFE552FD0EDB2AFE0EE8E3DB2AE6D7AD
:1001F000E552E7CFD9FF1200D9CFE6FFE1CFD9FF13
:100200007ACF00F07BCF01F0040ED8900036013693
:10021000E806FBE15A0E00260F0E012200500F01E6
:100220007C25E96E01507D21EA6EFE0EDBCFEFFFEB
:100230007C2B000E7D23100E7DAF02D0D89003D012
:100240007C5D000E7D5905E37A2B000E7B237C6BD1
:100250007D6B030E7BAF02D0D89003D07A5D000E89
:100260007B5902E37A6B7B6BE552E7CFD9FF120033
:10027000D9CFE6FFE1CFD9FFFE0EDB50F00B006EC9
:100280000F0E81140010816E81948186010EE66E3E
:10029000E66AE66AE66AFADEE552E552E552E552BA
:1002A0008196010EE66EE66AE66AE66AEFDEE552E0
:1002B000E552E552E552FE0EDB38F00B006E0F0EF4
:1002C00081140010816E8186010EE66EE66AE66A90
:1002D000E66ADCDEE552E552E552E5528196030E10
:1002E000E66EE66AE66AE66AD1DEE552E552E55276
:1002F000E552E552E7CFD9FF1200D9CFE6FFE1CFB3
:10030000D9FF020EE126DE6ADD6A0F017C6B7D6B90
:10031000010E7A6F7B6BDE6ADD6ADECF00F0DDCF27
:1003200001F0200E005C000E01582BE2DECF00F041
:10033000DDCF01F0040E0F0B05E0D8900132003242
:10034000E806FBE1040ED89000360136E806FBE132
:100350005A0E00260F0E0122DECF02F0DDCF03F091
:100360000001036A0F0E021600500224E96E0150CC
:100370000320EA6E200EEF6EDF2A010ECEE3DB2AA9
:10038000CCD7936A816A190EE66EE66AE66AE66A77
:100390007DDEE552E552E552E552020EE66E68DF7B
:1003A000E552280EE66E64DFE552010EE66E60DF70
:1003B000E5520C0EE66E5CDFE552060EE66E58DF87
:1003C000E552020EE15C02E2E16AE552E16EE552BD
:1003D000E7CFD9FF1200010EE66E4ADFE552030EA9
:1003E000E66EE66AE66AE66A51DEE552E552E552F5
:1003F000E5521200D9CFE6FFE1CFD9FFE652DF6A1E
:10040000FE0EDB5005E1FD0EDB500F0B800904D022
:10041000FD0EDB500F0BC009DF6EDFCFE6FF28DFDC
:10042000E552FB0EDBCFE6FFFC0EDBCFE6FFC2DEC4
:10043000E552E552E552E552E7CFD9FF1200D9CF98
:10044000E6FFE1CFD9FFFD0EDBCF7AFF0F017B6B1B
:10045000010E7A17FB0EDBCF7CFF7D6B0F0E7C1736
:100460007ACF00F07BCF01F0040ED8900036013631
:10047000E806FBE15A0E00260F0E012200500F0184
:100480007C25E96E01507D21EA6EFA0EDBCFEFFF8D
:100490007C2B000E7D23100E7DAF02D0D89003D0B0
:1004A0007C5D000E7D5905E37A2B000E7B237C6B6F
:1004B0007D6B030E7BAF02D0D89003D07A5D000E27
:1004C0007B5902E37A6B7B6BE552E7CFD9FF1200D1
:1004D000D9CFE6FFE1CFD9FFFD0EDBCF7AFF0F01C9
:1004E0007B6B010E7A17FB0EDBCF7CFF7D6B0F0E53
:1004F0007C17F90EDBCFF6FFFA0EDBCFF7FF080013
:10050000F55047E0F90EDBCFF6FFFA0EDBCFF7FF31
:100510000800F550E66E7ACF00F07BCF01F0040EB4
:10052000D89000360136E806FBE15A0E00260F0E81
:10053000012200500F017C25E96E01507D21EA6EF9
:10054000E552E750EF6E7C2B000E7D23100E7DAF41
:1005500002D0D89003D07C5D000E7D5905E37A2B44
:10056000000E7B237C6B7D6B020E7BAF02D0D8909C
:1005700003D07A5D000E7B5902E37A6B7B6BF90E38
:10058000DBCFF6FFDB2AFA0EDBCFF7FFB2E3DB2A85
:10059000B0D7E552E7CFD9FF1200D9CFE6FFE1CFC0
:1005A000D9FF040EE126DE6ADD6A020EDB6A030E65
:1005B000DB6AFD0EDBCF7AFF0F017B6B010E7A1732
:1005C000FB0EDBCF7CFFFC0EDBCF7DFF7D6B0F0EC8
:1005D0007C17F70EDBCF00F0F80EDBCF01F0F90E41
:1005E000DBCF02F0FA0EDBCF03F000500110021057
:1005F000031004E1300EE66EFFDDE552D950F70F2F
:10060000E96EFF0EDA20EA6ED890030EEB50000A76
:1006100008E6000EEE5C000EEE58000EEE58000EDE
:10062000EE5822E22D0EE66EE7DDE552F70EDBCF47
:100630001EF0F80EDBCF1FF0F90EDBCF20F0FA0E24
:10064000DBCF21F023682468256826684CEC18F07D
:10065000F70E1AC0DBFFF80E1BC0DBFFF90E1CC043
:10066000DBFFFA0E1DC0DBFF100EDE6E270EDD6E07
:10067000D9CFE9FFDACFEAFF000ED880EE54000EA2
:10068000ED5401E3AAD0DECF00F0DDCF01F0026A25
:10069000036A00C023F001C024F002C025F003C0AB
:1006A00026F0F70EDBCF1EF0F80EDBCF1FF0F90EB1
:1006B000DBCF20F0FA0EDBCF21F085EC13F01E50DB
:1006C0001F102010211036E0DECF04F0DDCF05F042
:1006D000066A076A04C023F005C024F006C025F0AE
:1006E00007C026F0F70EDBCF1EF0F80EDBCF1FF0B1
:1006F000F90EDBCF20F0FA0EDBCF21F085EC13F002
:100700001EC000F01FC001F020C002F021C003F0A5
:10071000300E0026000E0122022203220050E66E57
:100720006BDDE552010EF36E020EF3CFDBFF030E1D
:10073000DB6A0ED0D950020FE96EDACFEAFF010E64
:10074000EE1806E1ED5004E1300EE66E55DDE5529F
:10075000DECF00F0DDCF01F0026A036A00C023F0B3
:1007600001C024F002C025F003C026F0F70EDBCF55
:100770001EF0F80EDBCF1FF0F90EDBCF20F0FA0EE3
:10078000DBCF21F003C0F5FF85EC13F0F5AE08D008
:10079000000E1A6C1B1E1B221C1E1C221D1E1D225D
:1007A000F70E1AC0DBFFF80E1BC0DBFFF90E1CC0F2
:1007B000DBFFFA0E1DC0DBFF0A0E006E016A256E1C
:1007C00001C026F0DECF20F0DDCF21F0FFEC18F0E5
:1007D00020C0DEFF21C0DDFF4BD7040EE15C02E24A
:1007E000E16AE552E16EE552E7CFD9FF1200D9CFB9
:1007F000E6FFE1CFD9FF060EE126D9CFE9FFDACF38
:10080000EAFFF70EDBCFEEFFF80EDBCFEEFFF90EBF
:10081000DBCFEEFFFA0EDBCFEEFF040EDB6A050E38
:10082000DB6AD9CFE9FFDACFEAFFEECF1EF0EECFD9
:100830001FF0EECF20F0EFCF21F0E80E236E030E75
:10084000246E256A266A85EC13F01E501F102010B6
:1008500021104DE0D9CFE9FFDACFEAFFEECF00F06B
:10086000EECF01F0EECF02F0EFCF03F0E80E236EF3
:10087000030E246E256A266A00C01EF001C01FF018
:1008800002C020F003C021F085EC13F01EC000F080
:100890001FC001F020C002F021C003F01EC0E6FF1F
:1008A0001FC0E6FF20C0E6FF21C0E6FF040EDBCF3D
:1008B00006F0050EDBCF07F0FB0EDB500624046EBE
:1008C000FC0EDB500720056E04C0E6FFE66EFD0E51
:1008D000DBCFE6FFFE0EDBCFE6FF5FDE086E080E25
:1008E000E15E0850040EDB2A050E01E3DB2AD9CFB6
:1008F000E9FFDACFEAFFEECF1EF0EECF1FF0EECF2A
:1009000020F0EFCF21F0E80E236E030E246E256A4F
:10091000266A85EC13F01AC0DEFF1BC0DEFF1CC088
:10092000DEFF1DC0DDFFDD52DD52D9CFE9FFDACF9A
:10093000EAFFEECF00F0EECF01F0EECF02F0EFCF06
:1009400003F0640E236E246A256A266A00C01EF036
:1009500001C01FF002C020F003C021F085EC13F0AD
:100960001EC000F01FC001F020C002F021C003F043
:100970001EC0E6FF1FC0E6FF20C0E6FF21C0E6FF65
:10098000040EDBCF06F0050EDBCF07F0FB0EDB50CD
:100990000624046EFC0EDB500720056E04C0E6FF43
:1009A000E66EFD0EDBCFE6FFFE0EDBCFE6FFF5DDEC
:1009B000086E080EE15E0850040EDB2A050E01E306
:1009C000DB2AD9CFE9FFDACFEAFFEECF1EF0EECF78
:1009D0001FF0EECF20F0EFCF21F0640E236E246ADB
:1009E000256A266A85EC13F01AC0DEFF1BC0DEFF05
:1009F0001CC0DEFF1DC0DDFFDD52DD522E0EE66E97
:100A0000040EDBCF02F0050EDBCF03F0FB0EDB5054
:100A10000224006EFC0EDB500320016E00C0E6FFD6
:100A2000E66EFD0EDBCFE6FFFE0EDBCFE6FF07DD59
:100A3000046E050EE15E0450040EDB2A050E01E390
:100A4000DB2AD9CFE9FFDACFEAFFEECF00F0EECF15
:100A500001F0EECF02F0EFCF03F00A0E236E246A0E
:100A6000256A266A00C01EF001C01FF002C020F0F7
:100A700003C021F085EC13F01EC000F01FC001F090
:100A800020C002F021C003F01EC0E6FF1FC0E6FF39
:100A900020C0E6FF21C0E6FF040EDBCF06F0050E06
:100AA000DBCF07F0FB0EDB500624046EFC0EDB50A0
:100AB0000720056E04C0E6FFE66EFD0EDBCFE6FF05
:100AC000FE0EDBCFE6FF69DD086E080EE15E085022
:100AD000040EDB2A050E01E3DB2AD9CFE9FFDACFCA
:100AE000EAFFEECF00F0EECF01F0EECF02F0EFCF55
:100AF00003F00A0E236E246A256A266A00C01EF0DF
:100B000001C01FF002C020F003C021F085EC13F0FB
:100B10001AC000F01BC001F01CC002F01DC003F0A1
:100B20001AC0E6FF1BC0E6FF1CC0E6FF1DC0E6FFC3
:100B3000040EDBCF06F0050EDBCF07F0FB0EDB501B
:100B40000624046EFC0EDB500720056E04C0E6FF91
:100B5000E66EFD0EDBCFE6FFFE0EDBCFE6FF1DDD12
:100B6000086E080EE15E0850040EDB2A050E01E354
:100B7000DB2A060EE15C02E2E16AE552E16EE55233
:100B8000E7CFD9FF1200D9CFE6FFE1CFD9FF030E9F
:100B9000E126200EDF6E010EDB6A020EDB6A010E1B
:100BA000DB6A020EDB6A010EDBCF00F0020EDBCF48
:100BB00001F0100E005C000E015837E2010EDBCF91
:100BC000E9FF020EDBCFEAFF5A0EE9260F0EEA22FA
:100BD000EFCFDFFF010EDBCFE9FF020EDBCFEAFF35
:100BE0006A0EE9260F0EEA22EF50E66E010EDBCF09
:100BF000E9FF020EDBCFEAFF5A0EE9260F0EEA22CA
:100C0000E552E750EF6E010EDBCFE9FF020EDBCFBE
:100C1000EAFF6A0EE9260F0EEA22DFCFEFFF010E90
:100C2000DB2A020EC0E3DB2ABED7D950FD0FE96EE6
:100C3000FF0EDA20EA6EEE50ED100BE0D950FD0FFA
:100C4000E96EFF0EDA20EA6E010EEE180BE1ED50B0
:100C500009E1FD0EDBCFE6FFFE0EDBCFE6FF38D865
:100C6000E552E552030EE15C02E2E16AE552E16E13
:100C7000E552E7CFD9FF1200D9CFE6FFE1CFD9FF88
:100C8000FD0EDBCF7AFF0F017B6B010E7A17FB0E97
:100C9000DBCF7CFF7D6B0F0E7C177ACF00F07BCF14
:100CA00001F0040ED89000360136E806FBE15A0E3A
:100CB00000260F0E012200500F017C25E96E015025
:100CC0007D21EA6E200EEF6EE552E7CFD9FF1200CC
:100CD000D9CFE6FFE1CFD9FF020EE126DE6ADD6A59
:100CE000FD0EDBCF7AFF0F017B6B010E7A17DE6AF8
:100CF000DD6ADECF00F0DDCF01F0100E005C000EEB
:100D000001581BE27ACF00F07BCF01F0040ED8909F
:100D100000360136E806FBE15A0E00260F0E0122CE
:100D2000DE500024E96EDD500120EA6E200EEF6EE9
:100D3000DF2A010EDEE3DB2ADCD7020EE15C02E2F1
:100D4000E16AE552E16EE552E7CFD9FF1200D9CF53
:100D5000E6FFE1CFD9FF020EE126DE6ADD6A0F0170
:100D60007C6B7D6B010E7A6F7B6BDE6ADD6ADECF9A
:100D700000F0DDCF01F0200E005C000E01582BE2E8
:100D8000DECF00F0DDCF01F0040E0F0B05E0D890B0
:100D900001320032E806FBE1040ED890003601363D
:100DA000E806FBE15A0E00260F0E0122DECF02F00C
:100DB000DDCF03F00001036A0F0E0216005002247B
:100DC000E96E01500320EA6E200EEF6EDF2A010E5D
:100DD000CEE3DB2ACCD7020EE15C02E2E16AE55207
:100DE000E16EE552E7CFD9FF1200D9CFE6FFE1CFA0
:100DF000D9FF020EE126DE6ADD6A800EE66E38EC6F
:100E000001F0E552DE6ADD6ADECF00F0DDCF01F0F1
:100E1000100E005C000E015812E2DECFE9FFDDCFBC
:100E2000EAFF5A0EE9260F0EEA22EF50E66E94EC26
:100E300000F0E552DF2A010EE7E3DB2AE5D7C00E1A
:100E4000E66E38EC01F0E552DE6ADD6ADECF00F0D6
:100E5000DDCF01F0100E005C000E015812E2DECF73
:100E6000E9FFDDCFEAFF6A0EE9260F0EEA22EF5016
:100E7000E66E94EC00F0E552DF2A010EE7E3DB2A90
:100E8000E5D7020EE15C02E2E16AE552E16EE5526D
:060E9000E7CFD9FF1200BC
:0A0E9600D9CFE6FFE1CFD9FFFD0E32
:100EA000DBCF00F0FE0EDBCF01F0000E005C000E89
:100EB00001580BE3FD0EDBCF02F0FE0EDBCF03F09B
:100EC000070E025C000E035805E3006A016A026A1D
:100ED000036A2AD0FD0EDBCFE9FFFE0EDBCFEAFF6F
:100EE000020ED890E936EA36E806FBE1800EE926E4
:100EF000000EEA22EECF04F0EECF05F0EECF06F0C2
:100F0000EFCF07F004C01EF005C01FF006C020F0B0
:100F100007C021F019EC13F01FC000F020C001F051
:100F200021C002F022C003F000C01EF001C01FF07B
:100F300002C020F003C021F0E552E7CFD9FF120034
:100F400040CF00F041CF01F0026A036A0F01305137
:100F5000325D146E33513155156E166A176A405161
:100F60003E5D106E3F514155116E126A136A30CFCB
:100F70000CF031CF0DF00E6A0F6A0C50345D086E24
:100F80000D503559096E0E5036590A6E0F503759AB
:100F90000B6E08C01EF009C01FF00AC020F0216EC1
:100FA00010C023F011C024F012C025F013C026F0A9
:100FB0004CEC18F01AC004F01BC005F01CC006F081
:100FC0001DC007F01AC01EF01BC01FF01CC020F08F
:100FD0001DC021F014C023F015C024F016C025F068
:100FE00017C026F085EC13F000501E240001806F1E
:100FF00001501F20816F02502020826F035021205A
:10100000836F44CF00F045CF01F0026A036A0F01FD
:101010003051325D146E33513155156E166A176AB0
:101020004451425D106E43514555116E126A136A68
:1010300030CF0CF031CF0DF00E6A0F6A0C50345DDA
:10104000086E0D503559096E0E5036590A6E0F5004
:1010500037590B6E08C01EF009C01FF00AC020F0FF
:10106000216E10C023F011C024F012C025F013C06F
:1010700026F04CEC18F01AC004F01BC005F01CC0A0
:1010800006F01DC007F01AC01EF01BC01FF01CC0E8
:1010900020F01DC021F014C023F015C024F016C0AC
:1010A00025F017C026F085EC13F000501E24000137
:1010B000846F01501F20856F02502020866F0350DF
:1010C0002120876F48CF00F049CF01F0026A036A00
:1010D0000F013051325D146E33513155156E166A61
:1010E000176A4851465D106E47514955116E126A94
:1010F000136A30CF0CF031CF0DF00E6A0F6A0C502E
:10110000345D086E0D503559096E0E5036590A6E11
:101110000F5037590B6E08C01EF009C01FF00AC0EF
:1011200020F0216E10C023F011C024F012C025F071
:1011300013C026F04CEC18F01AC004F01BC005F0E8
:101140001CC006F01DC007F01AC01EF01BC01FF027
:101150001CC020F01DC021F014C023F015C024F0E5
:1011600016C025F017C026F085EC13F000501E24A1
:101170000001886F01501F20896F025020208A6F64
:10118000035021208B6F4CCF00F04DCF01F0026A4D
:10119000036A0F013051325D146E33513155156EB3
:1011A000166A176A4C514A5D106E4B514D55116EBF
:1011B000126A136A30CF0CF031CF0DF00E6A0F6A4D
:1011C0000C50345D086E0D503559096E0E5036596D
:1011D0000A6E0F5037590B6E08C01EF009C01FF081
:1011E0000AC020F0216E10C023F011C024F012C0FC
:1011F00025F013C026F04CEC18F01AC004F01BC008
:1012000005F01CC006F01DC007F01AC01EF01BC080
:101210001FF01CC020F01DC021F014C023F015C029
:1012200024F016C025F017C026F085EC13F000500E
:101230001E2400018C6F01501F208D6F0250202052
:101240008E6F035021208F6F50CF00F051CF01F0EF
:10125000026A036A0F013051325D146E3351315509
:10126000156E166A176A50514E5D106E4F515155EA
:10127000116E126A136A30CF0CF031CF0DF00E6A86
:101280000F6A0C50345D086E0D503559096E0E50C2
:1012900036590A6E0F5037590B6E08C01EF009C040
:1012A0001FF00AC020F0216E10C023F011C024F0FE
:1012B00012C025F013C026F04CEC18F01AC004F050
:1012C0001BC005F01CC006F01DC007F01AC01EF0C0
:1012D0001BC01FF01CC020F01DC021F014C023F063
:1012E00015C024F016C025F017C026F085EC13F0C9
:1012F00000501E240001906F01501F20916F02507A
:101300002020926F03502120936F54CF00F055CFCF
:1013100001F0026A036A0F013051325D146E3351DD
:101320003155156E166A176A5451525D106E53513D
:101330005555116E126A136A30CF0CF031CF0DF093
:101340000E6A0F6A0C50345D086E0D503559096EE7
:101350000E5036590A6E0F5037590B6E08C01EF0EA
:1013600009C01FF00AC020F0216E10C023F011C088
:1013700024F012C025F013C026F04CEC18F01AC06F
:1013800004F01BC005F01CC006F01DC007F01AC019
:101390001EF01BC01FF01CC020F01DC021F014C0A7
:1013A00023F015C024F016C025F017C026F085ECF8
:1013B00013F000501E240001946F01501F20956F00
:1013C00002502020966F03502120976F58CF00F0D5
:1013D00059CF01F0026A036A0F013051325D146E79
:1013E00033513155156E166A176A5851565D106E95
:1013F00057515955116E126A136A30CF0CF031CF24
:101400000DF00E6A0F6A0C50345D086E0D503559A0
:10141000096E0E5036590A6E0F5037590B6E08C0C0
:101420001EF009C01FF00AC020F0216E10C023F08A
:1014300011C024F012C025F013C026F04CEC18F0B7
:101440001AC004F01BC005F01CC006F01DC007F058
:101450001AC01EF01BC01FF01CC020F01DC021F0E0
:1014600014C023F015C024F016C025F017C026F0D4
:1014700085EC13F000501E240001986F01501F20CE
:10148000996F025020209A6F035021209B6F120009
:10149000D9CFE6FFE1CFD9FF040EE126DE6ADD6A8F
:1014A000020EDB6A030EDB6AE66A0DEC18F0E55209
:1014B000F3CF38FFF4CF39FF3CCFE9FF3DCFEAFF50
:1014C000D890E936EA369C0EE926000EEA22F3CFE0
:1014D000EEFF39CFEDFF010E0F013C253C6F000EF2
:1014E0003D213D6F320E256E266A3CCF20F03DCF68
:1014F00021F032EC13F01CC03CFF1DC03DFF1CC0AE
:10150000DEFF1DC0DDFF0F013A6B3B6B020EDB6A95
:10151000030EDB6A020EDBCF00F0030EDBCF01F01F
:10152000D890015004E6320E005C000E015824E20F
:10153000DECFE9FFDDCFEAFFD890E936EA369C0E30
:10154000E926000EEA22EE503A27EE503B23D9CF8F
:10155000E9FFDACFEAFFEE50ED1004E1310EDE6E66
:10156000DD6A04D0DF06010E01E2DB06020EDB2A93
:10157000030ED0E3DB2ACED73ACF34FF3BCF35FF83
:10158000366B376B320E236E246A256A266A3ACF91
:101590001EF03BCF1FF036CF20F037CF21F085EC87
:1015A00013F01EC034FF1FC035FF20C036FF21C01E
:1015B00037FF040EE15C02E2E16AE552E16EE552BA
:0615C000E7CFD9FF120085
:0A15C600B06A810EAF6EAC8AAC94DF
:1015D000B886AC98AB8EAB889E9A9D8A9F9A949C55
:1015E000948E120001014C511200D9CFE6FFE1CFD9
:1015F000D9FF9EA8FED7FE0EDB50AD6E9E98E55239
:10160000E7CFD9FF1200D9CFE6FFE1CFD9FFFD0E1A
:10161000DBCFF6FFFE0EDBCFF7FF0800F55015E03D
:10162000FD0EDBCFF6FFFE0EDBCFF7FF0800F55017
:10163000E66EDBDFE552FD0EDBCFF6FFDB2AFE0EAA
:10164000DBCFF7FFE4E3DB2AE2D7E552E7CFD9FFB0
:101650001200D9CFE6FFE1CFD9FF040EE126DE6A02
:10166000DD6A020EDB6A030EDB6AFB0EDBCF00F0E5
:10167000FC0EDBCF01F0FD0EDBCF02F0FE0EDBCF68
:1016800003F0005001100210031004E1300EE66E6A
:10169000ACDFE552D950FB0FE96EFF0EDA20EA6E9F
:1016A000D890030EEB50000A08E6000EEE5C000E28
:1016B000EE58000EEE58000EEE5822E22D0EE66EA9
:1016C00094DFE552FB0EDBCF1EF0FC0EDBCF1FF0EC
:1016D000FD0EDBCF20F0FE0EDBCF21F02368246867
:1016E000256826684CEC18F0FB0E1AC0DBFFFC0ED8
:1016F0001BC0DBFFFD0E1CC0DBFFFE0E1DC0DBFFB1
:10170000100EDE6E270EDD6ED9CFE9FFDACFEAFFCD
:10171000000ED880EE54000EED5401E3AAD0DECFC7
:1017200000F0DDCF01F0026A036A00C023F001C0BF
:1017300024F002C025F003C026F0FB0EDBCF1EF024
:10174000FC0EDBCF1FF0FD0EDBCF20F0FE0EDBCF5B
:1017500021F085EC13F01E501F102010211036E0F0
:10176000DECF04F0DDCF05F0066A076A04C023F07F
:1017700005C024F006C025F007C026F0FB0EDBCF25
:101780001EF0FC0EDBCF1FF0FD0EDBCF20F0FE0EB7
:10179000DBCF21F085EC13F01EC000F01FC001F07C
:1017A00020C002F021C003F0300E0026000E0122FE
:1017B000022203220050E66E18DFE552010EF36E9E
:1017C000020EF3CFDBFF030EDB6A0ED0D950020FFF
:1017D000E96EDACFEAFF010EEE1806E1ED5004E102
:1017E000300EE66E02DFE552DECF00F0DDCF01F015
:1017F000026A036A00C023F001C024F002C025F091
:1018000003C026F0FB0EDBCF1EF0FC0EDBCF1FF07B
:10181000FD0EDBCF20F0FE0EDBCF21F003C0F5FF85
:1018200085EC13F0F5AE08D0000E1A6C1B1E1B22BF
:101830001C1E1C221D1E1D22FB0E1AC0DBFFFC0EEF
:101840001BC0DBFFFD0E1CC0DBFFFE0E1DC0DBFF5F
:101850000A0E006E016A256E01C026F0DECF20F070
:10186000DDCF21F0FFEC18F020C0DEFF21C0DDFF4E
:101870004BD7040EE15C02E2E16AE552E16EE5520B
:10188000E7CFD9FF1200D9CFE6FFE1CFD9FF040E91
:10189000E126D9CFE9FFDACFEAFFFB0EDBCFEEFF7F
:1018A000FC0EDBCFEEFFFD0EDBCFEEFFFE0EDBCF3F
:1018B000EEFFD9CFE9FFDACFEAFFEECF1EF0EECF91
:1018C0001FF0EECF20F0EFCF21F0E80E236E030ED5
:1018D000246E256A266A85EC13F01E501F10201016
:1018E000211031E0D9CFE9FFDACFEAFFEECF00F0E7
:1018F000EECF01F0EECF02F0EFCF03F0E80E236E53
:10190000030E246E256A266A00C01EF001C01FF077
:1019100002C020F003C021F085EC13F01EC000F0DF
:101920001FC001F020C002F021C003F01EC0E6FF7E
:101930001FC0E6FF20C0E6FF21C0E6FF8ADEE552B9
:10194000E552E552E552D9CFE9FFDACFEAFFEECF13
:101950001EF0EECF1FF0EECF20F0EFCF21F0E80E1B
:10196000236E030E246E256A266A85EC13F01AC0D6
:10197000DEFF1BC0DEFF1CC0DEFF1DC0DDFFDD5231
:10198000DD52D9CFE9FFDACFEAFFEECF00F0EECF9C
:1019900001F0EECF02F0EFCF03F0640E236E246A65
:1019A000256A266A00C01EF001C01FF002C020F0A8
:1019B00003C021F085EC13F01EC000F01FC001F041
:1019C00020C002F021C003F01EC0E6FF1FC0E6FFEA
:1019D00020C0E6FF21C0E6FF3CDEE552E552E552BD
:1019E000E552D9CFE9FFDACFEAFFEECF1EF0EECF16
:1019F0001FF0EECF20F0EFCF21F0640E236E246AAB
:101A0000256A266A85EC13F01AC0DEFF1BC0DEFFD4
:101A10001CC0DEFF1DC0DDFFDD52DD522E0EE66E66
:101A2000E4DDE552D9CFE9FFDACFEAFFEECF00F0EF
:101A3000EECF01F0EECF02F0EFCF03F00A0E236EEF
:101A4000246A256A266A00C01EF001C01FF002C089
:101A500020F003C021F085EC13F01EC000F01FC081
:101A600001F020C002F021C003F01EC0E6FF1FC03D
:101A7000E6FF20C0E6FF21C0E6FFEBDDE552E552C0
:101A8000E552E552D9CFE9FFDACFEAFFEECF00F019
:101A9000EECF01F0EECF02F0EFCF03F00A0E236E8F
:101AA000246A256A266A00C01EF001C01FF002C029
:101AB00020F003C021F085EC13F01AC000F01BC029
:101AC00001F01CC002F01DC003F01AC0E6FF1BC0ED
:101AD000E6FF1CC0E6FF1DC0E6FFBBDDE552E55298
:101AE000E552E552040EE15C02E2E16AE552E16E84
:0E1AF000E552E7CFD9FF1200AECF4CF1120045
:021AFE00D59E73
:101B0000D59C650E206E130E216E32C125F033C1B7
:101B100026F0B9EC13F01EC038F11FC039F103688C
:101B20000468056A32C106F033C107F0086A06503E
:101B3000035C006E07500458016E08500558026E91
:101B4000246A010E256E266A00C01FF001C020F035
:101B500002C021F058EC13F01BC000F01CC001F0D3
:101B60001DC002F01B50D66E03680468056A32C1BE
:101B700006F033C107F0086A0650035C006E075098
:101B80000458016E08500558026E246A010E256E35
:101B9000266A00C01FF001C020F002C021F058ECFE
:101BA00013F01FC000F020C001F021C002F01F5050
:101BB000D76ED59AD586F28AF294F184D58E12002A
:101BC00003680468056A38C106F039C107F0086A7D
:101BD0000650035C006E07500458016E085005580B
:101BE000026E246A010E256E266A00C01FF001C035
:101BF00020F002C021F058EC13F01B50D66E0368A1
:101C00000468056A38C106F039C107F0086A065051
:101C1000035C006E07500458016E08500558026EB0
:101C2000246A010E256E266A00C01FF001C020F054
:101C300002C021F058EC13F01FC000F020C001F0EA
:101C400021C002F01F50D76ED58E1200D59E120013
:101C50001200CD90650E206E130E216E34C125F05A
:101C600035C126F0B9EC13F01EC03AF11FC03BF1AC
:101C700003680468056A1EC006F01FC007F0086A02
:101C80001E50035C006E1F500458016E085005582A
:101C9000026E246A010E256E266A00C01FF001C084
:101CA00020F002C021F058EC13F01FC000F020C05B
:101CB00001F021C002F01F50CF6E03680468056A6E
:101CC0003AC106F03BC107F0086A0650035C006E9B
:101CD00007500458016E08500558026E246A010E20
:101CE000256E266A00C01FF001C020F002C021F05E
:101CF00058EC13F01BC000F01CC001F01DC002F036
:101D00001B50CE6E9D809E909F90CD8ECD8CCD9899
:101D1000CD9ACD96CD92CD80120003680468056AF5
:101D20003AC106F03BC107F0086A0650035C006E3A
:101D300007500458016E08500558026E246A010EBF
:101D4000256E266A00C01FF001C020F002C021F0FD
:101D500058EC13F01F50CF6E03680468056A3AC14F
:101D600006F03BC107F0086A0650035C006E07509E
:101D70000458016E08500558026E246A010E256E43
:101D8000266A00C01FF001C020F002C021F058EC0C
:101D900013F01BC000F01CC001F01DC002F01B506E
:101DA000CE6ECD801200CD9012001200B190650E63
:101DB000206E130E216E36C125F037C126F0B9EC26
:101DC00013F01EC03CF11FC03DF103680468056AB2
:101DD0001EC006F01FC007F0086A1E50035C006EAC
:101DE0001F500458016E08500558026E246A010EF7
:101DF000256E266A00C01FF001C020F002C021F04D
:101E000058EC13F01FC000F020C001F021C002F018
:101E10001F50B36E03680468056A3CC106F03DC1FB
:101E200007F0086A0650035C006E07500458016E04
:101E300008500558026E246A010E256E266A00C0FD
:101E40001FF001C020F002C021F058EC13F01BC0BD
:101E500000F01CC001F01DC002F01B50B26EA08249
:101E6000A192A292B18EB198B19AB192B1801200B2
:101E700003680468056A3CC106F03DC107F0086AC2
:101E80000650035C006E07500458016E0850055858
:101E9000026E246A010E256E266A00C01FF001C082
:101EA00020F002C021F058EC13F01B50B26E036812
:101EB0000468056A3CC106F03DC107F0086A065097
:101EC000035C006E07500458016E08500558026EFE
:101ED000246A010E256E266A00C01FF001C020F0A2
:101EE00002C021F058EC13F01FC000F020C001F038
:101EF00021C002F01F50B36EB1801200B1901200E9
:101F0000020E0F017E1901E17F5130E0010E7E19B2
:101F100001E17F5117E07E5101E17F5101E01200A4
:101F2000E80EE66E030EE66E000EE66EE66A04EC60
:101F300015F0E552E552E552E552010E0F017E6FB4
:101F40007F6B1200000EE66EE66A60EC15F0E5525B
:101F5000E552F4CF01F0010EF31807E1015001E062
:101F60009FD1020E0F017E6F7F6B1200F30EE66EA3
:101F70002F0EE66E03EC0BF0E552E552000EE66E16
:101F8000E66A4BEC07F0E552E5521EC004F01FC0B4
:101F900005F020C006F021C007F01EC01FF005C0EC
:101FA00020F006C021F007C022F0D7EC13F01EC0CD
:101FB00000F01FC001F020C002F021C003F01EC0DD
:101FC000E6FF1FC0E6FF20C0E6FF21C0E6FF43ECAE
:101FD0000CF0E552E552E552E552EA0EE66E2F0EA0
:101FE000E66E03EC0BF0E552E552010EE66EE66A92
:101FF0004BEC07F0E552E5521EC004F01FC005F09F
:1020000020C006F021C007F01EC01FF005C020F060
:1020100006C021F007C022F0D7EC13F01EC000F07C
:102020001FC001F020C002F021C003F01EC0E6FF77
:102030001FC0E6FF20C0E6FF21C0E6FF43EC0CF026
:10204000E552E552E552E552DE0EE66E2F0EE66EE3
:1020500003EC0BF0E552E552020EE66EE66A4BEC3D
:1020600007F0E552E5521EC004F01FC005F020C085
:1020700006F021C007F01EC01FF005C020F006C00A
:1020800021F007C022F0D7EC13F01EC000F01FC0F3
:1020900001F020C002F021C003F01EC0E6FF1FC007
:1020A000E6FF20C0E6FF21C0E6FF43EC0CF0E5525E
:1020B000E552E552E552D20EE66E2F0EE66E03ECC7
:1020C0000BF0E552E552030EE66EE66A4BEC07F0C4
:1020D000E552E5521EC004F01FC005F020C006F016
:1020E00021C007F01EC01FF005C020F006C021F07F
:1020F00007C022F0D7EC13F01EC000F01FC001F0A3
:1021000020C002F021C003F01EC0E6FF1FC0E6FFA2
:1021100020C0E6FF21C0E6FF43EC0CF0E552E5529B
:10212000E552E552C90EE66E2F0EE66E03EC0BF09B
:10213000E552E552040EE66EE66A4BEC07F0E55216
:10214000E5521EC004F01FC005F020C006F021C0FB
:1021500007F01EC01FF005C020F006C021F007C028
:1021600022F0D7EC13F01EC000F01FC001F020C019
:1021700002F021C003F01EC0E6FF1FC0E6FF20C032
:10218000E6FF21C0E6FF43EC0CF0E552E552E552D4
:10219000E552BD0EE66E2F0EE66E03EC0BF0E55237
:1021A000E552050EE66EE66A4BEC07F0E552E552A5
:1021B0001EC004F01FC005F020C006F021C007F0CB
:1021C0001EC01FF005C020F006C021F007C022F09D
:1021D000D7EC13F01EC000F01FC001F020C002F0C9
:1021E00021C003F01EC0E6FF1FC0E6FF20C0E6FFCF
:1021F00021C0E6FF43EC0CF0E552E552E552E55212
:10220000B00EE66E2F0EE66E03EC0BF0E552E552D3
:10221000060EE66EE66A4BEC07F0E552E5521EC08C
:1022200004F01FC005F020C006F021C007F01EC05A
:102230001FF005C020F006C021F007C022F0D7EC47
:1022400013F01EC000F01FC001F020C002F021C03A
:1022500003F01EC0E6FF1FC0E6FF20C0E6FF21C05E
:10226000E6FF43EC0CF0E552E552E552E552A70ECD
:10227000E66E2F0EE66E03EC0BF0E552E552E80E2B
:10228000E66E030EE66E000EE66EE66A04EC15F0EE
:10229000E552E552E552E552010E0F017E6F7F6B6C
:0222A00012002A
:0E22A2000F011E07000E1F5B12000F011E2B06
:1022B000000E1F231200D9CFE6FFE1CFD9FF080E91
:1022C000E126DE6ADE6ADE6ADD6ADD52DD52040E78
:1022D000DB6A050EDB6A060EDB6A070EDB6A0F019E
:1022E000010E1E1901E11F5124E01ECFE9FF1FCF8F
:1022F000EAFF020EE95E000EEA5A010ED890E936B6
:10230000EA36E806FBE1220EE9260F0EEA22EECFBE
:10231000E6FFEFCFE6FF4BEC07F0E552E5521EC0BB
:10232000DEFF1FC0DEFF20C0DEFF21C0DDFFDD526B
:10233000DD521ECFE9FF1FCFEAFFE906000EEA5A81
:10234000010ED890E936EA36E806FBE1220EE926CE
:102350000F0EEA22EECFE6FFEFCFE6FF4BEC07F0E1
:10236000E552E552040E1EC0DBFF050E1FC0DBFF69
:10237000060E20C0DBFF070E21C0DBFFA7EC06F036
:102380001ECFE9FF1FCFEAFFE906000EEA5A010E51
:10239000D890E936EA36E806FBE1000EE9260F0E92
:1023A000EA22EECFE6FFEFCFE6FF000EE66EE66A2A
:1023B000E66EE66A68EC02F0006E060EE15E005022
:1023C0001ECFE9FF1FCFEAFF010ED890E936EA36AB
:1023D000E806FBE1000EE9260F0EEA22EECFE6FF4B
:1023E000EFCFE6FF000EE66EE66A010EE66EE66AE5
:1023F00068EC02F0006E060EE15E00500F01010E67
:102400001E1901E11F513BE0DECF1FF0DECF20F0AF
:10241000DECF21F0DDCF22F0DD52DD52D7EC13F01C
:102420001EC000F01FC001F020C002F021C003F068
:102430001EC0E6FF1FC0E6FF20C0E6FF21C0E6FF8A
:102440001ECFE9FF1FCFEAFF020EE95E000EEA5A37
:10245000010ED890E936EA36E806FBE1100EE926CF
:102460000F0EEA22EECFE6FFEFCFE6FF000EE66E9C
:10247000E66AF7EC03F0046E080EE15E0450040E09
:10248000DBCF1FF0050EDBCF20F0060EDBCF21F0F7
:10249000070EDBCF22F0D7EC13F01EC000F01FC0F8
:1024A00001F020C002F021C003F01EC0E6FF1FC0F3
:1024B000E6FF20C0E6FF21C0E6FF1ECFE9FF1FCFE9
:1024C000EAFFE906000EEA5A010ED890E936EA362C
:1024D000E806FBE1100EE9260F0EEA22EECFE6FF3A
:1024E000EFCFE6FF010EE66EE66AF7EC03F0046E4E
:1024F000080EE15E0450F5EC06F0080EE15C02E225
:10250000E16AE552E16EE552E7CFD9FF1200D3DE72
:10251000030E0F01201901E1215170E0020E201974
:1025200001E1215129E0010E201901E121510BE0C7
:10253000205101E1215101E01200010E206F216BB9
:102540001E6F1F6B1200010E1E6F1F6B050EE66ED5
:10255000E66A30EC17F0E552E552F3CF00F0F4CF25
:1025600001F0010EF31807E1015060E19FDE020E59
:102570000F01206F216B1200010EE66EE66A30EC4F
:1025800017F0E552E552F3CF00F0F4CF01F0010E61
:10259000F31814E1015012E11ECF00F01FCF01F03B
:1025A0000006000E015A010E001807E1015005E176
:1025B000010E0F01206F216B01D073DE050EE66E58
:1025C000E66A30EC17F0E552E552F4CF01F0010E67
:1025D000F31813E101502AE1010E0F01016A1E25D3
:1025E000006E1F510122070E001806E1015004E1A0
:1025F000030E206F216B120059DE1200070E1E6FB2
:102600001F6B010EE66EE66A30EC17F0E552E552FC
:10261000F3CF00F0F4CF01F0010EF31807E1015001
:0E26200005E13FDE020E0F01206F216B12005C
:02262E00199EF3
:102630000CD0199E21AE09D01E6C1F1E201E211E1B
:10264000E86A1F2220222122198E21C01BF020C0FF
:102650001AF01FC02BF01EC02AF09E0E1C6E1D6AC1
:102660002AEF14F0186A26AE3BEF13F0256C261EF5
:10267000E86A2622181E21AE43EF13F0206C211EBB
:10268000E86A2122181EFFEC18F021BE53EF13F068
:1026900018AE000C206C211EE86A21221C6C1D1E45
:1026A000E86A1D22000C18BE4AEF13F01988FF0CCF
:1026B000186A26AE63EF13F0246C251E261EE86A06
:1026C00025222622181E21AE6DEF13F01F6C201E4E
:1026D000211EE86A20222122181EC7EC18F021BE14
:1026E00080EF13F018AE000C1F6C201E211EE86A4C
:1026F000202221221B6C1C1E1D1E1C221D22000CD0
:1027000018BE74EF13F01988FF0C186AE86A26AE39
:1027100092EF13F0236C241E251E261E2422252250
:102720002622181E21AE9DEF13F01E6C1F1E201EC8
:10273000211E1F2220222122181E84EC18F021BE07
:10274000B4EF13F018AE000C1E6C1F1E201E211ECD
:10275000E86A1F22202221221A6C1B1E1C1E1D1E2D
:102760001B221C221D22000C18BEA4EF13F0198896
:10277000FF0C20C02AF020502502F4CF1FF0F3CF29
:102780001EF021502602F4CF21F0F3CF20F02502D5
:10279000F3501F26F4502022E86A21222A502602F4
:1027A000F3501F26F4502022E86A2122000C196AF7
:1027B00066EC14F019B6E1EF13F019A20FD019B4BA
:1027C00007D07F0E216EFF0E206E1F6E1E6E25D06D
:1027D000800E216E01D0216A000EF6D719B0FBD70A
:1027E0001E6A9F0E2260EBD77E0E2264F4D79E0EE7
:1027F000225C07E0D890213220321F321E32222A7A
:10280000F6D719A40AD01E6C1F1E201E211EE86ACE
:102810001F222022212221AEDED712007F0E226E3F
:10282000FF0E216E206E1F6E12007F0E19BEFF0E6E
:10283000226E02D07F0E226E800E216E206A1F6AE9
:10284000F3D719AE04D0800E226E216AF7D7226A20
:10285000216AF4D71B501A102B102A10F8E01DBE65
:10286000F0D71BBE0CD01C501D10EBE0D8902A36C0
:102870002B361A361B361C06D8A01D06F2D71D5063
:10288000D4E11C28D2E02AAE11D07F0E2A1402E136
:102890002BA00CD02B2AE86A1A221B2207E3D8802F
:1028A0001B321A322B321C2A1C28BFE01C50C9E0F4
:1028B0002BC01FF01AC020F01B34216E1C30226E7A
:1028C0002132229E19BE228E14EF14F021362236B8
:1028D00002E31984197E06E11980226A216A206ABE
:1028E0001F6A1200222803E0D88021321200D890FB
:1028F000213202E11982120019861200263627368B
:1029000002E3198C197E06E11988276A266A256A6E
:10291000246A1200272803E0D88026321200D890BB
:082920002632EAE1198A1200D7
:08292800D9CFE6FFE1CFD9FF92
:10293000020EE126DE6ADD6ADE6ADD6ADECF00F0C5
:10294000DDCF01F0D890015004E6010E005C000ECE
:10295000015850E2DECFE9FFDDCFEAFFD890E9363B
:10296000EA364A0EE926010EEA22000ED880EE541D
:10297000000EED543AE2DECFE9FFDDCFEAFFD8905A
:10298000E936EA364A0EE926010EEA22EE06000E84
:10299000EF5ADECFE9FFDDCFEAFFD890E936EA361D
:1029A0004A0EE926010EEA22000ED880EE54000EEF
:1029B000ED541BE3DECFE9FFDDCFEAFFD890E93627
:1029C000EA364A0EE926010EEA22EE6AED6ADECF09
:1029D000E9FFDDCFEAFFD890E936EA36480EE9266E
:1029E000010EEA22010EEE6EED6ADF2A010EA6E369
:1029F000DB2AA4D7020EE15C02E2E16AE552E16E55
:102A0000E552E7CFD9FF1200D9CFE6FFE1CFD9FFDA
:102A1000FD0EDBCF00F0FE0EDBCF01F0000E005C00
:102A2000000E01580BE3FD0EDBCF02F0FE0EDBCFF4
:102A300003F0010E025C000E035802E3F36A3BD080
:102A4000FB0EDBCF00F0FC0EDBCF01F00A0E256E93
:102A5000266A00C020F001C021F0FFEC18F020C071
:102A600000F021C001F0FD0EDBCFE9FFFE0EDBCF51
:102A7000EAFF010ED890E936EA36E806FBE14A0E95
:102A8000E926010EEA2200C0EEFF01C0EDFFFD0EB7
:102A9000DBCFE9FFFE0EDBCFEAFF010ED890E9366F
:102AA000EA36E806FBE1480EE926010EEA22EE6A64
:102AB000ED6A010EF36EF46AE552E7CFD9FF12001A
:102AC000D9CFE6FFE1CFD9FFFD0EDBCF00F0FE0E40
:102AD000DBCF01F0000E005C000E01580BE3FD0E91
:102AE000DBCF02F0FE0EDBCF03F0010E025C000E26
:102AF000035802E3F36A2BD0FD0EDBCFE9FFFE0E95
:102B0000DBCFEAFF010ED890E936EA36E806FBE1B2
:102B1000480EE926010EEA22010EEE1817E1ED50EB
:102B200015E1FD0EDBCFE9FFFE0EDBCFEAFF010E64
:102B3000D890E936EA36E806FBE1480EE926010EB0
:102B4000EA22EE6AED6A010EF36E01D0F36AF46ACE
:082B5000E552E7CFD9FF1200A6
:082B5800F28ED08EF28C120007
:102B6000F19CF292F2881200D8CFE4FFE0CFE4FFAC
:102B7000E46EDACFE4FFE2CFDAFFE9CFE4FFEACF99
:102B8000E4FFF6CFE4FFF7CFE4FFF5CFE4FFF3CFA8
:102B9000E4FFF4CFE4FFFACFE4FF00EE18F0140EE8
:102BA000E80403E3EECFE4FFFBD700EE00F0180EDD
:102BB000E80403E3EECFE4FFFBD7E652F2A407D02C
:102BC00026EC0EF0F294E0EC0DF028EC0EF09EA056
:102BD00007D0D3EC0EF09E908DEC0EF0D5EC0EF0FD
:102BE000A1A207D07EEC0FF0A19238EC0FF0BFEC61
:102BF00018F0F2B2F2929EAA03D09E9A7CEC0DF0ED
:102C0000E55200EE17F0180EE80403E3E5CFEDFF00
:102C1000FBD700EE2BF0140EE80403E3E5CFEDFF45
:102C2000FBD7E5CFFAFFE5CFF4FFE5CFF3FFE5CF24
:102C3000F5FFE5CFF7FFE5CFF6FFE5CFEAFFE5CFFC
:102C4000E9FFE5CFDAFFE550E5CFE0FFE5CFD8FFBC
:102C50001000DACFE4FFE2CFDAFFE9CFE4FFEACFFA
:102C6000E4FFF6CFE4FFF7CFE4FFF5CFE4FFF3CFC7
:102C7000E4FFF4CFE4FFFACFE4FF00EE18F0140E07
:102C8000E80403E3EECFE4FFFBD700EE00F0180EFC
:102C9000E80403E3EECFE4FFFBD7E652F2A407D04B
:102CA00026EC0EF0F294E0EC0DF028EC0EF09EA075
:102CB00007D0D3EC0EF09E908DEC0EF0D5EC0EF01C
:102CC000A1A207D07EEC0FF0A19238EC0FF0BFEC80
:102CD00018F0F2B2F2929EAA03D09E9A7CEC0DF00C
:102CE000E55200EE17F0180EE80403E3E5CFEDFF20
:102CF000FBD700EE2BF0140EE80403E3E5CFEDFF65
:102D0000FBD7E5CFFAFFE5CFF4FFE5CFF3FFE5CF43
:102D1000F5FFE5CFF7FFE5CFF6FFE5CFEAFFE5CF1B
:082D2000E9FFE5CFDAFF110025
:082D2800CF0E9414946E826832
:102D30001200D9CFE6FFE1CFD9FF040EE126DE6A0B
:102D4000DD6A020EDB6A030EDB6ADE6ADD6ADECF55
:102D500000F0DDCF01F0D890015004E6020E005CD7
:102D6000000E015873E2300E8210826EDECFE9FF52
:102D7000DDCFEAFF1A0EE926010EEA22EF1C8214CB
:102D8000826E0F0E8210826E020EDB6A030EDB6A09
:102D9000020EDBCF00F0030EDBCF01F0D890015024
:102DA00004E6040E005C000E01584AE2020EDBCF7E
:102DB000E9FF030EDBCFEAFF1E0EE926010EEA2231
:102DC000EF5082141CE1DECF00F0DDCF01F0D8908F
:102DD00000360136D89000360136020EDB50002452
:102DE000E96E030EDB500120EA6ED890E936EA3630
:102DF000220EE926010EEA22010EEE6E1AD0DECF77
:102E000000F0DDCF01F0D89000360136D8900036C2
:102E10000136020EDB500024E96E030EDB50012068
:102E2000EA6ED890E936EA36220EE926010EEA2249
:102E3000EE6AED6A020EDB2A030EAAE3DB2AA8D7AC
:102E4000DF2A010E01E283D7DB2A81D7040EE15C81
:102E500002E2E16AE552E16EE552E7CFD9FF1200E6
:102E6000D9CFE6FFE1CFD9FFFD0EDBCF00F0FE0E9C
:102E7000DBCF01F0000E005C000E01580BE3FD0EED
:102E8000DBCF02F0FE0EDBCF03F0080E025C000E7B
:102E9000035803E3F36AF46A18D0FD0EDBCFE9FFB1
:102EA000FE0EDBCFEAFF010ED890E936EA36E806DF
:102EB000FBE1220EE926010EEA22EECF00F0EFCF71
:102EC00001F000C0F3FF01C0F4FFE552E7CFD9FFE6
:022ED0001200EE
:0E2ED2001E0EF66E000EF76E000EF86E010179
:102EE0000900F550436F0900F550446F03E1436753
:102EF00001D03DD00900F5503E6F0900F5503F6FFD
:102F00000900F550406F09000900F550E96E09000D
:102F1000F550EA6E090009000900F550416F0900FB
:102F2000F550426F09000900F6CF45F1F7CF46F1A1
:102F3000F8CF47F13EC1F6FF3FC1F7FF40C1F8FFB0
:102F40000101415302E1425307E00900F550EE6EE2
:102F50004107F8E24207F9D745C1F6FF46C1F7FF3E
:102F600047C1F8FF01014307000E445BBFD71200C1
:102F7000464C4F573A20004E4F333A20004E4834CB
:102F80003A200054454D503A2000434F443A200027
:102F900053533A200070483A200053454E534F5245
:102FA0002056414C554500206D332F68200D0A00F6
:102FB000206D672F6C20464C4F573D2000206D67D9
:102FC0002F6C204E4F333D20002043204E48343D8F
:102FD0002000206D672F6C20544D503D2000206D47
:102FE000672F6C204353423D2000207048205353EC
:102FF0003D200032302E30342E31362030393A31F7
:0C300000323A3037202070483D2020007C
:04300C000F0E926EA3
:103010000B0EC16E040EC06E1200D9CFE6FFE1CFD9
:10302000D9FF020EE126FE0EDB50040DF350C26EF6
:10303000C280C282C2B2FED7C450DE6EDD6ADECF6D
:1030400002F0DDCF03F0D89002360336D890023676
:103050000336060EC3CFE7FF070B04E0E742E79E07
:10306000E806FCE1E7500224006E000E032000C0D9
:10307000DEFFDD6EDECF00F0DDCF01F000C0F3FF3C
:1030800001C0F4FF020EE15C02E2E16AE552E16E8A
:08309000E552E7CFD9FF120061
:083098001E502302F3CF1AF0D1
:1030A000F4CF1BF02402F3501B26000EF4201C6EFC
:1030B0001E502502F3501C26000EF4201D6E1E50DB
:1030C0002602F3501D261F502302F3501B26F450F6
:1030D0001C22000E1D221F502402F3501C26F45007
:1030E0001D221F502502F3501D2620502302F350AD
:1030F0001C26F4501D2220502402F3501D2621507E
:083100002302F3501D2612000A
:083108001D6A1C6A1B6A1A6AA9
:10311000200EE76ED8901E361F36203621361A361E
:103120001B361C361D3623501A5C24501B58255064
:103130001C5826501D5809E323501A5E24501B5A70
:1031400025501C5A26501D5A1E2AE72EE4D712007D
:103150000ED805D887EC12F080EC0FF0FBD794EC7A
:1031600016F07DEC01F0E3EC0AF006EF18F00A0E21
:103170000101366F376BACEC15F0D6EF0EF094EC26
:0E31800014F099EC16F0A0EC07F048EF0AF0FE
:02318E001D6AB8
:103190001C6A1B6A180EE76ED8901F36203621363F
:1031A0001B361C361D3624501B5C25501C582650DF
:1031B0001D5807E324501B5E25501C5A26501D5AEB
:0831C0001F2AE72EEAD71200D6
:0831C800CA94CA90CA82CB68C8
:1031D000BD98BD9ABE6ABD9CBD9EBD90BD92BD848A
:1031E000BD869494CA841200D9CFE6FFE1CFD9FFFF
:0E31F000FE0EDB50BE6EE552E7CFD9FF120097
:0231FE001D6A48
:103200001C6A100EE76ED890203621361C361D360B
:1032100025501C5C26501D5805E325501C5E265089
:0A3220001D5A202AE72EF0D71200F5
:06322A00800EF36E00EEC1
:1032300000F00F0E01D81200EA6002D0EE6AFCD74F
:0A324000F350E9601200EE6AFCD7BB
:06324A001EEE00F02EEE66
:1032500000F0F86A199C69EC17F003EC00F0A8EC98
:0632600018F0FBD712007C
:0A3266000000FF030000000000005C
:1032700000000000E8039001102700001027000064
:103280008813C4098813E8031027D007A08C000016
:0C32900000000000000000000000000032
:04329C0020202020AE
:1032A000202020202020202020202020202020201E
:1032B000202020202020202020202020010000008D
:1032C00010204080010204080000000000000000FF
:0832D0000000000000000000F6
:0832D8000000000000000000EE
:1032E00000000000000000000000000000000000DE
:0232F0000000DC
:0E32F2009A2F952F902F8A2F832F7D2F772FC5
:10330000702F0400040005000600050005000600FB
:10331000010000000000010002000300040005009D
:023320000600A5
:020000040030CA
:0100010002FC
:0100020003FA
:010003001EDE
:010005008179
:010006008178
:010008000FE8
:01000900C036
:01000A000FE6
:01000B00E014
:01000C000FE4
:01000D0040B2
:00000001FF
