:020000040000FA
:060000003BEF0FF01200BF
:020006001200E6
:060008008BEF0CF012006A
:02000E000000F0
:020010000000EE
:0600180016EF0CF01200CF
:02001E000700D9
:10002000F41E0000A400000022000000DA1E000000
:10003000C60000001A000000C21E0000E000000020
:10004000180000009E1E0000800000002400000038
:10005000921E0000000F00000C000000C11D0000F7
:10006000FC000000010000000E000000F80000008D
:040070000400000088
:0C007400D9CFE6FFE1CFD9FF040EE12652
:10008000DE6ADD6A020EDB6A030EDB6ADE6ADD6AA7
:10009000DECF14F0DDCF15F0166A176A15AE02D068
:1000A00016681768D950FB0FE96EFF0EDA20EA6E6A
:1000B000EE50145CEE501558EE501658EE5017588E
:1000C0001DE2020EDB6A030EDB6A020EDBCF14F0C8
:1000D000030EDBCF15F0D890155004E6A00E145C8B
:1000E000000E155806E2020EDB2A030EEEE3DB2AB1
:1000F000ECD7DF2A010ECCE3DB2ACAD7040EE15C81
:1001000002E2E16AE552E16EE552E7CFD9FF120063
:10011000D9CFE6FFE1CFD9FFFE0EDB50F00B146E16
:100120000F0E81141410816E81848186010EE66E9B
:10013000E66AE66AE66A9EDFE552E552E552E55276
:100140008196010EE66EE66AE66AE66A93DFE5529C
:10015000E552E552E552FE0EDB38F00B146E0F0E41
:1001600081141410816E8186010EE66EE66AE66ADD
:10017000E66A80DFE552E552E552E55281968194C8
:10018000030EE66EE66AE66AE66A74DFE552E55259
:10019000E552E552E552E7CFD9FF1200D9CFE6FF8D
:1001A000E1CFD9FFFD0EDBCFF6FFFE0EDBCFF7FF71
:1001B0000800F55011E0FD0EDBCFF6FFFE0EDBCFA1
:1001C000F7FF0800F550E66EA3DFE552FD0EDB2ACF
:1001D000FE0EE8E3DB2AE6D7E552E7CFD9FF1200AF
:1001E000D9CFE6FFE1CFD9FFA0C014F0A1C015F030
:1001F000040ED89014361536E806FBE1800E14265E
:10020000000E152214500001A225E96E1550A321FD
:10021000EA6EFE0EDBCFEFFFA22B000EA323100E23
:10022000A3AF02D0D89003D0A25D000EA35905E37E
:10023000A02B000EA123A26BA36B030EA1AF02D0D3
:10024000D89003D0A05D000EA15902E3A06BA16B72
:10025000E552E7CFD9FF1200D9CFE6FFE1CFD9FFB2
:10026000FE0EDB50F00B146E0F0E81141410816E15
:1002700081948186010EE66EE66AE66AE66AFADE37
:10028000E552E552E552E5528196010EE66EE66AC8
:10029000E66AE66AEFDEE552E552E552E552FE0E09
:1002A000DB38F00B146E0F0E81141410816E8186F2
:1002B000010EE66EE66AE66AE66ADCDEE552E552C3
:1002C000E552E5528196030EE66EE66AE66AE66A54
:1002D000D1DEE552E552E552E552E552E7CFD9FFCE
:1002E0001200D9CFE6FFE1CFD9FF020EE126DE6A88
:1002F000DD6A0001A26BA36B010EA06FA16BDE6A29
:10030000DD6ADECF14F0DDCF15F0200E145C000E98
:1003100015582BE2DECF14F0DDCF15F0040E0F0BD5
:1003200005E0D89015321432E806FBE1040ED890AF
:1003300014361536E806FBE1800E1426000E152251
:10034000DECF16F0DDCF17F00001176A0F0E16167C
:1003500014501624E96E15501720EA6E200EEF6E29
:10036000DF2A010ECEE3DB2ACCD7936A816A190E0D
:10037000E66EE66AE66AE66A7DDEE552E552E55239
:10038000E552020EE66E68DFE552280EE66E64DF87
:10039000E552010EE66E60DFE5520C0EE66E5CDFA4
:1003A000E552060EE66E58DFE552020EE15C02E20F
:1003B000E16AE552E16EE552E7CFD9FF1200010E86
:1003C000E66E4ADFE552030EE66EE66AE66AE66A24
:1003D00051DEE552E552E552E5521200D9CFE6FF73
:1003E000E1CFD9FFE652DF6AFE0EDB5005E1FD0EDC
:1003F000DB500F0B800904D0FD0EDB500F0BC00942
:10040000DF6EDFCFE6FF28DFE552FB0EDBCFE6FF36
:10041000FC0EDBCFE6FFC2DEE552E552E552E552C7
:10042000E7CFD9FF1200D9CFE6FFE1CFD9FFFD0E0C
:10043000DBCFA0F00001A16B010EA017FB0EDBCFFC
:10044000A2F0A36B0F0EA217A0C014F0A1C015F06C
:10045000040ED89014361536E806FBE1800E1426FB
:10046000000E152214500001A225E96E1550A3219B
:10047000EA6EFA0EDBCFEFFFA22B000EA323100EC5
:10048000A3AF02D0D89003D0A25D000EA35905E31C
:10049000A02B000EA123A26BA36B030EA1AF02D071
:1004A000D89003D0A05D000EA15902E3A06BA16B10
:1004B000E552E7CFD9FF1200D9CFE6FFE1CFD9FF50
:1004C000FD0EDBCFA0F00001A16B010EA017FB0E0B
:1004D000DBCFA2F0A36B0F0EA217F90EDBCFF6FF56
:1004E000FA0EDBCFF7FF0800F55047E0F90EDBCF3F
:1004F000F6FFFA0EDBCFF7FF0800F550E66EA0C05E
:1005000014F0A1C015F0040ED89014361536E80684
:10051000FBE1800E1426000E152214500001A225C6
:10052000E96E1550A321EA6EE552E750EF6EA22B5B
:10053000000EA323100EA3AF02D0D89003D0A25D6B
:10054000000EA35905E3A02B000EA123A26BA36B01
:10055000020EA1AF02D0D89003D0A05D000EA15929
:1005600002E3A06BA16BF90EDBCFF6FFDB2AFA0EDC
:10057000DBCFF7FFB2E3DB2AB0D7E552E7CFD9FFF5
:100580001200D9CFE6FFE1CFD9FF060EE126DE6AE1
:10059000DD6AF70EDBCF07F0F80EDBCF08F0F90EBF
:1005A000DBCF09F0FA0EDBCF0AF0B1EC08F0020E57
:1005B00008C0DBFF030E09C0DBFF040EDB6A050E7B
:1005C000DB6AFD0EDBCFA0F0FE0EDBCFA1F0000159
:1005D000A16B010EA017FB0EDBCFA2F0FC0EDBCF50
:1005E000A3F0A36B0F0EA217F70EDBCF07F0F80EE8
:1005F000DBCF08F0F90EDBCF09F0FA0EDBCF0AF003
:100600000C6A0D6A0E6A0F6AE0EC08F0010A04E158
:10061000300EE66EE5DDE552F70EDBCF14F0F80E96
:10062000DBCF15F0F90EDBCF16F0FA0EDBCF17F0AB
:100630000C6A0D6A0E6A0F6A14C007F015C008F044
:1006400016C009F017C00AF0E7EC08F0010A2CE127
:100650002D0EE66EC5DDE552F70EDBCF14F0F80E79
:10066000DBCF15F0F90EDBCF16F0FA0EDBCF17F06B
:100670000C6A0D6A800E0E6EBF0E0F6E14C007F06E
:1006800015C008F016C009F017C00AF0D3EC07F047
:10069000F70E07C0DBFFF80E08C0DBFFF90E09C03C
:1006A000DBFFFA0E0AC0DBFFE80EDE6E030EDD6E26
:1006B000D9CFE9FFDACFEAFF000ED880EE54000E62
:1006C000ED5461E2020EDBCF08F0030EDBCF09F040
:1006D000DECF0DF0DDCF0EF015EC0FF008C014F0FA
:1006E00009C015F0085009101DE0020EDBCF08F01C
:1006F000030EDBCF09F0DECF0DF0DDCF0EF015ECF1
:100700000FF008C014F009C015F0300E0824E66E92
:1007100067DDE552010EF36E040EF3CFDBFF050E2D
:10072000DB6A0ED0D950040FE96EDACFEAFF010E72
:10073000EE1806E1ED5004E1300EE66E51DDE552B3
:10074000020EDBCF08F0030EDBCF09F0DECF0DF099
:10075000DDCF0EF015EC0FF0020E04C0DBFF030E30
:1007600005C0DBFF0A0E146E156A0D6E15C00EF083
:10077000DECF08F0DDCF09F015EC0FF008C0DEFF8A
:1007800009C0DDFF95D72E0EE66E2ADDE552F70E85
:10079000DBCF14F0F80EDBCF15F0F90EDBCF16F03F
:1007A000FA0EDBCF17F00C6A0D6AC80E0E6E420E01
:1007B0000F6E14C007F015C008F016C009F017C07E
:1007C0000AF0D3EC07F0F70E07C0DBFFF80E08C005
:1007D000DBFFF90E09C0DBFFFA0E0AC0DBFFF70EE4
:1007E000DBCF07F0F80EDBCF08F0F90EDBCF09F016
:1007F000FA0EDBCF0AF0B1EC08F008C014F009C023
:1008000015F0640E0D6E0E6A40EC08F004C014F092
:1008100005C015F0020E04C0DBFF030E05C0DBFFB0
:10082000020EDBCF14F0030EDBCF15F00A0E0D6EB7
:100830000E6A14C008F015C009F040EC08F008C0BA
:1008400014F009C015F0300E0824E66EC9DCE5523C
:10085000020EDBCF14F0030EDBCF15F00A0E0D6E87
:100860000E6A14C008F015C009F040EC08F004C08E
:1008700014F005C015F0300E0424E66EB1DCE5522C
:10088000060EE15C02E2E16AE552E16EE552E7CF75
:10089000D9FF1200D9CFE6FFE1CFD9FF030EE12641
:1008A000200EDF6E010EDB6A020EDB6A010EDB6AD0
:1008B000020EDB6A010EDBCF14F0020EDBCF15F067
:1008C000100E145C000E155837E2010EDBCFE9FF65
:1008D000020EDBCFEAFF800EE926000EEA22EFCF00
:1008E000DFFF010EDBCFE9FF020EDBCFEAFF900E48
:1008F000E926000EEA22EF50E66E010EDBCFE9FF9B
:10090000020EDBCFEAFF800EE926000EEA22E55256
:10091000E750EF6E010EDBCFE9FF020EDBCFEAFFFF
:10092000900EE926000EEA22DFCFEFFF010EDB2A50
:10093000020EC0E3DB2ABED7D950FD0FE96EFF0ED1
:10094000DA20EA6EEE50ED100BE0D950FD0FE96EA3
:10095000FF0EDA20EA6E010EEE180BE1ED5009E110
:10096000FD0EDBCFE6FFFE0EDBCFE6FF38D8E5520B
:10097000E552030EE15C02E2E16AE552E16EE55206
:10098000E7CFD9FF1200D9CFE6FFE1CFD9FFFD0EA7
:10099000DBCFA0F00001A16B010EA017FB0EDBCF97
:1009A000A2F0A36B0F0EA217A0C014F0A1C015F007
:1009B000040ED89014361536E806FBE1800E142696
:1009C000000E152214500001A225E96E1550A32136
:1009D000EA6E200EEF6EE552E7CFD9FF1200D9CFB5
:1009E000E6FFE1CFD9FF020EE126DE6ADD6AFD0EE9
:1009F000DBCFA0F00001A16B010EA017DE6ADD6A5B
:100A0000DECF14F0DDCF15F0100E145C000E15587B
:100A10001BE2A0C014F0A1C015F0040ED89014364B
:100A20001536E806FBE1800E1426000E1522DE5076
:100A30001424E96EDD501520EA6E200EEF6EDF2AD9
:100A4000010EDEE3DB2ADCD7020EE15C02E2E16AA2
:100A5000E552E16EE552E7CFD9FF1200D9CFE6FFAC
:100A6000E1CFD9FF020EE126DE6ADD6A0001A26B4A
:100A7000A36B010EA06FA16BDE6ADD6ADECF14F0FE
:100A8000DDCF15F0200E145C000E15582BE2DECFE2
:100A900014F0DDCF15F0040E0F0B05E0D8901532E1
:100AA0001432E806FBE1040ED89014361536E80639
:100AB000FBE1800E1426000E1522DECF16F0DDCFEE
:100AC00017F00001176A0F0E161614501624E96E5F
:100AD00015501720EA6E200EEF6EDF2A010ECEE3CE
:100AE000DB2ACCD7020EE15C02E2E16AE552E16E5C
:100AF000E552E7CFD9FF1200D9CFE6FFE1CFD9FF0A
:100B0000020EE126DE6ADD6A800EE66E2CEC01F054
:100B1000E552DE6ADD6ADECF14F0DDCF15F0100E8F
:100B2000145C000E155812E2DECFE9FFDDCFEAFFBC
:100B3000800EE926000EEA22EF50E66E88EC00F007
:100B4000E552DF2A010EE7E3DB2AE5D7C00EE66EA9
:100B50002CEC01F0E552DE6ADD6ADECF14F0DDCF69
:100B600015F0100E145C000E155812E2DECFE9FFEE
:100B7000DDCFEAFF900EE926000EEA22EF50E66E86
:100B800088EC00F0E552DF2A010EE7E3DB2AE5D727
:100B9000020EE15C02E2E16AE552E16EE552E7CF66
:040BA000D9FF120067
:0C0BA400D59ED59C650E086E130E096EE0
:100BB00000CF0DF001CF0EF093EC08F006C006FF59
:100BC00007C007FF17681868196A00CF1AF001CF2D
:100BD0001BF01C6A1A50175C146E1B501858156EC7
:100BE0001C501958166E0C6A010E0D6E0E6A14C058
:100BF00007F015C008F016C009F066EC08F003C055
:100C000014F004C015F005C016F00350D66E176836
:100C10001868196A00CF1AF001CF1BF01C6A1A502D
:100C2000175C146E1B501858156E1C501958166E10
:100C30000C6A010E0D6E0E6A14C007F015C008F0A4
:100C400016C009F066EC08F007C014F008C015F0F3
:100C500009C016F00750D76ED59AD586F28AF2945D
:100C6000F184D58E120017681868196A06CF1AF039
:100C700007CF1BF01C6A1A50175C146E1B501858D3
:100C8000156E1C501958166E0C6A010E0D6E0E6A08
:100C900014C007F015C008F016C009F066EC08F0A3
:100CA0000350D66E17681868196A06CF1AF007CF76
:100CB0001BF01C6A1A50175C146E1B501858156EE6
:100CC0001C501958166E0C6A010E0D6E0E6A14C077
:100CD00007F015C008F016C009F066EC08F007C070
:100CE00014F008C015F009C016F00750D76ED58E65
:100CF0001200D59E12001200CD90650E086E130EE4
:100D0000096E02CF0DF003CF0EF093EC08F006C091
:100D100008FF07C009FF17681868196A06C01AF0AB
:100D200007C01BF01C6A0650175C146E0750185859
:100D3000156E1C501958166E0C6A010E0D6E0E6A57
:100D400014C007F015C008F016C009F066EC08F0F2
:100D500007C014F008C015F009C016F00750CF6E98
:100D600017681868196A08CF1AF009CF1BF01C6AB7
:100D70001A50175C146E1B501858156E1C501958D9
:100D8000166E0C6A010E0D6E0E6A14C007F015C0C7
:100D900008F016C009F066EC08F003C014F004C0B7
:100DA00015F005C016F00350CE6E9D809E909F906A
:100DB000CD8ECD8CCD98CD9ACD96CD92CD80120092
:100DC00017681868196A08CF1AF009CF1BF01C6A57
:100DD0001A50175C146E1B501858156E1C50195879
:100DE000166E0C6A010E0D6E0E6A14C007F015C067
:100DF00008F016C009F066EC08F00750CF6E1768CF
:100E00001868196A08CF1AF009CF1BF01C6A1A502B
:100E1000175C146E1B501858156E1C501958166E1E
:100E20000C6A010E0D6E0E6A14C007F015C008F0B2
:100E300016C009F066EC08F003C014F004C015F009
:100E400005C016F00350CE6ECD801200CD9012007A
:100E50001200B190650E086E130E096E04CF0DF0EE
:100E600005CF0EF093EC08F006C00AFF07C00BFF99
:100E700017681868196A06C01AF007C01BF01C6AC8
:100E80000650175C146E07501858156E1C501958F0
:100E9000166E0C6A010E0D6E0E6A14C007F015C0B6
:100EA00008F016C009F066EC08F007C014F008C09E
:100EB00015F009C016F00750B36E17681868196A64
:100EC0000ACF1AF00BCF1BF01C6A1A50175C146E75
:100ED0001B501858156E1C501958166E0C6A010ECE
:100EE0000D6E0E6A14C007F015C008F016C009F0A8
:100EF00066EC08F003C014F004C015F005C016F04D
:100F00000350B26EA082A192A292B18EB198B19A12
:100F1000B192B180120017681868196A0ACF1AF0E6
:100F20000BCF1BF01C6A1A50175C146E1B5018581C
:100F3000156E1C501958166E0C6A010E0D6E0E6A55
:100F400014C007F015C008F016C009F066EC08F0F0
:100F50000350B26E17681868196A0ACF1AF00BCFDF
:100F60001BF01C6A1A50175C146E1B501858156E33
:100F70001C501958166E0C6A010E0D6E0E6A14C0C4
:100F800007F015C008F016C009F066EC08F007C0BD
:100F900014F008C015F009C016F00750B36EB18008
:060FA0001200B1901200E6
:0A0FA600016A9DEC09F0B5EC09F0BA
:100FB00001B645EF09F001A205D001B845EF09F0EF
:100FC0004CEF09F001AA05D001B045EF09F04CEF54
:100FD00009F001B002D001A802D058EF09F0056A6B
:100FE0000F500A24046EE86A05227E0E045EE86A49
:100FF000055A126A136A026A036A0E500902F4CF94
:1010000003F0F3CF02F00D500902F3501326F45011
:101010000222000E03220E500802F3501326F45051
:101020000222000E03220C500902F3501226F45043
:101030001322000E022203220D500802F350122642
:10104000F4501322000E022203220E500702F35026
:101050001226F4501322000E022203220C50080222
:10106000F4501226000E1322022203220D50070212
:10107000F4501226000E13220222032261EF09F01F
:10108000006A0EAE49EF08F00D6C0E1EE86A0E22E3
:10109000001E09AE51EF08F0086C091EE86A09222B
:1010A000001E15EC0FF009BE61EF08F000AE000C59
:1010B000086C091EE86A0922046C051EE86A05220C
:1010C000000C00BE58EF08F00188FF0C006A0EAE5D
:1010D00071EF08F00C6C0D1E0E1EE86A0D220E2238
:1010E000001E09AE7BEF08F0076C081E091EE86AB7
:1010F00008220922001EA8EC0EF009BE8EEF08F0AF
:1011000000AE000C076C081E091EE86A08220922BE
:10111000036C041E051E04220522000C00BE82EF93
:1011200008F00188FF0C08C012F008500D02F4CF3F
:1011300007F0F3CF06F009500E02F4CF09F0F3CF19
:1011400008F00D02F3500726F4500822E86A09223D
:1011500012500E02F3500726F4500822E86A0922C2
:10116000000C016A9DEC09F001B6BBEF08F001A28A
:101170000ED001B405D07F0E096EFF0E086E1FD091
:10118000800E096E086A1BD0096A086A18D001B07F
:10119000FBD78F0E0A60EDD77E0E0A64F5D78E0E50
:1011A0000A5C05E0D890093208320A2AF8D701A46F
:1011B00006D0086C091EE86A092209AEE5D71200BC
:1011C000F0EC08F001B6000C01B0010C000CF0ECE2
:1011D00008F001B6000C01B0000C01A4000C010CD9
:1011E000016A9DEC09F0B5EC09F001B6120001AE00
:1011F00008D001A004D001A802D001801200019003
:1012000012000F500A5C0BE10E50095C08E10D5012
:10121000085C05E10C50075C02E101801200D8A0D7
:1012200002D0018E10D00A500FC00AF00F6E095084
:101230000EC009F00E6E08500DC008F00D6E07507C
:101240000CC007F00C6E0F500A5C10E0FF0F09E0B5
:10125000019001B403D001AE0184120001AE0194EB
:1012600012000F2AD8900E320D320C320C50075E4D
:101270000D50085A0E50095A09BEEAD7D8900736C1
:10128000083609360A2EF8D7C8D77F0E0A6EFF0E29
:10129000096E086E076E12007F0E01BEFF0E0A6E09
:1012A00002D07F0E0A6E800E096E086A076AF3D7B5
:1012B00001AE04D0800E0A6E096AF7D70A6A096A7D
:1012C000F4D70350021013101210F8E005BEF0D747
:1012D00003BE0CD004500510EBE0D8901236133644
:1012E000023603360406D8A00506F2D70550D4E12D
:1012F0000428D2E012AE11D07F0E121402E113A026
:101300000CD0132AE86A0222032207E3D8800332B2
:1013100002321332042A0428BFE00450C9E013C08B
:1013200007F002C008F00334096E04300A6E093277
:101330000A9E01BE0A8E4BEF09F009360A3602E317
:101340000184017E06E101800A6A096A086A076A67
:1013500012000A2803E0D88009321200D89009321E
:1013600002E101821200018612000E360F3602E3FE
:10137000018C017E06E101880F6A0E6A0D6A0C6A13
:1013800012000F2803E0D8800E321200D8900E32DF
:06139000EAE1018A1200EF
:0A1396000001C207000EC35B120045
:1013A0000001C22B000EC32312002EEC05F0C2C0B8
:1013B000E9FFC3C0EAFFE906000EEA5A010ED89021
:1013C000E936EA36E806FBE1A40EE926000EEA2239
:1013D000EECFE6FFEFCFE6FF000EE66EE66AE66EC2
:1013E000E66A5CEC02F0146E060EE15E1450C2C0B8
:1013F000E9FFC3C0EAFF010ED890E936EA36E806F5
:10140000FBE1A40EE926000EEA22EECFE6FFEFCFC5
:10141000E6FF000EE66EE66A010EE66EE66A5CEC3A
:1014200002F0146E060EE15E14500001010EC219A6
:1014300001E1C35125E0E66AE66AB00EE66E400EB1
:10144000E66EC2C0E9FFC3C0EAFF020EE95E000E0D
:10145000EA5A010ED890E936EA36E806FBE1B40E06
:10146000E926000EEA22EECFE6FFEFCFE6FF000E00
:10147000E66EE66AC1EC02F0146E080EE15E1450EE
:10148000E66AE66AB00EE66E400EE66EC2C0E9FF9E
:10149000C3C0EAFFE906000EEA5A010ED890E93609
:1014A000EA36E806FBE1B40EE926000EEA22EECFAA
:1014B000E6FFEFCFE6FF010EE66EE66AC1EC02F052
:1014C000146E080EE15E14507CEF05F06EDF030E23
:1014D0000001C41901E1C55170E0020EC41901E117
:1014E000C55129E0010EC41901E1C5510BE0C451F9
:1014F00001E1C55101E01200010EC46FC56BC26F5E
:10150000C36B1200010EC26FC36B050EE66EE66A76
:1015100092EC0DF0E552E552F3CF14F0F4CF15F054
:10152000010EF31807E1155060E13ADF020E0001E9
:10153000C46FC56B1200010EE66EE66A92EC0DF008
:10154000E552E552F3CF14F0F4CF15F0010EF31885
:1015500014E1155012E1C2C014F0C3C015F0140616
:10156000000E155A010E141807E1155005E1010E81
:101570000001C46FC56B01D00EDF050EE66EE66A92
:1015800092EC0DF0E552E552F4CF15F0010EF31890
:1015900013E115502AE1010E0001156AC225146EEF
:1015A000C3511522070E141806E1155004E1030E6D
:1015B000C46FC56B1200F4DE1200070EC26FC36B5E
:1015C000010EE66EE66A92EC0DF0E552E552F3CFBD
:1015D00014F0F4CF15F0010EF31807E1155005E1F2
:0C15E000DADE020E0001C46FC56B1200C1
:0415EC00D9CFE6FF6E
:1015F000E1CFD9FF020EE126DE6ADD6ADE6ADD6A2E
:10160000DECF14F0DDCF15F0D890155004E6010EB2
:10161000145C000E155850E2DECFE9FFDDCFEAFF83
:10162000D890E936EA36FA0EE926000EEA22000ED4
:10163000D880EE54000EED543AE2DECFE9FFDDCF64
:10164000EAFFD890E936EA36FA0EE926000EEA22D9
:10165000EE06000EEF5ADECFE9FFDDCFEAFFD890AD
:10166000E936EA36FA0EE926000EEA22000ED880A4
:10167000EE54000EED541BE3DECFE9FFDDCFEAFFB1
:10168000D890E936EA36FA0EE926000EEA22EE6A2A
:10169000ED6ADECFE9FFDDCFEAFFD890E936EA3622
:1016A000F80EE926000EEA22010EEE6EED6ADF2A40
:1016B000010EA6E3DB2AA4D7020EE15C02E2E16A96
:1016C000E552E16EE552E7CFD9FF1200D9CFE6FF30
:1016D000E1CFD9FFFD0EDBCF14F0FE0EDBCF15F00E
:1016E000000E145C000E15580BE3FD0EDBCF16F058
:1016F000FE0EDBCF17F0010E165C000E175802E34A
:10170000F36A3BD0FB0EDBCF14F0FC0EDBCF15F001
:101710000A0E0D6E0E6A14C008F015C009F015EC23
:101720000FF008C014F009C015F0FD0EDBCFE9FF83
:10173000FE0EDBCFEAFF010ED890E936EA36E80666
:10174000FBE1FA0EE926000EEA2214C0EEFF15C0F6
:10175000EDFFFD0EDBCFE9FFFE0EDBCFEAFF010E52
:10176000D890E936EA36E806FBE1F80EE926000EE5
:10177000EA22EE6AED6A010EF36EF46AE552E7CFF3
:10178000D9FF1200D9CFE6FFE1CFD9FFFD0EDBCFA5
:1017900014F0FE0EDBCF15F0000E145C000E155891
:1017A0000BE3FD0EDBCF16F0FE0EDBCF17F0010EC4
:1017B000165C000E175802E3F36A2BD0FD0EDBCF48
:1017C000E9FFFE0EDBCFEAFF010ED890E936EA36DC
:1017D000E806FBE1F80EE926000EEA22010EEE18FB
:1017E00017E1ED5015E1FD0EDBCFE9FFFE0EDBCF7B
:1017F000EAFF010ED890E936EA36E806FBE1F80E7A
:10180000E926000EEA22EE6AED6A010EF36E01D0BF
:0C181000F36AF46AE552E7CFD9FF12003A
:04181C00F28ED08EEA
:10182000F28C1200F19CF292F2881200D8CFE4FF01
:10183000E0CFE4FFE46EDACFE4FFE2CFDAFFE9CFF6
:10184000E4FFEACFE4FFF6CFE4FFF7CFE4FFF5CF04
:10185000E4FFF3CFE4FFF4CFE4FFFACFE4FF00EEC0
:1018600000F0140EE80403E3EECFE4FFFBD700EE34
:1018700014F0090EE80403E3EECFE4FFFBD7E652D1
:10188000F2A407D079EC06F0F29433EC06F07BEC8E
:1018900006F09EA007D026EC07F09E90E0EC06F044
:1018A00028EC07F0A1A207D0D1EC07F0A1928BECB5
:1018B00007F011EC0FF0F2B2F2929EAA03D09E9ABA
:1018C0005FEC0EF0E55200EE1CF0090EE80403E3B5
:1018D000E5CFEDFFFBD700EE13F0140EE80403E3B1
:1018E000E5CFEDFFFBD7E5CFFAFFE5CFF4FFE5CF7E
:1018F000F3FFE5CFF5FFE5CFF7FFE5CFF6FFE5CF47
:10190000EAFFE5CFE9FFE5CFDAFFE550E5CFE0FFFD
:10191000E5CFD8FF1000DACFE4FFE2CFDAFFE9CF5E
:10192000E4FFEACFE4FFF6CFE4FFF7CFE4FFF5CF23
:10193000E4FFF3CFE4FFF4CFE4FFFACFE4FF00EEDF
:1019400000F0140EE80403E3EECFE4FFFBD700EE53
:1019500014F0090EE80403E3EECFE4FFFBD7E652F0
:10196000F2A407D079EC06F0F29433EC06F07BECAD
:1019700006F09EA007D026EC07F09E90E0EC06F063
:1019800028EC07F0A1A207D0D1EC07F0A1928BECD4
:1019900007F011EC0FF0F2B2F2929EAA03D09E9AD9
:1019A0005FEC0EF0E55200EE1CF0090EE80403E3D4
:1019B000E5CFEDFFFBD700EE13F0140EE80403E3D0
:1019C000E5CFEDFFFBD7E5CFFAFFE5CFF4FFE5CF9D
:1019D000F3FFE5CFF5FFE5CFF7FFE5CFF6FFE5CF66
:0C19E000EAFFE5CFE9FFE5CFDAFF1100D8
:0419EC00CF0E941472
:1019F000946E82681200D9CFE6FFE1CFD9FF040EC2
:101A0000E126DE6ADD6A020EDB6A030EDB6ADE6A4D
:101A1000DD6ADECF14F0DDCF15F0D890155004E666
:101A2000020E145C000E155873E2300E8210826EA6
:101A3000DECFE9FFDDCFEAFFE00EE926000EEA2265
:101A4000EF1C8214826E0F0E8210826E020EDB6A11
:101A5000030EDB6A020EDBCF14F0030EDBCF15F0B2
:101A6000D890155004E6040E145C000E15584AE296
:101A7000020EDBCFE9FF030EDBCFEAFFE40EE9261F
:101A8000000EEA22EF5082141CE1DECF14F0DDCF0D
:101A900015F0D89014361536D89014361536020E37
:101AA000DB501424E96E030EDB501520EA6ED8904B
:101AB000E936EA36E80EE926000EEA22010EEE6E5D
:101AC0001AD0DECF14F0DDCF15F0D89014361536CD
:101AD000D89014361536020EDB501424E96E030E2E
:101AE000DB501520EA6ED890E936EA36E80EE92692
:101AF000000EEA22EE6AED6A020EDB2A030EAAE36A
:101B0000DB2AA8D7DF2A010E01E283D7DB2A81D79F
:101B1000040EE15C02E2E16AE552E16EE552E7CFD4
:101B2000D9FF1200D9CFE6FFE1CFD9FFFD0EDBCF01
:101B300014F0FE0EDBCF15F0000E145C000E1558ED
:101B40000BE3FD0EDBCF16F0FE0EDBCF17F0080E19
:101B5000165C000E175803E3F36AF46A18D0FD0E02
:101B6000DBCFE9FFFE0EDBCFEAFF010ED890E936AE
:101B7000EA36E806FBE1E80EE926000EEA22EECF9F
:101B800014F0EFCF15F014C0F3FF15C0F4FFE552C9
:061B9000E7CFD9FF1200AF
:0A1B96001E0EF66E000EF76E000E34
:101BA000F86E0F010900F550116F0900F550126F22
:101BB00003E1116701D03DD00900F5500C6F090019
:101BC000F5500D6F0900F5500E6F09000900F55032
:101BD000E96E0900F550EA6E090009000900F550A8
:101BE0000F6F0900F550106F09000900F6CF13FFC1
:101BF000F7CF14FFF8CF15FF0CCFF6FF0DCFF7FF8F
:101C00000ECFF8FF0F010F5302E1105307E0090058
:101C1000F550EE6E0F07F8E21007F9D713CFF6FF75
:101C200014CFF7FF15CFF8FF0F011107000E125B5D
:041C3000BFD7120008
:0C1C3400B06A810EAF6EAC8AAC94B8862A
:101C4000AC98AB8EAB889E9A9D8A9F9A949C948EFA
:101C500012000001FC511200D9CFE6FFE1CFD9FFFD
:101C60009E88FE0EDB50AD6E9E98E552E7CFD9FF01
:101C70001200D9CFE6FFE1CFD9FFFD0EDBCFF6FF93
:101C8000FE0EDBCFF7FF0800F55015E0FD0EDBCFB1
:101C9000F6FFFE0EDBCFF7FF0800F550E66EDCDF47
:101CA000E552FD0EDBCFF6FFDB2AFE0EDBCFF7FFA2
:101CB000E4E3DB2AE2D7E552E7CFD9FF1200AECF4B
:041CC000FCF0120022
:0C1CC4000F0E926E0B0EC16E040EC06E6F
:101CD0001200D9CFE6FFE1CFD9FF020EE126FE0EBA
:101CE000DB50040DF350C26EC280C282C2B2FED776
:101CF000C450DE6EDD6ADECF16F0DDCF17F0D8906F
:101D000016361736D89016361736060EC3CFE7FFAD
:101D1000070B04E0E742E79EE806FCE1E7501624E3
:101D2000146E000E172014C0DEFFDD6EDECF14F03F
:101D3000DDCF15F014C0F3FF15C0F4FF020EE15C17
:101D400002E2E16AE552E16EE552E7CFD9FF120007
:101D5000056A046A036A180EE76ED89007360836DB
:101D600009360336043605360C50035C0D50045812
:101D70000E50055807E30C50035E0D50045A0E50E8
:0A1D8000055A072AE72EEAD71200E1
:061D8A00464C4F573A20C1
:101D9000004E4F333A20004E48343A200054454D0F
:101DA000503A2000434F443A200053533A200070E9
:101DB000483A200053454E534F522056414C55450A
:011DC0000022
:011DC1002001
:0E1DC200CA94CA90CA82CB68BD98BD9ABE6A08
:101DD000BD9CBD9EBD90BD92BD84BD869494CA84B9
:101DE0001200D9CFE6FFE1CFD9FFFE0EDB50BE6E69
:081DF000E552E7CFD9FF120014
:081DF8000CD803D866EC0AF0D8
:101E0000FDD7F6EC0CF071EC01F01AEC0EF062EF7D
:101E10000EF00A0E0F01046F056B0EEC0CF029EFAB
:0A1E200007F0F6EC0AF0FBEF0CF0FF
:061E2A00056A046A100EB7
:101E3000E76ED89008360936043605360D50045C36
:101E40000E50055805E30D50045E0E50055A082A41
:061E5000E72EF0D712009E
:0A1E5600800EF36E00EE00F00F0E98
:101E600001D81200EA6002D0EE6AFCD7F350E960B4
:061E70001200EE6AFCD72F
:0A1E76001EEE00F02EEE00F0F86AF8
:101E8000019CCBEC0DF003EC00F0FCEC0EF0FBD76A
:021E900012003E
:0C1E920000000000000000000000000044
:021E9E00202002
:101EA0002020202020202020202020202020202032
:101EB0002020202020202020202020202020010061
:021EC000000020
:0E1EC200102040800102040800000000000013
:0A1ED0000000000000000000000008
:061EDA0000000000000002
:101EE00000000000000000000000000000000000F2
:041EF00000000000EE
:0C1EF400B41DAF1DAA1DA41D9D1D971D4F
:101F0000911D8A1D0400040005000600050005005F
:061F1000060001000000C4
:020000040030CA
:0100010002FC
:0100020003FA
:010003001EDE
:010005008179
:010006008178
:010008000FE8
:01000900C036
:01000A000FE6
:01000B00E014
:01000C000FE4
:01000D0040B2
:00000001FF
