:020000040000FA
:06000000AAEF07F0120058
:020006001200E6
:060008007BEF05F0120081
:02000E000000F0
:020010000000EE
:060018000BEF05F01200E1
:02001E000400DC
:10002000920F000080000000700000007C0F0000B4
:10003000000F000016000000700F0000F00000002C
:100040000C0000000E000000FC0000000400000096
:10005000D59ED59C650E086E130E096EF0C00DF08E
:10006000F1C00EF023EC07F006C0F6F007C0F7F081
:1000700017681868196AF0C01AF0F1C01BF01C6A02
:100080001A50175C146E1B501858156E1C501958D6
:10009000166E0C6A010E0D6E0E6A14C007F015C0C4
:1000A00008F016C009F0F6EC06F003C014F004C026
:1000B00015F005C016F00350D66E17681868196A57
:1000C000F0C01AF0F1C01BF01C6A1A50175C146ED5
:1000D0001B501858156E1C501958166E0C6A010EDC
:1000E0000D6E0E6A14C007F015C008F016C009F0B6
:1000F000F6EC06F007C014F008C015F009C016F0C1
:100100000750D76ED59AD586F28AF294F184D58EAF
:10011000120017681868196AF6C01AF0F7C01BF0C9
:100120001C6A1A50175C146E1B501858156E1C5020
:100130001958166E0C6A010E0D6E0E6A14C007F087
:1001400015C008F016C009F0F6EC06F00350D66EA4
:1001500017681868196AF6C01AF0F7C01BF01C6A15
:100160001A50175C146E1B501858156E1C501958F5
:10017000166E0C6A010E0D6E0E6A14C007F015C0E3
:1001800008F016C009F0F6EC06F007C014F008C03D
:1001900015F009C016F00750D76ED58E1200D59E07
:1001A00012001200CD90650E086E130E096EF2C09B
:1001B0000DF0F3C00EF023EC07F006C0F8F007C016
:1001C000F9F017681868196A06C01AF007C01BF022
:1001D0001C6A0650175C146E07501858156E1C5098
:1001E0001958166E0C6A010E0D6E0E6A14C007F0D7
:1001F00015C008F016C009F0F6EC06F007C014F0C0
:1002000008C015F009C016F00750CF6E17681868BF
:10021000196AF8C01AF0F9C01BF01C6A1A50175C72
:10022000146E1B501858156E1C501958166E0C6A17
:10023000010E0D6E0E6A14C007F015C008F016C04E
:1002400009F0F6EC06F003C014F004C015F005C088
:1002500016F00350CE6E9D809E909F90CD8ECD8CDB
:10026000CD98CD9ACD96CD92CD80120017681868A2
:10027000196AF8C01AF0F9C01BF01C6A1A50175C12
:10028000146E1B501858156E1C501958166E0C6AB7
:10029000010E0D6E0E6A14C007F015C008F016C0EE
:1002A00009F0F6EC06F00750CF6E17681868196A67
:1002B000F8C01AF0F9C01BF01C6A1A50175C146ED3
:1002C0001B501858156E1C501958166E0C6A010EEA
:1002D0000D6E0E6A14C007F015C008F016C009F0C4
:1002E000F6EC06F003C014F004C015F005C016F0DB
:1002F0000350CE6ECD801200CD9012001200B1904E
:10030000650E086E130E096EF4C00DF0F5C00EF008
:1003100023EC07F006C0FAF007C0FBF01768186876
:10032000196A06C01AF007C01BF01C6A0650175C59
:10033000146E07501858156E1C501958166E0C6A1A
:10034000010E0D6E0E6A14C007F015C008F016C03D
:1003500009F0F6EC06F007C014F008C015F009C06B
:1003600016F00750B36E17681868196AFAC01AF0C9
:10037000FBC01BF01C6A1A50175C146E1B501858F7
:10038000156E1C501958166E0C6A010E0D6E0E6A11
:1003900014C007F015C008F016C009F0F6EC06F01E
:1003A00003C014F004C015F005C016F00350B26E7F
:1003B000A082A192A292B18EB198B19AB192B1806D
:1003C000120017681868196AFAC01AF0FBC01BF00F
:1003D0001C6A1A50175C146E1B501858156E1C506E
:1003E0001958166E0C6A010E0D6E0E6A14C007F0D5
:1003F00015C008F016C009F0F6EC06F00350B26E16
:1004000017681868196AFAC01AF0FBC01BF01C6A5A
:100410001A50175C146E1B501858156E1C50195842
:10042000166E0C6A010E0D6E0E6A14C007F015C030
:1004300008F016C009F0F6EC06F007C014F008C08A
:1004400015F009C016F00750B36EB1801200B190DC
:02045000120098
:0E045200D9CFE6FFE1CFD9FF020EE126DE6A28
:10046000DD6ADE6ADD6ADECF14F0DDCF15F0D890EC
:10047000155004E6080E145C000E155801E355D122
:10048000DECFE9FFDDCFEAFFD890E936EA36A00EED
:10049000E926000EEA22EECF14F0EFCF15F0DECF02
:1004A000E9FFDDCFEAFFD890E936EA36B00EE9265B
:1004B000000EEA2214C0EEFF15C0EDFFDECFE9FF0B
:1004C000DDCFEAFFD890E936EA36900EE926000E35
:1004D000EA22EECF14F0EFCF15F0DECFE9FFDDCF4B
:1004E000EAFFD890E936EA36A00EE926000EEA22A5
:1004F00014C0EEFF15C0EDFFDECFE9FFDDCFEAFF50
:10050000D890E936EA36800EE926000EEA22EECFD0
:10051000E6FFEFCFE6FF73EC06F0E552E552F4CFCD
:1005200015F0DECFE9FFDDCFEAFFD890E936EA36F5
:10053000900EE926000EEA22F3CFEEFF15C0EDFF84
:10054000DECFE9FFDDCFEAFFD890E936EA36A00E2C
:10055000E926000EEA22EECF14F0EFCF15F0DECF41
:10056000E9FFDDCFEAFFD890E936EA36900EE926BA
:10057000000EEA22EECF16F0EFCF17F01650141847
:1005800001E0CDD01750151801E0C9D0DECFE9FF4A
:10059000DDCFEAFFD890E936EA36A00EE926000E54
:1005A000EA22EECF18F0EFCF19F0DECFE9FFDDCF72
:1005B000EAFFD890E936EA36B00EE926000EEA22C4
:1005C000EECF1AF0EFCF1BF01A50181801E0A7D0A9
:1005D0001B50191801E0A3D0DECFE9FFDDCFEAFF01
:1005E000D890E936EA36C00EE926000EEA22EECFB0
:1005F00014F0EFCF15F0DECFE9FFDDCFEAFFD890A2
:10060000E936EA36B00EE926000EEA22EECF16F001
:10061000EFCF17F01650141802E11750151839E0F3
:10062000DECFE9FFDDCFEAFFD890E936EA36B00E3B
:10063000E926000EEA22EECF14F0EFCF15F0DECF60
:10064000E9FFDDCFEAFFD890E936EA36C00EE926A9
:10065000000EEA2214C0EEFF15C0EDFFDECFE9FF69
:10066000DDCFEAFFD890E936EA36C00EE926000E63
:10067000EA22EE50ED1053E1DECFE9FFDDCFEAFFD5
:10068000D890E936EA36D00EE926000EEA22C80EE6
:1006900036D0DECFE9FFDDCFEAFFD890E936EA3683
:1006A000D00EE926000EEA22EE06000EEF5ADECF4B
:1006B000E9FFDDCFEAFFD890E936EA36D00EE92629
:1006C000000EEA22EE50ED102AE1DECFE9FFDDCF89
:1006D000EAFFD890E936EA36C00EE926000EEA2293
:1006E000EE50ED101CE1DECFE9FFDDCFEAFFD89040
:1006F000E936EA36D00EE926000EEA22320EEE6E18
:10070000ED6ADECFE9FFDDCFEAFFD890E936EA36C1
:10071000E00EE926000EEA22010EEE6EED6ADF2AF7
:10072000010E01E2A0D6DB2A9ED6020EE15C02E2B7
:10073000E16AE552E16EE552E7CFD9FF1200D9CF69
:10074000E6FFE1CFD9FFFD0EDBCF14F0FE0EDBCFCD
:1007500015F0000E145C000E15580BE3FD0EDBCFF8
:1007600016F0FE0EDBCF17F0080E165C000E1758C1
:1007700002E3F36A2BD0FD0EDBCFE9FFFE0EDBCFE9
:10078000EAFF010ED890E936EA36E806FBE1E00E12
:10079000E926000EEA22010EEE1817E1ED5015E1F0
:1007A000FD0EDBCFE9FFFE0EDBCFEAFF010ED89096
:1007B000E936EA36E806FBE1E00EE926000EEA2219
:1007C000EE6AED6A010EF36E01D0F36AF46AE55247
:0607D000E7CFD9FF120083
:0A07D600D9CFE6FFE1CFD9FF020EF4
:1007E000E126DE6ADD6ADE6ADD6ADECF14F0DDCF87
:1007F00015F0D890155004E6010E145C000E155843
:1008000050E2DECFE9FFDDCFEAFFD890E936EA36E5
:10081000FE0EE926000EEA22000ED880EE54000EED
:10082000ED543AE2DECFE9FFDDCFEAFFD890E936BA
:10083000EA36FE0EE926000EEA22EE06000EEF5A18
:10084000DECFE9FFDDCFEAFFD890E936EA36FE0ECB
:10085000E926000EEA22000ED880EE54000EED5478
:100860001BE3DECFE9FFDDCFEAFFD890E936EA36B9
:10087000FE0EE926000EEA22EE6AED6ADECFE9FFFF
:10088000DDCFEAFFD890E936EA36FC0EE926000E05
:10089000EA22010EEE6EED6ADF2A010EA6E3DB2AE4
:1008A000A4D7020EE15C02E2E16AE552E16EE55294
:1008B000E7CFD9FF1200D9CFE6FFE1CFD9FFFD0E78
:1008C000DBCF14F0FE0EDBCF15F0000E145C000E33
:1008D00015580BE3FD0EDBCF16F0FE0EDBCF17F045
:1008E000010E165C000E175802E3F36A3BD0FB0EB4
:1008F000DBCF14F0FC0EDBCF15F00A0E0D6E0E6A86
:1009000014C008F015C009F084EC07F008C014F01A
:1009100009C015F0FD0EDBCFE9FFFE0EDBCFEAFFCD
:10092000010ED890E936EA36E806FBE1FE0EE9262C
:10093000000EEA2214C0EEFF15C0EDFFFD0EDBCF66
:10094000E9FFFE0EDBCFEAFF010ED890E936EA366A
:10095000E806FBE1FC0EE926000EEA22EE6AED6AEB
:10096000010EF36EF46AE552E7CFD9FF1200D9CF3A
:10097000E6FFE1CFD9FFFD0EDBCF14F0FE0EDBCF9B
:1009800015F0000E145C000E15580BE3FD0EDBCFC6
:1009900016F0FE0EDBCF17F0010E165C000E175896
:1009A00002E3F36A2BD0FD0EDBCFE9FFFE0EDBCFB7
:1009B000EAFF010ED890E936EA36E806FBE1FC0EC4
:1009C000E926000EEA22010EEE1817E1ED5015E1BE
:1009D000FD0EDBCFE9FFFE0EDBCFEAFF010ED89064
:1009E000E936EA36E806FBE1FC0EE926000EEA22CB
:1009F000EE6AED6A010EF36E01D0F36AF46AE55215
:060A0000E7CFD9FF120050
:0A0A0600F28ED08EF28C1200F19CEB
:100A1000F292F2881200D8CFE4FFE0CFE4FFE46E58
:100A2000DACFE4FFE2CFDAFFE9CFE4FFEACFE4FF79
:100A3000F6CFE4FFF7CFE4FFF5CFE4FFF3CFE4FF19
:100A4000F4CFE4FFFACFE4FF00EE00F0140EE80468
:100A500003E3EECFE4FFFBD700EE14F0090EE80449
:100A600003E3EECFE4FFFBD7E652F2A407D0CFECCE
:100A700000F0F29489EC00F0D1EC00F09EA007D0D9
:100A80007CEC01F09E9036EC01F07EEC01F0A1A22E
:100A900007D027EC02F0A192E1EC01F063EC07F043
:100AA000F2B2F292E55200EE1CF0090EE80403E304
:100AB000E5CFEDFFFBD700EE13F0140EE80403E3DF
:100AC000E5CFEDFFFBD7E5CFFAFFE5CFF4FFE5CFAC
:100AD000F3FFE5CFF5FFE5CFF7FFE5CFF6FFE5CF75
:100AE000EAFFE5CFE9FFE5CFDAFFE550E5CFE0FF2C
:100AF000E5CFD8FF1000DACFE4FFE2CFDAFFE9CF8D
:100B0000E4FFEACFE4FFF6CFE4FFF7CFE4FFF5CF51
:100B1000E4FFF3CFE4FFF4CFE4FFFACFE4FF00EE0D
:100B200000F0140EE80403E3EECFE4FFFBD700EE81
:100B300014F0090EE80403E3EECFE4FFFBD7E6521E
:100B4000F2A407D0CFEC00F0F29489EC00F0D1ECE5
:100B500000F09EA007D07CEC01F09E9036EC01F0F6
:100B60007EEC01F0A1A207D027EC02F0A192E1EC0B
:100B700001F063EC07F0F2B2F292E55200EE1CF0E5
:100B8000090EE80403E3E5CFEDFFFBD700EE13F019
:100B9000140EE80403E3E5CFEDFFFBD7E5CFFAFF42
:100BA000E5CFF4FFE5CFF3FFE5CFF5FFE5CFF7FFA6
:100BB000E5CFF6FFE5CFEAFFE5CFE9FFE5CFDAFFC6
:020BC000110022
:0E0BC200CF0E9414946E82681200D9CFE6FF15
:100BD000E1CFD9FF040EE126DE6ADD6A020EDB6A90
:100BE000030EDB6ADE6ADD6ADECF14F0DDCF15F0BE
:100BF000D890155004E6020E145C000E155869E2F8
:100C0000DECFE9FFDDCFEAFF000EE9260F0EEA2274
:100C1000EF1C8214826E0F0E8210826E020EDB6A4F
:100C2000030EDB6A020EDBCF14F0030EDBCF15F0F0
:100C3000D890155004E6040E145C000E155844E2DA
:100C4000020EDBCFE9FF030EDBCFEAFF020EE9263F
:100C50000F0EEA22EF50821419E1DECF14F0DDCF3F
:100C600015F0D89014361536020EDB501424E96EB8
:100C7000030EDB501520EA6ED890E936EA36060EF0
:100C8000E9260F0EEA22010EEE6E17D0DECF14F029
:100C9000DDCF15F0D89014361536020EDB50142433
:100CA000E96E030EDB501520EA6ED890E936EA367D
:100CB000060EE9260F0EEA22EE6AED6A020EDB2A24
:100CC000030EB0E3DB2AAED7DF2A010E8DE3DB2A69
:100CD0008BD7040EE15C02E2E16AE552E16EE55277
:100CE000E7CFD9FF1200D9CFE6FFE1CFD9FFFE0E43
:100CF000DBCF15F0800E15140EE1FD0EDBCF16F0E4
:100D0000FE0EDBCF17F0D890175004E6080E165CE5
:100D1000000E175803E3F36AF46A15D0FD0EDBCF1B
:100D2000E9FFFE0EDBCFEAFFD890E936EA36060E81
:100D3000E9260F0EEA22EECF14F0EFCF15F014C023
:0E0D4000F3FF15C0F4FFE552E7CFD9FF120014
:020D4E001E0E77
:100D5000F66E000EF76E000EF86E0F010900F550EA
:100D60001B6F0900F5501C6F03E11B6701D03DD0DC
:100D70000900F550166F0900F550176F0900F5507E
:100D8000186F09000900F550E96E0900F550EA6E88
:100D9000090009000900F550196F0900F5501A6F94
:100DA00009000900F6CF1DFFF7CF1EFFF8CF1FFF88
:100DB00016CFF6FF17CFF7FF18CFF8FF0F01195323
:100DC00002E11A5307E00900F550EE6E1907F8E248
:100DD0001A07F9D71DCFF6FF1ECFF7FF1FCFF8FF79
:0C0DE0000F011B07000E1C5BBFD71200A8
:040DEC00006A0EAEDD
:100DF00001EF07F00C6C0D1E0E1EE86A0D220E228C
:100E0000001E09AE0BEF07F0076C081E091EE86A0A
:100E100008220922001E67EC07F009BE1EEF07F04A
:100E200000AE000C076C081E091EE86A08220922A1
:100E3000036C041E051E04220522000C00BE12EFE6
:100E400007F00188FF0C08C012F008500D02F4CF23
:100E500007F0F3CF06F009500E02F4CF09F0F3CFFC
:100E600008F00D02F3500726F4500822E86A092220
:100E700012500E02F3500726F4500822E86A0922A5
:020E8000000C64
:0E0E8200936A18D815D8816A010EE66EE66AEA
:100E900073EC06F0E552E552F3CF14F0F4CF15F001
:100EA000010EF31804E1155002E18168EED7816A62
:100EB000ECD7E1EF05F00A0E0001F46FF56B03ECDF
:0E0EC00005F07FEF01F0EBEC03F0E6EF05F03C
:020ECE00056AB3
:100ED000046A036A180EE76ED8900736083609369A
:100EE0000336043605360C50035C0D5004580E5082
:100EF000055807E30C50035E0D50045A0E50055A76
:080F0000072AE72EEAD71200D0
:080F0800056A046A100EE76E91
:100F1000D89008360936043605360D50045C0E505C
:100F2000055805E30D50045E0E50055A082AE72EB9
:040F3000F0D71200E4
:0C0F3400800EF36E00EE00F00F0E01D8EE
:100F40001200EA6002D0EE6AFCD7F350E9601200AA
:040F5000EE6AFCD772
:0C0F54001EEE00F02EEE00F0F86A019C8A
:100F6000A7EC06F003EC00F041EC07F0FBD7120011
:0C0F700000000000000000000000000075
:040F7C00102001023E
:100F80000408000000000000000000000000000055
:020F900000005F
:0E0F920000000100020003000400050006003C
:100FA0000700010000000000000000000000000039
:100FB0000000010000000000000000000000000030
:100FC0000000010000000000000000000000000020
:100FD0000000010000000000000000000000000010
:100FE0000000C80000000000000000000000000039
:100FF00000000000000000000000000000000000F1
:021000000000EE
:020000040030CA
:0100010002FC
:0100020003FA
:010003001EDE
:010005008179
:010006008178
:010008000FE8
:01000900C036
:01000A000FE6
:01000B00E014
:01000C000FE4
:01000D0040B2
:00000001FF
