:020000040000FA
:0600000007EF06F01200FC
:020006001200E6
:06000800B9EF03F0120045
:02000E000000F0
:020010000000EE
:06001200000010204080F8
:0600180049EF03F01200A5
:02001E000400DC
:1000200012000000AE00000006000000360C0000C8
:1000300080000000180000002A0C0000980000005A
:100040000C0000000E000000B400000004000000DE
:10005000D59ED59C650E086E130E096E98C00DF0E6
:1000600099C00EF070EC05F006C09EF007C09FF03E
:1000700017681868196A98C01AF099C01BF01C6AB2
:100080001A50175C146E1B501858156E1C501958D6
:10009000166E0C6A010E0D6E0E6A14C007F015C0C4
:1000A00008F016C009F043EC05F003C014F004C0DA
:1000B00015F005C016F00350D66E17681868196A57
:1000C00098C01AF099C01BF01C6A1A50175C146E85
:1000D0001B501858156E1C501958166E0C6A010EDC
:1000E0000D6E0E6A14C007F015C008F016C009F0B6
:1000F00043EC05F007C014F008C015F009C016F075
:100100000750D76ED59AD586F28AF294F184D58EAF
:10011000120017681868196A9EC01AF09FC01BF079
:100120001C6A1A50175C146E1B501858156E1C5020
:100130001958166E0C6A010E0D6E0E6A14C007F087
:1001400015C008F016C009F043EC05F00350D66E58
:1001500017681868196A9EC01AF09FC01BF01C6AC5
:100160001A50175C146E1B501858156E1C501958F5
:10017000166E0C6A010E0D6E0E6A14C007F015C0E3
:1001800008F016C009F043EC05F007C014F008C0F1
:1001900015F009C016F00750D76ED58E1200D59E07
:1001A00012001200CD90650E086E130E096E9AC0F3
:1001B0000DF09BC00EF070EC05F006C0A0F007C07B
:1001C000A1F017681868196A06C01AF007C01BF07A
:1001D0001C6A0650175C146E07501858156E1C5098
:1001E0001958166E0C6A010E0D6E0E6A14C007F0D7
:1001F00015C008F016C009F043EC05F007C014F074
:1002000008C015F009C016F00750CF6E17681868BF
:10021000196AA0C01AF0A1C01BF01C6A1A50175C22
:10022000146E1B501858156E1C501958166E0C6A17
:10023000010E0D6E0E6A14C007F015C008F016C04E
:1002400009F043EC05F003C014F004C015F005C03C
:1002500016F00350CE6E9D809E909F90CD8ECD8CDB
:10026000CD98CD9ACD96CD92CD80120017681868A2
:10027000196AA0C01AF0A1C01BF01C6A1A50175CC2
:10028000146E1B501858156E1C501958166E0C6AB7
:10029000010E0D6E0E6A14C007F015C008F016C0EE
:1002A00009F043EC05F00750CF6E17681868196A1B
:1002B000A0C01AF0A1C01BF01C6A1A50175C146E83
:1002C0001B501858156E1C501958166E0C6A010EEA
:1002D0000D6E0E6A14C007F015C008F016C009F0C4
:1002E00043EC05F003C014F004C015F005C016F08F
:1002F0000350CE6ECD801200CD9012001200B1904E
:10030000650E086E130E096E9CC00DF09DC00EF0B8
:1003100070EC05F006C0A2F007C0A3F017681868DB
:10032000196A06C01AF007C01BF01C6A0650175C59
:10033000146E07501858156E1C501958166E0C6A1A
:10034000010E0D6E0E6A14C007F015C008F016C03D
:1003500009F043EC05F007C014F008C015F009C01F
:1003600016F00750B36E17681868196AA2C01AF021
:10037000A3C01BF01C6A1A50175C146E1B5018584F
:10038000156E1C501958166E0C6A010E0D6E0E6A11
:1003900014C007F015C008F016C009F043EC05F0D2
:1003A00003C014F004C015F005C016F00350B26E7F
:1003B000A082A192A292B18EB198B19AB192B1806D
:1003C000120017681868196AA2C01AF0A3C01BF0BF
:1003D0001C6A1A50175C146E1B501858156E1C506E
:1003E0001958166E0C6A010E0D6E0E6A14C007F0D5
:1003F00015C008F016C009F043EC05F00350B26ECA
:1004000017681868196AA2C01AF0A3C01BF01C6A0A
:100410001A50175C146E1B501858156E1C50195842
:10042000166E0C6A010E0D6E0E6A14C007F015C030
:1004300008F016C009F043EC05F007C014F008C03E
:1004400015F009C016F00750B36EB1801200B190DC
:02045000120098
:0E045200D9CFE6FFE1CFD9FF020EE126DE6A28
:10046000DD6ADE6ADD6ADECF14F0DDCF15F0D890EC
:10047000155004E6010E145C000E155850E2DECF54
:10048000E9FFDDCFEAFFD890E936EA36B60EE92675
:10049000000EEA22000ED880EE54000EED543AE22F
:1004A000DECFE9FFDDCFEAFFD890E936EA36B60EB7
:1004B000E926000EEA22EE06000EEF5ADECFE9FF33
:1004C000DDCFEAFFD890E936EA36B60EE926000E0F
:1004D000EA22000ED880EE54000EED541BE3DECF6E
:1004E000E9FFDDCFEAFFD890E936EA36B60EE92615
:1004F000000EEA22EE6AED6ADECFE9FFDDCFEAFF09
:10050000D890E936EA36B40EE926000EEA22010E4A
:10051000EE6EED6ADF2A010EA6E3DB2AA4D7020EF7
:10052000E15C02E2E16AE552E16EE552E7CFD9FF14
:100530001200D9CFE6FFE1CFD9FFFD0EDBCF14F0DB
:10054000FE0EDBCF15F0000E145C000E15580BE309
:10055000FD0EDBCF16F0FE0EDBCF17F0010E165CA2
:10056000000E175802E3F36A3BD0FB0EDBCF14F00A
:10057000FC0EDBCF15F00A0E0D6E0E6A14C008F0EB
:1005800015C009F0E1EC05F008C014F009C015F041
:10059000FD0EDBCFE9FFFE0EDBCFEAFF010ED890A8
:1005A000E936EA36E806FBE1B60EE926000EEA2255
:1005B00014C0EEFF15C0EDFFFD0EDBCFE9FFFE0E10
:1005C000DBCFEAFF010ED890E936EA36E806FBE118
:1005D000B40EE926000EEA22EE6AED6A010EF36E11
:1005E000F46AE552E7CFD9FF1200D9CFE6FFE1CF99
:1005F000D9FFFD0EDBCF14F0FE0EDBCF15F0000EA1
:10060000145C000E15580BE3FD0EDBCF16F0FE0E4A
:10061000DBCF17F0010E165C000E175802E3F36AE9
:100620002BD0FD0EDBCFE9FFFE0EDBCFEAFF010E84
:10063000D890E936EA36E806FBE1B40EE926000E6A
:10064000EA22010EEE1817E1ED5015E1FD0EDBCFA9
:10065000E9FFFE0EDBCFEAFF010ED890E936EA365D
:10066000E806FBE1B40EE926000EEA22EE6AED6A26
:10067000010EF36E01D0F36AF46AE552E7CFD9FFB9
:02068000120066
:0E068200F28ED08EF28C1200F19CF292F28871
:100690001200D8CFE4FFE0CFE4FFE46EDACFE4FF4E
:1006A000E2CFDAFFE9CFE4FFEACFE4FFF6CFE4FFE1
:1006B000F7CFE4FFF5CFE4FFF3CFE4FFF4CFE4FF9F
:1006C000FACFE4FF00EE00F0140EE80403E3EECFEF
:1006D000E4FFFBD700EE14F0090EE80403E3EECFCD
:1006E000E4FFFBD7E652F2A407D0CFEC00F0F2947F
:1006F00089EC00F0D1EC00F09EA007D07CEC01F07A
:100700009E9036EC01F07EEC01F0A1A207D027EC20
:1007100002F0A192E1EC01F0C0EC05F0F2B2F2922D
:10072000E55200EE1CF0090EE80403E3E5CFEDFF0F
:10073000FBD700EE13F0140EE80403E3E5CFEDFF62
:10074000FBD7E5CFFAFFE5CFF4FFE5CFF3FFE5CF29
:10075000F5FFE5CFF7FFE5CFF6FFE5CFEAFFE5CF01
:10076000E9FFE5CFDAFFE550E5CFE0FFE5CFD8FFC1
:100770001000DACFE4FFE2CFDAFFE9CFE4FFEACFFF
:10078000E4FFF6CFE4FFF7CFE4FFF5CFE4FFF3CFCC
:10079000E4FFF4CFE4FFFACFE4FF00EE00F0140E24
:1007A000E80403E3EECFE4FFFBD700EE14F0090EFC
:1007B000E80403E3EECFE4FFFBD7E652F2A407D050
:1007C000CFEC00F0F29489EC00F0D1EC00F09EA0A8
:1007D00007D07CEC01F09E9036EC01F07EEC01F04D
:1007E000A1A207D027EC02F0A192E1EC01F0C0EC4D
:1007F00005F0F2B2F292E55200EE1CF0090EE804A8
:1008000003E3E5CFEDFFFBD700EE13F0140EE80491
:1008100003E3E5CFEDFFFBD7E5CFFAFFE5CFF4FF2C
:10082000E5CFF3FFE5CFF5FFE5CFF7FFE5CFF6FF27
:0E083000E5CFEAFFE5CFE9FFE5CFDAFF1100E3
:02083E00CF0EDB
:100840009414946E82681200D9CFE6FFE1CFD9FFED
:10085000040EE126DE6ADD6A020EDB6A030EDB6A45
:10086000DE6ADD6ADECF14F0DDCF15F0D8901550CA
:1008700004E6020E145C000E155873E2300E82106E
:10088000826EDECFE9FFDDCFEAFF800EE926000EA3
:10089000EA22EF1C8214826E0F0E8210826E020E0C
:1008A000DB6A030EDB6A020EDBCF14F0030EDBCF34
:1008B00015F0D890155004E6040E145C000E15587F
:1008C0004AE2020EDBCFE9FF030EDBCFEAFF840E24
:1008D000E926000EEA22EF5082141CE1DECF14F06C
:1008E000DDCF15F0D89014361536D890143615365D
:1008F000020EDB501424E96E030EDB501520EA6E65
:10090000D890E936EA36880EE926000EEA22010E72
:10091000EE6E1AD0DECF14F0DDCF15F0D89014367D
:100920001536D89014361536020EDB501424E96EB5
:10093000030EDB501520EA6ED890E936EA36880EB1
:10094000E926000EEA22EE6AED6A020EDB2A030EA9
:10095000AAE3DB2AA8D7DF2A010E01E283D7DB2A2C
:1009600081D7040EE15C02E2E16AE552E16EE552F4
:10097000E7CFD9FF1200D9CFE6FFE1CFD9FFFD0EB7
:10098000DBCF14F0FE0EDBCF15F0000E145C000E72
:1009900015580BE3FD0EDBCF16F0FE0EDBCF17F084
:1009A000080E165C000E175803E3F36AF46A18D0B9
:1009B000FD0EDBCFE9FFFE0EDBCFEAFF010ED89084
:1009C000E936EA36E806FBE1880EE926000EEA225F
:1009D000EECF14F0EFCF15F014C0F3FF15C0F4FF05
:0809E000E552E7CFD9FF120038
:0809E8001E0EF66E000EF76E04
:1009F000000EF86E00010900F550A96F0900F550CE
:100A0000AA6F03E1A96701D03DD00900F550A46F9A
:100A10000900F550A56F0900F550A66F09000900FF
:100A2000F550E96E0900F550EA6E09000900090069
:100A3000F550A76F0900F550A86F09000900F6CF1F
:100A4000ABF0F7CFACF0F8CFADF0A4C0F6FFA5C087
:100A5000F7FFA6C0F8FF0001A75302E1A85307E083
:100A60000900F550EE6EA707F8E2A807F9D7ABC06A
:100A7000F6FFACC0F7FFADC0F8FF0001A907000EFC
:060A8000AA5BBFD71200C3
:0A0A8600006A0EAE4EEF05F00C6C96
:100A90000D1E0E1EE86A0D220E22001E09AE58EF32
:100AA00005F0076C081E091EE86A08220922001ECC
:100AB000C4EC05F009BE6BEF05F000AE000C076C4E
:100AC000081E091EE86A08220922036C041E051E7E
:100AD00004220522000C00BE5FEF05F00188FF0C28
:100AE00008C012F008500D02F4CF07F0F3CF06F063
:100AF00009500E02F4CF09F0F3CF08F00D02F350C5
:100B00000726F4500822E86A092212500E02F35018
:0C0B10000726F4500822E86A0922000CB5
:040B1C00936A28D8D8
:100B200025D8816A0001AE6BAF6B080EAFAF02D063
:100B3000D89003D0AE5D000EAF59F4E2AEC0E6FF30
:100B4000AFC0E6FFBBEC04F0E552E552F3CF14F082
:100B5000F4CF15F0010EF31804E1155002E1AEC018
:100B600081FF0001AE2B000EAF23DFD71FEF04F093
:100B70000A0E00019C6F9D6B41EC03F07FEF01F0CA
:080B800029EC02F024EF04F05F
:080B8800056A046A036A180EF5
:100B9000E76ED89007360836093603360436053630
:100BA0000C50035C0D5004580E50055807E30C50D0
:100BB000035E0D50045A0E50055A072AE72EEAD755
:020BC000120021
:0E0BC200056A046A100EE76ED89008360936F0
:100BD000043605360D50045C0E50055805E30D50E3
:0E0BE000045E0E50055A082AE72EF0D71200C8
:020BEE00800E77
:100BF000F36E00EE00F00F0E01D81200EA6002D092
:0E0C0000EE6AFCD7F350E9601200EE6AFCD7F2
:020C0E001EEED8
:100C100000F02EEE00F0F86A019CF4EC04F003EC16
:0A0C200000F08EEC05F0FBD7120087
:060C2A00000000000000C4
:060C3000000000000000BE
:0A0C360010204080010204080000B5
:0E0C40000000000000000000000000000000A6
:020000040030CA
:0100010002FC
:0100020003FA
:010003001EDE
:010005008179
:010006008178
:010008000FE8
:01000900C036
:01000A000FE6
:01000B00E014
:01000C000FE4
:01000D0040B2
:00000001FF
