:020000040000FA
:0600000090EF18F0120061
:020006001200E6
:060008009DEF15F012004F
:02000E000000F0
:0400100000000000EC
:0600180028EF15F01200B4
:02001E000900D7
:10002000C8310000000F000030000000AE310000B9
:10003000000100001A000000963100001A010000C3
:1000400018000000723100005A0F00002400000068
:1000500066310000320100000C0000006D2F00002E
:100060004C010000010000003C310000300F000096
:100070002A000000100000004801000004000000F9
:0C0080000E0000007E0F000002000000D7
:04008C00D9CFE6FFE3
:10009000E1CFD9FF040EE126DE6ADD6A020EDB6ADB
:1000A000030EDB6ADE6ADD6ADECF00F0DDCF01F031
:1000B000026A036A01AE02D002680368D950FB0FDE
:1000C000E96EFF0EDA20EA6EEE50005CEE50015849
:1000D000EE500258EE5003581DE2020EDB6A030E8A
:1000E000DB6A020EDBCF00F0030EDBCF01F0D8900D
:1000F000015004E6A00E005C000E015806E2020E5C
:10010000DB2A030EEEE3DB2AECD7DF2A010ECCE379
:10011000DB2ACAD7040EE15C02E2E16AE552E16E35
:10012000E552E7CFD9FF1200D9CFE6FFE1CFD9FFE3
:10013000FE0EDB50F00B006E0F0E81140010816E6E
:1001400081848186010EE66EE66AE66AE66A9EDFD3
:10015000E552E552E552E5528196010EE66EE66AF9
:10016000E66AE66A93DFE552E552E552E552FE0E95
:10017000DB38F00B006E0F0E81140010816E81864B
:10018000010EE66EE66AE66AE66A80DFE552E5524F
:10019000E552E55281968194030EE66EE66AE66AC0
:1001A000E66A74DFE552E552E552E552E552E7CFE3
:1001B000D9FF1200D9CFE6FFE1CFD9FFFD0EDBCF8B
:1001C000F6FFFE0EDBCFF7FF0800F55011E0FD0E45
:1001D000DBCFF6FFFE0EDBCFF7FF0800F550E66E33
:1001E000A3DFE552FD0EDB2AFE0EE8E3DB2AE6D7AD
:1001F000E552E7CFD9FF1200D9CFE6FFE1CFD9FF13
:100200007ACF00F07BCF01F0040ED8900036013693
:10021000E806FBE15A0E00260F0E012200500F01E6
:100220007C25E96E01507D21EA6EFE0EDBCFEFFFEB
:100230007C2B000E7D23100E7DAF02D0D89003D012
:100240007C5D000E7D5905E37A2B000E7B237C6BD1
:100250007D6B030E7BAF02D0D89003D07A5D000E89
:100260007B5902E37A6B7B6BE552E7CFD9FF120033
:10027000D9CFE6FFE1CFD9FFFE0EDB50F00B006EC9
:100280000F0E81140010816E81948186010EE66E3E
:10029000E66AE66AE66AFADEE552E552E552E552BA
:1002A0008196010EE66EE66AE66AE66AEFDEE552E0
:1002B000E552E552E552FE0EDB38F00B006E0F0EF4
:1002C00081140010816E8186010EE66EE66AE66A90
:1002D000E66ADCDEE552E552E552E5528196030E10
:1002E000E66EE66AE66AE66AD1DEE552E552E55276
:1002F000E552E552E7CFD9FF1200D9CFE6FFE1CFB3
:10030000D9FF020EE126DE6ADD6A0F017C6B7D6B90
:10031000010E7A6F7B6BDE6ADD6ADECF00F0DDCF27
:1003200001F0200E005C000E01582BE2DECF00F041
:10033000DDCF01F0040E0F0B05E0D8900132003242
:10034000E806FBE1040ED89000360136E806FBE132
:100350005A0E00260F0E0122DECF02F0DDCF03F091
:100360000001036A0F0E021600500224E96E0150CC
:100370000320EA6E200EEF6EDF2A010ECEE3DB2AA9
:10038000CCD7936A816A190EE66EE66AE66AE66A77
:100390007DDEE552E552E552E552020EE66E68DF7B
:1003A000E552280EE66E64DFE552010EE66E60DF70
:1003B000E5520C0EE66E5CDFE552060EE66E58DF87
:1003C000E552020EE15C02E2E16AE552E16EE552BD
:1003D000E7CFD9FF1200010EE66E4ADFE552030EA9
:1003E000E66EE66AE66AE66A51DEE552E552E552F5
:1003F000E5521200D9CFE6FFE1CFD9FFE652DF6A1E
:10040000FE0EDB5005E1FD0EDB500F0B800904D022
:10041000FD0EDB500F0BC009DF6EDFCFE6FF28DFDC
:10042000E552FB0EDBCFE6FFFC0EDBCFE6FFC2DEC4
:10043000E552E552E552E552E7CFD9FF1200D9CF98
:10044000E6FFE1CFD9FFFD0EDBCF7AFF0F017B6B1B
:10045000010E7A17FB0EDBCF7CFF7D6B0F0E7C1736
:100460007ACF00F07BCF01F0040ED8900036013631
:10047000E806FBE15A0E00260F0E012200500F0184
:100480007C25E96E01507D21EA6EFA0EDBCFEFFF8D
:100490007C2B000E7D23100E7DAF02D0D89003D0B0
:1004A0007C5D000E7D5905E37A2B000E7B237C6B6F
:1004B0007D6B030E7BAF02D0D89003D07A5D000E27
:1004C0007B5902E37A6B7B6BE552E7CFD9FF1200D1
:1004D000D9CFE6FFE1CFD9FFFD0EDBCF7AFF0F01C9
:1004E0007B6B010E7A17FB0EDBCF7CFF7D6B0F0E53
:1004F0007C17F90EDBCFF6FFFA0EDBCFF7FF080013
:10050000F55047E0F90EDBCFF6FFFA0EDBCFF7FF31
:100510000800F550E66E7ACF00F07BCF01F0040EB4
:10052000D89000360136E806FBE15A0E00260F0E81
:10053000012200500F017C25E96E01507D21EA6EF9
:10054000E552E750EF6E7C2B000E7D23100E7DAF41
:1005500002D0D89003D07C5D000E7D5905E37A2B44
:10056000000E7B237C6B7D6B020E7BAF02D0D8909C
:1005700003D07A5D000E7B5902E37A6B7B6BF90E38
:10058000DBCFF6FFDB2AFA0EDBCFF7FFB2E3DB2A85
:10059000B0D7E552E7CFD9FF1200D9CFE6FFE1CFC0
:1005A000D9FF040EE126DE6ADD6A020EDB6A030E65
:1005B000DB6AFD0EDBCF7AFF0F017B6B010E7A1732
:1005C000FB0EDBCF7CFFFC0EDBCF7DFF7D6B0F0EC8
:1005D0007C17F70EDBCF00F0F80EDBCF01F0F90E41
:1005E000DBCF02F0FA0EDBCF03F000500110021057
:1005F000031004E1300EE66EFFDDE552D950F70F2F
:10060000E96EFF0EDA20EA6ED890030EEB50000A76
:1006100008E6000EEE5C000EEE58000EEE58000EDE
:10062000EE5822E22D0EE66EE7DDE552F70EDBCF47
:100630001EF0F80EDBCF1FF0F90EDBCF20F0FA0E24
:10064000DBCF21F02368246825682668B7EC17F013
:10065000F70E1AC0DBFFF80E1BC0DBFFF90E1CC043
:10066000DBFFFA0E1DC0DBFF100EDE6E270EDD6E07
:10067000D9CFE9FFDACFEAFF000ED880EE54000EA2
:10068000ED5401E3AAD0DECF00F0DDCF01F0026A25
:10069000036A00C023F001C024F002C025F003C0AB
:1006A00026F0F70EDBCF1EF0F80EDBCF1FF0F90EB1
:1006B000DBCF20F0FA0EDBCF21F0A6EC11F01E50BC
:1006C0001F102010211036E0DECF04F0DDCF05F042
:1006D000066A076A04C023F005C024F006C025F0AE
:1006E00007C026F0F70EDBCF1EF0F80EDBCF1FF0B1
:1006F000F90EDBCF20F0FA0EDBCF21F0A6EC11F0E3
:100700001EC000F01FC001F020C002F021C003F0A5
:10071000300E0026000E0122022203220050E66E57
:100720006BDDE552010EF36E020EF3CFDBFF030E1D
:10073000DB6A0ED0D950020FE96EDACFEAFF010E64
:10074000EE1806E1ED5004E1300EE66E55DDE5529F
:10075000DECF00F0DDCF01F0026A036A00C023F0B3
:1007600001C024F002C025F003C026F0F70EDBCF55
:100770001EF0F80EDBCF1FF0F90EDBCF20F0FA0EE3
:10078000DBCF21F003C0F5FFA6EC11F0F5AE08D0E9
:10079000000E1A6C1B1E1B221C1E1C221D1E1D225D
:1007A000F70E1AC0DBFFF80E1BC0DBFFF90E1CC0F2
:1007B000DBFFFA0E1DC0DBFF0A0E006E016A256E1C
:1007C00001C026F0DECF20F0DDCF21F06AEC18F07A
:1007D00020C0DEFF21C0DDFF4BD7040EE15C02E24A
:1007E000E16AE552E16EE552E7CFD9FF1200D9CFB9
:1007F000E6FFE1CFD9FF060EE126D9CFE9FFDACF38
:10080000EAFFF70EDBCFEEFFF80EDBCFEEFFF90EBF
:10081000DBCFEEFFFA0EDBCFEEFF040EDB6A050E38
:10082000DB6AD9CFE9FFDACFEAFFEECF1EF0EECFD9
:100830001FF0EECF20F0EFCF21F0E80E236E030E75
:10084000246E256A266AA6EC11F01E501F10201097
:1008500021104DE0D9CFE9FFDACFEAFFEECF00F06B
:10086000EECF01F0EECF02F0EFCF03F0E80E236EF3
:10087000030E246E256A266A00C01EF001C01FF018
:1008800002C020F003C021F0A6EC11F01EC000F061
:100890001FC001F020C002F021C003F01EC0E6FF1F
:1008A0001FC0E6FF20C0E6FF21C0E6FF040EDBCF3D
:1008B00006F0050EDBCF07F0FB0EDB500624046EBE
:1008C000FC0EDB500720056E04C0E6FFE66EFD0E51
:1008D000DBCFE6FFFE0EDBCFE6FF5FDE086E080E25
:1008E000E15E0850040EDB2A050E01E3DB2AD9CFB6
:1008F000E9FFDACFEAFFEECF1EF0EECF1FF0EECF2A
:1009000020F0EFCF21F0E80E236E030E246E256A4F
:10091000266AA6EC11F01AC0DEFF1BC0DEFF1CC069
:10092000DEFF1DC0DDFFDD52DD52D9CFE9FFDACF9A
:10093000EAFFEECF00F0EECF01F0EECF02F0EFCF06
:1009400003F0640E236E246A256A266A00C01EF036
:1009500001C01FF002C020F003C021F0A6EC11F08E
:100960001EC000F01FC001F020C002F021C003F043
:100970001EC0E6FF1FC0E6FF20C0E6FF21C0E6FF65
:10098000040EDBCF06F0050EDBCF07F0FB0EDB50CD
:100990000624046EFC0EDB500720056E04C0E6FF43
:1009A000E66EFD0EDBCFE6FFFE0EDBCFE6FFF5DDEC
:1009B000086E080EE15E0850040EDB2A050E01E306
:1009C000DB2AD9CFE9FFDACFEAFFEECF1EF0EECF78
:1009D0001FF0EECF20F0EFCF21F0640E236E246ADB
:1009E000256A266AA6EC11F01AC0DEFF1BC0DEFFE6
:1009F0001CC0DEFF1DC0DDFFDD52DD522E0EE66E97
:100A0000040EDBCF02F0050EDBCF03F0FB0EDB5054
:100A10000224006EFC0EDB500320016E00C0E6FFD6
:100A2000E66EFD0EDBCFE6FFFE0EDBCFE6FF07DD59
:100A3000046E050EE15E0450040EDB2A050E01E390
:100A4000DB2AD9CFE9FFDACFEAFFEECF00F0EECF15
:100A500001F0EECF02F0EFCF03F00A0E236E246A0E
:100A6000256A266A00C01EF001C01FF002C020F0F7
:100A700003C021F0A6EC11F01EC000F01FC001F071
:100A800020C002F021C003F01EC0E6FF1FC0E6FF39
:100A900020C0E6FF21C0E6FF040EDBCF06F0050E06
:100AA000DBCF07F0FB0EDB500624046EFC0EDB50A0
:100AB0000720056E04C0E6FFE66EFD0EDBCFE6FF05
:100AC000FE0EDBCFE6FF69DD086E080EE15E085022
:100AD000040EDB2A050E01E3DB2AD9CFE9FFDACFCA
:100AE000EAFFEECF00F0EECF01F0EECF02F0EFCF55
:100AF00003F00A0E236E246A256A266A00C01EF0DF
:100B000001C01FF002C020F003C021F0A6EC11F0DC
:100B10001AC000F01BC001F01CC002F01DC003F0A1
:100B20001AC0E6FF1BC0E6FF1CC0E6FF1DC0E6FFC3
:100B3000040EDBCF06F0050EDBCF07F0FB0EDB501B
:100B40000624046EFC0EDB500720056E04C0E6FF91
:100B5000E66EFD0EDBCFE6FFFE0EDBCFE6FF1DDD12
:100B6000086E080EE15E0850040EDB2A050E01E354
:100B7000DB2A060EE15C02E2E16AE552E16EE55233
:100B8000E7CFD9FF1200D9CFE6FFE1CFD9FF030E9F
:100B9000E126200EDF6E010EDB6A020EDB6A010E1B
:100BA000DB6A020EDB6A010EDBCF00F0020EDBCF48
:100BB00001F0100E005C000E015837E2010EDBCF91
:100BC000E9FF020EDBCFEAFF5A0EE9260F0EEA22FA
:100BD000EFCFDFFF010EDBCFE9FF020EDBCFEAFF35
:100BE0006A0EE9260F0EEA22EF50E66E010EDBCF09
:100BF000E9FF020EDBCFEAFF5A0EE9260F0EEA22CA
:100C0000E552E750EF6E010EDBCFE9FF020EDBCFBE
:100C1000EAFF6A0EE9260F0EEA22DFCFEFFF010E90
:100C2000DB2A020EC0E3DB2ABED7D950FD0FE96EE6
:100C3000FF0EDA20EA6EEE50ED100BE0D950FD0FFA
:100C4000E96EFF0EDA20EA6E010EEE180BE1ED50B0
:100C500009E1FD0EDBCFE6FFFE0EDBCFE6FF38D865
:100C6000E552E552030EE15C02E2E16AE552E16E13
:100C7000E552E7CFD9FF1200D9CFE6FFE1CFD9FF88
:100C8000FD0EDBCF7AFF0F017B6B010E7A17FB0E97
:100C9000DBCF7CFF7D6B0F0E7C177ACF00F07BCF14
:100CA00001F0040ED89000360136E806FBE15A0E3A
:100CB00000260F0E012200500F017C25E96E015025
:100CC0007D21EA6E200EEF6EE552E7CFD9FF1200CC
:100CD000D9CFE6FFE1CFD9FF020EE126DE6ADD6A59
:100CE000FD0EDBCF7AFF0F017B6B010E7A17DE6AF8
:100CF000DD6ADECF00F0DDCF01F0100E005C000EEB
:100D000001581BE27ACF00F07BCF01F0040ED8909F
:100D100000360136E806FBE15A0E00260F0E0122CE
:100D2000DE500024E96EDD500120EA6E200EEF6EE9
:100D3000DF2A010EDEE3DB2ADCD7020EE15C02E2F1
:100D4000E16AE552E16EE552E7CFD9FF1200D9CF53
:100D5000E6FFE1CFD9FF020EE126DE6ADD6A0F0170
:100D60007C6B7D6B010E7A6F7B6BDE6ADD6ADECF9A
:100D700000F0DDCF01F0200E005C000E01582BE2E8
:100D8000DECF00F0DDCF01F0040E0F0B05E0D890B0
:100D900001320032E806FBE1040ED890003601363D
:100DA000E806FBE15A0E00260F0E0122DECF02F00C
:100DB000DDCF03F00001036A0F0E0216005002247B
:100DC000E96E01500320EA6E200EEF6EDF2A010E5D
:100DD000CEE3DB2ACCD7020EE15C02E2E16AE55207
:100DE000E16EE552E7CFD9FF1200D9CFE6FFE1CFA0
:100DF000D9FF020EE126DE6ADD6A800EE66E38EC6F
:100E000001F0E552DE6ADD6ADECF00F0DDCF01F0F1
:100E1000100E005C000E015812E2DECFE9FFDDCFBC
:100E2000EAFF5A0EE9260F0EEA22EF50E66E94EC26
:100E300000F0E552DF2A010EE7E3DB2AE5D7C00E1A
:100E4000E66E38EC01F0E552DE6ADD6ADECF00F0D6
:100E5000DDCF01F0100E005C000E015812E2DECF73
:100E6000E9FFDDCFEAFF6A0EE9260F0EEA22EF5016
:100E7000E66E94EC00F0E552DF2A010EE7E3DB2A90
:100E8000E5D7020EE15C02E2E16AE552E16EE5526D
:060E9000E7CFD9FF1200BC
:0A0E9600D9CFE6FFE1CFD9FFFD0E32
:100EA000DBCF00F0FE0EDBCF01F0000E005C000E89
:100EB00001580BE3FD0EDBCF02F0FE0EDBCF03F09B
:100EC000070E025C000E035805E31E6A1F6A206AC3
:100ED000216A20D0FD0EDBCFE9FFFE0EDBCFEAFF5B
:100EE000020ED890E936EA36E806FBE1800EE926E4
:100EF000000EEA22EECF00F0EECF01F0EECF02F0CE
:100F0000EFCF03F000C01EF001C01FF002C020F0C0
:100F100003C021F0E552E7CFD9FF120040CF00F027
:100F200041CF01F0026A036A0F013051325D146E45
:100F300033513155156E166A176A40513E5D106E79
:100F40003F514155116E126A136A30CF0CF031CF08
:100F50000DF00E6A0F6A0C50345D086E0D50355955
:100F6000096E0E5036590A6E0F5037590B6E08C075
:100F70001EF009C01FF00AC020F0216E10C023F03F
:100F800011C024F012C025F013C026F0B7EC17F002
:100F90001AC004F01BC005F01CC006F01DC007F00D
:100FA0001AC01EF01BC01FF01CC020F01DC021F095
:100FB00014C023F015C024F016C025F017C026F089
:100FC000A6EC11F000501E240001806F01501F207C
:100FD000816F02502020826F03502120836F44CF05
:100FE00000F045CF01F0026A036A0F013051325D13
:100FF000146E33513155156E166A176A4451425DAD
:10100000106E43514555116E126A136A30CF0CF0C1
:1010100031CF0DF00E6A0F6A0C50345D086E0D5022
:101020003559096E0E5036590A6E0F5037590B6EEE
:1010300008C01EF009C01FF00AC020F0216E10C0C9
:1010400023F011C024F012C025F013C026F0B7EC35
:1010500017F01AC004F01BC005F01CC006F01DC03C
:1010600007F01AC01EF01BC01FF01CC020F01DC0EE
:1010700021F014C023F015C024F016C025F017C0CD
:1010800026F0A6EC11F000501E240001846F0150E0
:101090001F20856F02502020866F03502120876F0C
:1010A00048CF00F049CF01F0026A036A0F013051C6
:1010B000325D146E33513155156E166A176A4851F8
:1010C000465D106E47514955116E126A136A30CF52
:1010D0000CF031CF0DF00E6A0F6A0C50345D086EC3
:1010E0000D503559096E0E5036590A6E0F5037594A
:1010F0000B6E08C01EF009C01FF00AC020F0216E60
:1011000010C023F011C024F012C025F013C026F047
:10111000B7EC17F01AC004F01BC005F01CC006F0B5
:101120001DC007F01AC01EF01BC01FF01CC020F02D
:101130001DC021F014C023F015C024F016C025F006
:1011400017C026F0A6EC11F000501E240001886F95
:1011500001501F20896F025020208A6F03502120E8
:101160008B6F4CCF00F04DCF01F0026A036A0F0184
:101170003051325D146E33513155156E166A176A4F
:101180004C514A5D106E4B514D55116E126A136AE7
:1011900030CF0CF031CF0DF00E6A0F6A0C50345D79
:1011A000086E0D503559096E0E5036590A6E0F50A3
:1011B00037590B6E08C01EF009C01FF00AC020F09E
:1011C000216E10C023F011C024F012C025F013C00E
:1011D00026F0B7EC17F01AC004F01BC005F01CC0D5
:1011E00006F01DC007F01AC01EF01BC01FF01CC087
:1011F00020F01DC021F014C023F015C024F016C04B
:1012000025F017C026F0A6EC11F000501E240001B6
:101210008C6F01501F208D6F025020208E6F035065
:1012200021208F6F50CF00F051CF01F0026A036A86
:101230000F013051325D146E33513155156E166AFF
:10124000176A50514E5D106E4F515155116E126A12
:10125000136A30CF0CF031CF0DF00E6A0F6A0C50CC
:10126000345D086E0D503559096E0E5036590A6EB0
:101270000F5037590B6E08C01EF009C01FF00AC08E
:1012800020F0216E10C023F011C024F012C025F010
:1012900013C026F0B7EC17F01AC004F01BC005F01D
:1012A0001CC006F01DC007F01AC01EF01BC01FF0C6
:1012B0001CC020F01DC021F014C023F015C024F084
:1012C00016C025F017C026F0A6EC11F000501E2421
:1012D0000001906F01501F20916F02502020926FEB
:1012E00003502120936F54CF00F055CF01F0026AD4
:1012F000036A0F013051325D146E33513155156E52
:10130000166A176A5451525D106E53515555116E3D
:10131000126A136A30CF0CF031CF0DF00E6A0F6AEB
:101320000C50345D086E0D503559096E0E5036590B
:101330000A6E0F5037590B6E08C01EF009C01FF01F
:101340000AC020F0216E10C023F011C024F012C09A
:1013500025F013C026F0B7EC17F01AC004F01BC03C
:1013600005F01CC006F01DC007F01AC01EF01BC01F
:101370001FF01CC020F01DC021F014C023F015C0C8
:1013800024F016C025F017C026F0A6EC11F000508E
:101390001E240001946F01501F20956F02502020E1
:1013A000966F03502120976F58CF00F059CF01F06E
:1013B000026A036A0F013051325D146E33513155A8
:1013C000156E166A176A5851565D106E5751595569
:1013D000116E126A136A30CF0CF031CF0DF00E6A25
:1013E0000F6A0C50345D086E0D503559096E0E5061
:1013F00036590A6E0F5037590B6E08C01EF009C0DF
:101400001FF00AC020F0216E10C023F011C024F09C
:1014100012C025F013C026F0B7EC17F01AC004F084
:101420001BC005F01CC006F01DC007F01AC01EF05E
:101430001BC01FF01CC020F01DC021F014C023F001
:1014400015C024F016C025F017C026F0A6EC11F048
:1014500000501E240001986F01501F20996F025008
:1014600020209A6F035021209B6F1200D9CFE6FFF6
:10147000E1CFD9FF040EE126DE6ADD6A020EDB6AE7
:10148000030EDB6AE66A33EC17F0E552F3CF38FF60
:10149000F4CF39FF3CCFE9FF3DCFEAFFD890E936E2
:1014A000EA369C0EE926000EEA22F3CFEEFF39CF92
:1014B000EDFF010E0F013C253C6F000E3D213D6FFD
:1014C000320E256E266A3CCF20F03DCF21F053EC42
:1014D00011F01CC03CFF1DC03DFF1CC0DEFF1DC045
:1014E000DDFF0F013A6B3B6B020EDB6A030EDB6A1A
:1014F000020EDBCF00F0030EDBCF01F0D8900150DD
:1015000004E6320E005C000E015824E2DECFE9FF53
:10151000DDCFEAFFD890E936EA369C0EE926000EC8
:10152000EA22EE503A27EE503B23D9CFE9FFDACF3B
:10153000EAFFEE50ED1004E1310EDE6EDD6A04D0FC
:10154000DF06010E01E2DB06020EDB2A030ED0E30A
:10155000DB2ACED73ACF34FF3BCF35FF366B376B24
:10156000320E236E246A256A266A3ACF1EF03BCFDC
:101570001FF036CF20F037CF21F0A6EC11F01EC0BF
:1015800034FF1FC035FF20C036FF21C037FF040ED7
:10159000E15C02E2E16AE552E16EE552E7CFD9FF94
:0215A000120037
:0E15A200B06A810EAF6EAC8AAC94B886AC987D
:1015B000AB8EAB889E9A9D8A9F9A949C948E1200C3
:1015C00001014C511200D9CFE6FFE1CFD9FF9EA80F
:1015D000FED7FE0EDB50AD6E9E98E552E7CFD9FFE9
:1015E0001200D9CFE6FFE1CFD9FFFD0EDBCFF6FF2A
:1015F000FE0EDBCFF7FF0800F55015E0FD0EDBCF48
:10160000F6FFFE0EDBCFF7FF0800F550E66EDBDFDE
:10161000E552FD0EDBCFF6FFDB2AFE0EDBCFF7FF38
:10162000E4E3DB2AE2D7E552E7CFD9FF1200D9CFB6
:10163000E6FFE1CFD9FF040EE126DE6ADD6A020E85
:10164000DB6A030EDB6AFB0EDBCF00F0FC0EDBCFA8
:1016500001F0FD0EDBCF02F0FE0EDBCF03F00050F9
:1016600001100210031004E1300EE66EACDFE5520B
:10167000D950FB0FE96EFF0EDA20EA6ED890030E08
:10168000EB50000A08E6000EEE5C000EEE58000E6D
:10169000EE58000EEE5822E22D0EE66E94DFE55273
:1016A000FB0EDBCF1EF0FC0EDBCF1FF0FD0EDBCF01
:1016B00020F0FE0EDBCF21F0236824682568266821
:1016C000B7EC17F0FB0E1AC0DBFFFC0E1BC0DBFFF4
:1016D000FD0E1CC0DBFFFE0E1DC0DBFF100EDE6E1C
:1016E000270EDD6ED9CFE9FFDACFEAFF000ED880F2
:1016F000EE54000EED5401E3AAD0DECF00F0DDCFB2
:1017000001F0026A036A00C023F001C024F002C0A5
:1017100025F003C026F0FB0EDBCF1EF0FC0EDBCF66
:101720001FF0FD0EDBCF20F0FE0EDBCF21F0A6EC8C
:1017300011F01E501F102010211036E0DECF04F0F3
:10174000DDCF05F0066A076A04C023F005C024F067
:1017500006C025F007C026F0FB0EDBCF1EF0FC0E06
:10176000DBCF1FF0FD0EDBCF20F0FE0EDBCF21F034
:10177000A6EC11F01EC000F01FC001F020C002F066
:1017800021C003F0300E0026000E012202220322A7
:101790000050E66E18DFE552010EF36E020EF3CF35
:1017A000DBFF030EDB6A0ED0D950020FE96EDACFF1
:1017B000EAFF010EEE1806E1ED5004E1300EE66E90
:1017C00002DFE552DECF00F0DDCF01F0026A036AEE
:1017D00000C023F001C024F002C025F003C026F0B1
:1017E000FB0EDBCF1EF0FC0EDBCF1FF0FD0EDBCFC0
:1017F00020F0FE0EDBCF21F003C0F5FFA6EC11F0C8
:10180000F5AE08D0000E1A6C1B1E1B221C1E1C22DB
:101810001D1E1D22FB0E1AC0DBFFFC0E1BC0DBFFD2
:10182000FD0E1CC0DBFFFE0E1DC0DBFF0A0E006EAE
:10183000016A256E01C026F0DECF20F0DDCF21F059
:101840006AEC18F020C0DEFF21C0DDFF4BD7040E8C
:10185000E15C02E2E16AE552E16EE552E7CFD9FFD1
:101860001200D9CFE6FFE1CFD9FF040EE126D9CF90
:10187000E9FFDACFEAFFFB0EDBCFEEFFFC0EDBCF9A
:10188000EEFFFD0EDBCFEEFFFE0EDBCFEEFFD9CF7E
:10189000E9FFDACFEAFFEECF1EF0EECF1FF0EECF7A
:1018A00020F0EFCF21F0E80E236E030E246E256AA0
:1018B000266AA6EC11F01E501F102010211031E0F6
:1018C000D9CFE9FFDACFEAFFEECF00F0EECF01F09B
:1018D000EECF02F0EFCF03F0E80E236E030E246E7E
:1018E000256A266A00C01EF001C01FF002C020F069
:1018F00003C021F0A6EC11F01EC000F01FC001F0E3
:1019000020C002F021C003F01EC0E6FF1FC0E6FFAA
:1019100020C0E6FF21C0E6FF8ADEE552E552E5522F
:10192000E552D9CFE9FFDACFEAFFEECF1EF0EECFD6
:101930001FF0EECF20F0EFCF21F0E80E236E030E64
:10194000246E256A266AA6EC11F01AC0DEFF1BC0C1
:10195000DEFF1CC0DEFF1DC0DDFFDD52DD52D9CF32
:10196000E9FFDACFEAFFEECF00F0EECF01F0EECFE5
:1019700002F0EFCF03F0640E236E246A256A266A14
:1019800000C01EF001C01FF002C020F003C021F013
:10199000A6EC11F01EC000F01FC001F020C002F044
:1019A00021C003F01EC0E6FF1FC0E6FF20C0E6FF17
:1019B00021C0E6FF3CDEE552E552E552E552D9CFC3
:1019C000E9FFDACFEAFFEECF1EF0EECF1FF0EECF49
:1019D00020F0EFCF21F0640E236E246A256A266A78
:1019E000A6EC11F01AC0DEFF1BC0DEFF1CC0DEFF3C
:1019F0001DC0DDFFDD52DD522E0EE66EE4DDE55248
:101A0000D9CFE9FFDACFEAFFEECF00F0EECF01F059
:101A1000EECF02F0EFCF03F00A0E236E246A256AA0
:101A2000266A00C01EF001C01FF002C020F003C0F3
:101A300021F0A6EC11F01EC000F01FC001F020C084
:101A400002F021C003F01EC0E6FF1FC0E6FF20C069
:101A5000E6FF21C0E6FFEBDDE552E552E552E55237
:101A6000D9CFE9FFDACFEAFFEECF00F0EECF01F0F9
:101A7000EECF02F0EFCF03F00A0E236E246A256A40
:101A8000266A00C01EF001C01FF002C020F003C093
:101A900021F0A6EC11F01AC000F01BC001F01CC030
:101AA00002F01DC003F01AC0E6FF1BC0E6FF1CC019
:101AB000E6FF1DC0E6FFBBDDE552E552E552E5520B
:101AC000040EE15C02E2E16AE552E16EE552E7CF25
:0A1AD000D9FF1200AECF4CF1120056
:061ADA00D59ED59C650EAF
:101AE000206E130E216E32C125F033C126F0DAECE0
:101AF00011F01EC038F11FC039F103680468056A8F
:101B000032C106F033C107F0086A0650035C006E6C
:101B100007500458016E08500558026E246A010EE1
:101B2000256E266A00C01FF001C020F002C021F01F
:101B300079EC11F01BC000F01CC001F01DC002F0D8
:101B40001B50D66E03680468056A32C106F033C1C3
:101B500007F0086A0650035C006E07500458016ED7
:101B600008500558026E246A010E256E266A00C0D0
:101B70001FF001C020F002C021F079EC11F01FC06D
:101B800000F020C001F021C002F01F50D76ED59A9E
:101B9000D586F28AF294F184D58E12000368046827
:101BA000056A38C106F039C107F0086A0650035CBF
:101BB000006E07500458016E08500558026E246AE2
:101BC000010E256E266A00C01FF001C020F002C081
:101BD00021F079EC11F01B50D66E03680468056A99
:101BE00038C106F039C107F0086A0650035C006E80
:101BF00007500458016E08500558026E246A010E01
:101C0000256E266A00C01FF001C020F002C021F03E
:101C100079EC11F01FC000F020C001F021C002F0EB
:101C20001F50D76ED58E1200D59E12001200CD9097
:101C3000650E206E130E216E34C125F035C126F0DD
:101C4000DAEC11F01EC03AF11FC03BF103680468E2
:101C5000056A1EC006F01FC007F0086A1E50035C2C
:101C6000006E1F500458016E08500558026E246A19
:101C7000010E256E266A00C01FF001C020F002C0D0
:101C800021F079EC11F01FC000F020C001F021C05C
:101C900002F01F50CF6E03680468056A3AC106F06F
:101CA0003BC107F0086A0650035C006E07500458F9
:101CB000016E08500558026E246A010E256E266AD0
:101CC00000C01FF001C020F002C021F079EC11F03B
:101CD0001BC000F01CC001F01DC002F01B50CE6EF6
:101CE0009D809E909F90CD8ECD8CCD98CD9ACD9697
:101CF000CD92CD80120003680468056A3AC106F0EF
:101D00003BC107F0086A0650035C006E0750045898
:101D1000016E08500558026E246A010E256E266A6F
:101D200000C01FF001C020F002C021F079EC11F0DA
:101D30001F50CF6E03680468056A3AC106F03BC1C4
:101D400007F0086A0650035C006E07500458016EE5
:101D500008500558026E246A010E256E266A00C0DE
:101D60001FF001C020F002C021F079EC11F01BC07F
:101D700000F01CC001F01DC002F01B50CE6ECD80E3
:101D80001200CD9012001200B190650E206E130E5D
:101D9000216E36C125F037C126F0DAEC11F01EC0F5
:101DA0003CF11FC03DF103680468056A1EC006F0DF
:101DB0001FC007F0086A1E50035C006E1F500458D5
:101DC000016E08500558026E246A010E256E266ABF
:101DD00000C01FF001C020F002C021F079EC11F02A
:101DE0001FC000F020C001F021C002F01F50B36EF0
:101DF00003680468056A3CC106F03DC107F0086A43
:101E00000650035C006E07500458016E08500558D8
:101E1000026E246A010E256E266A00C01FF001C002
:101E200020F002C021F079EC11F01BC000F01CC0C2
:101E300001F01DC002F01B50B26EA082A192A292CE
:101E4000B18EB198B19AB192B18012000368046862
:101E5000056A3CC106F03DC107F0086A0650035C04
:101E6000006E07500458016E08500558026E246A2F
:101E7000010E256E266A00C01FF001C020F002C0CE
:101E800021F079EC11F01B50B26E03680468056A0A
:101E90003CC106F03DC107F0086A0650035C006EC5
:101EA00007500458016E08500558026E246A010E4E
:101EB000256E266A00C01FF001C020F002C021F08C
:101EC00079EC11F01FC000F020C001F021C002F039
:0C1ED0001F50B36EB1801200B1901200E0
:041EDC000F011E07CD
:101EE000000E1F5B12000F011E2B000E1F2312009D
:101EF000D9CFE6FFE1CFD9FF080EE126DE6ADE6A20
:101F0000DE6ADD6ADD52DD52040EDB6A050EDB6A35
:101F1000060EDB6A070EDB6A0F01010E1E1901E1D6
:101F20001F5126E01ECFE9FF1FCFEAFF020EE95E38
:101F3000000EEA5A010ED890E936EA36E806FBE1CF
:101F4000220EE9260F0EEA22EECFE6FFEFCFE6FFE4
:101F50004BEC07F0E552E5523AEC11F01FC0DEFF02
:101F600020C0DEFF21C0DEFF22C0DDFFDD52DD52DA
:101F70001ECFE9FF1FCFEAFFE906000EEA5A010E65
:101F8000D890E936EA36E806FBE1220EE9260F0E84
:101F9000EA22EECFE6FFEFCFE6FF4BEC07F0E5528B
:101FA000E5523AEC11F0040E1FC0DBFF050E20C015
:101FB000DBFF060E21C0DBFF070E22C0DBFFA7EC14
:101FC00006F01ECFE9FF1FCFEAFFE906000EEA5A2E
:101FD000010ED890E936EA36E806FBE1000EE92664
:101FE0000F0EEA22EECFE6FFEFCFE6FF000EE66E21
:101FF000E66AE66EE66A68EC02F0006E060EE15EE6
:1020000000501ECFE9FF1FCFEAFF010ED890E9363E
:10201000EA36E806FBE1000EE9260F0EEA22EECFD3
:10202000E6FFEFCFE6FF000EE66EE66A010EE66E13
:10203000E66A68EC02F0006E060EE15E00500F01E9
:10204000010E1E1901E11F513BE0DECF1FF0DECF74
:1020500020F0DECF21F0DDCF22F0DD52DD52F8ECB2
:1020600011F01EC000F01FC001F020C002F021C01E
:1020700003F01EC0E6FF1FC0E6FF20C0E6FF21C040
:10208000E6FF1ECFE9FF1FCFEAFF020EE95E000E5A
:10209000EA5A010ED890E936EA36E806FBE1100E5E
:1020A000E9260F0EEA22EECFE6FFEFCFE6FF000EA5
:1020B000E66EE66AF7EC03F0046E080EE15E04508B
:1020C000040EDBCF1FF0050EDBCF20F0060EDBCFBA
:1020D00021F0070EDBCF22F0F8EC11F01EC000F06B
:1020E0001FC001F020C002F021C003F01EC0E6FFB7
:1020F0001FC0E6FF20C0E6FF21C0E6FF1ECFE9FFBC
:102100001FCFEAFFE906000EEA5A010ED890E93621
:10211000EA36E806FBE1100EE9260F0EEA22EECFC2
:10212000E6FFEFCFE6FF010EE66EE66AF7EC03F09E
:10213000046E080EE15E0450F5EC06F0080EE15C5A
:1021400002E2E16AE552E16EE552E7CFD9FF120003
:10215000CFDE030E0F01201901E1215170E0020EC4
:10216000201901E1215129E0010E201901E121513D
:102170000BE0205101E1215101E01200010E206F1E
:10218000216B1E6F1F6B1200010E1E6F1F6B050E61
:10219000E66EE66AA4EC16F0E552E552F3CF00F0E5
:1021A000F4CF01F0010EF31807E1015060E19BDE6E
:1021B000020E0F01206F216B1200010EE66EE66A1F
:1021C000A4EC16F0E552E552F3CF00F0F4CF01F0A5
:1021D000010EF31814E1015012E11ECF00F01FCFE1
:1021E00001F00006000E015A010E001807E101502F
:1021F00005E1010E0F01206F216B01D06FDE050E8E
:10220000E66EE66AA4EC16F0E552E552F4CF01F072
:10221000010EF31813E101502AE1010E0F01016ACA
:102220001E25006E1F510122070E001806E1015005
:1022300004E1030E206F216B120055DE1200070E21
:102240001E6F1F6B010EE66EE66AA4EC16F0E552F7
:10225000E552F3CF00F0F4CF01F0010EF31807E1DF
:10226000015005E13BDE020E0F01206F216B1200D1
:10227000199E0CD0199E21AE09D01E6C1F1E201E67
:10228000211EE86A1F2220222122198E21C01BF064
:1022900020C01AF01FC02BF01EC02AF09E0E1C6E2C
:1022A0001D6A4BEF12F0186A26AE5CEF11F0256C38
:1022B000261EE86A2622181E21AE64EF11F0206C5B
:1022C000211EE86A2122181E6AEC18F021BE74EF64
:1022D00011F018AE000C206C211EE86A21221C6C43
:1022E0001D1EE86A1D22000C18BE6BEF11F0198844
:1022F000FF0C186A26AE84EF11F0246C251E261EF2
:10230000E86A25222622181E21AE8EEF11F01F6CDE
:10231000201E211EE86A20222122181E32EC18F00D
:1023200021BEA1EF11F018AE000C1F6C201E211E63
:10233000E86A202221221B6C1C1E1D1E1C221D224D
:10234000000C18BE95EF11F01988FF0C186AE86AA6
:1023500026AEB3EF11F0236C241E251E261E242268
:1023600025222622181E21AEBEEF11F01E6C1F1E64
:10237000201E211E1F2220222122181EEFEC17F002
:1023800021BED5EF11F018AE000C1E6C1F1E201ED2
:10239000211EE86A1F22202221221A6C1B1E1C1EED
:1023A0001D1E1B221C221D22000C18BEC5EF11F0A1
:1023B0001988FF0C20C02AF020502502F4CF1FF00E
:1023C000F3CF1EF021502602F4CF21F0F3CF20F0FE
:1023D0002502F3501F26F4502022E86A21222A50B9
:1023E0002602F3501F26F4502022E86A2122000C16
:1023F000196A87EC12F019B602EF12F019A20FD089
:1024000019B407D07F0E216EFF0E206E1F6E1E6E58
:1024100025D0800E216E01D0216A000EF6D719B0AA
:10242000FBD71E6A9F0E2260EBD77E0E2264F4D784
:102430009E0E225C07E0D890213220321F321E32DD
:10244000222AF6D719A40AD01E6C1F1E201E211E98
:10245000E86A1F222022212221AEDED712007F0E41
:10246000226EFF0E216E206E1F6E12007F0E19BEAF
:10247000FF0E226E02D07F0E226E800E216E206A29
:102480001F6AF3D719AE04D0800E226E216AF7D7E7
:10249000226A216AF4D71B501A102B102A10F8E078
:1024A0001DBEF0D71BBE0CD01C501D10EBE0D89009
:1024B0002A362B361A361B361C06D8A01D06F2D734
:1024C0001D50D4E11C28D2E02AAE11D07F0E2A1470
:1024D00002E12BA00CD02B2AE86A1A221B2207E368
:1024E000D8801B321A322B321C2A1C28BFE01C5009
:1024F000C9E02BC01FF01AC020F01B34216E1C3025
:10250000226E2132229E19BE228E35EF12F0213624
:10251000223602E31984197E06E11980226A216AB3
:10252000206A1F6A1200222803E0D880213212009C
:10253000D890213202E11982120019861200263643
:10254000273602E3198C197E06E11988276A266A64
:10255000256A246A1200272803E0D8802632120058
:0A256000D8902632EAE1198A120031
:06256A00020E0F017E19B4
:1025700001E17F5130E0010E7E1901E17F5117E04A
:102580007E5101E17F5101E01200E80EE66E030E7C
:10259000E66E000EE66EE66A78EC14F0E552E5525F
:1025A000E552E552010E0F017E6F7F6B1200000EA7
:1025B000E66EE66AD4EC14F0E552E552F4CF01F091
:1025C000010EF31807E1015001E021D1020E0F01C5
:1025D0007E6F7F6B1200670EE66E2F0EE66EF1ECDB
:1025E0000AF0E552E552000EE66EE66A4BEC07F0A3
:1025F000E552E5521EC000F01FC001F020C002F0FD
:1026000021C003F01EC0E6FF1FC0E6FF20C0E6FFAA
:1026100021C0E6FF31EC0CF0E552E552E552E552FF
:102620005E0EE66E2F0EE66EF1EC0AF0E552E55214
:10263000010EE66EE66A4BEC07F0E552E5521EC06D
:1026400000F01FC001F020C002F021C003F01EC046
:10265000E6FF1FC0E6FF20C0E6FF21C0E6FF31EC29
:102660000CF0E552E552E552E552520EE66E2F0EA1
:10267000E66EF1EC0AF0E552E552020EE66EE66A0D
:102680004BEC07F0E552E5521EC000F01FC001F010
:1026900020C002F021C003F01EC0E6FF1FC0E6FF0D
:1026A00020C0E6FF21C0E6FF31EC0CF0E552E55218
:1026B000E552E552460EE66E2F0EE66EF1EC0AF09C
:1026C000E552E552030EE66EE66A4BEC07F0E55282
:1026D000E5521EC000F01FC001F020C002F021C072
:1026E00003F01EC0E6FF1FC0E6FF20C0E6FF21C0CA
:1026F000E6FF31EC0CF0E552E552E552E5523D0EB5
:10270000E66E2F0EE66EF1EC0AF0E552E552040E8D
:10271000E66EE66A4BEC07F0E552E5521EC000F0AB
:102720001FC001F020C002F021C003F01EC0E6FF70
:102730001FC0E6FF20C0E6FF21C0E6FF31EC0CF031
:10274000E552E552E552E552310EE66E2F0EE66E89
:10275000F1EC0AF0E552E552050EE66EE66A4BEC46
:1027600007F0E552E5521EC000F01FC001F020C086
:1027700002F021C003F01EC0E6FF1FC0E6FF20C02C
:10278000E6FF21C0E6FF31EC0CF0E552E552E552E0
:10279000E552240EE66E2F0EE66EF1EC0AF0E552DD
:1027A000E552060EE66EE66A4BEC07F0E552E5529E
:1027B0001EC000F01FC001F020C002F021C003F0D5
:1027C0001EC0E6FF1FC0E6FF20C0E6FF21C0E6FFF7
:1027D00031EC0CF0E552E552E552E5521B0EE66E87
:1027E0002F0EE66EF1EC0AF0E552E552E80EE66EC9
:1027F000030EE66E000EE66EE66A78EC14F0E55223
:10280000E552E552E552010E0F017E6F7F6B12001B
:10281000D9CFE6FFE1CFD9FF020EE126DE6ADD6AFD
:10282000DE6ADD6ADECF00F0DDCF01F0D890015026
:1028300004E6010E005C000E015850E2DECFE9FF15
:10284000DDCFEAFFD890E936EA364A0EE926010ED6
:10285000EA22000ED880EE54000EED543AE2DECFAC
:10286000E9FFDDCFEAFFD890E936EA364A0EE926DD
:10287000010EEA22EE06000EEF5ADECFE9FFDDCFB1
:10288000EAFFD890E936EA364A0EE926010EEA2236
:10289000000ED880EE54000EED541BE3DECFE9FFAE
:1028A000DDCFEAFFD890E936EA364A0EE926010E76
:1028B000EA22EE6AED6ADECFE9FFDDCFEAFFD890CB
:1028C000E936EA36480EE926010EEA22010EEE6EDE
:1028D000ED6ADF2A010EA6E3DB2AA4D7020EE15C33
:1028E00002E2E16AE552E16EE552E7CFD9FF12005C
:1028F000D9CFE6FFE1CFD9FFFD0EDBCF00F0FE0E12
:10290000DBCF01F0000E005C000E01580BE3FD0E62
:10291000DBCF02F0FE0EDBCF03F0010E025C000EF7
:10292000035802E3F36A3BD0FB0EDBCF00F0FC0E52
:10293000DBCF01F00A0E256E266A00C020F001C030
:1029400021F06AEC18F020C000F021C001F0FD0E6B
:10295000DBCFE9FFFE0EDBCFEAFF010ED890E936B0
:10296000EA36E806FBE14A0EE926010EEA2200C03B
:10297000EEFF01C0EDFFFD0EDBCFE9FFFE0EDBCF6A
:10298000EAFF010ED890E936EA36E806FBE1480E88
:10299000E926010EEA22EE6AED6A010EF36EF46A90
:1029A000E552E7CFD9FF1200D9CFE6FFE1CFD9FF3B
:1029B000FD0EDBCF00F0FE0EDBCF01F0000E005C61
:1029C000000E01580BE3FD0EDBCF02F0FE0EDBCF55
:1029D00003F0010E025C000E035802E3F36A2BD0F1
:1029E000FD0EDBCFE9FFFE0EDBCFEAFF010ED89034
:1029F000E936EA36E806FBE1480EE926010EEA224E
:102A0000010EEE1817E1ED5015E1FD0EDBCFE9FFE9
:102A1000FE0EDBCFEAFF010ED890E936EA36E80673
:102A2000FBE1480EE926010EEA22EE6AED6A010E8C
:102A3000F36E01D0F36AF46AE552E7CFD9FF1200D2
:102A4000F28ED08EF28C1200F19CF292F28812007B
:102A5000D8CFE4FFE0CFE4FFE46EDACFE4FFE2CFCB
:102A6000DAFFE9CFE4FFEACFE4FFF6CFE4FFF7CFE8
:102A7000E4FFF5CFE4FFF3CFE4FFF4CFE4FFFACFB8
:102A8000E4FF00EE18F0140EE80403E3EECFE4FFD9
:102A9000FBD700EE00F0180EE80403E3EECFE4FFEE
:102AA000FBD7E652F2A407D014EC0EF0F294CEEC71
:102AB0000DF016EC0EF09EA007D0C1EC0EF09E902B
:102AC0007BEC0EF0C3EC0EF0A1A207D06CEC0FF083
:102AD000A19226EC0FF02AEC18F0F2B2F2929EAA24
:102AE00003D09E9A6AEC0DF0E55200EE17F0180E36
:102AF000E80403E3E5CFEDFFFBD700EE2BF0140E67
:102B0000E80403E3E5CFEDFFFBD7E5CFFAFFE5CF20
:102B1000F4FFE5CFF3FFE5CFF5FFE5CFF7FFE5CF16
:102B2000F6FFE5CFEAFFE5CFE9FFE5CFDAFFE550B5
:102B3000E5CFE0FFE5CFD8FF1000DACFE4FFE2CF2A
:102B4000DAFFE9CFE4FFEACFE4FFF6CFE4FFF7CF07
:102B5000E4FFF5CFE4FFF3CFE4FFF4CFE4FFFACFD7
:102B6000E4FF00EE18F0140EE80403E3EECFE4FFF8
:102B7000FBD700EE00F0180EE80403E3EECFE4FF0D
:102B8000FBD7E652F2A407D014EC0EF0F294CEEC90
:102B90000DF016EC0EF09EA007D0C1EC0EF09E904A
:102BA0007BEC0EF0C3EC0EF0A1A207D06CEC0FF0A2
:102BB000A19226EC0FF02AEC18F0F2B2F2929EAA43
:102BC00003D09E9A6AEC0DF0E55200EE17F0180E55
:102BD000E80403E3E5CFEDFFFBD700EE2BF0140E86
:102BE000E80403E3E5CFEDFFFBD7E5CFFAFFE5CF40
:102BF000F4FFE5CFF3FFE5CFF5FFE5CFF7FFE5CF36
:102C0000F6FFE5CFEAFFE5CFE9FFE5CFDAFF1100F8
:102C1000CF0E9414946E82681200D9CFE6FFE1CFF4
:102C2000D9FF040EE126DE6ADD6A020EDB6A030EBE
:102C3000DB6ADE6ADD6ADECF00F0DDCF01F0D8901E
:102C4000015004E6020E005C000E015873E2300EE3
:102C50008210826EDECFE9FFDDCFEAFF1A0EE92691
:102C6000010EEA22EF1C8214826E0F0E8210826E19
:102C7000020EDB6A030EDB6A020EDBCF00F0030EEE
:102C8000DBCF01F0D890015004E6040E005C000E8A
:102C900001584AE2020EDBCFE9FF030EDBCFEAFF69
:102CA0001E0EE926010EEA22EF5082141CE1DECF4F
:102CB00000F0DDCF01F0D89000360136D890003614
:102CC0000136020EDB500024E96E030EDB500120BA
:102CD000EA6ED890E936EA36220EE926010EEA229B
:102CE000010EEE6E1AD0DECF00F0DDCF01F0D890ED
:102CF00000360136D89000360136020EDB50002433
:102D0000E96E030EDB500120EA6ED890E936EA3610
:102D1000220EE926010EEA22EE6AED6A020EDB2A95
:102D2000030EAAE3DB2AA8D7DF2A010E01E283D72C
:102D3000DB2A81D7040EE15C02E2E16AE552E16E32
:102D4000E552E7CFD9FF1200D9CFE6FFE1CFD9FF97
:102D5000FD0EDBCF00F0FE0EDBCF01F0000E005CBD
:102D6000000E01580BE3FD0EDBCF02F0FE0EDBCFB1
:102D700003F0080E025C000E035803E3F36AF46AE2
:102D800018D0FD0EDBCFE9FFFE0EDBCFEAFF010E10
:102D9000D890E936EA36E806FBE1220EE926010E74
:102DA000EA22EECF00F0EFCF01F000C0F3FF01C048
:0A2DB000F4FFE552E7CFD9FF12004F
:062DBA001E0EF66E000E75
:102DC000F76E000EF86E01010900F550436F09001F
:102DD000F550446F03E1436701D03DD00900F55041
:102DE0003E6F0900F5503F6F0900F550406F090034
:102DF0000900F550E96E0900F550EA6E0900090076
:102E00000900F550416F0900F550426F09000900B3
:102E1000F6CF45F1F7CF46F1F8CF47F13EC1F6FFC7
:102E20003FC1F7FF40C1F8FF0101415302E14253A6
:102E300007E00900F550EE6E4107F8E24207F9D7C6
:102E400045C1F6FF46C1F7FF47C1F8FF010143073F
:082E5000000E445BBFD7120025
:082E58000F0E926E0B0EC16E0D
:102E6000040EC06E1200D9CFE6FFE1CFD9FF020EEB
:102E7000E126FE0EDB50040DF350C26EC280C2820A
:102E8000C2B2FED7C450DE6EDD6ADECF02F0DDCF07
:102E900003F0D89002360336D89002360336060E79
:102EA000C3CFE7FF070B04E0E742E79EE806FCE13B
:102EB000E7500224006E000E032000C0DEFFDD6E2E
:102EC000DECF00F0DDCF01F000C0F3FF01C0F4FF62
:102ED000020EE15C02E2E16AE552E16EE552E7CF03
:042EE000D9FF120004
:0C2EE400464C4F573A20004E4F333A2026
:102EF000004E48343A200054454D503A2000434F8C
:102F0000443A200053533A200070483A2000534579
:102F10004E534F522056414C554500206D332F687B
:102F2000200D0A00206D672F6C20464C4F573D2026
:102F300000206D672F6C204E4F333D200020432032
:102F40004E48343D2000206D672F6C20544D503D7D
:102F50002000206D672F6C204353423D20002070DD
:0D2F6000482053533D200070483D202000C4
:012F6D002043
:022F6E001E50F3
:102F70002302F3CF1AF0F4CF1BF02402F3501B26E8
:102F8000000EF4201C6E1E502502F3501C26000E6D
:102F9000F4201D6E1E502602F3501D261F502302E2
:102FA000F3501B26F4501C22000E1D221F50240239
:102FB000F3501C26F4501D221F502502F3501D26ED
:102FC00020502302F3501C26F4501D2220502402CE
:0E2FD000F3501D2621502302F3501D2612003F
:022FDE001D6A6A
:102FE0001C6A1B6A1A6A200EE76ED8901E361F36BE
:102FF000203621361A361B361C361D3623501A5CF5
:1030000024501B5825501C5826501D5809E32350A6
:103010001A5E24501B5A25501C5A26501D5A1E2A2F
:06302000E72EE4D71200C8
:0A3026000ED805D8A8EC10F0B5ECA8
:1030300012F0FBD708EC16F07DEC01F0D1EC0AF0B1
:103040002CEF17F00A0E0101366F376B20EC15F0EC
:10305000C4EF0EF008EC14F00DEC16F08EEC07F057
:0430600036EF0AF04D
:0C3064001D6A1C6A1B6A180EE76ED890EB
:103070001F36203621361B361C361D3624501B5C6D
:1030800025501C5826501D5807E324501B5E255020
:0E3090001C5A26501D5A1F2AE72EEAD712009E
:02309E00CA94D2
:1030A000CA90CA82CB68BD98BD9ABE6ABD9CBD9EBF
:1030B000BD90BD92BD84BD869494CA841200D9CFC0
:1030C000E6FFE1CFD9FFFE0EDB50BE6EE552E7CF43
:0430D000D9FF120012
:0C30D4001D6A1C6A100EE76ED8902036B2
:1030E00021361C361D3625501C5C26501D5805E324
:1030F00025501C5E26501D5A202AE72EF0D71200BC
:10310000800EF36E00EE00F00F0E01D81200EA60A0
:1031100002D0EE6AFCD7F350E9601200EE6AFCD7E9
:103120001EEE00F02EEE00F0F86A199CDDEC16F0B1
:0C31300003EC00F013EC18F0FBD71200C9
:04313C000000FF038D
:1031400000000000000000000000E80390011027CC
:103150000000102700008813C4098813E803102713
:06316000D007A08C000066
:0A316600000000000000000000005F
:0231700000005D
:0E31720020202020202020202020202020208F
:10318000202020202020202020202020202020203F
:06319000202001000000F8
:0A3196001020408001020408000030
:0E31A000000000000000000000000000000021
:0231AE0000001F
:1031B000000000000000000000000000000000000F
:0831C000000000000000000007
:0831C8000E2F092F042FFE2E2B
:1031D000F72EF12EEB2EE42E04000400050006006D
:1031E00005000500060001000000000001000200CB
:0831F0000300040005000600C5
:020000040030CA
:0100010002FC
:0100020003FA
:010003001EDE
:010005008179
:010006008178
:010008000FE8
:01000900C036
:01000A000FE6
:01000B00E014
:01000C000FE4
:01000D0040B2
:00000001FF
