:020000040000FA
:06000000F0EF05F0120014
:020006001200E6
:06000800B3EF03F012004B
:02000E000000F0
:020010000000EE
:0600180043EF03F01200AB
:02001E000300DD
:10002000080C00008000000016000000FC0B00001F
:10003000960000000C0000000E000000AC00000064
:0400400004000000B8
:0C004400D59ED59C650E086E130E096E4B
:1000500096C00DF097C00EF06BEC05F006C09CF05A
:1000600007C09DF017681868196A96C01AF097C003
:100070001BF01C6A1A50175C146E1B501858156E32
:100080001C501958166E0C6A010E0D6E0E6A14C0C3
:1000900007F015C008F016C009F03EEC05F003C0EB
:1000A00014F004C015F005C016F00350D66E1768A2
:1000B0001868196A96C01AF097C01BF01C6A1A508B
:1000C000175C146E1B501858156E1C501958166E7C
:1000D0000C6A010E0D6E0E6A14C007F015C008F010
:1000E00016C009F03EEC05F007C014F008C015F08A
:1000F00009C016F00750D76ED59AD586F28AF294C9
:10010000F184D58E120017681868196A9CC01AF01D
:100110009DC01BF01C6A1A50175C146E1B501858B7
:10012000156E1C501958166E0C6A010E0D6E0E6A73
:1001300014C007F015C008F016C009F03EEC05F039
:100140000350D66E17681868196A9CC01AF09DC0D3
:100150001BF01C6A1A50175C146E1B501858156E51
:100160001C501958166E0C6A010E0D6E0E6A14C0E2
:1001700007F015C008F016C009F03EEC05F007C006
:1001800014F008C015F009C016F00750D76ED58ED0
:100190001200D59E12001200CD90650E086E130E4F
:1001A000096E98C00DF099C00EF06BEC05F006C01A
:1001B0009EF007C09FF017681868196A06C01AF009
:1001C00007C01BF01C6A0650175C146E07501858C5
:1001D000156E1C501958166E0C6A010E0D6E0E6AC3
:1001E00014C007F015C008F016C009F03EEC05F089
:1001F00007C014F008C015F009C016F00750CF6E04
:1002000017681868196A9EC01AF09FC01BF01C6A14
:100210001A50175C146E1B501858156E1C50195844
:10022000166E0C6A010E0D6E0E6A14C007F015C032
:1002300008F016C009F03EEC05F003C014F004C04D
:1002400015F005C016F00350CE6E9D809E909F90D5
:10025000CD8ECD8CCD98CD9ACD96CD92CD801200FD
:1002600017681868196A9EC01AF09FC01BF01C6AB4
:100270001A50175C146E1B501858156E1C501958E4
:10028000166E0C6A010E0D6E0E6A14C007F015C0D2
:1002900008F016C009F03EEC05F00750CF6E176865
:1002A0001868196A9EC01AF09FC01BF01C6A1A5089
:1002B000175C146E1B501858156E1C501958166E8A
:1002C0000C6A010E0D6E0E6A14C007F015C008F01E
:1002D00016C009F03EEC05F003C014F004C015F0A0
:1002E00005C016F00350CE6ECD801200CD901200E6
:1002F0001200B190650E086E130E096E9AC00DF0D3
:100300009BC00EF06BEC05F006C0A0F007C0A1F09A
:1003100017681868196A06C01AF007C01BF01C6A33
:100320000650175C146E07501858156E1C5019585B
:10033000166E0C6A010E0D6E0E6A14C007F015C021
:1003400008F016C009F03EEC05F007C014F008C034
:1003500015F009C016F00750B36E17681868196ACF
:10036000A0C01AF0A1C01BF01C6A1A50175C146ED2
:100370001B501858156E1C501958166E0C6A010E39
:100380000D6E0E6A14C007F015C008F016C009F013
:100390003EEC05F003C014F004C015F005C016F0E3
:1003A0000350B26EA082A192A292B18EB198B19A7E
:1003B000B192B180120017681868196AA0C01AF0CB
:1003C000A1C01BF01C6A1A50175C146E1B50185801
:1003D000156E1C501958166E0C6A010E0D6E0E6AC1
:1003E00014C007F015C008F016C009F03EEC05F087
:1003F0000350B26E17681868196AA0C01AF0A1C03D
:100400001BF01C6A1A50175C146E1B501858156E9E
:100410001C501958166E0C6A010E0D6E0E6A14C02F
:1004200007F015C008F016C009F03EEC05F007C053
:1004300014F008C015F009C016F00750B36EB18073
:060440001200B190120051
:0A044600D9CFE6FFE1CFD9FF020E87
:10045000E126DE6ADD6ADE6ADD6ADECF14F0DDCF1A
:1004600015F0D890155004E6010E145C000E1558D6
:1004700050E2DECFE9FFDDCFEAFFD890E936EA3679
:10048000AE0EE926000EEA22000ED880EE54000ED1
:10049000ED543AE2DECFE9FFDDCFEAFFD890E9364E
:1004A000EA36AE0EE926000EEA22EE06000EEF5AFC
:1004B000DECFE9FFDDCFEAFFD890E936EA36AE0EAF
:1004C000E926000EEA22000ED880EE54000EED540C
:1004D0001BE3DECFE9FFDDCFEAFFD890E936EA364D
:1004E000AE0EE926000EEA22EE6AED6ADECFE9FFE3
:1004F000DDCFEAFFD890E936EA36AC0EE926000EE9
:10050000EA22010EEE6EED6ADF2A010EA6E3DB2A77
:10051000A4D7020EE15C02E2E16AE552E16EE55227
:10052000E7CFD9FF1200D9CFE6FFE1CFD9FFFD0E0B
:10053000DBCF14F0FE0EDBCF15F0000E145C000EC6
:1005400015580BE3FD0EDBCF16F0FE0EDBCF17F0D8
:10055000010E165C000E175802E3F36A3BD0FB0E47
:10056000DBCF14F0FC0EDBCF15F00A0E0D6E0E6A19
:1005700014C008F015C009F0CAEC05F008C014F06A
:1005800009C015F0FD0EDBCFE9FFFE0EDBCFEAFF61
:10059000010ED890E936EA36E806FBE1AE0EE92610
:1005A000000EEA2214C0EEFF15C0EDFFFD0EDBCFFA
:1005B000E9FFFE0EDBCFEAFF010ED890E936EA36FE
:1005C000E806FBE1AC0EE926000EEA22EE6AED6ACF
:1005D000010EF36EF46AE552E7CFD9FF1200D9CFCE
:1005E000E6FFE1CFD9FFFD0EDBCF14F0FE0EDBCF2F
:1005F00015F0000E145C000E15580BE3FD0EDBCF5A
:1006000016F0FE0EDBCF17F0010E165C000E175829
:1006100002E3F36A2BD0FD0EDBCFE9FFFE0EDBCF4A
:10062000EAFF010ED890E936EA36E806FBE1AC0EA7
:10063000E926000EEA22010EEE1817E1ED5015E151
:10064000FD0EDBCFE9FFFE0EDBCFEAFF010ED890F7
:10065000E936EA36E806FBE1AC0EE926000EEA22AE
:10066000EE6AED6A010EF36E01D0F36AF46AE552A8
:06067000E7CFD9FF1200E4
:0A067600F28ED08EF28C1200F19C7F
:10068000F292F2881200D8CFE4FFE0CFE4FFE46EEC
:10069000DACFE4FFE2CFDAFFE9CFE4FFEACFE4FF0D
:1006A000F6CFE4FFF7CFE4FFF5CFE4FFF3CFE4FFAD
:1006B000F4CFE4FFFACFE4FF00EE00F0140EE804FC
:1006C00003E3EECFE4FFFBD700EE14F0090EE804DD
:1006D00003E3EECFE4FFFBD7E652F2A407D0C9EC68
:1006E00000F0F29483EC00F0CBEC00F09EA007D079
:1006F00076EC01F09E9030EC01F078EC01F0A1A2D4
:1007000007D021EC02F0A192DBEC01F0A9EC05F09E
:10071000F2B2F292E55200EE1CF0090EE80403E397
:10072000E5CFEDFFFBD700EE13F0140EE80403E372
:10073000E5CFEDFFFBD7E5CFFAFFE5CFF4FFE5CF3F
:10074000F3FFE5CFF5FFE5CFF7FFE5CFF6FFE5CF08
:10075000EAFFE5CFE9FFE5CFDAFFE550E5CFE0FFBF
:10076000E5CFD8FF1000DACFE4FFE2CFDAFFE9CF20
:10077000E4FFEACFE4FFF6CFE4FFF7CFE4FFF5CFE5
:10078000E4FFF3CFE4FFF4CFE4FFFACFE4FF00EEA1
:1007900000F0140EE80403E3EECFE4FFFBD700EE15
:1007A00014F0090EE80403E3EECFE4FFFBD7E652B2
:1007B000F2A407D0C9EC00F0F29483EC00F0CBEC8B
:1007C00000F09EA007D076EC01F09E9030EC01F096
:1007D00078EC01F0A1A207D021EC02F0A192DBECB1
:1007E00001F0A9EC05F0F2B2F292E55200EE1CF035
:1007F000090EE80403E3E5CFEDFFFBD700EE13F0AD
:10080000140EE80403E3E5CFEDFFFBD7E5CFFAFFD5
:10081000E5CFF4FFE5CFF3FFE5CFF5FFE5CFF7FF39
:10082000E5CFF6FFE5CFEAFFE5CFE9FFE5CFDAFF59
:020830001100B5
:0E083200CF0E9414946E82681200D9CFE6FFA8
:10084000E1CFD9FF040EE126DE6ADD6A020EDB6A23
:10085000030EDB6ADE6ADD6ADECF14F0DDCF15F051
:10086000D890155004E6020E145C000E155869E28B
:10087000DECFE9FFDDCFEAFF800EE926000EEA2297
:10088000EF1C8214826E0F0E8210826E020EDB6AE3
:10089000030EDB6A020EDBCF14F0030EDBCF15F084
:1008A000D890155004E6040E145C000E155844E26E
:1008B000020EDBCFE9FF030EDBCFEAFF820EE92653
:1008C000000EEA22EF50821419E1DECF14F0DDCFE2
:1008D00015F0D89014361536020EDB501424E96E4C
:1008E000030EDB501520EA6ED890E936EA36860E04
:1008F000E926000EEA22010EEE6E17D0DECF14F0CC
:10090000DDCF15F0D89014361536020EDB501424C6
:10091000E96E030EDB501520EA6ED890E936EA3610
:10092000860EE926000EEA22EE6AED6A020EDB2A46
:10093000030EB0E3DB2AAED7DF2A010E8DE3DB2AFC
:100940008BD7040EE15C02E2E16AE552E16EE5520A
:10095000E7CFD9FF1200D9CFE6FFE1CFD9FFFE0ED6
:10096000DBCF15F0800E15140EE1FD0EDBCF16F077
:10097000FE0EDBCF17F0D890175004E6080E165C79
:10098000000E175802E3F36A25D0FD0EDBCFE9FF16
:10099000FE0EDBCFEAFFD890E936EA36860EE9266E
:1009A000000EEA22010EEE1814E1ED5012E1FD0EE8
:1009B000DBCFE9FFFE0EDBCFEAFFD890E936EA365F
:1009C000860EE926000EEA22EE6AED6A010EF36E4B
:0E09D00001D0F36AF46AE552E7CFD9FF1200B6
:0209DE001E0EEB
:1009E000F66E000EF76E000EF86E00010900F5506D
:1009F000A76F0900F550A86F03E1A76701D03DD0AC
:100A00000900F550A26F0900F550A36F0900F550D9
:100A1000A46F09000900F550E96E0900F550EA6E6F
:100A2000090009000900F550A56F0900F550A66FEF
:100A300009000900F6CFA9F0F7CFAAF0F8CFABF084
:100A4000A2C0F6FFA3C0F7FFA4C0F8FF0001A553A2
:100A500002E1A65307E00900F550EE6EA507F8E2A3
:100A6000A607F9D7A9C0F6FFAAC0F7FFABC0F8FFE9
:0C0A70000001A707000EA85BBFD7120012
:040A7C00006A0EAE50
:100A800049EF05F00C6C0D1E0E1EE86A0D220E22B9
:100A9000001E09AE53EF05F0076C081E091EE86A38
:100AA00008220922001EADEC05F009BE66EF05F034
:100AB00000AE000C076C081E091EE86A0822092215
:100AC000036C041E051E04220522000C00BE5AEF12
:100AD00005F00188FF0C08C012F008500D02F4CF99
:100AE00007F0F3CF06F009500E02F4CF09F0F3CF70
:100AF00008F00D02F3500726F4500822E86A092294
:100B000012500E02F3500726F4500822E86A092218
:020B1000000CD7
:0E0B1200936A16D813D8816A010EE66EE66A61
:100B2000ABEC04F0E552E552F3CF14F0F4CF15F03E
:100B3000010EF318F2E11550F0E18168EED719EFDC
:100B400004F00A0E00019A6F9B6B3BEC03F079EF07
:0A0B500001F023EC02F01EEF04F0A8
:060B5A00056A046A036A4B
:100B6000180EE76ED8900736083609360336043675
:100B700005360C50035C0D5004580E50055807E321
:100B80000C50035E0D50045A0E50055A072AE72EEA
:040B9000EAD712008E
:0C0B9400056A046A100EE76ED89008365F
:100BA0000936043605360D50045C0E50055805E331
:100BB0000D50045E0E50055A082AE72EF0D7120099
:100BC000800EF36E00EE00F00F0E01D81200EA6006
:100BD00002D0EE6AFCD7F350E9601200EE6AFCD74F
:100BE0001EEE00F02EEE00F0F86A019CEFEC04F02F
:0C0BF00003EC00F089EC05F0FBD71200CC
:040BFC0000000000F5
:080C00000000000000000000EC
:080C08001020010204080000A5
:0E0C10000000000000000000000000000000D6
:020000040030CA
:0100010002FC
:0100020003FA
:010003001EDE
:010005008179
:010006008178
:010008000FE8
:01000900C036
:01000A000FE6
:01000B00E014
:01000C000FE4
:01000D0040B2
:00000001FF
