:020000040000FA
:060000001DEF05F01200E7
:020006001200E6
:06000800ADEF03F0120051
:02000E000000F0
:020010000000EE
:060018003DEF03F01200B1
:02001E000200DE
:10002000560A0000800000000C0000000E000000D6
:0800300096000000040000002E
:08003800D59ED59C650E086EF3
:10004000130E096E80C00DF081C00EF08FEC04F02D
:1000500006C086F007C087F017681868196A80C064
:100060001AF081C01BF01C6A1A50175C146E1B50EA
:100070001858156E1C501958166E0C6A010E0D6E2C
:100080000E6A14C007F015C008F016C009F062EC43
:1000900004F003C014F004C015F005C016F00350BE
:1000A000D66E17681868196A80C01AF081C01BF0F4
:1000B0001C6A1A50175C146E1B501858156E1C5091
:1000C0001958166E0C6A010E0D6E0E6A14C007F0F8
:1000D00015C008F016C009F062EC04F007C014F077
:1000E00008C015F009C016F00750D76ED59AD5860E
:1000F000F28AF294F184D58E120017681868196A92
:1001000086C01AF087C01BF01C6A1A50175C146E68
:100110001B501858156E1C501958166E0C6A010E9B
:100120000D6E0E6A14C007F015C008F016C009F075
:1001300062EC04F00350D66E17681868196A86C01E
:100140001AF087C01BF01C6A1A50175C146E1B5003
:100150001858156E1C501958166E0C6A010E0D6E4B
:100160000E6A14C007F015C008F016C009F062EC62
:1001700004F007C014F008C015F009C016F00750CD
:10018000D76ED58E1200D59E12001200CD90650E4E
:10019000086E130E096E82C00DF083C00EF08FEC56
:1001A00004F006C088F007C089F017681868196A5B
:1001B00006C01AF007C01BF01C6A0650175C146ECC
:1001C00007501858156E1C501958166E0C6A010EFF
:1001D0000D6E0E6A14C007F015C008F016C009F0C5
:1001E00062EC04F007C014F008C015F009C016F066
:1001F0000750CF6E17681868196A88C01AF089C04E
:100200001BF01C6A1A50175C146E1B501858156EA0
:100210001C501958166E0C6A010E0D6E0E6A14C031
:1002200007F015C008F016C009F062EC04F003C036
:1002300014F004C015F005C016F00350CE6E9D807A
:100240009E909F90CD8ECD8CCD98CD9ACD96CD920F
:10025000CD80120017681868196A88C01AF089C022
:100260001BF01C6A1A50175C146E1B501858156E40
:100270001C501958166E0C6A010E0D6E0E6A14C0D1
:1002800007F015C008F016C009F062EC04F0075042
:10029000CF6E17681868196A88C01AF089C01BF0F9
:1002A0001C6A1A50175C146E1B501858156E1C509F
:1002B0001958166E0C6A010E0D6E0E6A14C007F006
:1002C00015C008F016C009F062EC04F003C014F089
:1002D00004C015F005C016F00350CE6ECD8012009C
:1002E000CD9012001200B190650E086E130E096ECB
:1002F00084C00DF085C00EF08FEC04F006C08AF0CB
:1003000007C08BF017681868196A06C01AF007C092
:100310001BF01C6A0650175C146E07501858156EB7
:100320001C501958166E0C6A010E0D6E0E6A14C020
:1003300007F015C008F016C009F062EC04F007C021
:1003400014F008C015F009C016F00750B36E176816
:100350001868196A8AC01AF08BC01BF01C6A1A5000
:10036000175C146E1B501858156E1C501958166ED9
:100370000C6A010E0D6E0E6A14C007F015C008F06D
:1003800016C009F062EC04F003C014F004C015F0CC
:1003900005C016F00350B26EA082A192A292B18E57
:1003A000B198B19AB192B180120017681868196AB1
:1003B0008AC01AF08BC01BF01C6A1A50175C146EAE
:1003C0001B501858156E1C501958166E0C6A010EE9
:1003D0000D6E0E6A14C007F015C008F016C009F0C3
:1003E00062EC04F00350B26E17681868196A8AC08C
:1003F0001AF08BC01BF01C6A1A50175C146E1B504D
:100400001858156E1C501958166E0C6A010E0D6E98
:100410000E6A14C007F015C008F016C009F062ECAF
:1004200004F007C014F008C015F009C016F007501A
:0A043000B36EB1801200B19012000B
:06043A00D9CFE6FFE1CF7F
:10044000D9FF020EE126DE6ADD6ADE6ADD6ADECFF2
:1004500014F0DDCF15F0D890155004E6010E145CB1
:10046000000E155850E2DECFE9FFDDCFEAFFD8904D
:10047000E936EA36980EE926000EEA22000ED88008
:10048000EE54000EED543AE2DECFE9FFDDCFEAFF95
:10049000D890E936EA36980EE926000EEA22EE06F2
:1004A000000EEF5ADECFE9FFDDCFEAFFD890E93644
:1004B000EA36980EE926000EEA22000ED880EE54A5
:1004C000000EED541BE3DECFE9FFDDCFEAFFD8904D
:1004D000E936EA36980EE926000EEA22EE6AED6A5F
:1004E000DECFE9FFDDCFEAFFD890E936EA36960E97
:1004F000E926000EEA22010EEE6EED6ADF2A010EF9
:10050000A6E3DB2AA4D7020EE15C02E2E16AE5522F
:10051000E16EE552E7CFD9FF1200D9CFE6FFE1CF78
:10052000D9FFFD0EDBCF14F0FE0EDBCF15F0000E71
:10053000145C000E15580BE3FD0EDBCF16F0FE0E1B
:10054000DBCF17F0010E165C000E175802E3F36ABA
:100550003BD0FB0EDBCF14F0FC0EDBCF15F00A0E08
:100560000D6E0E6A14C008F015C009F0F7EC04F027
:1005700008C014F009C015F0FD0EDBCFE9FFFE0E38
:10058000DBCFEAFF010ED890E936EA36E806FBE158
:10059000980EE926000EEA2214C0EEFF15C0EDFF0A
:1005A000FD0EDBCFE9FFFE0EDBCFEAFF010ED89098
:1005B000E936EA36E806FBE1960EE926000EEA2265
:1005C000EE6AED6A010EF36EF46AE552E7CFD9FFE9
:1005D0001200D9CFE6FFE1CFD9FFFD0EDBCF14F03B
:1005E000FE0EDBCF15F0000E145C000E15580BE369
:1005F000FD0EDBCF16F0FE0EDBCF17F0010E165C02
:10060000000E175802E3F36A2BD0FD0EDBCFE9FF93
:10061000FE0EDBCFEAFF010ED890E936EA36E80697
:10062000FBE1960EE926000EEA22010EEE1817E114
:10063000ED5015E1FD0EDBCFE9FFFE0EDBCFEAFF4B
:10064000010ED890E936EA36E806FBE1960EE92677
:10065000000EEA22EE6AED6A010EF36E01D0F36A33
:0A066000F46AE552E7CFD9FF12005B
:06066A00F28ED08EF28C2E
:100670001200F19CF292F2881200D8CFE4FFE0CF92
:10068000E4FFE46EDACFE4FFE2CFDAFFE9CFE4FF84
:10069000EACFE4FFF6CFE4FFF7CFE4FFF5CFE4FFC6
:1006A000F3CFE4FFF4CFE4FFFACFE4FF00EE00F075
:1006B000140EE80403E3EECFE4FFFBD700EE14F0E2
:1006C000090EE80403E3EECFE4FFFBD7E652F2A401
:1006D00007D0C3EC00F0F2947DEC00F0C5EC00F024
:1006E0009EA007D070EC01F09E902AEC01F072EC15
:1006F00001F0A1A207D01BEC02F0A192D5EC01F011
:10070000D8EC04F0F2B2F292E55200EE1CF0090EC1
:10071000E80403E3E5CFEDFFFBD700EE13F0140E82
:10072000E80403E3E5CFEDFFFBD7E5CFFAFFE5CF24
:10073000F4FFE5CFF3FFE5CFF5FFE5CFF7FFE5CF1A
:10074000F6FFE5CFEAFFE5CFE9FFE5CFDAFFE550B9
:10075000E5CFE0FFE5CFD8FF1000DACFE4FFE2CF2E
:10076000DAFFE9CFE4FFEACFE4FFF6CFE4FFF7CF0B
:10077000E4FFF5CFE4FFF3CFE4FFF4CFE4FFFACFDB
:10078000E4FF00EE00F0140EE80403E3EECFE4FF14
:10079000FBD700EE14F0090EE80403E3EECFE4FF0C
:1007A000FBD7E652F2A407D0C3EC00F0F2947DEC44
:1007B00000F0C5EC00F09EA007D070EC01F09E9018
:1007C0002AEC01F072EC01F0A1A207D01BEC02F0C0
:1007D000A192D5EC01F0D8EC04F0F2B2F292E5521D
:1007E00000EE1CF0090EE80403E3E5CFEDFFFBD7B4
:1007F00000EE13F0140EE80403E3E5CFEDFFFBD7A2
:10080000E5CFFAFFE5CFF4FFE5CFF3FFE5CFF5FF46
:10081000E5CFF7FFE5CFF6FFE5CFEAFFE5CFE9FF4C
:06082000E5CFDAFF110034
:0A0826001E0EF66E000EF76E000EB7
:10083000F86E00010900F550916F0900F550926FB4
:1008400003E1916701D03DD00900F5508C6F09009C
:10085000F5508D6F0900F5508E6F09000900F550B5
:10086000E96E0900F550EA6E090009000900F5502B
:100870008F6F0900F550906F09000900F6CF93F0D3
:10088000F7CF94F0F8CF95F08CC0F6FF8DC0F7FF4E
:100890008EC0F8FF00018F5302E1905307E009007A
:1008A000F550EE6E8F07F8E29007F9D793C0F6FF88
:1008B00094C0F7FF95C0F8FF00019107000E925B0E
:0408C000BFD712008C
:0C08C400006A0EAE6DEF04F00C6C0D1E0F
:1008D0000E1EE86A0D220E22001E09AE77EF04F00C
:1008E000076C081E091EE86A08220922001EDAECBD
:1008F00004F009BE8AEF04F000AE000C076C081E7D
:10090000091EE86A08220922036C041E051E04223F
:100910000522000C00BE7EEF04F00188FF0C08C029
:1009200012F008500D02F4CF07F0F3CF06F0095093
:100930000E02F4CF09F0F3CF08F00D02F3500726B2
:10094000F4500822E86A092212500E02F3500726DA
:0A095000F4500822E86A0922000CA6
:06095A00936A21D8530E40
:10096000816EE80EE66E030EE66E000EE66EE66A37
:100970008DEC02F0E552E552E552E552000EE66ECE
:10098000E66AE9EC02F0E552E552F3CF14F0F4CF59
:1009900015F0010EF318F2E11550F0E1811CE0D7DB
:1009A0000A0E0001846F856B35EC03F073EF01F0E4
:0409B0001DEF02F045
:0C09B400056A046A036A180EE76ED8900A
:1009C0000736083609360336043605360C50035C04
:1009D0000D5004580E50055807E30C50035E0D509F
:0E09E000045A0E50055A072AE72EEAD71200D5
:0209EE00056A98
:1009F000046A100EE76ED8900836093604360536BC
:100A00000D50045C0E50055805E30D50045E0E5069
:0A0A1000055A082AE72EF0D712005D
:060A1A00800EF36E00EEF9
:100A200000F00F0E01D81200EA6002D0EE6AFCD787
:0A0A3000F350E9601200EE6AFCD7F3
:060A3A001EEE00F02EEE9E
:100A400000F0F86A019C13EC04F003EC00F0ADEC4C
:060A500004F0FBD71200C8
:0A0A56000000000000000000000096
:020A6000000094
:020000040030CA
:0100010002FC
:0100020003FA
:010003001EDE
:010005008179
:010006008178
:010008000FE8
:01000900C036
:01000A000FE6
:01000B00E014
:01000C000FE4
:01000D0040B2
:00000001FF
