:020000040000FA
:0600000084EF25F0120060
:020006001200E6
:0600080005EF20F01200DC
:02000E000000F0
:0400100000000000EC
:0400140001000000E7
:0600180090EF1FF0120042
:02001E001200CE
:10002000744C0000000F000048000000704C0000FD
:1000300062020000040000006C4C00005E02000040
:10004000040000006A4C000066020000020000008C
:10005000684C0000FE00000002000000564C00004A
:100060001E02000012000000524C00005A02000064
:10007000040000001400000056020000040000000C
:10008000144C0000BC0100003E000000FA4B0000D0
:10009000E40000001A000000E64B00006C0F0000B6
:1000A00014000000C24B0000480F000024000000B4
:1000B000B64B0000400200000C000000DB440000D2
:1000C0006802000001000000524B000080000000A8
:1000D00064000000344B0000000200001E0000001D
:1000E000244B000030020000100000000E00000051
:0800F000FA0100000600000007
:0800F800D9CFE6FFE1CFD9FFEB
:10010000040EE126DE6ADD6A020EDB6A030EDB6A9C
:10011000DE6ADD6ADECF00F0DDCF01F0026A036A3D
:1001200001AE02D002680368D950FB0FE96EFF0EE2
:10013000DA20EA6EEE50005CEE500158EE500258A4
:10014000EE5003581DE2020EDB6A030EDB6A020E5C
:10015000DBCF00F0030EDBCF01F0D890015004E6B6
:10016000A00E005C000E015806E2020EDB2A030E10
:10017000EEE3DB2AECD7DF2A010ECCE3DB2ACAD779
:10018000040EE15C02E2E16AE552E16EE552E7CF7E
:10019000D9FF1200D9CFE6FFE1CFD9FFFE0EDB5029
:1001A000F00B006E0F0E81140010816E8184818629
:1001B000010EE66EE66AE66AE66A9EDFE552E55201
:1001C000E552E5528196010EE66EE66AE66AE66A57
:1001D00093DFE552E552E552E552FE0EDB38F00BB7
:1001E000006E0F0E81140010816E8186010EE66E86
:1001F000E66AE66AE66A80DFE552E552E552E552D4
:1002000081968194030EE66EE66AE66AE66A74DF1A
:10021000E552E552E552E552E552E7CFD9FF12002B
:10022000D9CFE6FFE1CFD9FFFD0EDBCFF6FFFE0E03
:10023000DBCFF7FF0800F55011E0FD0EDBCFF6FF36
:10024000FE0EDBCFF7FF0800F550E66EA3DFE552A8
:10025000FD0EDB2AFE0EE8E3DB2AE6D7E552E7CF08
:10026000D9FF1200D9CFE6FFE1CFD9FF68CF00F068
:1002700069CF01F0040ED89000360136E806FBE1A4
:10028000480E00260F0E012200500F016A25E96E6C
:1002900001506B21EA6EFE0EDBCFEFFF6A2B000EE2
:1002A0006B23100E6BAF02D0D89003D06A5D000EA6
:1002B0006B5905E3682B000E69236A6B6B6B030EA9
:1002C00069AF02D0D89003D0685D000E695902E38F
:1002D000686B696BE552E7CFD9FF1200D9CFE6FF13
:1002E000E1CFD9FFFE0EDB50F00B006E0F0E811434
:1002F0000010816E81948186010EE66EE66AE66AE0
:10030000E66AFADEE552E552E552E5528196010EC3
:10031000E66EE66AE66AE66AEFDEE552E552E55227
:10032000E552FE0EDB38F00B006E0F0E811400104C
:10033000816E8186010EE66EE66AE66AE66ADCDEBA
:10034000E552E552E552E5528196030EE66EE66A05
:10035000E66AE66AD1DEE552E552E552E552E5523B
:10036000E7CFD9FF1200D9CFE6FFE1CFD9FF020EC8
:10037000E126DE6ADD6A0F016A6B6B6B010E686F46
:10038000696BDE6ADD6ADECF00F0DDCF01F0200EA2
:10039000005C000E01582BE2DECF00F0DDCF01F053
:1003A000040E0F0B05E0D89001320032E806FBE1A5
:1003B000040ED89000360136E806FBE1480E002610
:1003C0000F0E0122DECF02F0DDCF03F00001036A41
:1003D0000F0E021600500224E96E01500320EA6E4F
:1003E000200EEF6EDF2A010ECEE3DB2ACCD7936A14
:1003F000816A190EE66EE66AE66AE66A7DDEE55215
:10040000E552E552E552020EE66E68DFE552280E2F
:10041000E66E64DFE552010EE66E60DFE5520C0E1B
:10042000E66E5CDFE552060EE66E58DFE552020E20
:10043000E15C02E2E16AE552E16EE552E7CFD9FF05
:100440001200010EE66E4ADFE552030EE66EE66A22
:10045000E66AE66A51DEE552E552E552E5521200DF
:10046000D9CFE6FFE1CFD9FFE652DF6AFE0EDB50BF
:1004700005E1FD0EDB500F0B800904D0FD0EDB50B3
:100480000F0BC009DF6EDFCFE6FF28DFE552FB0E62
:10049000DBCFE6FFFC0EDBCFE6FFC2DEE552E55226
:1004A000E552E552E7CFD9FF1200D9CFE6FFE1CF01
:1004B000D9FFFD0EDBCF68FF0F01696B010E6817D6
:1004C000FB0EDBCF6AFF6B6B0F0E6A1768CF00F075
:1004D00069CF01F0040ED89000360136E806FBE142
:1004E000480E00260F0E012200500F016A25E96E0A
:1004F00001506B21EA6EFA0EDBCFEFFF6A2B000E84
:100500006B23100E6BAF02D0D89003D06A5D000E43
:100510006B5905E3682B000E69236A6B6B6B030E46
:1005200069AF02D0D89003D0685D000E695902E32C
:10053000686B696BE552E7CFD9FF1200D9CFE6FFB0
:10054000E1CFD9FFFD0EDBCF68FF0F01696B010E14
:100550006817FB0EDBCF6AFF6B6B0F0E6A17F90E85
:10056000DBCFF6FFFA0EDBCFF7FF0800F55047E0D0
:10057000F90EDBCFF6FFFA0EDBCFF7FF0800F550E0
:10058000E66E68CF00F069CF01F0040ED890003617
:100590000136E806FBE1480E00260F0E012200504E
:1005A0000F016A25E96E01506B21EA6EE552E750B2
:1005B000EF6E6A2B000E6B23100E6BAF02D0D8903B
:1005C00003D06A5D000E6B5905E3682B000E6923AA
:1005D0006A6B6B6B020E69AF02D0D89003D0685D76
:1005E000000E695902E3686B696BF90EDBCFF6FF09
:1005F000DB2AFA0EDBCFF7FFB2E3DB2AB0D7E552F6
:10060000E7CFD9FF1200D9CFE6FFE1CFD9FF040E23
:10061000E126DE6ADD6A020EDB6A030EDB6AFD0E8E
:10062000DBCF68FF0F01696B010E6817FB0EDBCF94
:100630006AFFFC0EDBCF6BFF6B6B0F0E6A17F70EBA
:10064000DBCF00F0F80EDBCF01F0F90EDBCF02F0CC
:10065000FA0EDBCF03F0005001100210031004E18A
:10066000300EE66EFFDDE552D950F70FE96EFF0E52
:10067000DA20EA6ED890030EEB50000A08E6000E6E
:10068000EE5C000EEE58000EEE58000EEE5822E220
:100690002D0EE66EE7DDE552F70EDBCF1EF0F80E0D
:1006A000DBCF1FF0F90EDBCF20F0FA0EDBCF21F00D
:1006B000236824682568266864EC24F0F70E1AC0C5
:1006C000DBFFF80E1BC0DBFFF90E1CC0DBFFFA0ED0
:1006D0001DC0DBFF100EDE6E270EDD6ED9CFE9FFE9
:1006E000DACFEAFF000ED880EE54000EED5401E39D
:1006F000AAD0DECF00F0DDCF01F0026A036A00C0AD
:1007000023F001C024F002C025F003C026F0F70E4C
:10071000DBCF1EF0F80EDBCF1FF0F90EDBCF20F0A1
:10072000FA0EDBCF21F09AEC21F01E501F102010A2
:10073000211036E0DECF04F0DDCF05F0066A076A4F
:1007400004C023F005C024F006C025F007C026F041
:10075000F70EDBCF1EF0F80EDBCF1FF0F90EDBCF6C
:1007600020F0FA0EDBCF21F09AEC21F01EC000F051
:100770001FC001F020C002F021C003F0300E00269F
:10078000000E0122022203220050E66E6BDDE552CC
:10079000010EF36E020EF3CFDBFF030EDB6A0ED009
:1007A000D950020FE96EDACFEAFF010EEE1806E12A
:1007B000ED5004E1300EE66E55DDE552DECF00F07F
:1007C000DDCF01F0026A036A00C023F001C024F00B
:1007D00002C025F003C026F0F70EDBCF1EF0F80EA6
:1007E000DBCF1FF0F90EDBCF20F0FA0EDBCF21F0CC
:1007F00003C0F5FF9AEC21F0F5AE08D0000E1A6C9C
:100800001B1E1B221C1E1C221D1E1D22F70E1AC0A1
:10081000DBFFF80E1BC0DBFFF90E1CC0DBFFFA0E7E
:100820001DC0DBFF0A0E006E016A256E01C026F0B6
:10083000DECF20F0DDCF21F05EEC25F020C0DEFF22
:1008400021C0DDFF4BD7040EE15C02E2E16AE55214
:10085000E16EE552E7CFD9FF1200D9CFE6FFE1CF35
:10086000D9FF080EE126D9CFE9FFDACFEAFFF70E6C
:10087000DBCFEEFFF80EDBCFEEFFF90EDBCFEEFFA6
:10088000FA0EDBCFEEFF040EDB6A050EDB6A060E06
:10089000DB6A070EDB6AD9CFE9FFDACFEAFFEECFDA
:1008A0001EF0EECF1FF0EECF20F0EFCF21F0100EB4
:1008B000236E270E246E256A266A9AEC21F01E50BC
:1008C0001F102010211054E0D9CFE9FFDACFEAFF42
:1008D000EECF00F0EECF01F0EECF02F0EFCF03F05D
:1008E000100E236E270E246E256A266A00C01EF0A5
:1008F00001C01FF002C020F003C021F09AEC21F0EB
:100900001EC000F01FC001F020C002F021C003F0A3
:100910001EC0E6FF1FC0E6FF20C0E6FF21C0E6FFC5
:10092000040EDBCF06F0050EDBCF07F0FB0EDB502D
:100930000624046EFC0EDB500720056E04C0E6FFA3
:10094000E66EFD0EDBCFE6FFFE0EDBCFE6FF5BDEE5
:10095000086E080EE15E0850010EF36E060EF3CF2E
:10096000DBFF070EDB6A040EDB2A050E01E3DB2A40
:10097000D9CFE9FFDACFEAFFEECF1EF0EECF1FF0BE
:10098000EECF20F0EFCF21F0100E236E270E246E55
:10099000256A266A9AEC21F01AC0DEFF1BC0DEFF32
:1009A0001CC0DEFF1DC0DDFFDD52DD52D9CFE9FFE7
:1009B000DACFEAFFEECF1EF0EECF1FF0EECF20F041
:1009C000EFCF21F0E80E236E030E246E256A266A0F
:1009D0009AEC21F01E501F10201021100AE1D9506E
:1009E000060FE96EDACFEAFF010EEE184FE1ED5087
:1009F0004DE1D9CFE9FFDACFEAFFEECF00F0EECF3D
:100A000001F0EECF02F0EFCF03F0E80E236E030EFD
:100A1000246E256A266A00C01EF001C01FF002C0C5
:100A200020F003C021F09AEC21F01EC000F01FC09E
:100A300001F020C002F021C003F01EC0E6FF1FC07D
:100A4000E6FF20C0E6FF21C0E6FF040EDBCF06F084
:100A5000050EDBCF07F0FB0EDB500624046EFC0E08
:100A6000DB500720056E04C0E6FFE66EFD0EDBCF0F
:100A7000E6FFFE0EDBCFE6FFC6DD086E080EE15E88
:100A80000850040EDB2A050E01E3DB2AD9CFE9FF6B
:100A9000DACFEAFFEECF1EF0EECF1FF0EECF20F060
:100AA000EFCF21F0E80E236E030E246E256A266A2E
:100AB0009AEC21F01AC0DEFF1BC0DEFF1CC0DEFF77
:100AC0001DC0DDFFDD52DD52D9CFE9FFDACFEAFFED
:100AD000EECF00F0EECF01F0EECF02F0EFCF03F05B
:100AE000640E236E246A256A266A00C01EF001C0C7
:100AF0001FF002C020F003C021F09AEC21F01EC0CC
:100B000000F01FC001F020C002F021C003F01EC0A1
:100B1000E6FF1FC0E6FF20C0E6FF21C0E6FF040E8F
:100B2000DBCF06F0050EDBCF07F0FB0EDB50062413
:100B3000046EFC0EDB500720056E04C0E6FFE66E77
:100B4000FD0EDBCFE6FFFE0EDBCFE6FF5CDD086EC1
:100B5000080EE15E0850040EDB2A050E01E3DB2AD5
:100B6000D9CFE9FFDACFEAFFEECF1EF0EECF1FF0CC
:100B7000EECF20F0EFCF21F0640E236E246A256AB9
:100B8000266A9AEC21F01AC0DEFF1BC0DEFF1CC0F3
:100B9000DEFF1DC0DDFFDD52DD522E0EE66E040EBF
:100BA000DBCF02F0050EDBCF03F0FB0EDB5002249F
:100BB000006EFC0EDB500320016E00C0E6FFE66E07
:100BC000FD0EDBCFE6FFFE0EDBCFE6FF6EDC046E34
:100BD000050EE15E0450040EDB2A050E01E3DB2A5C
:100BE000D9CFE9FFDACFEAFFEECF00F0EECF01F088
:100BF000EECF02F0EFCF03F00A0E236E246A256ACF
:100C0000266A00C01EF001C01FF002C020F003C021
:100C100021F09AEC21F01EC000F01FC001F020C0AE
:100C200002F021C003F01EC0E6FF1FC0E6FF20C097
:100C3000E6FF21C0E6FF040EDBCF06F0050EDBCF9A
:100C400007F0FB0EDB500624046EFC0EDB50072081
:100C5000056E04C0E6FFE66EFD0EDBCFE6FFFE0E7E
:100C6000DBCFE6FFD0DC086E080EE15E0850040E14
:100C7000DB2A050E01E3DB2AD9CFE9FFDACFEAFF51
:100C8000EECF00F0EECF01F0EECF02F0EFCF03F0A9
:100C90000A0E236E246A256A266A00C01EF001C06F
:100CA0001FF002C020F003C021F09AEC21F01AC01E
:100CB00000F01BC001F01CC002F01DC003F01AC000
:100CC000E6FF1BC0E6FF1CC0E6FF1DC0E6FF040EEA
:100CD000DBCF06F0050EDBCF07F0FB0EDB50062462
:100CE000046EFC0EDB500720056E04C0E6FFE66EC6
:100CF000FD0EDBCFE6FFFE0EDBCFE6FF84DC086EE9
:100D0000080EE15E0850040EDB2A050E01E3DB2A23
:100D1000080EE15C02E2E16AE552E16EE552E7CFDE
:100D2000D9FF1200D9CFE6FFE1CFD9FF030EE126AC
:100D3000200EDF6E010EDB6A020EDB6A010EDB6A3B
:100D4000020EDB6A010EDBCF00F0020EDBCF01F0FA
:100D5000100E005C000E015837E2010EDBCFE9FFF8
:100D6000020EDBCFEAFF480EE9260F0EEA22EFCF94
:100D7000DFFF010EDBCFE9FF020EDBCFEAFF580EEB
:100D8000E9260F0EEA22EF50E66E010EDBCFE9FFF7
:100D9000020EDBCFEAFF480EE9260F0EEA22E552EB
:100DA000E750EF6E010EDBCFE9FF020EDBCFEAFF6B
:100DB000580EE9260F0EEA22DFCFEFFF010EDB2AE5
:100DC000020EC0E3DB2ABED7D950FD0FE96EFF0E3D
:100DD000DA20EA6EEE50ED100BE0D950FD0FE96E0F
:100DE000FF0EDA20EA6E010EEE180BE1ED5009E17C
:100DF000FD0EDBCFE6FFFE0EDBCFE6FF38D8E55277
:100E0000E552030EE15C02E2E16AE552E16EE55271
:100E1000E7CFD9FF1200D9CFE6FFE1CFD9FFFD0E12
:100E2000DBCF68FF0F01696B010E6817FB0EDBCF8C
:100E30006AFF6B6B0F0E6A1768CF00F069CF01F085
:100E4000040ED89000360136E806FBE1480E002675
:100E50000F0E012200500F016A25E96E01506B212F
:100E6000EA6E200EEF6EE552E7CFD9FF1200D9CF20
:100E7000E6FFE1CFD9FF020EE126DE6ADD6AFD0E54
:100E8000DBCF68FF0F01696B010E6817DE6ADD6A50
:100E9000DECF00F0DDCF01F0100E005C000E015837
:100EA0001BE268CF00F069CF01F0040ED890003645
:100EB0000136E806FBE1480E00260F0E0122DE5047
:100EC0000024E96EDD500120EA6E200EEF6EDF2A6D
:100ED000010EDEE3DB2ADCD7020EE15C02E2E16A0E
:100EE000E552E16EE552E7CFD9FF1200D9CFE6FF18
:100EF000E1CFD9FF020EE126DE6ADD6A0F016A6BDF
:100F00006B6B010E686F696BDE6ADD6ADECF00F025
:100F1000DDCF01F0200E005C000E01582BE2DECF89
:100F200000F0DDCF01F0040E0F0B05E0D890013288
:100F30000032E806FBE1040ED89000360136E806E0
:100F4000FBE1480E00260F0E0122DECF02F0DDCFBE
:100F500003F00001036A0F0E021600500224E96E2E
:100F600001500320EA6E200EEF6EDF2A010ECEE361
:100F7000DB2ACCD7020EE15C02E2E16AE552E16EC7
:100F8000E552E7CFD9FF1200D9CFE6FFE1CFD9FF75
:100F9000020EE126DE6ADD6A800EE66E6EEC01F07E
:100FA000E552DE6ADD6ADECF00F0DDCF01F0100E23
:100FB000005C000E015812E2DECFE9FFDDCFEAFF50
:100FC000480EE9260F0EEA22EF50E66ECAEC00F05A
:100FD000E552DF2A010EE7E3DB2AE5D7C00EE66E15
:100FE0006EEC01F0E552DE6ADD6ADECF00F0DDCFA7
:100FF00001F0100E005C000E015812E2DECFE9FF96
:10100000DDCFEAFF580EE9260F0EEA22EF50E66E1A
:10101000CAEC00F0E552DF2A010EE7E3DB2AE5D750
:10102000020EE15C02E2E16AE552E16EE552E7CFD1
:04103000D9FF1200D2
:0C103400D9CFE6FFE1CFD9FFFD0EDBCFE6
:1010400000F0FE0EDBCF01F0000E005C000E015838
:101050000BE3FD0EDBCF02F0FE0EDBCF03F0070E3D
:10106000025C000E035805E31E6A1F6A206A216AAB
:1010700020D0FD0EDBCFE9FFFE0EDBCFEAFF020E34
:10108000D890E936EA36E806FBE1000EE926010EC3
:10109000EA22EECF00F0EECF01F0EECF02F0EFCF7C
:1010A00003F000C01EF001C01FF002C020F003C01A
:1010B00021F0E552E7CFD9FF1200CAC000F0CBC043
:1010C00001F0026A036A00018051825D146E83514F
:1010D0008155156E166A176ACA51C85D106EC951DE
:1010E000CB55116E126A136A80C00CF081C00DF0EE
:1010F0000E6A0F6A0C50845D086E0D508559096E9A
:101100000E5086590A6E0F5087590B6E08C01EF09C
:1011100009C01FF00AC020F0216E10C023F011C0DA
:1011200024F012C025F013C026F064EC24F01AC09D
:1011300004F01BC005F01CC006F01DC007F01AC06B
:101140001EF01BC01FF01CC020F01DC021F014C0F9
:1011500023F015C024F016C025F017C026F09AEC35
:1011600021F000501E240101006F01501F20016F6B
:1011700002502020026F03502120036FCEC000F0E8
:10118000CFC001F0026A036A00018051825D146ED3
:1011900083518155156E166A176ACE51CC5D106E5B
:1011A000CD51CF55116E126A136A80C00CF081C008
:1011B0000DF00E6A0F6A0C50845D086E0D50855953
:1011C000096E0E5086590A6E0F5087590B6E08C073
:1011D0001EF009C01FF00AC020F0216E10C023F0DD
:1011E00011C024F012C025F013C026F064EC24F0E6
:1011F0001AC004F01BC005F01CC006F01DC007F0AB
:101200001AC01EF01BC01FF01CC020F01DC021F032
:1012100014C023F015C024F016C025F017C026F026
:101220009AEC21F000501E240101046F01501F2090
:10123000056F02502020066F03502120076FD2C097
:1012400000F0D3C001F0026A036A00018051825DA0
:10125000146E83518155156E166A176AD251D05D8E
:10126000106ED151D355116E126A136A80C00CF002
:1012700081C00DF00E6A0F6A0C50845D086E0D502F
:101280008559096E0E5086590A6E0F5087590B6E9C
:1012900008C01EF009C01FF00AC020F0216E10C067
:1012A00023F011C024F012C025F013C026F064EC26
:1012B00024F01AC004F01BC005F01CC006F01DC0CD
:1012C00007F01AC01EF01BC01FF01CC020F01DC08C
:1012D00021F014C023F015C024F016C025F017C06B
:1012E00026F09AEC21F000501E240101086F0150F5
:1012F0001F20096F025020200A6F035021200B6F1E
:10130000D6C000F0D7C001F0026A036A0001805124
:10131000825D146E83518155156E166A176AD65117
:10132000D45D106ED551D755116E126A136A80C004
:101330000CF081C00DF00E6A0F6A0C508E5D086EC5
:101340000D508F59096E0E5090590A6E0F509159D9
:101350000B6E08C01EF009C01FF00AC020F0216EFD
:1013600010C023F011C024F012C025F013C026F0E5
:1013700064EC24F01AC004F01BC005F01CC006F099
:101380001DC007F01AC01EF01BC01FF01CC020F0CB
:101390001DC021F014C023F015C024F016C025F0A4
:1013A00017C026F09AEC21F000501E2401010C6FAA
:1013B00001501F200D6F025020200E6F035021207E
:1013C0000F6FDAC000F0DBC001F0026A036A0001AF
:1013D0008051825D146E83518155156E166A176AAD
:1013E000DA51D85D106ED951DB55116E126A136A4D
:1013F00080C00CF081C00DF00E6A0F6A0C50985D31
:10140000086E0D509959096E0E509A590A6E0F5078
:101410009B590B6E08C01EF009C01FF00AC020F0D7
:10142000216E10C023F011C024F012C025F013C0AB
:1014300026F064EC24F01AC004F01BC005F01CC0B8
:1014400006F01DC007F01AC01EF01BC01FF01CC024
:1014500020F01DC021F014C023F015C024F016C0E8
:1014600025F017C026F09AEC21F000501E2401014F
:10147000106F01501F20116F02502020126F035077
:101480002120136FDEC000F0DFC001F0026A036AA2
:1014900000018051825D146E83518155156E166A6C
:1014A000176ADE51DC5D106EDD51DF55116E126A78
:1014B000136A80C00CF081C00DF00E6A0F6A0C50E8
:1014C000985D086E0D509959096E0E509A590A6E22
:1014D0000F509B590B6E08C01EF009C01FF00AC0C8
:1014E00020F0216E10C023F011C024F012C025F0AE
:1014F00013C026F064EC24F01AC004F01BC005F001
:101500001CC006F01DC007F01AC01EF01BC01FF063
:101510001CC020F01DC021F014C023F015C024F021
:1015200016C025F017C026F09AEC21F000501E24BA
:101530000101146F01501F20156F02502020166FFB
:1015400003502120176FE2C000F0E3C001F0026AEF
:10155000036A00018051825D146E83518155156EBE
:10156000166A176AE251E05D106EE151E355116EA3
:10157000126A136A80C00CF081C00DF00E6A0F6A07
:101580000C50A25D086E0D50A359096E0E50A4595F
:101590000A6E0F50A5590B6E08C01EF009C01FF04F
:1015A0000AC020F0216E10C023F011C024F012C038
:1015B00025F013C026F064EC24F01AC004F01BC020
:1015C00005F01CC006F01DC007F01AC01EF01BC0BD
:1015D0001FF01CC020F01DC021F014C023F015C066
:1015E00024F016C025F017C026F09AEC21F0005028
:1015F0001E240101186F01501F20196F0250202076
:101600001A6F035021201B6F1200D9CFE6FFE1CFE4
:10161000D9FF040EE126DE6ADD6A020EDB6A030EE4
:10162000DB6AE66A25EC24F0E552F3CF88F0F4CFCC
:1016300089F08CC0E9FF8DC0EAFFD890E936EA3620
:101640001C0EE926010EEA22F3CFEEFF89C0EDFF62
:10165000010E00018C258C6F000E8D218D6F140EF4
:10166000256E266A8CC020F08DC021F047EC21F059
:101670001CC08CF01DC08DF01CC0DEFF1DC0DDFF46
:1016800000018A6B8B6B020EDB6A030EDB6A020EB3
:10169000DBCF00F0030EDBCF01F0D890015004E661
:1016A000140E005C000E015824E2DECFE9FFDDCF0E
:1016B000EAFFD890E936EA361C0EE926010EEA2246
:1016C000EE508A27EE508B23D9CFE9FFDACFEAFF1D
:1016D000EE50ED1004E1130EDE6EDD6A04D0DF067D
:1016E000010E01E2DB06020EDB2A030ED0E3DB2A49
:1016F000CED78AC084F08BC085F0866B876B140EC2
:10170000236E246A256A266A8AC01EF08BC01FF0E9
:1017100086C020F087C021F09AEC21F01EC084F032
:101720001FC085F020C086F021C087F0040EE15C68
:1017300002E2E16AE552E16EE552E7CFD9FF12001D
:10174000D9CFE6FFE1CFD9FF040EE126DE6ADD6ADC
:10175000020EDB6A030EDB6A010EE66E25EC24F056
:10176000E552F3CF92F0F4CF93F096C0E9FF97C023
:10177000EAFFD890E936EA36440EE926010EEA225D
:10178000F3CFEEFF93C0EDFF010E00019625966F9B
:10179000000E9721976F140E256E266A96C020F0D2
:1017A00097C021F047EC21F01CC096F01DC097F0C7
:1017B0001CC0DEFF1DC0DDFF0001946B956B020EA7
:1017C000DB6A030EDB6A020EDBCF00F0030EDBCF19
:1017D00001F0D890015004E6140E005C000E015890
:1017E00024E2DECFE9FFDDCFEAFFD890E936EA3622
:1017F000440EE926010EEA22EE509427EE5095237E
:10180000D9CFE9FFDACFEAFFEE50ED1004E1130E75
:10181000DE6EDD6A04D0DF06010E01E2DB06020E99
:10182000DB2A030ED0E3DB2ACED794C08EF095C01E
:101830008FF0906B916B140E236E246A256A266AD2
:1018400094C01EF095C01FF090C020F091C021F010
:101850009AEC21F01EC08EF01FC08FF020C090F0D7
:1018600021C091F0040EE15C02E2E16AE552E16E12
:10187000E552E7CFD9FF1200D9CFE6FFE1CFD9FF7C
:10188000040EE126DE6ADD6A020EDB6A030EDB6A05
:10189000020EE66E25EC24F0E552F3CF9CF0F4CF77
:1018A0009DF0A0C0E9FFA1C0EAFFD890E936EA3672
:1018B0006C0EE926010EEA22F3CFEEFF9DC0EDFF8C
:1018C000010E0001A025A06F000EA121A16F140E32
:1018D000256E266AA0C020F0A1C021F047EC21F0BF
:1018E0001CC0A0F01DC0A1F01CC0DEFF1DC0DDFFAC
:1018F00000019E6B9F6B020EDB6A030EDB6A020E19
:10190000DBCF00F0030EDBCF01F0D890015004E6EE
:10191000140E005C000E015824E2DECFE9FFDDCF9B
:10192000EAFFD890E936EA366C0EE926010EEA2283
:10193000EE509E27EE509F23D9CFE9FFDACFEAFF82
:10194000EE50ED1004E1130EDE6EDD6A04D0DF060A
:10195000010E01E2DB06020EDB2A030ED0E3DB2AD6
:10196000CED79EC098F09FC099F09A6B9B6B140ED7
:10197000236E246A256A266A9EC01EF09FC01FF04F
:101980009AC020F09BC021F09AEC21F01EC098F084
:101990001FC099F020C09AF021C09BF0040EE15CBA
:1019A00002E2E16AE552E16EE552E7CFD9FF1200AB
:1019B000D9CFE6FFE1CFD9FF040EE126DE6ADD6A6A
:1019C000020EDB6A030EDB6AE66E25EC24F0E552BC
:1019D000F3CFA6F0F4CFA7F0AAC0E9FFABC0EAFFAF
:1019E000D890E936EA36940EE926010EEA22F3CFC2
:1019F000EEFFA7C0EDFF010E0001AA25AA6F000EA1
:101A0000AB21AB6F140E256E266AAAC020F0ABC0C6
:101A100021F047EC21F01CC0AAF01DC0ABF01CC0A7
:101A2000DEFF1DC0DDFF0001A86BA96B020EDB6AA3
:101A3000030EDB6A020EDBCF00F0030EDBCF01F0FA
:101A4000D890015004E6140E005C000E015824E208
:101A5000DECFE9FFDDCFEAFFD890E936EA36940E13
:101A6000E926010EEA22EE50A827EE50A923D9CF8D
:101A7000E9FFDACFEAFFEE50ED1004E1130EDE6E5F
:101A8000DD6A04D0DF06010E01E2DB06020EDB2A6E
:101A9000030ED0E3DB2ACED7A8C0A2F0A9C0A3F0E2
:101AA000A46BA56B140E236E246A256A266AA8C04F
:101AB0001EF0A9C01FF0A4C020F0A5C021F09AEC30
:101AC00021F01EC0A2F01FC0A3F020C0A4F021C0CE
:101AD000A5F0040EE15C02E2E16AE552E16EE55236
:101AE000E7CFD9FF1200D9CFE6FFE1CFD9FFFD0E36
:101AF000DBCF00F0FE0EDBCF01F0000E005C000E2D
:101B000001580BE3FD0EDBCF02F0FE0EDBCF03F03E
:101B1000070E025C000E035803E3F36AF46A18D060
:101B2000FD0EDBCFE9FFFE0EDBCFEAFF010ED89002
:101B3000E936EA36E806FBE1AC0EE926000EEA22B9
:101B4000EECF00F0EFCF01F000C0F3FF01C0F4FFD3
:101B5000E552E7CFD9FF1200D9CFE6FFE1CFD9FF99
:101B6000FD0EDBCF00F0FE0EDBCF01F0000E005CBF
:101B7000000E01580BE3FD0EDBCF02F0FE0EDBCFB3
:101B800003F0070E025C000E035803E3F36AF46AE5
:101B900018D0FD0EDBCFE9FFFE0EDBCFEAFF010E12
:101BA000D890E936EA36E806FBE1BA0EE926000EDF
:101BB000EA22EECF00F0EFCF01F000C0F3FF01C04A
:0A1BC000F4FFE552E7CFD9FF120051
:061BCA00D9CFE6FFE1CFD8
:101BD000D9FF020EE126DE6ADD6A040E0101FA1960
:101BE00001E1FB5101E103D2030EFA1901E1FB51BE
:101BF00001E167D1020EFA1901E1FB5149E0010E42
:101C0000FA1901E1FB5107E0FA5101E00CD3FB5155
:101C100001E009D348D1000EE66EE66A3CEC1FF005
:101C2000E552E552F3CF00F0F4CF01F0010EF318C6
:101C300006E1015004E1020E0101FA6FFB6B0201A3
:101C4000010E001913E1015111E1030E0101FA6FB8
:101C5000FB6BE80EE66E030EE66E000EE66EE66ABD
:101C6000E0EC1EF0E552E552E552E552DCEC22F0E4
:101C7000F4CF01F0010EF31801E0D5D2015001E0DC
:101C8000D2D2040E0101FA6FFB6BFE6BFF6BCBD25D
:101C9000560EE66E440EE66E3DEC11F0E552E5524E
:101CA000000EE66EE66A1AEC08F0E552E5521EC038
:101CB00000F01FC001F020C002F021C003F01EC0E0
:101CC000E6FF1FC0E6FF20C0E6FF21C0E6FF7DEC77
:101CD00012F0E552E552E552E5524D0EE66E440E25
:101CE000E66E3DEC11F0E552E552010EE66EE66A55
:101CF0001AEC08F0E552E5521EC000F01FC001F0DA
:101D000020C002F021C003F01EC0E6FF1FC0E6FFA6
:101D100020C0E6FF21C0E6FF7DEC12F0E552E5525F
:101D2000E552E552410EE66E440EE66E3DEC11F0D2
:101D3000E552E552020EE66EE66A1AEC08F0E5524C
:101D4000E5521EC000F01FC001F020C002F021C00B
:101D500003F01EC0E6FF1FC0E6FF20C0E6FF21C063
:101D6000E6FF7DEC12F0E552E552E552E552350E04
:101D7000E66E440EE66E3DEC11F0E552E552030EC0
:101D8000E66EE66A1AEC08F0E552E5521EC000F075
:101D90001FC001F020C002F021C003F01EC0E6FF0A
:101DA0001FC0E6FF20C0E6FF21C0E6FF7DEC12F079
:101DB000E552E552E552E5522C0EE66E440EE66E13
:101DC0003DEC11F0E552E552040EE66EE66A1AECBF
:101DD00008F0E552E5521EC000F01FC001F020C01F
:101DE00002F021C003F01EC0E6FF1FC0E6FF20C0C6
:101DF000E6FF21C0E6FF7DEC12F0E552E552E55228
:101E0000E552200EE66E440EE66E3DEC11F0E55212
:101E1000E552050EE66EE66A1AEC08F0E552E55268
:101E20001EC000F01FC001F020C002F021C003F06E
:101E30001EC0E6FF1FC0E6FF20C0E6FF21C0E6FF90
:101E40007DEC12F0E552E552E552E552130EE66ED6
:101E5000440EE66E3DEC11F0E552E552060EE66EDC
:101E6000E66A1AEC08F0E552E5521EC000F01FC009
:101E700001F020C002F021C003F01EC0E6FF1FC029
:101E8000E6FF20C0E6FF21C0E6FF7DEC12F0E55240
:101E9000E552E552E5520A0EE66E440EE66E3DEC62
:101EA00011F0E552E552E80EE66E030EE66E000E06
:101EB000E66EE66AE0EC1EF0E552E552E552E552C8
:101EC000AED1FC6BFD6B000EE66EE66A3CEC1FF0DB
:101ED000E552E552F3CF00F0F4CF01F0010EF31814
:101EE00070E101506EE1F90EE66E430EE66E3DECD8
:101EF00011F0E552E552E60EE66E430EE66E3DEC5D
:101F000011F0E552E552D80EE66E430EE66E3DEC5A
:101F100011F0E552E552DE6ADD6ADECF00F0DDCF7A
:101F200001F0D890015004E6070E005C000E015845
:101F300036E2DECFE6FFDDCFE6FF76EC15F0E552C8
:101F4000E552F3CF00F0F4CF01F0010EF31822E1D7
:101F5000015020E10101FC51FD1105E02C0EE66E5F
:101F60002FEC11F0E552DECFE9FFDDCFEAFFD8908C
:101F7000E936EA36EC0EE926010EEA22EECFE6FF5C
:101F8000EFCFE6FF3DEC11F0E552E552010E010105
:101F9000FC6FFD6BDF2A010EC0E3DB2ABED70D0EFE
:101FA000E66E2FEC11F0E552880EE66E130EE66E2B
:101FB000000EE66EE66AE0EC1EF0E552E552E552F0
:101FC000E55202010051011101E02DD1010E010184
:101FD000FA6FFB6B0A0EE66EE66A000EE66EE66AC4
:101FE000E0EC1EF0E552E552E552E5521CD1FE51FF
:101FF000FF1101E00FD1560EE66E440EE66E3DEC89
:1020000011F0E552E552000EE66EE66A2AEC14F095
:10201000E552E5521EC000F01FC001F020C002F0E2
:1020200021C003F01EC0E6FF1FC0E6FF20C0E6FF90
:1020300021C0E6FF7DEC12F0E552E552E552E55293
:102040004D0EE66E440EE66E3DEC11F0E552E552A3
:10205000010EE66EE66A2AEC14F0E552E5521EC067
:1020600000F01FC001F020C002F021C003F01EC02C
:10207000E6FF1FC0E6FF20C0E6FF21C0E6FF7DECC3
:1020800012F0E552E552E552E552410EE66E440E7D
:10209000E66E3DEC11F0E552E552020EE66EE66AA0
:1020A0002AEC14F0E552E5521EC000F01FC001F00A
:1020B00020C002F021C003F01EC0E6FF1FC0E6FFF3
:1020C00020C0E6FF21C0E6FF7DEC12F0E552E552AC
:1020D000E552E552350EE66E440EE66E3DEC11F02B
:1020E000E552E552030EE66EE66A2AEC14F0E5527C
:1020F000E5521EC000F01FC001F020C002F021C058
:1021000003F01EC0E6FF1FC0E6FF20C0E6FF21C0AF
:10211000E6FF7DEC12F0E552E552E552E5522C0E59
:10212000E66E440EE66E3DEC11F0E552E552040E0B
:10213000E66EE66A2AEC14F0E552E5521EC000F0A5
:102140001FC001F020C002F021C003F01EC0E6FF56
:102150001FC0E6FF20C0E6FF21C0E6FF7DEC12F0C5
:10216000E552E552E552E552200EE66E440EE66E6B
:102170003DEC11F0E552E552050EE66EE66A2AECFA
:1021800014F0E552E5521EC000F01FC001F020C05F
:1021900002F021C003F01EC0E6FF1FC0E6FF20C012
:1021A000E6FF21C0E6FF7DEC12F0E552E552E55274
:1021B000E552130EE66E440EE66E3DEC11F0E5526C
:1021C000E552060EE66EE66A2AEC14F0E552E55298
:1021D0001EC000F01FC001F020C002F021C003F0BB
:1021E0001EC0E6FF1FC0E6FF20C0E6FF21C0E6FFDD
:1021F0007DEC12F0E552E552E552E5520A0EE66E2C
:10220000440EE66E3DEC11F0E552E552040E01017C
:10221000FA6FFB6BDCEC22F0F350F41004E1010EDA
:102220000101FA6FFB6B020EE15C02E2E16AE5522A
:0A223000E16EE552E7CFD9FF12007E
:06223A00B06A810EAF6ED8
:10224000AC8AAC94B886AC98AB8EAB889E9A9D8ACB
:102250009F9A949C948E1200020168511200D9CF6B
:10226000E6FFE1CFD9FF9EA8FED7FE0EDB50AD6E94
:102270009E98E552E7CFD9FF1200D9CFE6FFE1CF14
:10228000D9FFFD0EDBCFF6FFFE0EDBCFF7FF080018
:10229000F55015E0FD0EDBCFF6FFFE0EDBCFF7FFAE
:1022A0000800F550E66EDBDFE552FD0EDBCFF6FFF2
:1022B000DB2AFE0EDBCFF7FFE4E3DB2AE2D7E552B1
:1022C000E7CFD9FF1200D9CFE6FFE1CFD9FF040E47
:1022D000E126DE6ADD6A020EDB6A030EDB6AFB0EB4
:1022E000DBCF00F0FC0EDBCF01F0FD0EDBCF02F008
:1022F000FE0EDBCF03F0005001100210031004E1CA
:10230000300EE66EACDFE552D950FB0FE96EFF0EE2
:10231000DA20EA6ED890030EEB50000A08E6000EB1
:10232000EE5C000EEE58000EEE58000EEE5822E263
:102330002D0EE66E94DFE552FB0EDBCF1EF0FC0E99
:10234000DBCF1FF0FD0EDBCF20F0FE0EDBCF21F048
:10235000236824682568266864EC24F0FB0E1AC004
:10236000DBFFFC0E1BC0DBFFFD0E1CC0DBFFFE0E07
:102370001DC0DBFF100EDE6E270EDD6ED9CFE9FF2C
:10238000DACFEAFF000ED880EE54000EED5401E3E0
:10239000AAD0DECF00F0DDCF01F0026A036A00C0F0
:1023A00023F001C024F002C025F003C026F0FB0E8C
:1023B000DBCF1EF0FC0EDBCF1FF0FD0EDBCF20F0DD
:1023C000FE0EDBCF21F09AEC21F01E501F102010E2
:1023D000211036E0DECF04F0DDCF05F0066A076A93
:1023E00004C023F005C024F006C025F007C026F085
:1023F000FB0EDBCF1EF0FC0EDBCF1FF0FD0EDBCFA4
:1024000020F0FE0EDBCF21F09AEC21F01EC000F090
:102410001FC001F020C002F021C003F0300E0026E2
:10242000000E0122022203220050E66E18DFE55260
:10243000010EF36E020EF3CFDBFF030EDB6A0ED04C
:10244000D950020FE96EDACFEAFF010EEE1806E16D
:10245000ED5004E1300EE66E02DFE552DECF00F013
:10246000DDCF01F0026A036A00C023F001C024F04E
:1024700002C025F003C026F0FB0EDBCF1EF0FC0EE1
:10248000DBCF1FF0FD0EDBCF20F0FE0EDBCF21F007
:1024900003C0F5FF9AEC21F0F5AE08D0000E1A6CDF
:1024A0001B1E1B221C1E1C221D1E1D22FB0E1AC0E1
:1024B000DBFFFC0E1BC0DBFFFD0E1CC0DBFFFE0EB6
:1024C0001DC0DBFF0A0E006E016A256E01C026F0FA
:1024D000DECF20F0DDCF21F05EEC25F020C0DEFF66
:1024E00021C0DDFF4BD7040EE15C02E2E16AE55258
:1024F000E16EE552E7CFD9FF1200D9CFE6FFE1CF79
:10250000D9FF040EE126D9CFE9FFDACFEAFFFB0EAF
:10251000DBCFEEFFFC0EDBCFEEFFFD0EDBCFEEFFE1
:10252000FE0EDBCFEEFFD9CFE9FFDACFEAFFEECF29
:102530001EF0EECF1FF0EECF20F0EFCF21F0E80E2F
:10254000236E030E246E256A266A9AEC21F01E5033
:102550001F102010211031E0D9CFE9FFDACFEAFFB8
:10256000EECF00F0EECF01F0EECF02F0EFCF03F0B0
:10257000E80E236E030E246E256A266A00C01EF044
:1025800001C01FF002C020F003C021F09AEC21F03E
:102590001EC000F01FC001F020C002F021C003F0F7
:1025A0001EC0E6FF1FC0E6FF20C0E6FF21C0E6FF19
:1025B0008ADEE552E552E552E552D9CFE9FFDACF9E
:1025C000EAFFEECF1EF0EECF1FF0EECF20F0EFCF00
:1025D00021F0E80E236E030E246E256A266A9AEC1B
:1025E00021F01AC0DEFF1BC0DEFF1CC0DEFF1DC0D5
:1025F000DDFFDD52DD52D9CFE9FFDACFEAFFEECFC2
:1026000000F0EECF01F0EECF02F0EFCF03F0640E5A
:10261000236E246A256A266A00C01EF001C01FF0DE
:1026200002C020F003C021F09AEC21F01EC000F09F
:102630001FC001F020C002F021C003F01EC0E6FF61
:102640001FC0E6FF20C0E6FF21C0E6FF3CDEE552EA
:10265000E552E552E552D9CFE9FFDACFEAFFEECFF6
:102660001EF0EECF1FF0EECF20F0EFCF21F0640E82
:10267000236E246A256A266A9AEC21F01AC0DEFFCE
:102680001BC0DEFF1CC0DEFF1DC0DDFFDD52DD52C2
:102690002E0EE66EE4DDE552D9CFE9FFDACFEAFF90
:1026A000EECF00F0EECF01F0EECF02F0EFCF03F06F
:1026B0000A0E236E246A256A266A00C01EF001C035
:1026C0001FF002C020F003C021F09AEC21F01EC0E0
:1026D00000F01FC001F020C002F021C003F01EC0B6
:1026E000E6FF1FC0E6FF20C0E6FF21C0E6FFEBDDEE
:1026F000E552E552E552E552D9CFE9FFDACFEAFFDC
:10270000EECF00F0EECF01F0EECF02F0EFCF03F00E
:102710000A0E236E246A256A266A00C01EF001C0D4
:102720001FF002C020F003C021F09AEC21F01AC083
:1027300000F01BC001F01CC002F01DC003F01AC065
:10274000E6FF1BC0E6FF1CC0E6FF1DC0E6FFBBDDC9
:10275000E552E552E552E552040EE15C02E2E16A1F
:10276000E552E16EE552E7CFD9FF1200AECF68F235
:02277000120055
:0E277200D9CFE6FFE1CFD9FF020EE126DE6AE5
:10278000DD6ADE6ADD6ADECF00F0DDCF01F0D890D1
:10279000015004E6070E005C000E015849E2DECF4E
:1027A000E9FFDDCFEAFFD890E936EA36D890E9367E
:1027B000EA36020EE926020EEA22EECF00F0EECF54
:1027C00001F0EECF02F0EFCF03F000C0E6FF01C052
:1027D000E6FF02C0E6FF03C0E6FFDECFE6FFDDCF87
:1027E000E6FF1AEC08F0E552E552E552E7CF03F0B8
:1027F000E552E7CF02F0E552E7CF01F0E552E7CF2F
:1028000000F021500318E8AE02D0033408D0005085
:102810001E5C01501F58025020580350215803E3FA
:10282000010EF36E06D0DF2A010EADE3DB2AABD733
:10283000F36AF46A020EE15C02E2E16AE552E16EDB
:10284000E552E7CFD9FF120094DFF3CF00F2F4CFC7
:1028500001F21200D9CFE6FFE1CFD9FFFD0EDBCFA9
:1028600000F0FE0EDBCF01F0000E005C000E015800
:102870000BE3FD0EDBCF02F0FE0EDBCF03F0070E05
:10288000025C000E035805E31E6A1F6A206A216A73
:1028900020D0FD0EDBCFE9FFFE0EDBCFEAFF020EFC
:1028A000D890E936EA36E806FBE1020EE926020E88
:1028B000EA22EECF00F0EECF01F0EECF02F0EFCF44
:1028C00003F000C01EF001C01FF002C020F003C0E2
:1028D00021F0E552E7CFD9FF1200D9CFE6FFE1CFD3
:1028E000D9FFFD0EDBCF00F0FE0EDBCF01F0000EB6
:1028F000005C000E015871E3FD0EDBCF02F0FE0E0E
:10290000DBCF03F0070E025C000E035866E20A0EEE
:10291000006E016A026A036AFD0EDBCFE9FFFE0E5C
:10292000DBCFEAFF020ED890E936EA36E806FBE193
:10293000020EE926020EEA22EE500026EE50012297
:10294000EE500222EE50032200C0E6FF01C0E6FF77
:1029500002C0E6FF03C0E6FFFD0EDBCFE6FFFE0E82
:10296000DBCFE6FF73EC0DF0E552E552E552E7CF21
:1029700003F0E552E7CF02F0E552E7CF01F0E55270
:10298000E7CF00F0F3CF04F0F4CF05F0066A076A52
:1029900007500318E8AE02D0033408D00050045C9E
:1029A00001500558025006580350075816E3FD0E13
:1029B000DBCFE9FFFE0EDBCFEAFF020ED890E9364F
:1029C000EA36E806FBE1020EE926020EEA220A0ECA
:1029D000EE26000EEE22EE22EE22E552E7CFD9FFE0
:1029E0001200D9CFE6FFE1CFD9FFFD0EDBCF00F01B
:1029F000FE0EDBCF01F0000E005C000E015872E30A
:102A0000FD0EDBCF02F0FE0EDBCF03F0070E025C03
:102A1000000E035867E2FD0EDBCFE9FFFE0EDBCFB1
:102A2000EAFF020ED890E936EA36E806FBE1020E2C
:102A3000E926020EEA22EECF00F0EECF01F0EECF53
:102A400002F0EFCF03F00A0E005E000E015A025AA8
:102A5000035A00C0E6FF01C0E6FF02C0E6FF03C064
:102A6000E6FFFD0EDBCFE6FFFE0EDBCFE6FFACECB4
:102A70000DF0E552E552E552E7CF03F0E552E7CF1E
:102A800002F0E552E7CF01F0E552E7CF00F0F3CFD7
:102A900004F0F4CF05F0066A076A03500718E8AEA1
:102AA00002D0073408D00450005C0550015806508D
:102AB00002580750035816E3FD0EDBCFE9FFFE0E68
:102AC000DBCFEAFF020ED890E936EA36E806FBE1F2
:102AD000020EE926020EEA220A0EEE5E000EEE5A01
:102AE000EE5AEE5AE552E7CFD9FF1200D9CFE6FFF2
:102AF000E1CFD9FFFD0EDBCF00F0FE0EDBCF01F002
:102B0000000E005C000E015855E3FD0EDBCF02F015
:102B1000FE0EDBCF03F0070E025C000E03584AE204
:102B2000FD0EDBCFE9FFFE0EDBCFEAFF020ED890F1
:102B3000E936EA36E806FBE1020EE926020EEA2251
:102B4000EECF00F0EECF01F0EECF02F0EFCF03F0CA
:102B500000C0E6FF01C0E6FF02C0E6FF03C0E6FFDB
:102B6000FD0EDBCFE6FFFE0EDBCFE6FF1AEC08F032
:102B7000E552E552E552E7CF03F0E552E7CF02F028
:102B8000E552E7CF01F0E552E7CF00F021500318FE
:102B9000E8AE02D0033408D000501E5C01501F582C
:102BA000025020580350215803E3010EF36E01D068
:0C2BB000F36AF46AE552E7CFD9FF120087
:042BBC0002015607B5
:102BC000000E575B12000201562B000E5723120015
:102BD000D9CFE6FFE1CFD9FF080EE126DE6ADE6A33
:102BE000DE6ADD6ADD52DD52040EDB6A050EDB6A49
:102BF000060EDB6A070EDB6A76EC07F00201010EB7
:102C0000561972E1575170E156C2E9FF57C2EAFF07
:102C1000E906000EEA5A010ED890E936EA36E806CF
:102C2000FBE1D80EE926010EEA22EECFE6FFEFCF58
:102C3000E6FF1AEC08F0E552E552040E1EC0DBFF79
:102C4000050E1FC0DBFF060E20C0DBFF070E21C0F4
:102C5000DBFFE6C1E6FFE7C1E6FF000EE66EE66ACF
:102C6000E66EE66A9EEC02F0006E060EE15E005033
:102C700056C2E9FF57C2EAFFE906000EEA5A010E02
:102C8000D890E936EA36E806FBE1BC0EE926010EEB
:102C9000EA22EECFE6FFEFCFE6FF000EE66EE66A31
:102CA000010EE66EE66A9EEC02F0006E060EE15E34
:102CB0000050D950040FE96EDACFEAFFEECFE6FFFD
:102CC000EECFE6FFEECFE6FFEFCFE6FF56C2E9FF1D
:102CD00057C2EAFFE906000EEA5A010ED890E9361B
:102CE000EA36E806FBE1D0D056C2E9FF57C2EAFF58
:102CF000020EE95E000EEA5A010ED890E936EA3675
:102D0000E806FBE1D80EE926010EEA22EECFE6FF47
:102D1000EFCFE6FF1AEC08F0E552E5521EC0DEFFE9
:102D20001FC0DEFF20C0DEFF21C0DDFFDD52DD520F
:102D300056C2E9FF57C2EAFFE906000EEA5A010E41
:102D4000D890E936EA36E806FBE1D80EE926010E0E
:102D5000EA22EECFE6FFEFCFE6FF1AEC08F0E552ED
:102D6000E552040E1EC0DBFF050E1FC0DBFF060E82
:102D700020C0DBFF070E21C0DBFF56C2E9FF57C2B0
:102D8000EAFF020EE95E000EEA5A010ED890E9361B
:102D9000EA36E806FBE1BC0EE926010EEA22EECF98
:102DA000E6FFEFCFE6FF000EE66EE66AE66EE66A45
:102DB0009EEC02F0006E060EE15E005056C2E9FF86
:102DC00057C2EAFFE906000EEA5A010ED890E9362A
:102DD000EA36E806FBE1BC0EE926010EEA22EECF58
:102DE000E6FFEFCFE6FF000EE66EE66A010EE66E46
:102DF000E66A9EEC02F0006E060EE15E0050D9CF4E
:102E0000E9FFDACFEAFFEECFE6FFEECFE6FFEECF47
:102E1000E6FFEFCFE6FF56C2E9FF57C2EAFF020E18
:102E2000E95E000EEA5A010ED890E936EA36E80665
:102E3000FBE1CA0EE926010EEA22EECFE6FFEFCF54
:102E4000E6FF000EE66EE66A2DEC04F0006E080E5A
:102E5000E15E0050D950040FE96EDACFEAFFEECF01
:102E6000E6FFEECFE6FFEECFE6FFEFCFE6FF56C27E
:102E7000E9FF57C2EAFFE906000EEA5A010ED890B0
:102E8000E936EA36E806FBE1CA0EE926010EEA2237
:102E9000EECFE6FFEFCFE6FF010EE66EE66A2DEC21
:102EA00004F0006E080EE15E0050C4EC07F0080E5E
:102EB000E15C02E2E16AE552E16EE552E7CFD9FF5B
:102EC000120086DE030E0201581901E1595170E02B
:102ED000020E581901E1595129E0010E581901E17A
:102EE00059510BE0585101E1595101E01200010E16
:102EF000586F596B566F576B1200010E566F576B18
:102F0000040EE66EE66A61EC1BF0E552E552F3CF83
:102F100000F0F4CF01F0010EF31807E1015060E179
:102F200052DE020E0201586F596B1200010EE66E5E
:102F3000E66A61EC1BF0E552E552F3CF00F0F4CF06
:102F400001F0010EF31814E1015012E156C200F035
:102F500057C201F00006000E015A010E001807E1E9
:102F6000015005E1010E0201586F596B01D026DEB8
:102F7000040EE66EE66A61EC1BF0E552E552F4CF12
:102F800001F0010EF31813E101502AE1010E0201D4
:102F9000016A5625006E57510122070E001806E1FE
:102FA000015004E1030E586F596B12000CDE120041
:102FB000070E566F576B010EE66EE66A61EC1BF06A
:102FC000E552E552F3CF00F0F4CF01F0010EF31813
:102FD00007E1015005E1F2DD020E0201586F596B65
:022FE0001200DD
:0E2FE200D59ED59C650E206E130E216E40C24A
:102FF00025F041C226F0CEEC21F01EC046F21FC0E3
:1030000047F203680468056A40C206F041C207F04F
:10301000086A0650035C006E07500458016E0850A1
:103020000558026E246A010E256E266A00C01FF044
:1030300001C020F002C021F06DEC21F01BC000F0B7
:103040001CC001F01DC002F01B50D66E036804685E
:10305000056A40C206F041C207F0086A0650035CE8
:10306000006E07500458016E08500558026E246A1D
:10307000010E256E266A00C01FF001C020F002C0BC
:1030800021F06DEC21F01FC000F020C001F021C044
:1030900002F01F50D76ED59AD586F28AF294F18449
:1030A000D58E120003680468056A46C206F047C25E
:1030B00007F0086A0650035C006E07500458016E62
:1030C00008500558026E246A010E256E266A00C05B
:1030D0001FF001C020F002C021F06DEC21F01B5068
:1030E000D66E03680468056A46C206F047C207F058
:1030F000086A0650035C006E07500458016E0850C1
:103100000558026E246A010E256E266A00C01FF063
:1031100001C020F002C021F06DEC21F01FC000F0D2
:1031200020C001F021C002F01F50D76ED58E1200D2
:10313000D59E12001200CD90650E206E130E216EEA
:1031400042C225F043C226F0CEEC21F01EC048F268
:103150001FC049F203680468056A1EC006F01FC05C
:1031600007F0086A1E50035C006E1F500458016E81
:1031700008500558026E246A010E256E266A00C0AA
:103180001FF001C020F002C021F06DEC21F01FC043
:1031900000F020C001F021C002F01F50CF6E036884
:1031A0000468056A48C206F049C207F0086A06507A
:1031B000035C006E07500458016E08500558026EFB
:1031C000246A010E256E266A00C01FF001C020F09F
:1031D00002C021F06DEC21F01BC000F01CC001F01A
:1031E0001DC002F01B50CE6E9D809E909F90CD8E94
:1031F000CD8CCD98CD9ACD96CD92CD80120003681E
:103200000468056A48C206F049C207F0086A065019
:10321000035C006E07500458016E08500558026E9A
:10322000246A010E256E266A00C01FF001C020F03E
:1032300002C021F06DEC21F01F50CF6E03680468CE
:10324000056A48C206F049C207F0086A0650035CE6
:10325000006E07500458016E08500558026E246A2B
:10326000010E256E266A00C01FF001C020F002C0CA
:1032700021F06DEC21F01BC000F01CC001F01DC05E
:1032800002F01B50CE6ECD801200CD9012001200C5
:10329000B190650E206E130E216E44C225F045C21A
:1032A00026F0CEEC21F01EC04AF21FC04BF203689C
:1032B0000468056A1EC006F01FC007F0086A1E50A9
:1032C000035C006E1F500458016E08500558026ED2
:1032D000246A010E256E266A00C01FF001C020F08E
:1032E00002C021F06DEC21F01FC000F020C001F001
:1032F00021C002F01F50B36E03680468056A4AC219
:1033000006F04BC207F0086A0650035C006E0750D7
:103310000458016E08500558026E246A010E256E8D
:10332000266A00C01FF001C020F002C021F06DEC41
:1033300021F01BC000F01CC001F01DC002F01B50AA
:10334000B26EA082A192A292B18EB198B19AB192BE
:10335000B180120003680468056A4AC206F04BC2D5
:1033600007F0086A0650035C006E07500458016EAF
:1033700008500558026E246A010E256E266A00C0A8
:103380001FF001C020F002C021F06DEC21F01B50B5
:10339000B26E03680468056A4AC206F04BC207F0C1
:1033A000086A0650035C006E07500458016E08500E
:1033B0000558026E246A010E256E266A00C01FF0B1
:1033C00001C020F002C021F06DEC21F01FC000F020
:1033D00020C001F021C002F01F50B36EB180120076
:0433E000B190120096
:0C33E400D9CFE6FFE1CFD9FF020EE126B1
:1033F000DE6ADD6ADE6ADD6ADECF00F0DDCF01F075
:10340000D890015004E6060E005C000E015801E35E
:103410004ED1DECFE9FFDDCFEAFFD890E936EA36BC
:10342000180EE9260F0EEA22EECF00F0EFCF01F0E2
:10343000DECFE9FFDDCFEAFFD890E936EA36240E89
:10344000E9260F0EEA2200C0EEFF01C0EDFFDECF3D
:10345000E9FFDDCFEAFFD890E936EA360C0EE9261F
:103460000F0EEA22EECF00F0EFCF01F0DECFE9FF42
:10347000DDCFEAFFD890E936EA36180EE9260F0EBE
:10348000EA2200C0EEFF01C0EDFFDECFE6FFDDCF98
:10349000E6FF0EEC21F0E552E552F4CF01F0DECF6D
:1034A000E9FFDDCFEAFFD890E936EA360C0EE926CF
:1034B0000F0EEA22F3CFEEFF01C0EDFFDECFE9FFF2
:1034C000DDCFEAFFD890E936EA360C0EE9260F0E7A
:1034D000EA22EECF00F0EFCF01F0DECFE9FFDDCF43
:1034E000EAFFD890E936EA36180EE9260F0EEA22EE
:1034F000EECF02F0EFCF03F00250001801E0D1D080
:103500000350011801E0CDD0DECFE9FFDDCFEAFFA7
:10351000D890E936EA36180EE9260F0EEA22EECFE9
:1035200004F0EFCF05F0DECFE9FFDDCFEAFFD89062
:10353000E936EA36240EE9260F0EEA22EECF06F02F
:10354000EFCF07F00650041801E0ABD00750051884
:1035500001E0A7D0DECFE9FFDDCFEAFFD890E93662
:10356000EA36300EE9260F0EEA22EECF00F0EFCF5A
:1035700001F0DECFE9FFDDCFEAFFD890E936EA3689
:10358000240EE9260F0EEA22EECF02F0EFCF03F071
:103590000250001802E1035001183BE0DECFE9FFC2
:1035A000DDCFEAFFD890E936EA36240EE9260F0E81
:1035B000EA22EECF00F0EFCF01F0DECFE9FFDDCF62
:1035C000EAFFD890E936EA36300EE9260F0EEA22F5
:1035D00000C0EEFF01C0EDFFDECFE9FFDDCFEAFF67
:1035E000D890E936EA36300EE9260F0EEA22010EAF
:1035F000EE1857E1ED5055E1DECFE9FFDDCFEAFFF0
:10360000D890E936EA363C0EE9260F0EEA22C80EBB
:1036100038D0DECFE9FFDDCFEAFFD890E936EA36D1
:103620003C0EE9260F0EEA22EE06000EEF5ADECF20
:10363000E9FFDDCFEAFFD890E936EA363C0EE9260D
:103640000F0EEA22EE50ED102CE1DECFE9FFDDCFC8
:10365000EAFFD890E936EA36300EE9260F0EEA2264
:10366000010EEE181EE1ED501CE1DECFE9FFDDCFCB
:10367000EAFFD890E936EA363C0EE9260F0EEA2238
:10368000320EEE6EED6ADECFE9FFDDCFEAFFD890B5
:10369000E936EA36000EE9260F0EEA22010EEE6E3A
:1036A000ED6ADF2A010E01E2A7D6DB2AA5D6020EBB
:1036B000E15C02E2E16AE552E16EE552E7CFD9FF53
:1036C0001200D9CFE6FFE1CFD9FFFD0EDBCF00F02E
:1036D000FE0EDBCF01F0000E005C000E01580CE383
:1036E000D950FD0FE96EFF0EDA20EA6E060ED88083
:1036F000EE54000EED5402E2F36A2BD0FD0EDBCF48
:10370000E9FFFE0EDBCFEAFF010ED890E936EA367C
:10371000E806FBE1000EE9260F0EEA22010EEE1884
:1037200017E1ED5015E1FD0EDBCFE9FFFE0EDBCF1B
:10373000EAFF010ED890E936EA36E806FBE1000E12
:10374000E9260F0EEA22EE6AED6A010EF36E01D051
:0C375000F36AF46AE552E7CFD9FF1200DB
:04375C00D9CFE6FFDC
:10376000E1CFD9FF060EE126DE6ADD6A020EDB6AD2
:10377000030EDB6A040EDB6A050EDB6A76EC07F0EB
:103780000201010E1E1922E11F5120E1EAC1E6FFEC
:10379000EBC1E6FF000EE66EE66AE66EE66A9EECB8
:1037A00002F0006E060EE15E005020C2E6FF21C26C
:1037B000E6FF000EE66EE66A010EE66EE66A9EEC35
:1037C00002F0006E060EE15E0050F1D0DE6ADD6AA6
:1037D000DECF00F0DDCF01F0070E005C000E0158D7
:1037E00001E3E5D0DECFE6FFDDCFE6FF76EC15F0B6
:1037F000E552E552F3CF00F0F4CF01F0010EF318DB
:1038000001E0CFD0015001E0CCD0D950020FE96ED9
:10381000DACFEAFFEE50ED1040E0010EE76E020E47
:10382000DBCF00F0030EDBCF01F0E7500026000EE7
:103830000122100E005C000E01582FE22C0EE66EE5
:10384000020EDBCFE6FF030EDBCFE6FF040EDBCF7D
:10385000E6FF050EDBCFE6FF55EC02F0006E050E2D
:10386000E15E0050020EDB2A030E01E3DB2A020EAA
:10387000DBCF00F0030EDBCF01F0100E005C000E7A
:1038800001580BE3010EF36E040EF3CFDBFF050EC0
:10389000DB6A020EDB6A030EDB6A020EDBCF02F08C
:1038A000030EDBCF03F0DECFE9FFDDCFEAFF010E31
:1038B000D890E936EA36E806FBE1220EE926020E48
:1038C000EA220250EE24006E0350EE20016E100E2C
:1038D000005C000E01580BE3010EF36E040EF3CFF3
:1038E000DBFF050EDB6A020EDB6A030EDB6ADECF4E
:1038F000E9FFDDCFEAFF010ED890E936EA36E806A7
:10390000FBE1EC0EE926010EEA22EECFE6FFEFCF57
:10391000E6FF020EDBCFE6FF030EDBCFE6FF040E71
:10392000DBCFE6FF050EDBCFE6FF9EEC02F0006E7C
:10393000060EE15E0050020EDBCF02F0030EDBCF7D
:1039400003F0DECFE9FFDDCFEAFF010ED890E936C4
:10395000EA36E806FBE1220EE926020EEA220250D0
:10396000EE24006E0350EE20016E020E00C0DBFF5D
:10397000030E01C0DBFF020EDBCF00F0030EDBCF36
:1039800001F0100E005C000E01580BE3010EF36E07
:10399000040EF3CFDBFF050EDB6A020EDB6A030EBB
:1039A000DB6ADF2A010E01E213D7DB2A11D7C4EC50
:1039B00007F0060EE15C02E2E16AE552E16EE552D3
:1039C000E7CFD9FF1200CADE020E02011E1901E183
:1039D0001F513DE0010E1E1901E11F5116E01E515D
:1039E00001E11F5101E01200010E1E6F1F6BE80E76
:1039F000E66E030EE66E020EE66EE66AE0EC1EF080
:103A0000E552E552E552E5521200020EE66EE66A14
:103A10003CEC1FF0E552E552F3CF00F0F4CF01F09B
:103A2000010EF31813E1015033E1880EE66E130E18
:103A3000E66E020EE66EE66AE0EC1EF0E552E55236
:103A4000E552E552020E02011E6F1F6B1200020EBC
:103A5000E66EE66A3CEC1FF0E552E552F3CF00F06B
:103A6000F4CF01F0010EF31813E1015011E1E80E5B
:103A7000E66E030EE66E020EE66EE66AE0EC1EF0FF
:103A8000E552E552E552E552010E02011E6F1F6B31
:023A9000120022
:0E3A920002015A2B000E5B23120002015A079C
:103AA000000E5B5B1200D9CFE6FFE1CFD9FF040E19
:103AB000E1265AC2E6FF5BC2E6FF2AEC14F0E552AB
:103AC000E5521EC0DEFF1FC0DEFF20C0DEFF21C0AA
:103AD000DDFFDD52DD5276EC07F0E8C1E6FFE9C11B
:103AE000E6FF000EE66EE66AE66EE66A9EEC02F01F
:103AF000006E060EE15E00505AC2E9FF5BC2EAFFAB
:103B0000010ED890E936EA36E806FBE1BC0EE9265C
:103B1000010EEA22EECFE6FFEFCFE6FF000EE66EE3
:103B2000E66A010EE66EE66A9EEC02F0006E060E94
:103B3000E15E0050D9CFE9FFDACFEAFFEECFE6FF32
:103B4000EECFE6FFEECFE6FFEFCFE6FF5AC2E9FF8A
:103B50005BC2EAFF010ED890E936EA36E806FBE1DF
:103B6000CA0EE926010EEA22EECFE6FFEFCFE6FF0E
:103B7000010EE66EE66A2DEC04F0006E080EE15EC2
:103B80000050C4EC07F0040EE15C02E2E16AE55289
:103B9000E16EE552E7CFD9FF120085DF050E020185
:103BA0005C1901E15D5101E18ED0040E5C1901E167
:103BB0005D5101E17BD0030E5C1901E15D5171E0C3
:103BC000020E5C1901E15D5168E0010E5C1901E132
:103BD0005D5109E05C5101E15D5101E01200010E0F
:103BE0005C6F5D6B1200010EE66EE66A61EC1BF025
:103BF000E552E552F3CF00F0F4CF01F0010EF318D7
:103C00000BE1015009E10201060E5A5D000E5B59FD
:103C100003E2020E5C6F5D6B000EE66EE66A61EC1D
:103C20001BF0E552E552F3CF00F0F4CF01F0010EA6
:103C3000F3180CE101500AE10201000ED8805A5538
:103C4000000E5B5503E2030E5C6F5D6B040EE66EC7
:103C5000E66A61EC1BF0E552E552F3CF00F0F4CFD9
:103C600001F0010EF31806E1015004E1040E020117
:103C70005C6F5D6B030EE66EE66A61EC1BF0E5526D
:103C8000E552F4CF01F0010EF31806E1015027E1EF
:103C9000050E02015C6F5D6B12005A2B000E5B2358
:103CA00003D05A07000E5B5B010E0AD05AC2E6FF32
:103CB0005BC2E6FF6DEC14F0E552E552010E020125
:103CC0005C6F5D6B12005AC2E6FF5BC2E6FFF1EC6F
:103CD00014F0E552E552010E02015C6F5D6B1200BB
:103CE000D9CFE6FFE1CFD9FF020EE126DE6ADD6A19
:103CF000DE6ADD6ADECF00F0DDCF01F0D890015042
:103D000004E6040E005C000E015850E2DECFE9FF2D
:103D1000DDCFEAFFD890E936EA36380EE926020E02
:103D2000EA22000ED880EE54000EED543AE2DECFC7
:103D3000E9FFDDCFEAFFD890E936EA36380EE9260A
:103D4000020EEA22EE06000EEF5ADECFE9FFDDCFCB
:103D5000EAFFD890E936EA36380EE926020EEA2262
:103D6000000ED880EE54000EED541BE3DECFE9FFC9
:103D7000DDCFEAFFD890E936EA36380EE926020EA2
:103D8000EA22EE6AED6ADECFE9FFDDCFEAFFD890E6
:103D9000E936EA36300EE926020EEA22010EEE6E10
:103DA000ED6ADF2A010EA6E3DB2AA4D7020EE15C4E
:103DB00002E2E16AE552E16EE552E7CFD9FF120077
:103DC000D9CFE6FFE1CFD9FFFD0EDBCF00F0FE0E2D
:103DD000DBCF01F0000E005C000E01580BE3FD0E7E
:103DE000DBCF02F0FE0EDBCF03F0040E025C000E10
:103DF000035802E3F36A3BD0FB0EDBCF00F0FC0E6E
:103E0000DBCF01F00A0E256E266A00C020F001C04B
:103E100021F05EEC25F020C000F021C001F0FD0E85
:103E2000DBCFE9FFFE0EDBCFEAFF010ED890E936CB
:103E3000EA36E806FBE1380EE926020EEA2200C067
:103E4000EEFF01C0EDFFFD0EDBCFE9FFFE0EDBCF85
:103E5000EAFF010ED890E936EA36E806FBE1300EBB
:103E6000E926020EEA22EE6AED6A010EF36EF46AAA
:103E7000E552E7CFD9FF1200D9CFE6FFE1CFD9FF56
:103E8000FD0EDBCF00F0FE0EDBCF01F0000E005C7C
:103E9000000E01580BE3FD0EDBCF02F0FE0EDBCF70
:103EA00003F0040E025C000E035802E3F36A2BD009
:103EB000FD0EDBCFE9FFFE0EDBCFEAFF010ED8904F
:103EC000E936EA36E806FBE1300EE926020EEA2280
:103ED000010EEE1817E1ED5015E1FD0EDBCFE9FF05
:103EE000FE0EDBCFEAFF010ED890E936EA36E8068F
:103EF000FBE1300EE926020EEA22EE6AED6A010EBF
:103F0000F36E01D0F36AF46AE552E7CFD9FF1200ED
:103F1000F28ED08EF28C1200F19CF292F288120096
:103F2000D8CFE4FFE0CFE4FFE46EDACFE4FFE2CFE6
:103F3000DAFFE9CFE4FFEACFE4FFF6CFE4FFF7CF03
:103F4000E4FFF5CFE4FFF3CFE4FFF4CFE4FFFACFD3
:103F5000E4FF00EE18F0140EE80403E3EECFE4FFF4
:103F6000FBD700EE00F0180EE80403E3EECFE4FF09
:103F7000FBD7E652F2A407D098EC18F0F29452EC7A
:103F800018F09AEC18F09EA007D045EC19F09E901E
:103F9000FFEC18F047EC19F0A1A207D0F0EC19F0F3
:103FA000A192AAEC19F0F0EC24F0F2B2F2929EAADF
:103FB00003D09E9AB6EC13F0E55200EE17F0180EFF
:103FC000E80403E3E5CFEDFFFBD700EE2BF0140E82
:103FD000E80403E3E5CFEDFFFBD7E5CFFAFFE5CF3C
:103FE000F4FFE5CFF3FFE5CFF5FFE5CFF7FFE5CF32
:103FF000F6FFE5CFEAFFE5CFE9FFE5CFDAFFE550D1
:10400000E5CFE0FFE5CFD8FF1000DACFE4FFE2CF45
:10401000DAFFE9CFE4FFEACFE4FFF6CFE4FFF7CF22
:10402000E4FFF5CFE4FFF3CFE4FFF4CFE4FFFACFF2
:10403000E4FF00EE18F0140EE80403E3EECFE4FF13
:10404000FBD700EE00F0180EE80403E3EECFE4FF28
:10405000FBD7E652F2A407D098EC18F0F29452EC99
:1040600018F09AEC18F09EA007D045EC19F09E903D
:10407000FFEC18F047EC19F0A1A207D0F0EC19F012
:10408000A192AAEC19F0F0EC24F0F2B2F2929EAAFE
:1040900003D09E9AB6EC13F0E55200EE17F0180E1E
:1040A000E80403E3E5CFEDFFFBD700EE2BF0140EA1
:1040B000E80403E3E5CFEDFFFBD7E5CFFAFFE5CF5B
:1040C000F4FFE5CFF3FFE5CFF5FFE5CFF7FFE5CF51
:1040D000F6FFE5CFEAFFE5CFE9FFE5CFDAFF110014
:1040E000CF0E9414946E82681200D9CFE6FFE1CF10
:1040F000D9FF040EE126DE6ADD6A020EDB6A030EDA
:10410000DB6ADE6ADD6ADECF00F0DDCF01F0D89039
:10411000015004E6020E005C000E015875E2300EFC
:104120008210826EDECFE9FFDDCFEAFF6C0EE9265A
:104130000F0EEA22EF1C8214826E0F0E8210826E26
:10414000020EDB6A030EDB6A020EDBCF00F0030E09
:10415000DBCF01F0D890015004E6030E005C000EA6
:1041600001584CE2020EDBCFE9FF030EDBCFEAFF82
:10417000700EE9260F0EEA22EF5082141DE1DECF09
:1041800000F0DDCF01F0030E0102F3CF01F00002D9
:10419000F4500126020EDB50F324E96E030EDB50CF
:1041A0000120EA6ED890E936EA36740EE9260F0E41
:1041B000EA22010EEE6E1BD0DECF00F0DDCF01F063
:1041C000030E0102F3CF01F00002F4500126020EAB
:1041D000DB50F324E96E030EDB500120EA6ED89029
:1041E000E936EA36740EE9260F0EEA22EE6AED6A27
:1041F000020EDB2A030EA8E3DB2AA6D7DF2A010E74
:1042000001E281D7DB2A7FD7040EE15C02E2E16A9A
:10421000E552E16EE552E7CFD9FF1200D9CFE6FFB4
:10422000E1CFD9FFFD0EDBCF00F0FE0EDBCF01F0BA
:10423000000E005C000E01580BE3FD0EDBCF02F018
:10424000FE0EDBCF03F0060E025C000E035803E304
:10425000F36AF46A18D0FD0EDBCFE9FFFE0EDBCF68
:10426000EAFF010ED890E936EA36E806FBE1740E63
:10427000E9260F0EEA22EECF00F0EFCF01F000C0EA
:0E428000F3FF01C0F4FFE552E7CFD9FF1200B3
:02428E00186AAC
:1042900026AE50EF21F0256C261EE86A2622181E55
:1042A00021AE58EF21F0206C211EE86A2122181E51
:1042B0005EEC25F021BE68EF21F018AE000C206CFA
:1042C000211EE86A21221C6C1D1EE86A1D22000CBA
:1042D00018BE5FEF21F01988FF0C186A26AE78EF40
:1042E00021F0246C251E261EE86A25222622181E8F
:1042F00021AE82EF21F01F6C201E211EE86A2022D1
:104300002122181E26EC25F021BE95EF21F018AED3
:10431000000C1F6C201E211EE86A202221221B6C2B
:104320001C1E1D1E1C221D22000C18BE89EF21F030
:104330001988FF0C186AE86A26AEA7EF21F0236CF3
:10434000241E251E261E242225222622181E21AECA
:10435000B2EF21F01E6C1F1E201E211E1F222022E4
:104360002122181E02EC25F021BEC9EF21F018AE63
:10437000000C1E6C1F1E201E211EE86A1F22202218
:1043800021221A6C1B1E1C1E1D1E1B221C221D22FC
:10439000000C18BEB9EF21F01988FF0C20C02AF0DC
:1043A00020502502F4CF1FF0F3CF1EF0215026023B
:1043B000F4CF21F0F3CF20F02502F3501F26F45064
:1043C0002022E86A21222A502602F3501F26F450A8
:0843D0002022E86A2122000C02
:0843D80053454E534F52204C97
:1043E0004953543A20004F766572207468726573A1
:1043F000686F6C642121210D0053454E534F5220AC
:10440000414C4552542121210D00206D332F68204D
:104410000D0A00206D672F6C20464C4F573D200041
:10442000206D672F6C204E4F333D20002043204EDF
:1044300048343D2000206D672F6C20544D503D20A6
:1044400000206D672F6C204353423D2000207048B0
:104450002053533D200070483D2000464C4F5700EC
:104460004E4F33004E48340054454D5000434F44A6
:104470000053530070480053454E534F5220414C57
:104480004552540053454E534F52205345545449BE
:104490004E470053454E534F522056414C55450010
:1044A000464C4F573A20004E4F333A20004E483486
:1044B0003A200054454D503A2000434F443A2000E2
:1044C00053533A200070483A20004F7665722074AA
:0B44D00068726573686F6C6421210046
:0144DB0020C0
:0444DC00030E0001CA
:1044E000FE1901E1FF5159E0020EFE1901E1FF51F1
:1044F00036E0010EFE1901E1FF5109E0FE5101E134
:10450000FF5101E01200010EFE6FFF6B120059EC2B
:1045100023F0020EE66EE66A9FEC24F0E552E552C7
:1045200061EC17F0050EE66EE66A61EC1BF0E552F1
:10453000E552F4CF01F0010EF31806E1015004E159
:10454000020E0001FE6FFF6B0201010E001906E171
:10455000015131E1030E0001FE6FFF6B120059ECB7
:1045600023F0030EE66EE66A9FEC24F0E552E55276
:10457000CDEC1DF0050EE66EE66A61EC1BF0E5522F
:10458000E552F4CF01F0010EF31806E1015013E1FA
:10459000010E0001FE6FFF6B12005EEC23F0E8ECF1
:1045A00022F0E3EC1CF002010051011104E1010EC4
:1045B0000001FE6FFF6B12000001020EFE1905E103
:1045C000FF5103E1010EF36E01D0F36AF46A1200A9
:1045D000020E0201621901E1635146E0010E621907
:1045E00001E163511AE0625101E1635101E01200FF
:1045F000E66A53EC25F0E552010E0201626F636B2F
:1046000064C2E6FF65C2E6FFE66EE66AE0EC1EF015
:10461000E552E552E552E5521200320EE66E53ECD9
:1046200025F0E552010EE66EE66A3CEC1FF0E5521D
:10463000E552F3CF00F0F4CF01F0010EF31813E1CF
:10464000015036E1020E0201626F636B64C2E6FF45
:1046500065C2E6FF010EE66EE66AE0EC1EF0E5528A
:10466000E552E552E5521200E66A53EC25F0E552B8
:10467000010EE66EE66A3CEC1FF0E552E552F3CF20
:1046800000F0F4CF01F0010EF31812E1015010E137
:10469000010E0201626F636B64C2E6FF65C2E6FF52
:1046A000E66EE66AE0EC1EF0E552E552E552E552B0
:0C46B0001200E66A53EC25F0E5521200FF
:0446BC00020E0201E7
:1046C0005E1901E15F5140E0010E5E1901E15F51A9
:1046D00018E05E5101E15F5101E012005ED8020E68
:1046E00002015E6F5F6B60C2E6FF61C2E6FF030E10
:1046F000E66EE66AE0EC1EF0E552E552E552E55260
:1047000012004BD8030EE66EE66A3CEC1FF0E55251
:10471000E552F3CF00F0F4CF01F0010EF31813E1EE
:1047200001503AE1020E02015E6F5F6B60C2E6FF6C
:1047300061C2E6FF030EE66EE66AE0EC1EF0E552AB
:10474000E552E552E5521200010EE66EE66A9FEC74
:1047500024F0E552E552030EE66EE66A3CEC1FF0EB
:10476000E552E552F3CF00F0F4CF01F0010EF3185B
:1047700013E1015011E1010E02015E6F5F6B60C237
:10478000E6FF61C2E6FF030EE66EE66AE0EC1EF0AD
:0E479000E552E552E552E5521200CEEF24F05C
:02479E001E0EED
:1047A000F66E000EF76E000EF86E02010900F5506D
:1047B000516F0900F550526F03E1516701D03DD0B0
:1047C0000900F5504C6F0900F5504D6F0900F55088
:1047D0004E6F09000900F550E96E0900F550EA6EC8
:1047E000090009000900F5504F6F0900F550506F9E
:1047F00009000900F6CF53F2F7CF54F2F8CF55F283
:104800004CC2F6FF4DC2F7FF4EC2F8FF02014F53F4
:1048100002E1505307E00900F550EE6E4F07F8E251
:104820005007F9D753C2F6FF54C2F7FF55C2F8FF3D
:0C48300002015107000E525BBFD71200BE
:04483C000F0E926E5B
:104840000B0EC16E040EC06E1200D9CFE6FFE1CF91
:10485000D9FF020EE126FE0EDB50040DF350C26EAE
:10486000C280C282C2B2FED7C450DE6EDD6ADECF25
:1048700002F0DDCF03F0D89002360336D89002362E
:104880000336060EC3CFE7FF070B04E0E742E79EBF
:10489000E806FCE1E7500224006E000E032000C091
:1048A000DEFFDD6EDECF00F0DDCF01F000C0F3FFF4
:1048B00001C0F4FF020EE15C02E2E16AE552E16E42
:0848C000E552E7CFD9FF120019
:0848C8001E502302F3CF1AF089
:1048D000F4CF1BF02402F3501B26000EF4201C6EB4
:1048E0001E502502F3501C26000EF4201D6E1E5093
:1048F0002602F3501D261F502302F3501B26F450AE
:104900001C22000E1D221F502402F3501C26F450BE
:104910001D221F502502F3501D2620502302F35064
:104920001C26F4501D2220502402F3501D26215035
:084930002302F3501D261200C2
:08493800966A846A1200D9CFCF
:10494000E6FFE1CFD9FFE150FD0FE96EFF0EDA205F
:10495000EA6E020EEE1804E1ED5002E11FD88480E9
:10496000D950FD0FE96EFF0EDA20EA6E010EEE1847
:1049700004E1ED5002E112D88482D950FD0FE96EB6
:10498000FF0EDA20EA6E030EEE1804E1ED5002E1AC
:1049900005D88484E552E7CFD9FF1200846A12005B
:1049A00017D805D86EEC22F0E5EC0DF0FBD770ECD3
:1049B00020F0B3EC01F01DEC11F01EEC24F043EC00
:1049C00025F09CEC24F0E66A53EC25F0E552120049
:1049D0000A0E0201446F456B88EC1FF048EF19F096
:1049E00070EC1EF075EC20F05DEC08F005EC0BF0BF
:1049F000A0EC0BF03CEC0CF0D8EC0CF024EC14F038
:044A0000F2EF19F0C8
:0C4A04001D6A1C6A1B6A1A6A200EE76E0D
:104A1000D8901E361F36203621361A361B361C36E5
:104A20001D3623501A5C24501B5825501C58265004
:104A30001D5809E323501A5E24501B5A25501C5A56
:0C4A400026501D5A1E2AE72EE4D7120053
:044A4C001D6A1C6A59
:104A50001B6A180EE76ED8901F36203621361B369B
:104A60001C361D3624501B5C25501C5826501D58E2
:104A700007E324501B5E25501C5A26501D5A1F2A3E
:064A8000E72EEAD7120048
:0A4A8600CA94CA90CA82CB68BD989A
:104A9000BD9ABE6ABD9CBD9EBD90BD92BD84BD86C3
:104AA0009494CA841200D9CFE6FFE1CFD9FFFE0E5D
:0C4AB000DB50BE6EE552E7CFD9FF1200CC
:044ABC001D6A1C6AE9
:104AC000100EE76ED890203621361C361D36255044
:104AD0001C5C26501D5805E325501C5E26501D5AAF
:084AE000202AE72EF0D7120096
:084AE800800EF36E00EE00F0F9
:104AF0000F0E01D81200EA6002D0EE6AFCD7F35024
:084B0000E9601200EE6AFCD727
:084B08001EEE00F02EEE00F09D
:104B1000F86A199CCFEC23F003EC00F0D0EC24F001
:044B2000FBD71200AD
:0C4B240000000000000000000000000085
:044B30000000000081
:0C4B340000008403000028230000282358
:104B4000000094110000A00F000028230000007D49
:024B5000000063
:0E4B52000000FF030000000000000000000053
:104B60000000000000000000000000000000000045
:104B70000000000000000000000000000000E8034A
:104B800010271027881388131027A08C900100008D
:104B90000000C409E803D0070000E80390011027D3
:104BA0000000102700008813C4098813E8031027A9
:064BB000D007A08C0000FC
:0A4BB60000000000000000000000F5
:024BC0000000F3
:0E4BC200202020202020202020202020202025
:104BD00020202020202020202020202020202020D5
:064BE0002020010000008E
:0A4BE600102080000102080000000A
:0A4BF00000000000000000000000BB
:064BFA00000000000000B5
:104C000000000000000000000000000000000000A4
:044C100000000000A0
:0C4C1400C544C044BA44B344AD44A744B6
:104C2000A04404000400050006000500050006007D
:104C30000000010002000300040005000600934488
:104C400084447744744471446D44684464446044CB
:024C50005B44C3
:044C5200000000005E
:0A4C56000000CA440200020003003F
:084C600004000300030004003E
:024C680000004A
:024C6A00000048
:044C6C000000F4014F
:044C7000000032000E
:0C4C740000000000000000000000000034
:104C80000000000000000000000000000000000024
:104C90000000000000000000000000000000000014
:104CA0000000000000000000000000000000000004
:0C4CB000C800C800C800C800C800C80048
:020000040030CA
:0100010002FC
:0100020003FA
:010003001EDE
:010005008179
:010006008178
:010008000FE8
:01000900C036
:01000A000FE6
:01000B00E014
:01000C000FE4
:01000D0040B2
:00000001FF
