:020000040000FA
:0600000053EF07F01200AF
:020006001200E6
:060008000EEF05F01200EE
:02000E000000F0
:020010000000EE
:060018009EEF04F012004F
:02001E000300DD
:10002000E00E00008000000018000000D40E000068
:10003000980000000C0000000E000000AE00000060
:0400400004000000B8
:0C004400D59ED59C650E086E130E096E4B
:1000500098C00DF099C00EF0C5EC06F006C09EF0F9
:1000600007C09FF017681868196A98C01AF099C0FD
:100070001BF01C6A1A50175C146E1B501858156E32
:100080001C501958166E0C6A010E0D6E0E6A14C0C3
:1000900007F015C008F016C009F098EC06F003C090
:1000A00014F004C015F005C016F00350D66E1768A2
:1000B0001868196A98C01AF099C01BF01C6A1A5087
:1000C000175C146E1B501858156E1C501958166E7C
:1000D0000C6A010E0D6E0E6A14C007F015C008F010
:1000E00016C009F098EC06F007C014F008C015F02F
:1000F00009C016F00750D76ED59AD586F28AF294C9
:10010000F184D58E120017681868196A9EC01AF01B
:100110009FC01BF01C6A1A50175C146E1B501858B5
:10012000156E1C501958166E0C6A010E0D6E0E6A73
:1001300014C007F015C008F016C009F098EC06F0DE
:100140000350D66E17681868196A9EC01AF09FC0CF
:100150001BF01C6A1A50175C146E1B501858156E51
:100160001C501958166E0C6A010E0D6E0E6A14C0E2
:1001700007F015C008F016C009F098EC06F007C0AB
:1001800014F008C015F009C016F00750D76ED58ED0
:100190001200D59E12001200CD90650E086E130E4F
:1001A000096E9AC00DF09BC00EF0C5EC06F006C0BB
:1001B000A0F007C0A1F017681868196A06C01AF005
:1001C00007C01BF01C6A0650175C146E07501858C5
:1001D000156E1C501958166E0C6A010E0D6E0E6AC3
:1001E00014C007F015C008F016C009F098EC06F02E
:1001F00007C014F008C015F009C016F00750CF6E04
:1002000017681868196AA0C01AF0A1C01BF01C6A10
:100210001A50175C146E1B501858156E1C50195844
:10022000166E0C6A010E0D6E0E6A14C007F015C032
:1002300008F016C009F098EC06F003C014F004C0F2
:1002400015F005C016F00350CE6E9D809E909F90D5
:10025000CD8ECD8CCD98CD9ACD96CD92CD801200FD
:1002600017681868196AA0C01AF0A1C01BF01C6AB0
:100270001A50175C146E1B501858156E1C501958E4
:10028000166E0C6A010E0D6E0E6A14C007F015C0D2
:1002900008F016C009F098EC06F00750CF6E17680A
:1002A0001868196AA0C01AF0A1C01BF01C6A1A5085
:1002B000175C146E1B501858156E1C501958166E8A
:1002C0000C6A010E0D6E0E6A14C007F015C008F01E
:1002D00016C009F098EC06F003C014F004C015F045
:1002E00005C016F00350CE6ECD801200CD901200E6
:1002F0001200B190650E086E130E096E9CC00DF0D1
:100300009DC00EF0C5EC06F006C0A2F007C0A3F039
:1003100017681868196A06C01AF007C01BF01C6A33
:100320000650175C146E07501858156E1C5019585B
:10033000166E0C6A010E0D6E0E6A14C007F015C021
:1003400008F016C009F098EC06F007C014F008C0D9
:1003500015F009C016F00750B36E17681868196ACF
:10036000A2C01AF0A3C01BF01C6A1A50175C146ECE
:100370001B501858156E1C501958166E0C6A010E39
:100380000D6E0E6A14C007F015C008F016C009F013
:1003900098EC06F003C014F004C015F005C016F088
:1003A0000350B26EA082A192A292B18EB198B19A7E
:1003B000B192B180120017681868196AA2C01AF0C9
:1003C000A3C01BF01C6A1A50175C146E1B501858FF
:1003D000156E1C501958166E0C6A010E0D6E0E6AC1
:1003E00014C007F015C008F016C009F098EC06F02C
:1003F0000350B26E17681868196AA2C01AF0A3C039
:100400001BF01C6A1A50175C146E1B501858156E9E
:100410001C501958166E0C6A010E0D6E0E6A14C02F
:1004200007F015C008F016C009F098EC06F007C0F8
:1004300014F008C015F009C016F00750B36EB18073
:060440001200B190120051
:0A044600D9CFE6FFE1CFD9FF040E85
:10045000E126DE6ADD6A020EDB6A030EDB6ADE6A13
:10046000DD6ADECF14F0DDCF15F0166A176A15AE1F
:1004700002D016681768D950FB0FE96EFF0EDA201C
:10048000EA6EEE50145CEE501558EE501658EE50D1
:1004900017581DE2020EDB6A030EDB6A020EDBCF89
:1004A00014F0030EDBCF15F0D890155004E6A00E23
:1004B000145C000E155806E2020EDB2A030EEEE372
:1004C000DB2AECD7DF2A010ECCE3DB2ACAD7040EE5
:1004D000E15C02E2E16AE552E16EE552E7CFD9FF65
:1004E0001200D9CFE6FFE1CFD9FFFE0EDB50F00BB3
:1004F000146E0F0E81141410816E81848186010E9A
:10050000E66EE66AE66AE66A9EDFE552E552E55285
:10051000E5528196010EE66EE66AE66AE66A93DFC8
:10052000E552E552E552E552FE0EDB38F00B146E53
:100530000F0E81141410816E8186010EE66EE66A3C
:10054000E66AE66A80DFE552E552E552E5528196B9
:100550008194030EE66EE66AE66AE66A74DFE552A7
:10056000E552E552E552E552E7CFD9FF1200D9CF67
:10057000E6FFE1CFD9FFFD0EDBCFF6FFFE0EDBCFAE
:10058000F7FF0800F55011E0FD0EDBCFF6FFFE0E81
:10059000DBCFF7FF0800F550E66EA3DFE552FD0E56
:1005A000DB2AFE0EE8E3DB2AE6D7E552E7CFD9FFE8
:1005B0001200D9CFE6FFE1CFD9FFFE0EDB50F00BE2
:1005C000146E0F0E81141410816E81948186010EB9
:1005D000E66EE66AE66AE66A36DFE552E552E5521D
:1005E000E5528196010EE66EE66AE66AE66A2BDF60
:1005F000E552E552E552E552FE0EDB38F00B146E83
:100600000F0E81141410816E8186010EE66EE66A6B
:10061000E66AE66A18DFE552E552E552E552819650
:10062000030EE66EE66AE66AE66A0DDFE552E5521B
:10063000E552E552E552E7CFD9FF1200936A816A8D
:10064000190EE66EE66AE66AE66AFDDEE552E552F6
:10065000E552E552020EE66EACDFE552280EE66E7C
:10066000A8DFE552010EE66EA4DFE5520C0EE66E41
:10067000A0DFE552060EE66E9CDFE5521200D9CFF0
:10068000E6FFE1CFD9FFE652DF6AFE0EDBCF14F0C2
:10069000010EE76E1418E8AE02D0143403D0E75010
:1006A000D880145405E3FD0EDB500F0B800904D0F5
:1006B000FD0EDB500F0BC009DF6EDFCFE6FF79DFE9
:1006C000E552FB0EDBCFE6FFFC0EDBCFE6FF4FDF94
:1006D000E552E552E552E552E7CFD9FF1200010E8F
:1006E000E66E67DFE552030EE66EE66AE66AE66AE4
:0C06F000AADEE552E552E552E552120088
:0406FC00D9CFE6FF6D
:10070000E1CFD9FF020EE126DE6ADD6ADE6ADD6A2C
:10071000DECF14F0DDCF15F0D890155004E6010EB1
:10072000145C000E155850E2DECFE9FFDDCFEAFF82
:10073000D890E936EA36B00EE926000EEA22000E1D
:10074000D880EE54000EED543AE2DECFE9FFDDCF63
:10075000EAFFD890E936EA36B00EE926000EEA2222
:10076000EE06000EEF5ADECFE9FFDDCFEAFFD890AC
:10077000E936EA36B00EE926000EEA22000ED880ED
:10078000EE54000EED541BE3DECFE9FFDDCFEAFFB0
:10079000D890E936EA36B00EE926000EEA22EE6A73
:1007A000ED6ADECFE9FFDDCFEAFFD890E936EA3621
:1007B000AE0EE926000EEA22010EEE6EED6ADF2A89
:1007C000010EA6E3DB2AA4D7020EE15C02E2E16A95
:1007D000E552E16EE552E7CFD9FF1200D9CFE6FF2F
:1007E000E1CFD9FFFD0EDBCF14F0FE0EDBCF15F00D
:1007F000000E145C000E15580BE3FD0EDBCF16F057
:10080000FE0EDBCF17F0010E165C000E175802E348
:10081000F36A3BD0FB0EDBCF14F0FC0EDBCF15F000
:100820000A0E0D6E0E6A14C008F015C009F02DEC0A
:1008300007F008C014F009C015F0FD0EDBCFE9FF8A
:10084000FE0EDBCFEAFF010ED890E936EA36E80665
:10085000FBE1B00EE926000EEA2214C0EEFF15C03F
:10086000EDFFFD0EDBCFE9FFFE0EDBCFEAFF010E51
:10087000D890E936EA36E806FBE1AE0EE926000E2E
:10088000EA22EE6AED6A010EF36EF46AE552E7CFF2
:10089000D9FF1200D9CFE6FFE1CFD9FFFD0EDBCFA4
:1008A00014F0FE0EDBCF15F0000E145C000E155890
:1008B0000BE3FD0EDBCF16F0FE0EDBCF17F0010EC3
:1008C000165C000E175802E3F36A2BD0FD0EDBCF47
:1008D000E9FFFE0EDBCFEAFF010ED890E936EA36DB
:1008E000E806FBE1AE0EE926000EEA22010EEE1844
:1008F00017E1ED5015E1FD0EDBCFE9FFFE0EDBCF7A
:10090000EAFF010ED890E936EA36E806FBE1AE0EC2
:10091000E926000EEA22EE6AED6A010EF36E01D0BE
:0C092000F36AF46AE552E7CFD9FF120039
:04092C00F28ED08EE9
:10093000F28C1200F19CF292F2881200D8CFE4FF00
:10094000E0CFE4FFE46EDACFE4FFE2CFDAFFE9CFF5
:10095000E4FFEACFE4FFF6CFE4FFF7CFE4FFF5CF03
:10096000E4FFF3CFE4FFF4CFE4FFFACFE4FF00EEBF
:1009700000F0140EE80403E3EECFE4FFFBD700EE33
:1009800014F0090EE80403E3EECFE4FFFBD7E652D0
:10099000F2A407D0C9EC00F0F29483EC00F0CBECA9
:1009A00000F09EA007D076EC01F09E9030EC01F0B4
:1009B00078EC01F0A1A207D021EC02F0A192DBECCF
:1009C00001F00CEC07F0F2B2F292E55200EE1CF0EE
:1009D000090EE80403E3E5CFEDFFFBD700EE13F0CB
:1009E000140EE80403E3E5CFEDFFFBD7E5CFFAFFF4
:1009F000E5CFF4FFE5CFF3FFE5CFF5FFE5CFF7FF58
:100A0000E5CFF6FFE5CFEAFFE5CFE9FFE5CFDAFF77
:100A1000E550E5CFE0FFE5CFD8FF1000DACFE4FFE7
:100A2000E2CFDAFFE9CFE4FFEACFE4FFF6CFE4FF5D
:100A3000F7CFE4FFF5CFE4FFF3CFE4FFF4CFE4FF1B
:100A4000FACFE4FF00EE00F0140EE80403E3EECF6B
:100A5000E4FFFBD700EE14F0090EE80403E3EECF49
:100A6000E4FFFBD7E652F2A407D0C9EC00F0F29401
:100A700083EC00F0CBEC00F09EA007D076EC01F008
:100A80009E9030EC01F078EC01F0A1A207D021ECAF
:100A900002F0A192DBEC01F00CEC07F0F2B2F29262
:100AA000E55200EE1CF0090EE80403E3E5CFEDFF8C
:100AB000FBD700EE13F0140EE80403E3E5CFEDFFDF
:100AC000FBD7E5CFFAFFE5CFF4FFE5CFF3FFE5CFA6
:100AD000F5FFE5CFF7FFE5CFF6FFE5CFEAFFE5CF7E
:080AE000E9FFE5CFDAFF110088
:080AE800CF0E9414946E826895
:100AF0001200D9CFE6FFE1CFD9FF040EE126DE6A6E
:100B0000DD6A020EDB6A030EDB6ADE6ADD6ADECFB7
:100B100014F0DDCF15F0D890155004E6020E145CE9
:100B2000000E155873E2300E8210826EDECFE9FFA0
:100B3000DDCFEAFF800EE926000EEA22EF1C8214C8
:100B4000826E0F0E8210826E020EDB6A030EDB6A6B
:100B5000020EDBCF14F0030EDBCF15F0D89015504A
:100B600004E6040E145C000E15584AE2020EDBCFB8
:100B7000E9FF030EDBCFEAFF840EE926000EEA222E
:100B8000EF5082141CE1DECF14F0DDCF15F0D890C9
:100B900014361536D89014361536020EDB50142450
:100BA000E96E030EDB501520EA6ED890E936EA367E
:100BB000880EE926000EEA22010EEE6E1AD0DECF74
:100BC00014F0DDCF15F0D89014361536D8901436C1
:100BD0001536020EDB501424E96E030EDB5015208F
:100BE000EA6ED890E936EA36880EE926000EEA2247
:100BF000EE6AED6A020EDB2A030EAAE3DB2AA8D70F
:100C0000DF2A010E01E283D7DB2A81D7040EE15CE3
:100C100002E2E16AE552E16EE552E7CFD9FF120048
:100C2000D9CFE6FFE1CFD9FFFD0EDBCF14F0FE0EEA
:100C3000DBCF15F0000E145C000E15580BE3FD0E13
:100C4000DBCF16F0FE0EDBCF17F0080E165C000EA1
:100C5000175803E3F36AF46A18D0FD0EDBCFE9FFFF
:100C6000FE0EDBCFEAFF010ED890E936EA36E80641
:100C7000FBE1880EE926000EEA22EECF14F0EFCF5A
:100C800015F014C0F3FF15C0F4FFE552E7CFD9FF0C
:020C9000120050
:0E0C92001E0EF66E000EF76E000EF86E0001DC
:100CA0000900F550A96F0900F550AA6F03E1A96783
:100CB00001D03DD00900F550A46F0900F550A56F93
:100CC0000900F550A66F09000900F550E96E09000A
:100CD000F550EA6E090009000900F550A76F0900F8
:100CE000F550A86F09000900F6CFABF0F7CFACF0D4
:100CF000F8CFADF0A4C0F6FFA5C0F7FFA6C0F8FF7F
:100D00000001A75302E1A85307E00900F550EE6E79
:100D1000A707F8E2A807F9D7ABC0F6FFACC0F7FF0A
:100D2000ADC0F8FF0001A907000EAA5BBFD71200F3
:100D3000006A0EAEA3EF06F00C6C0D1E0E1EE86AE4
:100D40000D220E22001E09AEADEF06F0076C081E44
:100D5000091EE86A08220922001E10EC07F009BEED
:100D6000C0EF06F000AE000C076C081E091EE86A12
:100D700008220922036C041E051E04220522000C11
:100D800000BEB4EF06F00188FF0C08C012F0085056
:100D90000D02F4CF07F0F3CF06F009500E02F4CFA6
:100DA00009F0F3CF08F00D02F3500726F4500822A3
:100DB000E86A092212500E02F3500726F450082266
:060DC000E86A0922000CA4
:0A0DC60020D81BD8CE0EE66E0E0EEC
:100DD000E66EE66A010EE66E3FEC03F0E552E55280
:100DE000E552E552C20EE66E0E0EE66EE66A020EA1
:100DF000E66E3FEC03F0E552E552E552E552FFD7CF
:100E000074EC05F01EEF03F00A0E00019C6F9D6B61
:100E100096EC04F079EF01F07EEC03F079EF05F049
:100E2000056A046A036A180EE76ED890073608361A
:100E300009360336043605360C50035C0D50045851
:100E40000E50055807E30C50035E0D50045A0E5027
:0A0E5000055A072AE72EEAD7120020
:060E5A00056A046A100E97
:100E6000E76ED89008360936043605360D50045C16
:100E70000E50055805E30D50045E0E50055A082A21
:060E8000E72EF0D712007E
:0A0E8600800EF36E00EE00F00F0E78
:100E900001D81200EA6002D0EE6AFCD7F350E96094
:060EA0001200EE6AFCD70F
:0A0EA6001EEE00F02EEE00F0F86AD8
:100EB000019C49EC06F003EC00F0E3EC06F0FBD7F4
:020EC00012001E
:0E0EC200566F20447563204D696E68004865C8
:040ED0006C6C6F00D7
:0C0ED40000000000000000000000000012
:100EE0001020408001020408000000000000000003
:080EF0000000000000000000FA
:020000040030CA
:0100010002FC
:0100020003FA
:010003001EDE
:010005008179
:010006008178
:010008000FE8
:01000900C036
:01000A000FE6
:01000B00E014
:01000C000FE4
:01000D0040B2
:00000001FF
